:020000040800F2
:10000000D02C0020AD780008F5760008F7760008BF
:10001000F9760008FB760008FD7600080000000075
:10002000000000000000000000000000FF76000853
:10003000017700080000000003770008057700083A
:10004000D9780008DD780008E1780008E578000834
:10005000E9780008ED780008F1780008F5780008E4
:10006000F9780008FD780008017900080579000892
:10007000097900080D790008117900081579000840
:10008000197900081D7900082179000825790008F0
:10009000297900082D7900083179000835790008A0
:1000A000397900083D790008417900084579000850
:1000B000497900084D790008077700085179000850
:1000C00055790008597900085D79000861790008C0
:1000D000657900080D770008137700081977000884
:1000E000697900086D790008717900087579000850
:1000F000797900087D790008817900088579000800
:10010000897900088D7900089179000895790008AF
:10011000997900089D790008A1790008A57900085F
:10012000A9790008AD790008B1790008B57900080F
:10013000B9790008BD790008C1790008C5790008BF
:10014000C9790008CD790008D1790008D57900086F
:10015000D9790008DD790008E1790008E57900081F
:10016000E9790008ED790008F1790008F5790008CF
:10017000F9790008FD790008017A00080000000004
:10018000057A0008097A00084178007807E0C1780C
:10019000827842EA01224178007841EA022140EA6D
:1001A000012070470170090A417070470170090A07
:1001B0004170090A8170090AC17070472AB111F8AB
:1001C000013B00F8013B521EF9D17047521E00F866
:1001D000011BFBD1704700E0401C0278002A18BFC9
:1001E0008A42F9D110467047F0B502460023002438
:1001F000824D05EB0416306880B11768B84202BF23
:1002000070689768B84202BFB0685669B04206D1BC
:10021000022C0AD193B9022905D10FE00123641CF5
:10022000022CE6D3F4E71220F0BD29B905EB041047
:100230008289B2F5807F01D11020F0BD0020F0BD91
:10024000F0B50246946815686C4E002318013758C3
:10025000AF4202BF371D3F58A74201BF06F1080752
:1002600038585769B84202D05B1C012BEED9022BDB
:1002700011D13068002300281EBF012330690028F7
:100280000ED1180137183D607C6006F108045269F0
:1002900022500020B88106EB0312908929B108B1E1
:1002A0000020F0BD4FF4807000E0401C9081581C8D
:1002B000F0BD10B5401E022813D200014F490A18A4
:1002C0009389B3F5807F01D01C0002D10023938174
:1002D00003E05B1E93819BB20BB900220A50002001
:1002E00010BD022010BD30B50021444A00250B018D
:1002F000D458844208BFD550491C0129F7D930BDD4
:10030000F8B505460024E878A0B16E6B00F014F84B
:1003100008B101240EE0E870A96A286A711A8142C6
:1003200008D2AF7804E0286A861900F005F87F1E2D
:10033000012FF8D82046F2BD68780123324605F136
:10034000380101F019BC70B504460D46606B0026FB
:10035000854210D02046FFF7D3FF06000BD160780E
:1003600001232A4604F1380101F000FC10B14FF0DE
:10037000FF3501266563304670BD38B50446FFF78A
:10038000BFFF050037D12078032804BF207901285A
:100390002AD1A289002104F13800FFF717FF4AF69D
:1003A000552104F23620FFF7FDFE154904F138000F
:1003B000FFF7FCFE134904F50770FFF7F7FEA1698C
:1003C00004F50870FFF7F2FE616904F50970FFF7A4
:1003D000EDFE626A6078521C6263012304F1380109
:1003E00001F0CAFB0020207100226078002101F09A
:1003F000D1FB00B10125284632BD0000882800202D
:100400005252614172724161C269891E921E9142CB
:1004100001D3002070474289006B02FB01010846AE
:1004200070472DE9F0410C460568022C4DD3E86970
:1004300084424AD2297801294FF0FF3604D044D3B0
:10044000032936D02AD340E0A889A96A04EB5408CE
:1004500000F0CDF8002839D1A88908F10107B8FBD0
:10046000F0F100FB118805F13802A96A12F8088042
:10047000B7FBF0F000F0BDF8002827D1A889B7FB42
:10048000F0F100FB117705F13800C25D48EA022661
:10049000E00754BFC6F30B06360917E000F0B4F8C6
:1004A000A0B9A889640000F014F8FFF76DFE0646B5
:1004B0000CE000F0A1F848B9A889A40000F009F800
:1004C000FFF765FE20F0704600E001263046BDE8EB
:1004D000F081B4FBF0F100FB114405F13800204439
:1004E00070472DE9F8430C460227022C05461646B4
:1004F0007AD3E869844277D22978012904D073D36A
:10050000032950D03CD36FE0A889A96A04EB5409B1
:10051000B9FBF0F000F06DF80028074664D1A88917
:1005200009F10108B9FBF0F100FB119905F1380060
:100530004844E20743BF017801F00F0141EA061188
:10054000314601700120E870A889A96A00F04FF8CF
:100550000028074648D1A889B8FBF0F100FB1188B4
:1005600005F13800E207404448BF360906D4017857
:10057000360A01F0F00106F00F060E43067031E076
:1005800000F042F8074678BBA8896400B4FBF0F29B
:1005900000FB124405F13800B1B22044FFF702FE1F
:1005A0000121E97020E000F027F80746E0B9A889AA
:1005B000A400B4FBF0F100FB114005F13802104437
:1005C000FFF7E5FDAA8926F0704600F0704040EA8A
:1005D0000601B4FBF2F002FB104405F138021019D9
:1005E000FFF7E4FD0120E8703846BDE8F283B8FB70
:1005F000F0F041182846A6E6AA89A96A9208B4FB39
:10060000F2F0411828469EE6AA89A96A5208B4FB6E
:10061000F2F04118284696E6F8B505460F462E68D2
:10062000012F114629D9F069874226D229B14FF00E
:10063000FF3200F078F801001ED139462846FFF756
:10064000F0FE040017D0012C17D014F1010F16D0C2
:10065000002200F067F801000ED1F069B169821E36
:10066000914205D2491CB161317941F001013171EA
:1006700027468742E1D30020F2BD0220F2BD0120CF
:10068000F2BD2DE9F04180460C00D8F8006006D19B
:10069000756915B1F06985420ED301250CE0FFF7AD
:1006A000C0FE012898BF01203AD910F1010F37D0C0
:1006B000F169884234D325462F46F0697F1C874272
:1006C00002D30227012D0BD939464046FFF7A9FE78
:1006D00040B1012818BF10F1010F21D0AF42ECD179
:1006E00000201DE04FF0FF3200F01CF890B924B15B
:1006F0003A46214600F017F860B97761F169B069B0
:10070000891E814224BF401EB061307940F0010053
:10071000307104E001280CBF4FF0FF370127384645
:10072000BDE8F08139463046DBE610B50368C06AA3
:100730009C89021D5889B1FBF4F1B1FBF0F003E094
:10074000884206D3401A083211680029F8D10020E7
:1007500010BD5168081810BD2DE9F04105460E4640
:100760002F68B6F5001F2ED216F01F0F2BD1AC68E4
:100770006E6154B93878032801DBFC6A2CB93989D9
:10078000700988421FD2F86A19E07989B88900FB9C
:1007900001F806E0022C16D3F869844213D2A6EBC6
:1007A00008064645214608D32846FFF73AFE044688
:1007B00014F1010FEED1012013E000F08BF8E86195
:1007C000AC61E86908B902200BE0B989B6FBF1F227
:1007D0001018E86101FB1266B81900F138012962AE
:1007E0000020BDE8F0812DE9F04106460C46756910
:1007F0003768F169203531B3B5F5001F23D2B889C8
:10080000B5FBF0F200FB1250002855D1491CF161F4
:10081000B16921B93989680988424DD311E07889D5
:10082000401E024248D13046FFF7FBFD8046B8F13A
:10083000010F16D918F1010F34D0F869804536D36D
:100840001CB90020F061042041E0B1693046FFF797
:1008500018FF5FEA000808BF072038D0B8F1010F81
:1008600001D1022033E018F1010F1BD03846FFF709
:1008700047FDB8B9BA89002107F13800FFF7A6FC97
:1008800000F027F8002402E0786B641C401C7863B9
:100890007889844208D20121F9703846FFF730FD8B
:1008A0000028F1D0012012E0786B041B7C63C6F8AD
:1008B000188000F00EF8F0617561B889B5FBF0F1B1
:1008C00000FB115507F13800401930620020BDE8E7
:1008D000F0814146384697E570B504460D4605F16E
:1008E0001A00FFF751FC21780329064605D105F1CE
:1008F0001400FFF749FC46EA0046304670BD70B56B
:1009000004460D461646B1B205F11A00FFF74AFC3F
:100910002178032905D1310C05F11400BDE87040A0
:1009200040E470BD024600200B210306C00100EB2D
:10093000536012F8013BC018491EF6D1C0B270478F
:100940002DE9FE4F0446002122680192FFF704FFC3
:100950005FEA00080BD1FF2000904FF0FF31FF2528
:100960002163E1690198FFF7EEFC5FEA000879D1A5
:10097000266A307800284CD0F17A01F03F01E52852
:10098000A17165D00A0747D50F2961D194F82F10BE
:100990004A0661D4410606D5727B009200F0BF0082
:1009A000616921630546E9B2884202BF0098717B04
:1009B00088426DD10198D0F8108006F11A00FFF737
:1009C000E3FB002864D137780FF23831029107F049
:1009D0003F077F1E0D2047434FF0010B4FF00009EA
:1009E000029810F809107018FFF7CEFBBBF1000F4A
:1009F000824638D0FF2F4BD201F0FCF8834638F8FE
:100A0000170001F0F7F87F1C834508BFD3462ED0AE
:100A10003EE04FF0040825E00F29B7D0EDB22DB924
:100A2000009D3046FFF77EFF85421BD094F82F00D3
:100A3000C1070DD4226A04F124030B2112F8015BD3
:100A400013F8010B281A491E01D00028F6D048B12E
:100A50004FF0FF30FF25206300F05CF95FEA0008EB
:100A60003FF47FAF16E04FF6FF70824510D109F1D9
:100A70000109B9F10D0FB3D33078410606D5BBF1AA
:100A8000000F1CBF38F81700002801D16D1EE3E7E6
:100A9000FF25E1E74046BDE8FE8F00002DE9F04F5D
:100AA000044687B094F82F00D4F8009010F0A00FFF
:100AB00018BF062040F02581D9F810104FF0000A29
:100AC00001E00AF1010A31F81A000028F9D10C22DC
:100AD00004F1240102A8FFF771FB02ADE87AC10717
:100AE00060D5402084F82F000126D9F810800B2211
:100AF00002A904F12400FFF761FBB346BBF1060F26
:100B000015D310E038F8021B102001F0010303EBAD
:100B10004B0B49085FEACB3244BF8BF4883282F03A
:100B2000210B401EF1D1B8F800000028EAD10721BE
:100B3000584600F00F023032D3B23A2BA8BFD21D74
:100B40000DF80120491E0009F3D17E200DF80100A7
:100B500004F12402002000E0401C884202D2135C11
:100B6000202BF9D10246501C072904F124079ABF13
:100B70001DF80130491C2023BB540728F2D9204618
:100B8000FFF7DEFE804610B9761C642EADD3642ECE
:100B900008BF072000F0B580042840F0B180E87A53
:100BA00084F82F00E87A810706D50AF10C010D20A0
:100BB000B1FBF0F56D1C00E0012526680021204600
:100BC000FFF7CAFD010016D10027E1693046FFF7A3
:100BD000BAFB01000FD1206A0078E5281CBF00286D
:100BE000002702D17F1CAF4208D001212046FFF729
:100BF000FAFD0100E9D0042908BF07215FEA0108D6
:100C000061D16D1E019561D06169A1EB451120464E
:100C1000FFF7A2FD0028804655D104F12400FFF71C
:100C200081FE8DF800004FF6FF75E1694846FFF739
:100C30008AFB0028804646D1276AD9F81000019E19
:100C40009DF80010059079730F20F8720021397318
:100C500007F11A00FFF7A6FAF0B2411E0D2000FBC3
:100C600001F800BF27A106914FF0000A01E0AB4553
:100C700004D0059830F818B008F10108069810F86B
:100C80000A205946B818FFF78DFABBF1000F08BFCC
:100C9000AB460AF1010ABAF10D0FE8D3AB451DBF0F
:100CA000059931F81800002846F040063E700120F2
:100CB00089F8030000F02EF8804620B90198401E04
:100CC0000190B2D102E0B8F1000F19D1E1694846B4
:100CD000FFF739FB804698B9206A20220021FFF7F0
:100CE00075FA206A0B2204F12401FFF767FA94F8E1
:100CF0002F00216A00F018000873012089F8030012
:100D0000404627E101030507090E10121416181CAE
:100D10001E0000000021204665E500002DE9F14F8E
:100D200086B00368029301E00098411C009100988E
:100D300000782F2818BF5C28F6D00699002088601C
:100D4000069800F1240100980191017820291ED213
:100D5000019A8020D0720021069807B0BDE8F04FBC
:100D6000FFF7FABC49075AD406988179C80640F1C2
:100D7000F08006994869029900F0CAFD029908447A
:100D800000F138010298FFF7A7FD0699886000245A
:100D900006980168009F0E690FF2C0190025785D62
:100DA0006D1C20281DDB2F2818BF5C2814D0FF2CB9
:100DB00034D2012100F0FEFE5FEA00082ED0B8F127
:100DC000800F04DA41464846FFF705FA30BB26F8A3
:100DD0001480641CE3E76D1C795D2F2918BF5C2922
:100DE000F9D0791920280091ACBF4FF0000B4FF0DB
:100DF000040B00E0641EB51E2CB135F81400202849
:100E000018BF2E28F6D0002026F8140034B101981F
:100E10000B222021FFF7DAF9002002E0062099E0FA
:100E2000401C36F81010202918BF2E29F8D008B120
:100E30004BF0030B35F814102E2901D0641EF9D1A4
:100E400004960027DFF8F43603930825A24681466E
:100E5000002600E08B46049830F81940002C09F178
:100E6000010945D0202C4BF00301F3D02E2C01D1E9
:100E7000D145EFD1AF422DD2D1452BD0802C13DB01
:100E80000021204600F096FE4BF0020B30B95F24A3
:100E90004BF0030B0198C4557F1CDCE70399084411
:100EA00010F8804C002CF2D04FEA04012EA0FFF77E
:100EB00092F90028EBD1A4F141001A2838BF46F07E
:100EC0000206E7D3A4F161001A28E3D246F0010636
:100ED000203CDFE70B2D0AD0D14518BF8B46CA4511
:100EE00021BFD14608270B25B600B4D200E08B46BF
:100EF00001990A78E52A02D1019A05211170082D7D
:100F000008BFB60006F00C000C281ABF06F003015B
:100F100003294BF0020B5FEA8B700BD406F0030140
:100F2000012908BF4BF0100B06F00C06042E08BF79
:100F30004BF0080B019880F80BB00698FFF700FD06
:100F40000199C97A02003FF40DAF042802D1490784
:100F500000D4052007B0BDE8F08F0000222A3A3CFB
:100F60003E3F7C7F000000002B2C3B3D5B5D000082
:100F700003464FF0FF301A68002A00D1704710B5C1
:100F8000144600E0641C2178202901D33A29F9D1C4
:100F90003A290CD112F8011B30390A2908D2A24291
:100FA00008BF002904D1611C0020196010BD002079
:100FB00010BD10B5044600224FF0FF33E2706363AA
:100FC000FFF7C1F908B1042010BD04F23620FFF785
:100FD000DBF84AF65521884201D0032010BD04F108
:100FE00038000178E92904D0EB2904BF80789028E3
:100FF00013D104F16E00FFF7CAF820F07F40DFF84C
:101000004015884207D004F18A00FFF7C0F8DFF8E6
:101010003415884201D1002010BD022010BD2DE9F9
:10102000FF410E46002131601446FFF7A1FF070083
:1010300048BF0B2007D4DFF8108508F1040050F8F2
:1010400027500DB90C202AE1356004F0FE04287801
:1010500048B1687800F06EFDC10704D4002C01D0BF
:1010600040070DD41AE1002028706F70687800F0F6
:101070006AFDC10748BF032003D41CB1400701D556
:101080000A200CE1687805F10C02022100F082FDD3
:1010900090BBA889A0F5007140F6016291422BD265
:1010A000411E084228D100212846FFF782FF002771
:1010B00002281FD1002405EB041101F5FB7108790A
:1010C00018B101F10800FFF762F84DF82400641C24
:1010D000042CF0D300265DF8264024B12146284692
:1010E000FFF767FF00E00320012802DD761C042ED5
:1010F000F1D32746042801D10120D0E0012817DCD4
:1011000005F14300FFF740F8A989884210D105F1A5
:101110004E00FFF739F818B905F15C00FFF737F812
:1011200005F145012862CA78AA70012A18BF022A6F
:1011300071D1504306460878688101006BD0421E89
:10114000104268D105F14900FFF71EF8A9892881EE
:10115000490990FBF1F201FB120000285BD105F177
:101160004B00FFF711F8040004D105F15800FFF718
:101170000EF8044605F14600FFF706F800284AD0AD
:10118000AA8929894FEA521E331891FBFEF2D3181F
:101190009C4240D3B5F80AC0E41AB4FBFCF2002A22
:1011A00039D003244FF6F67C624538BF022440F65E
:1011B000F67C624538BF0124921CC019DB19032C50
:1011C000EA616F62A8622B630FD105F16200FEF73E
:1011D000DBFF002804BF288900281CD105F164002A
:1011E000FEF7D5FFE96989000CE0A1B1A86AE969B9
:1011F0003018022C0FBF490001EB410201F0010140
:1012000001EB5201E862A889421E5118B1FBF0F0CF
:10121000296A814201D20D2041E04FF0FF30A861E0
:1012200068618020032C28712BD105F16800FEF73E
:10123000ABFF012825D1791C2846FFF784F800BBB5
:10124000287105F23620FEF79FFF4AF655218842A5
:1012500017D105F13800FEF79AFFBC49884210D13A
:1012600005F50770FEF793FFB949884209D105F5E6
:101270000870FEF78CFFA86105F50970FEF787FF7F
:1012800068612C70B8F80000401CA8F80000E880E5
:1012900008F1080028612846FFF725F8002004B06F
:1012A000BDE8F08170B5044609260D46002C1CBF30
:1012B000216800290DD0087858B1A088CA889042CA
:1012C00007D1487800F036FCC00702D42068002619
:1012D00000E000202860304670BD73B582B015462E
:1012E00000916846FFF744FE002848BF0B201ED43B
:1012F000954901EB8006746824B12046FEF7F3FFA0
:1013000000212170029810B90021716008E0029953
:1013100000200870029A7260029808B1012D01D075
:10132000002004E0002202A903A8FFF778FE04B021
:1013300070BD2DE9F34104008EB008BF092000F014
:10134000FA8002F03F073A4669460FA8FFF767FEAA
:1013500006001DD100980F99019001A8FFF7DEFC4F
:1013600006000DD19DF83300010648BF062607D4BC
:1013700017F0FE0118BF012101A8FEF735FF064650
:1013800017F01C0F00F0B080300000F0A380042E96
:1013900040F0CE806F49086800281EBF0869002809
:1013A000122603D101A8FFF779FB0646300047F06B
:1013B000080735D1380739D500F066FC054609988D
:1013C00029460E30FEF7F2FE099829461630FEF740
:1013D000EDFE09992020C872DDF82480009841466E
:1013E000FFF77AFA0546009800224146FFF787FA90
:1013F000099800211C30FEF7D9FE00990120C87021
:1014000085B10098D0F8348000F0F9FA060007D1D1
:1014100000984146FEF797FF064600986D1E45610D
:10142000300056D1380748BF47F040070098416B5D
:10143000616217F0FE010998A06218BF012101A89E
:10144000FEF7FEFE0028206142D0099D0098294643
:10145000FFF742FAA06005F11C00FEF798FEE0607D
:101460004FF480520020E062009921600098C1880A
:10147000A180002060750021A0612162277504F120
:101480003000FEF7A3FEB80654D5E568002D51D014
:10149000A561009847898089A1684743AF420CD273
:1014A0002046FEF7BEFF014602292BD311F1010FA2
:1014B0002BD0ED1B3000F1D025E0E1610098808950
:1014C000B5FBF0F200FB1250A0B300F09EFA08BB8F
:1014D00002262DE09DF80A0010F0110F10D17807B8
:1014E0007FF568AF082623E0300099D19DF80A0007
:1014F000C10648BF04261BD4B90793D5C00791D5B0
:10150000072615E00226E16112E04FF0FF300126C8
:10151000E0610DE0009A9189B5FBF1F108182062B5
:10152000024600984078012300F0F8F910B1012636
:1015300000202060304610B0BDE8F081FC74000847
:101540004641540046415433F82400205252614130
:1015500072724161882800202DE9FC4715469946A2
:1015600000228A46C9F8002000F09DF8010067D1EA
:10157000787D010064D1387DC10758BF07205FD551
:10158000F868BC69041BAC4237D92C4635E02E18EC
:1015900000988189B4FBF1F8B8F1000F51D040896F
:1015A00008EB0501884238BFA0EB05080098407899
:1015B00043463246514600F0D9FA00286CD1387DB6
:1015C00001060CD5386A861B464508D200998A89DF
:1015D000564307F130010AEB0600FEF7EFFD0098D5
:1015E000858908FB05F5B8692818B861AA44D9F8B7
:1015F00000106918C9F80010641B002C50D000F0CE
:1016000019F934D100984289521E154012D109B9F6
:10161000B86809E0F86A18B13846FFF786F803E0C1
:10162000F9693846FEF7FDFE022807D310F1010FD5
:1016300032D0F86100F0E8F90600A8D102207875F0
:101640002FE03A6AB24211D0387D010605D50098E4
:1016500000F0F9F800BB00F0E8F8012300984078AA
:10166000324607F1300100F081FAA8B93E62009AD3
:10167000B9699289B1FBF2F35343501A1818254601
:10168000844288BF054607F13000C91A01442A4642
:101690005046FEF793FDA6E701217975012000E091
:1016A0000020BDE8F68707466946FBE52DE9FC47C3
:1016B0001446984600228946C8F80020FFF7F3FF39
:1016C000010001D1787D010040F0AD80387D8107B7
:1016D00058BF072040F1A780B869211881423CD249
:1016E0004FF0FF32141A38E005EB000A00988189A8
:1016F000B4FBF1F6002E63D040897119884238BFDF
:10170000461B0098407833465246494600F034FA6A
:10171000002840F08080386AA0EB0A00B0420AD26C
:1017200000998A89504309EB000107F13000FEF768
:1017300045FD00F07AF8009885897543B869F96825
:101740002818B861884238BF0846F860A944D8F81C
:1017500000002818C8F80000641B002C5ED000F0C0
:1017600069F83FD100984289521E154018D111B92D
:10177000B86850B906E0F86A18B13846FEF7D5FFE8
:1017800003E0F9693846FEF77CFF002846D00128BF
:1017900014D010F1010F3ED0B968F86101B9B860FA
:1017A000387D010606D500983A6A00F04CF890BBE7
:1017B00000F03BF800F028F9002895D102202BE03A
:1017C000386A50450CD0B969F868814208D200984F
:1017D00040780123524607F1300100F0C7F9D0B933
:1017E000C7F820A00099BB698989B3FBF1F64E4385
:1017F000C81A30182546844288BF054607F13000D4
:101800009B1B2A4649461844FEF7D8FC387D40F019
:101810008000387592E70120787504E0387D40F04B
:10182000400038750020BDE8F687387D00F07F0065
:10183000387570470098B9698089B1FBF0F500FBF5
:101840001510002870474078012307F1300100F09F
:1018500093B97CB500F066F8010037D1217D4A06C6
:1018600034D5080606D500F032F808B1012076BD5F
:1018700000F049F800F008FA0546616A0098FEF7A2
:1018800062FD010022D1A66AF07A40F02000F072D9
:101890003146A2682068FFF732F8E16806F11C00C3
:1018A000FEF784FC294606F11600FEF77FFC0021B6
:1018B00006F11200FEF776FC00990120C87000982E
:1018C000FEF75BFD217D01F0BF01217576BD00981B
:1018D000226A4078012304F1300100F04DB91CB5B3
:1018E0000446FFF7B6FF01000CD169462046FFF71A
:1018F000D9FC010006D12069FEF7DBFC010004BF22
:101900000021216016BD207D00F07F00207570470A
:101910008989B0FBF1F201FB1200704704F130013C
:1019200000F024B904466946FFF7BCBC2DE9F14F2D
:1019300086B00F4614460022694606A8FFF76FFBE3
:101940000028814658D1009820600099CC698869A8
:10195000A21E824228BF38604ED208460026017877
:10196000012918D102240190214601A8FEF759FD52
:1019700010F1010F09D001280AD000B9761C009897
:10198000C169641C8C42EFD32EE04FF001092BE0BB
:101990004FF0020928E0D0F828800AE0FEF7F7FBB4
:1019A000000108BF5E460AF1040A2D1F641E1BD009
:1019B0005DB900984146FEF7C6FC814608F1010872
:1019C00090B90098858900F1380A009801780229B9
:1019D00006F1010B5046E1D1FEF7D6FB00B95E4699
:1019E0000AF1020AAD1EE1E73E60009886610099A7
:1019F000087940F0010008714846FFF7ABBA0022B1
:101A0000294601A8FEF708BEF9690098FEF7FCBC5C
:101A10002DE9FC4105460F46904600242E46781ECF
:101A2000844211DA01AB012269464046FFF794FD7A
:101A30000198012808D19DF800000D28F2D0641CFF
:101A40000A2806F8010BEAD10020307004B90025FD
:101A50002846BDE8F6817CB50D4604460A2D04BF34
:101A60000D21FFF7F8FF6668002E16D404F10C0074
:101A70008555761C3D2E0CDB20686B46324604F102
:101A80000C01FFF713FE0098B0420CBF00264FF088
:101A9000FF36A0686660401CA06073BD1CB504469C
:101AA0006268002A0DD420686B4604F10C01FFF730
:101AB000FDFD002802BF60680099884201D1A0683E
:101AC00016BD4FF0FF3016BD0160002141608160FE
:101AD000704718B593B004466846FFF7F5FF04E079
:101AE00014F8011B6846FFF7B6FF20780028F7D1ED
:101AF0006846FFF7D3FF14B010BD30B4002513E0E3
:101B000050F8042BD30744BFA9F101039A18091F09
:101B1000042942F8045BFAD213468C0744BF1580AF
:101B20009B1CC90748BF1D7050F8041B0029E7D152
:101B300030BC704701461E4A531802EB81014A68C7
:101B4000187A516808471A4B02460020995C002910
:101B500000D0704710B501249C5403EB82019C18FF
:101B60004A68207A1368BDE81040184770B500F045
:101B700009F8AC68A04770BD70B500F003F8EC68D8
:101B8000A04770BD04460A4D2E1905EB8404656814
:101B9000307A704738B50346054CE51804EB8303EB
:101BA0005C68287A236901B0BDE83040184700001E
:101BB000A8280020802800DA704710B52A4B51B1C0
:101BC000B0F5807F01DB002010BD03EB4000A0F5E5
:101BD0008071088810BD8CB233F81440A04203D045
:101BE000491C8AB2802AF6DB01F1800000F0FF0078
:101BF00010BD000070B5B0F5805F1C4C05DB04F52E
:101C0000FA7402E00AB904EB4504218851B3884212
:101C100028DB65882A0205F0FF05241D120C6E18CA
:101C2000B042EFDA082A1DD8DFE802F005090E10ED
:101C3000121416181A00431A34F8130012E0411A4D
:101C400001F00101401A0DE010380BE0203809E0E6
:101C5000303807E01A3805E0083003E0503801E07A
:101C6000A0F5E35080B270BD54710008546B0008B9
:101C700010B5034C0348211D00F024F8207010BD5E
:101C8000B4280020A42300200020704770B50E4D1A
:101C90006B7A04460120A3B96B7A0020E854687A75
:101CA00005EB80067460687A28440272687A421CE8
:101CB0006A72303008702F223A2048708A700020F3
:101CC000C87070BD0022E1E7A82800202DE9F14F7F
:101CD000B0B0924604910DF142013A9A2B91994687
:101CE0004A7000200AE01AF8011B0498309A9047C5
:101CF0000028049000F0B6860D98401C0D909AF8CC
:101D0000000050B12528EED1002100220791089251
:101D100009910A920B910C9204E00D9800F0A4BE78
:101D200041F001011AF8010F2028F9D023280CD026
:101D30002B2804D02D2805D0302809D00BE041F005
:101D40000201EFE741F00401ECE741F00801E9E7A7
:101D500041F01001E6E72A280FD1D9F8002052F807
:101D6000040BC9F8002000280F9003D540420F90C3
:101D700041F004010AF1010A14E00F92DFF828385B
:101D80000AE00F98984205DA00EB800402EB440267
:101D9000303A0F920AF1010A9AF80020A2F13000BD
:101DA0000A28EED39AF800002E2803D04FF0FF3215
:101DB0000E9229E01AF8010F2A2809D1D9F800005B
:101DC00050F8042BC9F800000E920AF1010A1BE03A
:101DD0002D280CBF0AF1010A002000220E92DFF824
:101DE000C8470BE040B90E9AA24205DA02EB820521
:101DF00003EB4503303B0E930AF1010A9AF80030D9
:101E0000A3F130020A2AEDD3ADF84010DFF89C07A9
:101E1000784400F5F3609AF8001000F03BFF08B139
:101E20001AF8010B8DF842009DF84200682805D190
:101E30009AF8000068280CD1622106E06C2804BFE3
:101E40009AF800006C2804D171218DF842100AF133
:101E5000010A12A806901AF801BBBBF125012CD08B
:101E60001C3900F0D081091F022940F2CC811339BE
:101E700000F02385093900F0C681891E00F0B8857D
:101E8000491E00F06585491E022940F2BC81091FE8
:101E900000F05E85491F00F02881491E00F00D8585
:101EA000491E00F0D080C91E0DD0891E00F00585A6
:101EB000C91E00F0028500F0A6BD25238DF848302C
:101EC000012100F0ABBDD9F8000050F8044BC9F86F
:101ED0000000002C059440F0A3802B99487800283E
:101EE00000F099804FF0FF340FF6843000F0DEFEF2
:101EF000201A40F0B78500F092BD6D1E40F0A98514
:101F00003096079D12AF75B1309E17F8012B02A9CC
:101F1000304600F073FE002801D46D1EF5D1002874
:101F2000309640F09F850A9D3020002D8DF80400EA
:101F30000CDD309E012301AA02A9304600F06EFE9E
:101F4000002840F08F856D1EF4D13096059F089DC6
:101F500075B1309E17F8012B02A9304600F04EFEF5
:101F6000002801D46D1EF5D10028309640F07A8506
:101F70000B9D3020002D8DF804000CDD309E0123D8
:101F800001AA02A9304600F049FE002840F06A8507
:101F90006D1EF4D1309605980899099D471875B1C2
:101FA000309E17F8012B02A9304600F027FE0028CA
:101FB00001D46D1EF5D10028309640F053850C9D5C
:101FC0003020002D8DF804000CDD309E012301AA85
:101FD00002A9304600F022FE002840F043856D1E25
:101FE000F4D130969DF8400041077FF588AE20205F
:101FF000002C8DF804007FF782AE309D012301AAEA
:1020000002A9284600F00AFE002840F02B85641E35
:10201000F4D1309573E60FF66440059000F0FFBCF4
:102020000E9D002D04D5204600F060FE044607E01A
:102030002A46204600F064FE002814BF041B2C46EC
:10204000089400F0ECBCD9F8001051F8040BC9F862
:10205000001020F00004002121F0FF3512ABCDE983
:1020600002450593DDE9022306993C2413B90AB918
:102070000E9898B102F00F053035641EEEB23A2E7C
:10208000A8BF2735120942EA03721B090D5508BF84
:10209000002A03D005980D19A842EBD30819059022
:1020A000C4F13C020E98089282420ADABDF8401050
:1020B000821A4FF6EF7001400A92ADF8401000F01E
:1020C000AEBC002840F1AB849DF8400000F0140045
:1020D000102840F0A4840F9B07990A985B1A1B1ADA
:1020E0009A1A002A40F39B84E5E32B99487820B1A3
:1020F0004FF0FF340FF65430F8E69DF842006228A6
:1021000061D0682817D06A283FD06C2806D0712883
:1021100047D074282CD07A281DD064E0D9F800105C
:1021200051F8040BC9F80010002868D14FF0FF34B3
:102130000FF63030DAE6D9F8001051F8040BC9F880
:10214000001020B94FF0FF340FF61830CEE60D998D
:10215000018000F064BCD9F8001051F8040BC9F8F4
:10216000001000284BD14FF0FF340FF6F820BDE6E9
:10217000D9F8001051F8040BC9F8001000283ED11E
:102180004FF0FF340FF6DC20B0E6D9F8001051F81C
:10219000040BC9F8001080B94FF0FF340FF6C420CB
:1021A000A4E6D9F8001051F8040BC9F8001020B9C2
:1021B0004FF0FF340FF6AC2098E60D9AD317C0E924
:1021C000002300F02CBCD9F8001051F8040BC9F81A
:1021D000001020B94FF0FF340FF6882086E60D99E5
:1021E000017000F01CBCD9F8001051F8040BC9F8BC
:1021F000001020B94FF0FF340FF6682076E60D99F5
:10220000016000F00CBCD9F80020D21D22F00702BA
:10221000C9F80020D2E900010832C9F80020CDE950
:102220000201C80F02D007982D210AE0BDF8400036
:10223000810702D507982B2103E0C00705D5079831
:10224000202112AA1154401C0790DDE902230799AE
:1022500012A8CDE92C2308444BF0200161290590F8
:1022600021AC0BD00E99002902D506210E9105E074
:1022700001BF4BF02001672901220E92DDE9022304
:1022800059004915491C0DD11A030BD0ABF161055A
:1022900003211A2D089102D20FF6E41110E00FF677
:1022A000E4110DE059004915491C0DD11A030BD159
:1022B000ABF1610503211A2D089119D30FF6CC114A
:1022C000032200F049FDAAE3DDE90201CDE92E0178
:1022D000DDE92E2323F00047B7F5801F22F000062A
:1022E0000DD20022002F08BF002E009203D116E06D
:1022F0000FF69411E4E76A4600F03AFD0FE0DFF8CC
:10230000DC08DFF8DC1800EB17500090DDE92E2325
:102310004FF0FF301940DFF8CC7810403943CDE959
:1023200002014BF0200061280DD105983021017089
:10233000821CBBF1610F05920CBF782158214170BE
:102340000798801C0790DDE9020120F0000231F0BF
:10235000004308BF002A02D10026002568E14BF0A7
:102360002008B8F1610F40F0B4800E98002847BFF4
:1023700021210191401C0190019FDDE92C017F1C6E
:1023800000220023DDE9024500F02AFD00998DF8C6
:10239000842038BF85F00045091F002F00910DF102
:1023A000850653DD204629460022002300F030FD3B
:1023B0004CD24800400D00F11C0212D0002A10DD62
:1023C00040F2FF739A4206DBDFF81C1805F000406C
:1023D0000143002011E06FF31E5141EA02512046F3
:1023E0000BE024F0000035F0004108BF00280FBFCB
:1023F00029461C22294600F023FD04460D4600F024
:10240000BDFDFF1F002F804609DD00F0D5FD02460F
:102410000B462046294600F0E1FD04460D46F01D1E
:102420000721B8F1000F0CDD491E5EBF08F00F0256
:1024300000F8012D4FEA2818F3D502E0002200F839
:10244000012D491EFAD5C61D002FABDC0DF185000C
:10245000361A01988642D8BF304600280DF185040F
:1024600030D4B04206DA0DF185010A5C082AA8BF13
:102470000F2100DA0021024621AB134400E0401E88
:1024800013F80159521E8D42F9D00F2904D10DF1D4
:1024900085018B5C5B1C8B54002A04D50099091DB7
:1024A00021AC401C0091411E0CD46218ABF13A06DD
:1024B00013783033DDB23A2DA8BFF318491E02F865
:1024C0000139F5D50E99002940F1B080421E0E92D7
:1024D000ACE00099DFF8142747F29750414391FB95
:1024E000F2F2DDE92C45009225F00045D2F1070219
:1024F00004DD2046294600F04EFB0BE0524200204E
:10250000DFF8EC1600F047FB02460B462046294652
:1025100000F0D6FD0446B8F1660F0E9806BF009F86
:102520000A3706273F18142FC8BF142730200D463E
:102530008DF884000DF18506002F39DD20462946EF
:1025400000F0E2FE01460A4606F1080304200A26CE
:10255000B2FBF6F606EB860EA2EB4E02303203F823
:10256000012C0A22B6FBF2F202EB820EA6EB4E061B
:102570003036401E03F8026DE9D1083F002F03F109
:102580000806D9DD084600F0D3FE02460B46204679
:10259000294600F023FD0022DFF8583600F0D6FE71
:1025A00004460D46CAE700BFCBCCCC0C2453000038
:1025B0000DF18500361A0DF1850404E00098401EE7
:1025C000761E0090641C20783028F7D0B8F1660F92
:1025D00002D10099491C04E0B8F1650F0CBF01213C
:1025E00000210E9808188642B8BF701E00281DD41E
:1025F000B04204DA215C3429C8BF392100DC302123
:102600000246631E9D1800E0401E15F80169521E27
:102610008E42F9D0392902D1A15C491CA154002A6B
:1026200004D50099491C1C46401C00910646009D9B
:1026300000F05EFF406A0778DDF8388030B200288D
:1026400002DC01260FF248644BF02000662808BF28
:102650006D1C16D0672846D128B210F1040F48DB54
:10266000404546DA9DF840006D1C010703D430B2A6
:102670004045B8BF804628B2B8EB000848BF4FF0CD
:1026800000080FFA85FBBBF1000F00F3B580089836
:10269000411C0891302205990A54B8F1000F03DC5F
:1026A0009DF84000010704D50898411C0891059940
:1026B0000F5418EB0B0FB8BFC8F100052DB26842DC
:1026C0000B90A84432B29045B8BF4646059B089887
:1026D00036B2099632462146184400F03DFBA8EB7D
:1026E00006000C90D2E0BBF1610F17D14FF0700BD8
:1026F00019E030B2404504DA9DF840100A0758BF8F
:102700008046B8F1010848BF4FF00008BBF1670FE1
:1027100014BF4FF0450B4FF0650B04E0BBF1410FC8
:1027200008BF4FF0500B0898411C0891B8F1000FFA
:10273000059914F8012B0A5403DC9DF840000107A9
:102740001AD50898411C0891B8F1000F05990F544B
:1027500012DD761E30B280450598089BB8BF46460C
:1027600032B22146184400F0F7FA089936B27118CF
:102770000891A8EB06000B9005980899084429B227
:10278000002980F800B003D42B224270821C04E0A0
:102790002D2242700D46821C6D4200212CAB284632
:1027A0000AE004460A2094FBF0F000EB8005A4EB5D
:1027B000450403F8014B491C00B20028F1DC012953
:1027C00006DC4BF02000652804BF302002F8010B26
:1027D00000292CAB08D1302002F8010B06E0491E7D
:1027E000585C303002F8010B0029F8DC0599089894
:1027F0000844121A099249E030B229B288421CDA20
:102800000598089B32B22146184400F0A5FA0899B1
:1028100036B27118ABEB0606B8F1000F08910B96B3
:1028200003DC9DF84000020704D505984754099938
:10283000491C0991CDF8308028E00598089B2AB200
:102840002146184400F088FA0898761B5844B8F1DD
:10285000000F089003DC9DF840100A0703D5411CC7
:10286000089105990F5430B280450598089BB8BF70
:10287000464632B204EB0B01184400F06DFA08989A
:1028800036B230180890A8EB06000B909DF8400077
:1028900000F01400102840F0C280079A08990B98A5
:1028A0008A18099982180C988A1882180F988242FF
:1028B00080F2B580821A0A92B1E09DF84200622847
:1028C00008D068280ED06A2814D06C281FD0712830
:1028D00010D01CE0D9F8001051F8040BC9F8001012
:1028E000C0B21AE0D9F8001051F8040BC9F8001072
:1028F00080B212E0D9F80020D21D22F00702C9F8F8
:102900000020D2E900010832C9F8002006E0D9F819
:10291000001051F8040BC9F800100021CDE90201A4
:102920009DF8400001075AD5DDE90223002B08BFBE
:10293000002A54D04BF02000782850D1079812A9D3
:1029400030220A54401C431C079301F800B046E0B3
:102950009DF84200622808D068280ED06A2814D05A
:102960006C281FD0712810D01CE0D9F8001051F845
:10297000040BC9F8001040B21AE0D9F8001051F861
:10298000040BC9F8001000B212E0D9F80020D21DE3
:1029900022F00702C9F80020D2E900010832C9F884
:1029A000002006E0D9F8001051F8040BC9F8001017
:1029B000C117CDE90201002902D507982D210AE0AF
:1029C000BDF84000810702D507982B2103E0C0071E
:1029D00005D50798202112AA1154401C079012A86F
:1029E00007990144059102A8594600F04FF816E0F6
:1029F00001200790D9F8000050F8041BC9F8000026
:102A00008DF848100BE025210122BBF1000F8DF855
:102A10004810079203D08DF849B0022107910F9A10
:102A200007980A990C9C121A0898521A0B99121AB4
:102A30000998521A121A9DF84000141B41073FF5DD
:102A400060AA2020002C8DF804007FF75AAA309E3F
:102A50002546012301AA02A9304600F0DFF800282C
:102A60003FF44BAA4FF0FF3031B0BDE8F08F0000CB
:102A70007072696E74665F733A20626164202573B8
:102A800020617267756D656E740000002DE9FC436E
:102A900007466F293E6908BF082405D041F0200091
:102AA000782814BF0A2410243C25D7E90023642980
:102AB00018BF69299046994605D1002B03D5D8F156
:102AC000000869EB4909B9F1000F08BFB8F1000F20
:102AD0000CD1386B50B9082C39D197F83800010760
:102AE00035D530203B2586F83B0030E08DF80010CE
:102AF000404649462246E31700F0FEFC3032D0B291
:102B00006D1E3A28019504DB9DF80000A0F15101EB
:102B10008A187255404649462246E31700F0ECFCFD
:102B200080465FEA010908BFB8F1000F03D0F868DA
:102B300071198842DCD3082C09D197F838000107B5
:102B400005D5705D302802D06D1E30207055C5F15E
:102B50003C02BA617119F960386B824208DA821A54
:102B60003A624FF6EF70398F01403987BDE8F38341
:102B700000280ED597F8380000F01400102808D16E
:102B80007B6B7969386A5B1A1B1A9A1A002AC8BFCC
:102B90003A62BDE8F3832DE9D04306460F4614465A
:102BA0004FF00008DFF8509012E0E00707D54246EA
:102BB0004B463046394600F0C9FB06460F464046B4
:102BC000494642464B4600F0C1FB641080468946A8
:102BD000002CEAD130463946BDE8D08302FCFFFF25
:102BE000FFFF0F800000E03F0000F07FA0860100A3
:102BF0000000F03F84D797410000244010B5034601
:102C00000C461146A0689847A06020B1E06A401CBD
:102C1000E062002010BD4FF0FF3010BDF8B5054652
:102C20000E4617461C4600205CB117F8011BB06821
:102C3000A847B06030B1F06A401CF0620020641E0A
:102C4000F3D1F2BD4FF0FF30F2BD00007072696E3B
:102C500074665F733A20256E20646973616C6C6FD3
:102C6000776564007072696E74663A2062616420F0
:102C7000256E20617267756D656E7400000000003E
:102C80006E616E004E414E00696E6600494E460010
:102C900030002E00C9B202788A421AB11CBF10F867
:102CA000012FF9E718BF00207047000080B500B978
:102CB00006A005490B681BB122220021984701E0BC
:102CC00000F09DFC222002BDC4280020636F6E73BB
:102CD000747261696E742068616E646C65723A200A
:102CE000626164206D6573736167650000F10103C3
:102CF00010F8011B11B110F8011BFBE7C01A704757
:102D0000C9B2830706D0521E22D310F8013B994264
:102D1000F7D11FE0083A13D302F1040241EA01217E
:102D200041EA014150F8043B121F21BF4B40A3F17F
:102D3000013C2CEA030C1CF0803FF3D0C9B2001F09
:102D4000083210F8013B521E28BF91EA030FF8D851
:102D500018BF0120401E70474AB1000011F8013B26
:102D6000521E00F8013B1CBF11F8013BF8E7704709
:102D700010B5144600F002F8226010BDC1F30A53EA
:102D800043B14A0012F5001F28D2A3F2FE32A1EB94
:102D90000251704750EA410C20D001F0004C31EA5A
:102DA0000C01B1FA81F204BFB0FA80F3D2180B3AE9
:102DB000B2F120032CBF00FA03F1914041EA0C016B
:102DC0003EBFC2F1200C20FA0CF31943904052424E
:102DD00040F2FD33D21A01EB0351704700227047D5
:102DE0004FF4001C1CEB410F94BF1CEB430F09E098
:102DF00041EA030C50EA4C0C52EA0C0C03D2994203
:102E000008BF9042704714BF8B4282427047000057
:102E10004FF4001C1CEB410F94BF1CEB430F09E067
:102E200041EA030C50EA4C0C52EA0C0C03D28B42E0
:102E300008BF8242704714BF994290427047000019
:102E4000124254D440F2FF7C1CEA11530FD0634568
:102E500031D09B1863453CBF01EB0251704701F034
:102E6000004141EA0C510020AFF30080704750EA66
:102E7000410320D001F0004C91EA0C011CD0B1FAC2
:102E800081F30B3B9A420DD9D21A994051EA0C01B9
:102E9000C3F1200C20FA0CFC61449840531C40F212
:102EA000FF7CD7E7914041EA0C01C2F1200C20FAE7
:102EB0000CF3194390407047B0FA80F31533202B80
:102EC000E0D3202AEED3203A203B9A4209D9D21AE5
:102ED00000FA03F141EA0C010020531C40F2FF7C90
:102EE000B8E700FA02F141EA0C01002070475242B3
:102EF00040F2FF7C1CEA11530DD06345DBD0B2EBEE
:102F0000030C3CBFA1EB025170470CF1010221EA16
:102F1000035141F4801150EA410CCCD001F0004C37
:102F2000352A27DC30B481EA0C01B2F1200309DA3A
:102F3000C2F12003044601FA03F5D0402843D140F2
:102F40009C400CE0C3F12002450020FA03F418BFB6
:102F500044F0010421FA03F091400C43002174F184
:102F6000004550F1000051EB0C01244230BC7FF4CD
:102F70007BAF70476146002076E70000C1F30A533B
:102F800040F2FE329B1A14DDD3F120034FEAE172C6
:102F900008DDC90241EA505141F00040D840801894
:102FA0005040704703F2E13010B1D24382F000404C
:102FB0007047002070470000C11768B14840401AB0
:102FC000B0FA80F29040D21CC907C2F5846241EA8F
:102FD000025202EBD02140057047000070B44FF060
:102FE000004591EA030F40F10D836B40841A71EBA9
:102FF000030603D2001BB141121973414FF4001CA8
:103000001CEB410F34BF7CEB430442E00C0DA4EBFE
:103010001356352E4FDC45EAC323DB0A45EAC121AE
:10302000C912B6F120050DDD63FA05F6EB4086EA1C
:103030000305124218BF45F00105C01851F1000107
:103040000CD213E062FA06F5F2405540F3415A40C3
:10305000B340F3405A408018594107D349085FEA0A
:1030600030005FEA350528BF45F0010501F5801104
:10307000420875F1004250F1000041EB04514E004E
:1030800016F5001F70BC38BF70470020090D0905F8
:1030900070471CEB410F10D252EA43060BD0BCEB39
:1030A000410F05D80C0DAB43661E342EB6DD02E091
:1030B000AB438018594170BC704770BC704700002A
:1030C000F0B540F2FF7581EA030C0CF0004C15EAF4
:1030D00011541DBF15EA1357AC42AF42E5E0BC41A5
:1030E000C1F31301C3F31303801A994143F480130E
:1030F00004D2641E4000494180185941C90241EA86
:103100005051B1FBF3F603FB1611A2FB0675D7EB8A
:10311000C020A94102D2761E80185941C90241EA55
:103120005051B1FBF3FE03FB1E11A2FB0E75D7EB52
:10313000C020A94103D2AEF1010E80185941890285
:1031400041EA9051760546EA8E2EB1FBF3F603FB79
:103150001611A2FB0675D7EB8020A94102D2761E7C
:1031600080185941C90241EA50514EEA060EB1FB9E
:10317000F3F603FB1611A2FB0675D7EBC020A9419D
:1031800002D2761E80185941C90241EA5051B1FB62
:10319000F3F703FB1711A2FB0735D3EBC020A941BE
:1031A00067F100070CBF004247F0010766F3D5271F
:1031B0004FEA1E31B80814F5806412DDBD0775F1C1
:1031C000004250EB0E5051EB045111F5801F5CBFD3
:1031D00041EA0C01F0BD4CF07F6141F0E04100207C
:1031E000F0BDBD076D0840EA0E5041F48011D4F1E6
:1031F0000104B4F120060ADAC4F120060200E0401E
:1032000001FA06F3E1401843B24015430EE0342CB6
:1032100013DCC6F1200445EA40056D0820FA06F2E9
:10322000154321FA06F0A1400D43002175F100423B
:1032300050F1000051EB0C01F0BD00205FEA0C01E1
:10324000F0BDCFB992185B41B3FA83F704BFB2FA6D
:1032500082F6BF190B3FB7F120062FBF02FA06F323
:10326000BB40C7F1200622FA06F638BF3343BA4006
:103270001CB1E419641E33E77F4231F00041B1FA1A
:1032800081F404BFB0FA80F6A4190B3CB4F1200617
:103290002FBF00FA06F1A140C4F1200620FA06F67D
:1032A00038BF3143A0403C1B1AE7AC421ABF05EAC5
:1032B0001357AF4212E050EA41061CBF52EA4306E0
:1032C000BFE750EA4107304661461CBF41EA05515D
:1032D000F0BD52EA430C08BFC143F0BD00204FF4DB
:1032E000001616EB410F98BF16EB430F08BF16EB05
:1032F000410F24BFC14305E016EB430F0CBF6146ED
:103300004CEA0551F0BD0000400D491840EA81200B
:103310000CD2490DA1F58061491C40F0004005DB4D
:10332000D1F11F0154BFC840C0177047002070473B
:10333000014648B1B0FA80F18840C91CC1F58461EA
:10334000090501EBD021400570470000B0B581EAC6
:10335000030C0CF0004C40F2FF7515EA11541DBF30
:1033600015EA1357AC42AF4239E0E41923EA45535A
:1033700043F48013C90241F0004141EA505EC702A4
:103380001100A7FB020200284FF00000EEFB012015
:103390004FF00001E3FB072118BF42F00102401883
:1033A00000214941E3FB0E01A4F580640F0302D222
:1033B00052004041494154F101046CDD470872F16B
:1033C000004250F1000051EB0451A1F580115CBFA7
:1033D00041EA0C01B0BD4CEA05510020B0BD05EA40
:1033E0001357AC4214BFAF4241E050EA410E1CBF3C
:1033F00052EA430E02E061460020B0BD24423C4444
:103400001BD15FEA070EF6D0090302BF0146002078
:10341000AEF1140EB1FA81F7AEEB070401FA07FE24
:103420000C37C7F1200100FA07F7C8404EEA000E3A
:1034300023EA455343F48013A2E733F00043B3FA81
:1034400083F704BFB2FA82FE77440B3FE41BB7F167
:10345000200E2FBF02FA0EF3BB40C7F1200E22FA56
:103460000EFE38BF43EA0E03BA40641C82E750EAFE
:10347000410E14BF52EA430E6FF000014FF40017E3
:1034800017EB430F8ABF194617EB410FB5E74CEA1C
:1034900005510020B0BDD4F10104B4F120070FDACA
:1034A000C4F12007520828BF42F0010210FA07F5C4
:1034B00001FA07F7E1BF2A43E0403843E1400FE05B
:1034C000352C98DCC7F1200452EA400220FA07F2BA
:1034D00018BF42F0010231FA07F0A1400A4300216F
:1034E00072F1004250F1000051EB0C01B0BD000040
:1034F00000487047B0240020D3BBD9B1B2F5803F5B
:103500005BD2022A1ED98C46B1FBF2F102FB11C339
:103510001B0443EA1043B3FBF2FC02FB1C3380B2F2
:1035200040EA0343B3FBF2F002FB103240EA0C40E6
:1035300000237047022A05D98446B0FBF2F002FB53
:1035400010C270474AB105D100F0010249085FEA94
:103550003000704700220023704700F009B90B00CB
:103560000200002100207047F7D30022002370479B
:10357000904271EB030CF2D370B5B1FA81F4B3FA57
:1035800083F52C1BA340C4F1200532FA05F6334322
:10359000A2405FF00046E64002E05B085FEA3202CC
:1035A000841A71EB030524BF204629467641F4D3E3
:1035B00002000B003000002170BD70B5B1FA81F43B
:1035C000B2FA82F5C4F120046419B4F12006DAD30A
:1035D000B2405FF00044F440002502E052085FEA88
:1035E0003303C61A71EB020E24BF304671466441A4
:1035F0006D41F3D302000B002000290070BD0120B3
:1036000000F0B8B8841A71EB030604D26E40001BB8
:10361000B141121973414FF4001C1CEB410F34BF30
:103620007CEB430683E00C0DA4EB1356362E00F31F
:103630007C80012E45EAC32341DC43EA525312BF8A
:10364000D20292025B08240545EAC12141EA5051A9
:10365000D2EBC020994125D407D1B0FA80F610FAF8
:1036600006F162D00020203608E0B1FA81F6B140C0
:10367000C6F1200220FA02F21143B0404FEAF4747E
:10368000B4EB465434F001064FEA74040AD8D6F578
:103690000016760D04F00044F04061FA06F2504046
:1036A000F1404840C00A40EA415021F0004128BFA3
:1036B0005FEA500550F1000044EBD12135E0DB0A10
:1036C00045EAC121C90AB6F120050EDD42EA0242EF
:1036D000120CC5F1200603FA06F6EB4042EA060595
:1036E0006D42984161F100010DE062FA06F5F24089
:1036F000554063FA06FC82EA0C02F3405A406D42E0
:10370000904161EB030111F4801F05D1641E620535
:1037100002D06D004041494121F48011430875F108
:10372000004350F1000041EB045170BC70471CEBAA
:10373000410F15D223F0004352EA43060BD04FEA63
:103740004C0CBCEB410F04D80C0D661E342EB7DDBB
:10375000EBE7801A994150EA410608BF0021E4E7EF
:1037600008BF1CEB430F28BF6FF00001DDE700002E
:103770007047000080B500F007F8024A11001820D9
:10378000ABBEFBE72600020010B500F052F80200C5
:103790000023DB4300241068984203D0110002206C
:1037A000ABBE14605068984203D0111D0220ABBE1E
:1037B000546010BDF0B583B0040000F03AF8A100E9
:1037C00047183D680026F643B54216D100F01AF8B6
:1037D0003D68B5420FD100BF09A00090002C01D177
:1037E000002000E00420019003200290694601209F
:1037F000ABBE05003D6000F014F8280003B0F0BD3A
:103800003A7474000C480121BFF35F8FD0E84F3F3A
:10381000C0E8421F002AF9D1BFF35F8F002BF3D11C
:1038200070470548BFF35F8F00210170BFF35F8FC2
:103830007047024870470000CE280020E82400208E
:10384000F8B5040025D004F13C05697821B90020C1
:103850002870204600F0D8FC242169702068026896
:103860005208520002602068016841F40041016082
:103870002068026822F40042026000F063FE014604
:103880006068DFF83C21904205D2DFF83831994278
:1038900005D20120F2BDDFF830018142F9D3206862
:1038A000DFF828314668B1FBF3F3B60943EA861620
:1038B00046602668376A6068904206D34FF4967077
:1038C00043434FF47A70B3FBF0F35B1CBF0943EA48
:1038D00087133362491E2368DE696768974206D200
:1038E0007F0000F043F8042913D2042111E0A068FE
:1038F00020B907EB470700F039F805E019204743E6
:1039000000F034F841F4804108050CBF012141F476
:103910000041DFF8C80106400E43DE6122681368EB
:10392000E169206A23F0C0030B430343136022685C
:10393000DFF8AC01936821690340E0680B4303435F
:1039400093602168CA68A3696069120A034343EA65
:103950000222CA602068016841F001010160002074
:103960006860202169702063A870F2BDB1FBF7F197
:10397000491CC1F30B017047308D7262411E3185C5
:10398000708D411E71857047009031684A690092C0
:1039900089690091009870473068016841F480712E
:1039A0000160704721F4806101603068026842F470
:1039B00000620260704700222946304600F016BBC4
:1039C000A186010080841E0000093D0040420F00D6
:1039D0002DE9FC4700F088F800F08CF85DD100F08C
:1039E00074F8002859D13878012856D000F067F8CB
:1039F00001D400F079F94146D6F800E00C9D0B980F
:103A0000DDF828C0DEF8008028F40068CEF80080D9
:103A10004FF0210E87F801E04FF0400887F8028050
:103A20004FF0000EC7F804E000F033F900F018FA88
:103A300000282BD108E0716A0A780261706A411C83
:103A40007162308DFFF79AFF308DA0B12246294672
:103A5000304600F034FBA0B9706A32680178116119
:103A6000706A411C7162308D411E00F019F8EBD56F
:103A700089B20029DFD122462946304600F04AFBB0
:103A800030B17868042801D100F0A8FA012005E0DF
:103A900000F0A4FA00F00CF800E00220BDE8F68780
:103AA0003185708D421E72853068426953077047B8
:103AB000202078700021B9700020387070470121F3
:103AC000397030680268D1077047009419230122C9
:103AD0000449304600F08ABA000000000030FFFFC1
:103AE000007CFFFF020010000646884691469A4679
:103AF00000F094BD06F13C07044678782028704712
:103B00002DE9FC47FFF7F0FFFFF7F4FF02D1FFF7C5
:103B1000DCFF002840F08180387801287DD0FFF755
:103B2000CEFF01D400F0E0F84146D6F800E00C9D4D
:103B30000B98DDF828C0DEF8008028F40068CEF885
:103B400000804FF0220E87F801E04FF0400887F820
:103B500002804FF0000EC7F804E000F09AF800F081
:103B6000CEF900284FD1308D18B1012804D100F0D2
:103B70009FF800F072F817E0022806D1306801685B
:103B8000FFF710FF0020009001E000210091FFF7F7
:103B9000FCFE09E02246294600F04BF8002832D10D
:103BA00000F03EF8FFF7E8FE308D002832D0042800
:103BB00024D20128EED00228DFF8388100942B4669
:103BC0000CD100224146FFF7F8FE00281BD100F07F
:103BD00076F8716A0870706A421CE3E70022414679
:103BE000FFF7EBFE00280ED100F034F92B4600F071
:103BF00040F84146FFF7E1FE28B9E8E722462946AA
:103C000000F017F808B1012008E000F015F8CBD556
:103C10000069DEE7FFF74CFF00E00220BDE8F68711
:103C200030680169706A0170716A4A1C70472246E7
:103C30004946304600F08BBA30680169706A0170FD
:103C4000716A308D4A1C411E72623185708D411E31
:103C50007185306841694A077047009031684A6948
:103C600000928B69009300980A6842F400720A601F
:103C7000704730680169706A0170716A308D4A1C42
:103C8000411E726231850022708D411E7185009443
:103C90007047C6F824C070855346708D30854A46FB
:103CA000DFF8A801F06201940095304670470000EB
:103CB0003068016821F4806101600020704730683D
:103CC000016841F40071016030680169706A017037
:103CD000716A308D4A1C411E72623185708D411EA1
:103CE0007185326810697047026842F00102026013
:103CF00070470000040001002DE9F84F04468B4690
:103D0000FFF7F4FE04F13C070546787800262028EA
:103D100078D1DFF83C81009519230122414600F05B
:103D20008DF800286ED1387801286BD000F06DF83E
:103D3000242078707E60DFF81401E06200F075F8EE
:103D40000095534600F077F838B921680BF0FE0073
:103D5000086100F063FC054612E020680168CA05AE
:103D600044BF4FF40070786003204CE000F056FC34
:103D7000401B824502D3BAF1000F01D1A020787018
:103D80002168486949697A784008890AA02A00F0C0
:103D9000010001F0010101D00843E7D02020787034
:103DA000206841698A0712D400F082F922685061C4
:103DB000009519230122414600F040F800BB761C13
:103DC0004E45BBD3202078700021397018E002687E
:103DD00042F40072026000200090192321684A69B1
:103DE000009201228969009141460098009500F0F7
:103DF00025F828B92020787000213970002002E0D1
:103E0000012000E00220BDE8F28F01213970206816
:103E10000268D10703D4026842F001020260206800
:103E2000016821F40061016070472068016841F475
:103E300080710160704700224FF00111204600F0B0
:103E4000D5B8016841F48061016070470000FFFF50
:103E5000020010003068016821F480610160704741
:103E60002DE9F84304462068DDF82080099F894643
:103E7000016841F4807115461E4601600097434673
:103E8000FFF7D9FF40B120680168CA0544BF4FF46D
:103E900000702064032023E0206809F0FE01016126
:103EA0003B46424600F01EF8A0B90090216800F0A1
:103EB00081F800F022F840B9012E0DD02168280ABF
:103EC00008613A4600F018F830B1206C042801D19E
:103ED00000F00CF8012003E02068EDB2056100203D
:103EE000BDE8F28340492046A8E000002068016850
:103EF00041F400710160704741462046DFE02DE942
:103F0000F84F05462868DDF828800B9F0C46FFF720
:103F100098FF16462868016841F48071994601604F
:103F200000F055F800284FF4007A2CD12968DFF80A
:103F3000B8B004F0FE00086100F044F8002832D167
:103F40000090296800F036F800F032F870B9B9F145
:103F5000010F05D02968300A086100F027F828B958
:103F60002868F6B2066100F021F830B1286C042808
:103F700019D1286800F033F815E02868FFF70DFD27
:103F800000F025F838B128680168CA0548BFC5F8AF
:103F900040A0032008E0286844F00104E4B2046172
:103FA00000F010F800B10120BDE8F28F3A4641461A
:103FB000284684E04A6900923A4689690091414660
:103FC000009870473B4642465946284636E00097DF
:103FD000434600224FF00111284607E0306801688F
:103FE00041F4007101607047020001002DE9F041C9
:103FF000069F05460E4690461C4631022868090E6B
:1040000001290CBF40698069304080B2B1B288425A
:104010000CBF0120002040450DD114F1010FECD060
:1040200000F0FCFAC01B844201D3002CE5D100F063
:1040300063F8012000E00020BDE8F081F8B50546F6
:104040000E4614461F463102090E2868012919D16F
:104050004169314089B2B2B2914219D041694A05F1
:1040600018D500F025F82A685061002105F13C00C0
:104070002963202242708170426842F0040242604B
:10408000017013E08169314089B2B2B29142E5D149
:104090000020F2BD14F1010FD5D000F0BFFAC01B13
:1040A000844201D3002CCED100F026F80120F2BDCD
:1040B000016841F4007101606FF48060704770B571
:1040C00005460C46164628684169080612D428465B
:1040D00000F069F808B1012070BD14F1010FF2D0B1
:1040E00000F09CFA801B844201D3002CEBD100F03D
:1040F00003F8F0E7002070BD00202863202105F1BF
:104100003C00002241708270416841F02001416012
:104110000270704770B505460C461646286841691E
:10412000480712D4284600F03EF808B1012070BDBF
:1041300014F1010FF2D000F071FA801B844201D318
:10414000002CEBD1FFF7D8FFF0E7002070BD70B571
:1041500005460C461646286841694A0617D4416947
:10416000CA060BD400F05AFA801B844201D3002CFB
:10417000F1D100F00EF841F0200104E06FF01001E1
:10418000416100F006F841600270012070BD00201E
:1041900070BD00202863202105F13C000022417001
:1041A00082704168704701684A6953050FD56FF402
:1041B00080624A61002101633C302022427081709C
:1041C000426842F004024260017001207047002002
:1041D0007047000081B00020009000228B484168A9
:1041E00041F480414160416801F4804100910099AF
:1041F0000092036843F080530360006800F0805031
:104200000090009801B0704710B586B000F071F8CA
:1042100021687F4A7F48804C91420ED100F023F8FC
:10422000C02200F028F800200090216941F400111C
:104230002161206900F4001011E0784A914210D108
:1042400000F011F84FF4406200F015F800200090E3
:10425000216941F480012161206900F4800000900F
:10426000009806B010BD002100911223226842F090
:10427000020222607047216801F00201009100995A
:1042800001920293002203920323042204930592D5
:1042900001A900F0C9B910B586B000F02AF821686C
:1042A0005F48814223D100225B480092416941F47A
:1042B00080514161416901F480510091009900925F
:1042C000E021036843F0010303600222006800F06C
:1042D000010000900098534801910292002103913F
:1042E000032205210591049201A900F09DF906B071
:1042F00010BD04461422002101A800F08FBA10B5A9
:1043000086B0044614220021684600F087FA22682D
:10431000454B444840499A4217D1002205924B69C7
:1043200043F010034B6100234A6902F0100205922A
:10433000059A05934FF4C06200F052F80022002164
:10434000252000F08FFA252046E0384B9A4216D1FE
:10435000002205920B6943F400330B6100230A69C4
:1043600002F400320592059A05930F2200F038F806
:1043700000220021262000F075FA26202CE02C488F
:1043800082422BD100220592086940F48020086106
:10439000086900F4802005900598059202220B68B8
:1043A00043F008030B60086800F0080005904FF424
:1043B000407105981F48009101920021029103224B
:1043C000072104910392694600F02EF90022002192
:1043D000272000F047FA272000F061FA06B010BD50
:1043E0000C6844F001040C600223096801F001012B
:1043F000059105990092019300220292032307225E
:1044000003930492694600F00FB90000403802405F
:104410000054004000040240303802400058004080
:104420000030014000000240001001400044004004
:1044300000480040000C02402DE9F04104000F4606
:1044400054D0574E306800F00700B84202D200F056
:1044500073F84BD12068534D810712D5400703D51F
:10446000A96841F4E051A9602078010703D5A86844
:1044700040F46040A860A968A06821F0F001014301
:10448000A9602178C80729D56068012802D1296868
:104490008A0305E0022818BF032803D129688A018E
:1044A00003D423E029688A0720D5A968890840EA4F
:1044B0008100A86000F0B2F88046A868616800F04A
:1044C0000C00B0EB810F09D000F0A8F8A0EB0800B9
:1044D00041F289318842F0D303202BE0306800F0AC
:1044E0000700874204D200F027F801D0012021E024
:1044F0002078410705D5AA68E06822F4E05202431B
:10450000AA602178080706D5A968206921F46041CE
:1045100041EAC001A96000F051F8AA682249234B82
:10452000C2F30312895CC84018602148006800F09B
:10453000CBF90020BDE8F0813770316801F0070148
:10454000B942704719481B4A006813681A49C3F3F7
:10455000822206E01548174A006813681649C3F31B
:104560004232895CC840704710B50F220260114A80
:10457000136803F003034360146804F0F0048460DC
:10458000136803F4E053C3601268D20802F4E052E7
:1045900002610348026802F007020A6010BD0000D1
:1045A000003C0240003802400C7800081C23002028
:1045B0001823002008380240C878000830B5144C91
:1045C000606800F00C00042802D0082802D01DE02A
:1045D000104830BD226820680023410202F03F02EB
:1045E00004D525680B49C5F3881003E020680A4903
:1045F000C0F38810A1FB0001FEF77EFF2168C1F324
:104600000141491C4900B0FBF1F030BD024830BD0A
:104610000438024000127A000024F4000148406887
:10462000704700BF102300202DE9F84F0D460026EB
:104630006F49704A0F23044601202F68B04000EAFA
:104640000708804540F0CA804FEA460C032707FA66
:104650000CF76FEA070E6F6807F00309B9F1010F55
:104660001CBF07F00307022F12D1A768D5F80C90E2
:104670000EEA070709FA0CF949EA0707A760676815
:1046800027EA00006F68C7F30017B740384360603F
:10469000B0002F7907F00307032F21D0E768D5F882
:1046A00008900EEA070709FA0CF949EA0707E760DC
:1046B0002F7907F00307022F12D1F70804EB8707C1
:1046C00000F01C09D7F820A003FA09FB2AEA0B0A1C
:1046D000D5F810B00BFA09F949EA0A09C7F8209091
:1046E00027680EEA070E2F7907F0030707FA0CF781
:1046F00047EA0E0727606F6817F4403F6ED0002727
:1047000000974FEA960C176847F48047176000F04F
:104710000C00176807F48047009703FA00FE009F1B
:10472000354F57F82C7027EA0E0E344FBC4208BFA5
:10473000002722D0324FBC4208BF01271DD0314F85
:10474000BC4208BF022718D02F4FBC4208BF032726
:1047500013D02E4FBC4208BF04270ED02C4FBC42B2
:1047600008BF052709D02B4FBC4208BF062704D03D
:10477000294FBC420CBF0727082707FA00F01E4F3D
:1047800040EA0E0047F82C006FEA08008F6800EA44
:10479000070C6F68FF0248BF48EA0C0CC1F808C05C
:1047A000CF6800EA070C6F68BF0248BF48EA0C0CEC
:1047B000C1F80CC04F6800EA070C6F68BF0348BF20
:1047C00048EA0C0CC1F804C00F6800EA070C6868DE
:1047D000C00348BF48EA0C0CC1F800C0761C0F2E7D
:1047E0007FF62AAFBDE8F18F02B9090481617047F5
:1047F000003C0140443802400838014000000240BB
:104800000004024000080240000C02400010024078
:104810000014024000180240001C024010B504467B
:1048200010460A460146204600F09EF8204610BD7C
:104830000901020002D41F48815470471E4B02F048
:104840000F021A4402F8041C70471C4B19684FF6FB
:10485000FF020002114000F4E060084318490843D9
:104860001860704770B5154B1C68C4F3022301240F
:10487000C3F10705052D2EBF0F2504FA05F56D1EA2
:104880001E1D072E34BF0023DB1E2940994004FA69
:1048900003F3BDE870405B1E1A401143C8E70100F6
:1048A00007D4012200F01F01064B8A40400943F85B
:1048B0002020704700E400E018ED00E00CED00E07F
:1048C0000000FA0500E100E078B587B0044600205A
:1048D00000902048016841F00401016001A90068CE
:1048E00000F00400009002A8009AFFF73DFE059832
:1048F00010B9FFF727FE02E0FFF724FE4000164D37
:104900001649174B2960B0FBF3F0401E40F2E73226
:1049100068600021EA602961A960A961284600F069
:1049200057F8060012D1284600F05FF806000DD1B6
:104930001E20FFF7B4FF102C07D2002221461E20B4
:10494000FFF790FF0748046000E00126304608B0FA
:1049500070BD0000403802402028002000080040C0
:1049600040420F001823002062F30F2262F31F421F
:10497000401810F0030308D0C91A1FD3DB0748BF43
:1049800000F8012D28BF20F8022D130030B4144682
:104990001546103928BF20E93C00FAD8490728BF3E
:1049A00020E90C0048BF40F8042D890028BF20F8FA
:1049B000022D48BF00F8012D30BC7047C91818BF40
:1049C00000F8012DCB0728BF00F8012D704700002B
:1049D00038B5040001D1012032BD00F065F818B9E6
:1049E00000F00AF900F06EF93DE090F83D10012961
:1049F00001D001207047022180F83D100168CA688B
:104A000042F00102CA600068DFF88010884218BFD7
:104A1000B0F1804F17D0DFF8781088421CBFDFF864
:104A2000742090420FD0DFF8701088421CBFDFF86E
:104A30006C20904207D0DFF8681088421CBFDFF876
:104A40006420904209D1816801F00701062908D04D
:104A5000016841F00101016003E0026842F00102D7
:104A600002600020704702206870211D206800F05D
:104A7000C7F80120A872A870E87028716871A87141
:104A8000E871287268726870002032BD0000014031
:104A90000004004000080040000C004000040140F9
:104AA000004001400018004004F13C056878704760
:104AB00010B50446206801698A0715D5C1688A07C0
:104AC00012D56FF00201016101222277806910F096
:104AD000030F204602D000F0F6F803E000F0F4F8EF
:104AE00000F087F800202077206801694A0715D573
:104AF000C1684A0712D56FF00401016102222277D2
:104B0000806910F4407F204602D000F0DCF803E01A
:104B100000F0DAF800F06DF80020207720680169D5
:104B20000A0715D5C1680A0712D56FF0080101619F
:104B300004222277C06910F0030F204602D000F053
:104B4000C2F803E000F0C0F800F053F8002020772E
:104B500020680169CA0615D5C168CA0612D56FF06A
:104B60001001016108222277C06910F4407F2046BD
:104B700002D000F0A8F803E000F0A6F800F039F841
:104B80000020207720680169CA0708D5C168CA07D4
:104B900005D56FF001010161204600F0CCFA2068D4
:104BA00001690A0608D5C1680A0605D56FF08001BB
:104BB0000161204600F006FB206801694A0608D51D
:104BC000C1684A0605D56FF040010161204600F03A
:104BD000FAFA206801698A060AD5C1688A0607D5EB
:104BE0006FF0200101612046BDE8104000F0ECBAF2
:104BF00010BD204600F0E9BA002129702046704718
:104C0000F0B5254C0568254B254E264FDFF898C09A
:104C1000A04218BFB0F1804F07D0604518BFB8421E
:104C200003D0B04218BF98420DD14A6825F07005F4
:104C30001543A04218BFB0F1804F17D060451CBF8C
:104C4000B842B04212D098421CBF184A90420DD0D0
:104C5000174EB0421CBF174A904207D0164EB042C2
:104C60001FBF164A9042164EB04203D1CA6825F4BF
:104C7000407515434A6925F0800515430560A0423B
:104C80008D68C5620A68826212BF98420969016331
:104C900001224261F0BD000000000140000401401B
:104CA000000C0040000800400004004000400140AB
:104CB000004401400048014000180040001C004032
:104CC0000020004070477047704700002DE9F04712
:104CD0002DED028B86B000F079FA00F0DCF9142299
:104CE00000216846FFF79AFD0020059040F281758B
:104CF000DFF85004DFF850440168DFF85084DFF833
:104D00005074DFF8506441F004010160026802F061
:104D100004020592002205990592036843F080037E
:104D20000360016801F0800100F09AF943F001038B
:104D30000360016801F0010100F092F943F01003F3
:104D40000360016801F0100100F08AF943F00203EA
:104D50000360016801F00201059105990592102197
:104D6000036843F008030360006800F00800059042
:104D700005982046FFF738FD002229464046FFF7F8
:104D800033FD00224FF480613846FFF72DFD0022ED
:104D9000F0213046FFF728FD102100F06BF9204686
:104DA000FFF742FC0120019000220292039200953D
:104DB00069464046FFF738FC4FF4406000F055F973
:104DC00000F04AF94FF410700021009002914FF466
:104DD0008815019569463846FFF726FC4FF4807028
:104DE00000F043F9204600F038F94FF410410091EB
:104DF000019500210291204600F02FF94FF48061C7
:104E000000F038F93846FFF70FFC4FF4C05000F0BF
:104E10002CF9384600F021F9092100910195002173
:104E2000029100F019F9F02100F024F93046FFF763
:104E3000FBFB0021019102914FF44078CDF80080F6
:104E40006946C548C54CC64FFFF7EEFBC548E0654F
:104E5000276600206066A0664FF48046E6662067FD
:104E60006067A067E06704F15C00FEF7E9FC08B149
:104E700000F096F904F1B005BB48286000216F608E
:104E8000A960E9602E616961A961E961296228462A
:104E9000FEF7D6FC08B100F083F9B44860604FF427
:104EA0008271A1600020E060002160612161A16148
:104EB00021626162A162E1624FF40070E0610A2147
:104EC0002163201D00F09CF908B100F069F9A848A1
:104ED00068650C210020E86528666866E866286732
:104EE0004FF4E137A966AF6504F5827000F01EFC4F
:104EF00008B100F055F904F5A4769E48306077605B
:104F00000021B160F16031610C207061C6F8188039
:104F1000F161304600F00AFC08B100F041F9964812
:104F20007064B7640021F164316571650C20B0656F
:104F3000F165316604F5C67000F0F8FB08B100F0C9
:104F40002FF9FCF795FE4FF4FA7000F027FF8BA6BF
:104F50000022314604F5F070FCF7BFF9607041F2B1
:104F6000182004EB00080FF23C2913224946404662
:104F7000FCF7DFF9607004F5E8773A4604F5EA716A
:104F80003046FCF7D3FC60709FED7D8B3868B0F83D
:104F90000AA0C069801E0AFB00F0FEF7C9F953ECB5
:104FA000182BFEF7D3F9FEF7AFF9B86079680AFB62
:104FB00001F0FEF7BDF953EC182BFEF7C7F9FEF729
:104FC000A3F9F86018B941466F48FCF782FD4146E5
:104FD00077A0FCF77EFD4046FCF781FC6070012263
:104FE00049464046FCF7A5F9607042F24820271870
:104FF000DFF898910FF29C1A06E03946504600F00F
:10500000E1FE484600F02CFF424664213846FCF79A
:10501000FFFC0028F1D14046FCF761FC70B1012291
:1050200031460020FCF759F940B14FF4007280215D
:10503000284600F031FF08B1002020704FF40072C4
:105040008021284600F02FFF08B10020207006B014
:10505000BDEC028BBDE8F08730466946FFF7E4BA45
:105060000591059905920368704700210090019110
:105070000291704700910122002102910391019257
:105080006946704780B5562000F0D7FFBDE8024062
:105090000A2000F083BE80B592B03022002106A81D
:1050A000FFF7BCFB1422002101A8FFF7B7FB00208B
:1050B00000903748016841F080510160002100688C
:1050C00000F080500090009833480091022102685F
:1050D00042F4804202600122006800F480400090A7
:1050E00000980691099210210A91022200210C9247
:1050F0000D91082260210E920F910222042110923C
:10510000119106A800F0D4FF08B172B6FEE70221A3
:105110000291802203920F204FF48051019004915C
:1051200000220592012101A8FFF786F908B172B6A5
:10513000FEE713B000BD00681849884208BF01F0BF
:1051400045B970473038024000000240001002406C
:1051500000080240000C02400004024064000020ED
:10516000A08601000054004000580040003001407B
:1051700000100140004400400048004000000000D2
:10518000000000000000E03F9477000800240020A9
:1051900040380240257300000070004000080040C5
:1051A00072B6FEE766697273742E7478740000003C
:1051B000536176652074686520776F726C64212175
:1051C00021000000704770477047704780B50B485A
:1051D000016841F400710160026842F4806202607B
:1051E000016841F4807101600320FFF72EFB0F205E
:1051F000FFF76AFBFEF7EEFF002002BD003C024015
:1052000038B5040001D1012032BD606A28B900F030
:10521000E9F805D00021E16102E000202061606131
:105220000020A06204F15005687820B9002129709F
:105230002046FFF730F80220687000F0DEF9606861
:10524000A168E26800F4827001F404410843217C03
:1052500002F400621043227D01F002010843A169BB
:1052600002F001021043227F01F40071084394F818
:10527000201002F038021043A26A01F080010843B6
:10528000216802F4005210430860A06994F82410C9
:105290002268000C00F0040001F010010843506087
:1052A0002068C16921F40061C161002068600121AA
:1052B000697032BD2DE9F84300F07EF9984608BFC9
:1052C000022000F08D8001203870FFF7A7F979786F
:1052D000012918BF02264BD1002C18BFB9F1000FCD
:1052E0007BD0032179707E602C63A5F83490A5F8FB
:1052F0003690AE63AE87EE876E642E64AB68B3F50E
:10530000004F09D129680B6823F040030B6029681E
:105310000C6844F480440C6029680B685C0603D474
:105320000B6843F040030B604446E968B1F5006F39
:10533000696821D1002918BFB9F1010F00F051F9B6
:10534000804604E0296B0A88C26000F027F9E88EE5
:10535000002833D0286881688A07F3D4FFF75EF904
:10536000A0EB0800A04204D314F1010FEFD00326F4
:1053700034E0002CEBD1FAE7002918BFB9F1010F96
:1053800000F023F9804606E0296B0A780273286B47
:10539000411C00F005F9E88E80B1286881688A0711
:1053A000F2D4FFF73BF9A0EB0800A04203D314F1BD
:1053B000010FF0D0DBE7002CEDD1D8E742462146C3
:1053C000284600F080F908B120207860A86810B95C
:1053D00000F0EBF8009A786800B1012600F006F8BA
:1053E000BDE8F2836068B0F5827F70470120787075
:1053F00000213970304670472DE9FC4700F0DCF899
:105400004FF0010808BF022000F0C6809A4687F8D6
:105410000080FFF703F97B78012B09D06968B1F5AB
:10542000827F02BFA9680029042B01D00226AEE0CA
:10543000002C1CBFB9F1000FBAF1000F01D10126F9
:10544000A5E07B78042B1CBF052179707E60C5F830
:105450003890A5F83EA0A5F83CA02C63A5F836A08E
:10546000A5F834A02E646E6429680C68630603D422
:105470000C6844F040040C60E9680A9CB1F5006FC8
:10548000696838D1002918BFBAF1010F00F0A9F8F6
:105490008146E88E002804BFE88F002868D029687C
:1054A000886882070BD5E88E002818BFB8F1000F76
:1054B00005D0286B0288CA60B04600F06FF82968F2
:1054C0008868C2070CD5E88F50B1C868A96B0880FE
:1054D0004FF00108A86B821CAA63E88F411EE98780
:1054E000FFF79CF8A0EB0900A042D2D314F1010F02
:1054F000CFD003264BE0002918BFBAF1010F00F00E
:1055000064F88146E88E002804BFE88F00282FD079
:105510002968886882070DD5E88E002818BFB8F181
:10552000000F07D0286B02780A73B046286B411C25
:1055300000F036F829688868C2070CD5E88F50B1AA
:10554000C868A96B08704FF00108A86B421CAA63D9
:10555000E88F411EE987FFF761F8A0EB0900A04240
:1055600003D314F1010FCDD0C3E7002CCAD1C0E79B
:105570004A462146284600F0A6F818B12020012608
:10558000786004E0A86810B900F00FF800980121D5
:105590007970002038703046BDE8F687286B811C92
:1055A0002963E88E411EE986704700962968CA681B
:1055B0000092896800917047054605F15007002662
:1055C000387801280C469146704709D1296B2B6821
:1055D0000A781A73296B4A1C2A63E98E4A1EEA86E6
:1055E000704709D1296B2B680A88DA60296B8A1CFD
:1055F0002A63E98E4A1EEA8670472068016821F016
:105600004001016070472DE9F843089C05460E46AD
:1056100090461F46FFF702F8381A2418FEF7FEFFDF
:105620008146404801684901090D6143009105E048
:10563000009800B900240098401E009028688168F6
:105640003140B1420CBF01200020404532D017F15B
:10565000010FF3D0FEF7E2FFA0EB0900A04201D258
:10566000002CE5D12868416821F0E00141606868BC
:10567000B0F5827F08D1A868B0F5004F18BFB0F52B
:10568000806F01D100F019F8A86AB0F5005F09D168
:105690002868016821F4005101602868026842F41A
:1056A0000052026005F15000012141700022027099
:1056B000032000E00020BDE8F2832868016821F0A3
:1056C0004001016070477CB504461648164E0B46F3
:1056D00001681825B1FBF5F5B5FBF6F64FF47A70C5
:1056E000464300966168B1F5827F09D1009280211E
:1056F00000222046FFF787FF58B100F00CF876BD76
:10570000009830B10098401E00902168886801061A
:10571000F6D4002076BD606D40F020006065032067
:10572000704700001C23002040420F0038B50400E1
:1057300001D1012032BD00F017F808B900F018F8C7
:1057400000F01BF800F023F8FFE7416100F001F8DA
:1057500032BD2068C16841F40051C160002068601A
:1057600020216970A970704704F13C056878704782
:10577000002129702046FEF7C2BD242068702068F1
:10578000C16821F40051C160204600F0A3BA20682E
:10579000016921F4904101612068416921F02A01E9
:1057A00070472DE9F843054605F13C060C46707834
:1057B00020281746994649D10CB1380001D1012063
:1057C00045E03078012841D001213170002070601F
:1057D00021227270FEF722FFAF848046EF84A86812
:1057E000B0F5805F04BF286900280EBF2746204619
:1057F00000270021317004460EE014F8012B4260AE
:1058000007E02868002CF8D137F8021BC1F3080123
:105810004160E88C411EE9844346E88CCDF8009055
:10582000002807D000228021284600F069F90028CE
:10583000E7D005E000224021284600F061F908B1D8
:10584000032004E020207070002000E00220BDE86A
:10585000F283216801F1140252E8001F206800F170
:10586000140321F0400143E80010002870477CB584
:10587000044621680B68CD684A6913F00F0007D110
:10588000980661D5AA065FD52046BDE87640B7E107
:10589000D00702D415F4907F56D0D80705D5E90576
:1058A00003D5206C40F001002064580705D5D107CE
:1058B00003D5206C40F002002064980705D5D1077D
:1058C00003D5206C40F004002064180707D5A90612
:1058D00001D4D00703D5216C41F008012164206C6C
:1058E000002830D0980604D5A90644BF204600F011
:1058F00087F920684069216C0A0701D440061DD54C
:10590000204600F053F920684169480611D5FFF799
:10591000A0FFFCD1A06B60B10FF2D9210165A06B93
:1059200000F098FD00280ED0A06B016DBDE87C4012
:1059300008472046BDE8764000F0B1BD204600F0A3
:10594000AEFD0020206473BD206B012804F13D02F0
:1059500040F08680D80600D5EE0640F18180002315
:1059600000930D6800954B680093009849694806BC
:105970003FD5A16B0868406880B20028E3D0A38DB2
:105980009842E0DAE085C869B0F5807F2DD02168C3
:1059900001F10C0050E8001F236803F10C0521F40D
:1059A000807145E800100028F1D100F09BF849080B
:1059B00000F11405490045E800100028F5D100F079
:1059C00091F800F1140521F0400145E8001000288D
:1059D000F5D1202050700021216300F089F800F0FB
:1059E000BEF8FAD1A06B00F0F9FCA18DE08D091A88
:1059F00030E0A08DE18D411AE08D00281CBF88B2F7
:105A0000002868D0206800F10C0353E8003F00F143
:105A10000C0623F4907346E800300028F2D1206889
:105A200000F05AF800F114065B0046E80030002848
:105A3000F5D12020507000222263206800F10C0272
:105A400052E8002F00F10C0522F0100245E800207A
:105A50000028F2D12046BDE87C4089B200F020BD8C
:105A6000180629D52E0627D51078212833D1A0680D
:105A7000B0F5805F04BF2069002808D1206A028841
:105A8000C2F308024A60206A811C216204E0206A95
:105A9000421C226200784860E08C401EE08480B2A4
:105AA000C8B92068C16821F08001C1602068C16860
:105AB00041F04001C16073BD58060CD56B060AD594
:105AC000C86820F04000C860202111702046BDE861
:105AD000764000F0E6BC73BD00F1140353E8003FCC
