:020000040800F2
:100000006007002059370008CD350008CF350008BB
:10001000D1350008D3350008D535000800000000B0
:10002000000000000000000000000000D7350008BC
:10003000D935000800000000DB350008DD35000878
:100040007D370008813700088537000889370008A8
:100050008D37000891370008953700089937000858
:100060009D370008A1370008A5370008A937000808
:10007000AD370008B1370008B5370008B9370008B8
:10008000BD370008C1370008C5370008C937000868
:10009000CD370008D1370008D5370008D937000818
:1000A000DD370008E1370008E5370008E9370008C8
:1000B000ED370008F1370008DF350008F537000894
:1000C000F9370008FD370008013800080538000836
:1000D00009380008E5350008EB350008F13500085F
:1000E0000D380008113800081538000819380008C4
:1000F0001D38000821380008253800082938000874
:100100002D38000831380008353800083938000823
:100110003D380008413800084538000849380008D3
:100120004D38000851380008553800085938000883
:100130005D38000861380008653800086938000833
:100140006D380008713800087538000879380008E3
:100150007D38000881380008853800088938000893
:100160008D38000891380008953800089938000843
:100170009D380008A1380008A538000800000000DC
:10018000A9380008AD380008F8B5040025D004F1FE
:100190003C05697821B900202870204600F0F4FC65
:1001A00024216970206802685208520002602068A9
:1001B000016841F4004101602068026822F40042B5
:1001C000026000F08FFE01466068DFF83C2190423B
:1001D00005D2DFF83831994205D20120F2BDDFF8AF
:1001E00030018142F9D32068DFF828314668B1FB3D
:1001F000F3F3B60943EA861646602668376A6068F4
:10020000904206D34FF4967043434FF47A70B3FB99
:10021000F0F35B1CBF0943EA87133362491E23686E
:10022000DE696768974206D27F0000F043F8042930
:1002300013D2042111E0A06820B907EB470700F0B2
:1002400039F805E01920474300F034F841F48041C3
:1002500008050CBF012141F40041DFF8C801064048
:100260000E43DE6122681368E169206A23F0C0034F
:100270000B43034313602268DFF8AC0193682169E4
:100280000340E0680B43034393602168CA68A36995
:100290006069120A034343EA0222CA6020680168C7
:1002A00041F0010101600020686020216970206335
:1002B000A870F2BDB1FBF7F1491CC1F30B01704707
:1002C000308D7262411E3185708D411E718570477F
:1002D000009031684A6900928969009100987047DE
:1002E0003068016841F480710160704721F48061D9
:1002F00001603068026842F40062026070470022C8
:100300002946304600F016BBA186010080841E00FD
:1003100000093D0040420F002DE9FC4700F088F83D
:1003200000F08CF85DD100F074F8002859D13878CD
:10033000012856D000F067F801D400F079F9414661
:10034000D6F800E00C9D0B98DDF828C0DEF80080A0
:1003500028F40068CEF800804FF0210E87F801E005
:100360004FF0400887F802804FF0000EC7F804E015
:1003700000F033F900F018FA00282BD108E0716A78
:100380000A780261706A411C7162308DFFF79AFF32
:10039000308DA0B122462946304600F034FBA0B98A
:1003A000706A326801781161706A411C7162308D27
:1003B000411E00F019F8EBD589B20029DFD12246A1
:1003C0002946304600F04AFB30B17868042801D154
:1003D00000F0A8FA012005E000F0A4FA00F00CF803
:1003E00000E00220BDE8F6873185708D421E7285DF
:1003F0003068426953077047202078700021B97037
:100400000020387070470121397030680268D107C8
:1004100070470094192301220449304600F08ABA3B
:10042000000000000030FFFF007CFFFF0200100012
:100430000646884691469A4600F0C0BD06F13C0744
:1004400004467878202870472DE9FC47FFF7F0FF35
:10045000FFF7F4FF02D1FFF7DCFF002840F08180B6
:10046000387801287DD0FFF7CEFF01D400F0E0F806
:100470004146D6F800E00C9D0B98DDF828C0DEF868
:10048000008028F40068CEF800804FF0220E87F834
:1004900001E04FF0400887F802804FF0000EC7F8E7
:1004A00004E000F09AF800F0CEF900284FD1308D2A
:1004B00018B1012804D100F09FF800F072F817E09D
:1004C000022806D130680168FFF710FF0020009075
:1004D00001E000210091FFF7FCFE09E022462946D9
:1004E00000F04BF8002832D100F03EF8FFF7E8FEAC
:1004F000308D002832D0042824D20128EED00228E2
:10050000DFF8388100942B460CD100224146FFF7DA
:10051000F8FE00281BD100F076F8716A0870706A46
:10052000421CE3E700224146FFF7EBFE00280ED114
:1005300000F034F92B4600F040F84146FFF7E1FEA9
:1005400028B9E8E72246294600F017F808B101204B
:1005500008E000F015F8CBD50069DEE7FFF74CFFA7
:1005600000E00220BDE8F68730680169706A01701A
:10057000716A4A1C704722464946304600F08BBAE1
:1005800030680169706A0170716A308D4A1C411EC1
:1005900072623185708D411E7185306841694A07EC
:1005A0007047009031684A6900928B690093009807
:1005B0000A6842F400720A60704730680169706A24
:1005C0000170716A308D4A1C411E726231850022B1
:1005D000708D411E718500947047C6F824C07085E7
:1005E0005346708D30854A46DFF8A801F0620194C9
:1005F00000953046704700003068016821F4806142
:100600000160002070473068016841F400710160AA
:1006100030680169706A0170716A308D4A1C411E30
:1006200072623185708D411E718532681069704724
:10063000026842F0010202607047000004000100FD
:100640002DE9F84F04468B46FFF7F4FE04F13C0712
:10065000054678780026202878D1DFF83C8100957F
:1006600019230122414600F08DF800286ED1387818
:1006700001286BD000F06DF8242078707E60DFF8E0
:100680001401E06200F075F80095534600F077F829
:1006900038B921680BF0FE00086100F08FFC0546B8
:1006A00012E020680168CA0544BF4FF4007078600A
:1006B00003204CE000F082FC401B824502D3BAF1DB
:1006C000000F01D1A02078702168486949697A78C3
:1006D0004008890AA02A00F0010001F0010101D0C0
:1006E0000843E7D020207870206841698A0712D437
:1006F00000F082F9226850610095192301224146D9
:1007000000F040F800BB761C4E45BBD3202078702B
:100710000021397018E0026842F400720260002083
:100720000090192321684A69009201228969009189
:1007300041460098009500F025F828B920207870EF
:1007400000213970002002E0012000E00220BDE815
:10075000F28F0121397020680268D10703D4026842
:1007600042F0010202602068016821F4006101602A
:1007700070472068016841F4807101607047002271
:100780004FF00111204600F0D5B8016841F48061B6
:10079000016070470000FFFF020010003068016830
:1007A00021F48061016070472DE9F8430446206818
:1007B000DDF82080099F8946016841F48071154663
:1007C0001E46016000974346FFF7D9FF40B12068FD
:1007D0000168CA0544BF4FF400702064032023E081
:1007E000206809F0FE0101613B46424600F01EF818
:1007F000A0B90090216800F081F800F022F840B91B
:10080000012E0DD02168280A08613A4600F018F838
:1008100030B1206C042801D100F00CF8012003E075
:100820002068EDB205610020BDE8F2834049204612
:10083000A8E000002068016841F400710160704781
:1008400041462046DFE02DE9F84F05462868DDF8EF
:1008500028800B9F0C46FFF798FF16462868016812
:1008600041F480719946016000F055F800284FF47A
:10087000007A2CD12968DFF8B8B004F0FE000861D6
:1008800000F044F8002832D10090296800F036F8D2
:1008900000F032F870B9B9F1010F05D02968300ABB
:1008A000086100F027F828B92868F6B2066100F060
:1008B00021F830B1286C042819D1286800F033F8E9
:1008C00015E02868FFF70DFD00F025F838B128681D
:1008D0000168CA0548BFC5F840A0032008E02868A1
:1008E00044F00104E4B2046100F010F800B101200A
:1008F000BDE8F28F3A464146284684E04A690092B4
:100900003A46896900914146009870473B46424605
:100910005946284636E00097434600224FF0011121
:10092000284607E03068016841F4007101607047B3
:10093000020001002DE9F041069F05460E46904653
:100940001C4631022868090E01290CBF40698069E4
:10095000304080B2B1B288420CBF01200020404537
:100960000DD114F1010FECD000F028FBC01B844224
:1009700001D3002CE5D100F063F8012000E0002055
:10098000BDE8F081F8B505460E4614461F46310213
:10099000090E2868012919D14169314089B2B2B2E2
:1009A000914219D041694A0518D500F025F82A6806
:1009B0005061002105F13C002963202242708170C2
:1009C000426842F004024260017013E081693140E4
:1009D00089B2B2B29142E5D10020F2BD14F1010F0B
:1009E000D5D000F0EBFAC01B844201D3002CCED14D
:1009F00000F026F80120F2BD016841F400710160A9
:100A00006FF48060704770B505460C46164628683E
:100A10004169080612D4284600F069F808B101209F
:100A200070BD14F1010FF2D000F0C8FA801B8442AF
:100A300001D3002CEBD100F003F8F0E7002070BDEB
:100A400000202863202105F13C00002241708270C3
:100A5000416841F0200141600270704770B5054661
:100A60000C46164628684169480712D4284600F00B
:100A70003EF808B1012070BD14F1010FF2D000F072
:100A80009DFA801B844201D3002CEBD1FFF7D8FFE5
:100A9000F0E7002070BD70B505460C461646286884
:100AA00041694A0617D44169CA060BD400F086FA98
:100AB000801B844201D3002CF1D100F00EF841F0EC
:100AC000200104E06FF01001416100F006F8416080
:100AD0000270012070BD002070BD0020286320211D
:100AE00005F13C0000224170827041687047016846
:100AF0004A6953050FD56FF480624A610021016392
:100B00003C30202242708170426842F00402426010
:100B10000170012070470020704730B4002513E0B9
:100B200050F8042BD30744BFA9F101039A18091FF9
:100B3000042942F8045BFAD213468C0744BF15809F
:100B40009B1CC90748BF1D7050F8041B0029E7D142
:100B500030BC704781B0002000900022924841686C
:100B600041F480414160416801F480410091009965
:100B70000092036843F080530360006800F08050E7
:100B80000090009801B0704710B586B000F071F881
:100B90002168864A8648874C91420ED100F023F89E
:100BA000C02200F028F800200090216941F40011D3
:100BB0002161206900F4001011E07F4A914210D1B8
:100BC00000F011F84FF4406200F015F8002000909A
:100BD000216941F480012161206900F480000090C6
:100BE000009806B010BD002100911223226842F047
:100BF000020222607047216801F002010091009911
:100C0000019202930022039203230422049305928B
:100C100001A900F0D9B910B586B000F02AF8216812
:100C20006648814223D1002262480092416941F422
:100C300080514161416901F4805100910099009215
:100C4000E021036843F0010303600222006800F022
:100C50000100009000985A480191029200210391EE
:100C6000032205210591049201A900F0ADF906B017
:100C700010BD04461422002101A800F025BB006825
:100C80004E49884208D14F48026822F480520260DF
:100C9000E0214B4800F078BA704710B586B00446A2
:100CA00014220021684600F00FFB2268464B44489E
:100CB00040499A4217D1002205924B6943F0100334
:100CC0004B6100234A6902F010020592059A0593D0
:100CD0004FF4C06200F052F800220021252000F0FD
:100CE00017FB252046E0394B9A4216D10022059287
:100CF0000B6943F400330B6100230A6902F40032EC
:100D00000592059A05930F2200F038F80022002181
:100D1000262000F0FDFA26202CE02D4882422BD11F
:100D200000220592086940F480200861086900F4F7
:100D3000802005900598059202220B6843F0080375
:100D40000B60086800F0080005904FF440710598AA
:100D50002048009101920021029103220721049171
:100D60000392694600F030F900220021272000F0AC
:100D7000CFFA272000F0E9FA06B010BD0C6844F065
:100D800001040C600223096801F001010591059935
:100D900000920193002202920323072203930492FC
:100DA000694600F011B9000040380240005400408C
:100DB000000402403038024000580040003001403A
:100DC000000002404438024000100140004400404E
:100DD00000480040000C02402DE9F04104000F469D
:100DE00054D0574E306800F00700B84202D200F0ED
:100DF00073F84BD12068534D810712D5400703D5B6
:100E0000A96841F4E051A9602078010703D5A868DA
:100E100040F46040A860A968A06821F0F001014397
:100E2000A9602178C80729D56068012802D12968FE
:100E30008A0305E0022818BF032803D129688A0124
:100E400003D423E029688A0720D5A968890840EAE5
:100E50008100A86000F0B2F88046A868616800F0E0
:100E60000C00B0EB810F09D000F0A8F8A0EB08004F
:100E700041F289318842F0D303202BE0306800F042
:100E80000700874204D200F027F801D0012021E0BA
:100E90002078410705D5AA68E06822F4E0520243B1
:100EA000AA602178080706D5A968206921F4604165
:100EB00041EAC001A96000F051F8AA682249234B19
:100EC000C2F30312895CC84018602148006800F032
:100ED00051FA0020BDE8F0813770316801F0070158
:100EE000B942704719481B4A006813681A49C3F38E
:100EF000822206E01548174A006813681649C3F3B2
:100F00004232895CC840704710B50F220260114A16
:100F1000136803F003034360146804F0F004846072
:100F2000136803F4E053C3601268D20802F4E0527D
:100F300002610348026802F007020A6010BD000067
:100F4000003C024000380240BC360008400200204D
:100F50003C020020083802407437000830B5144CB9
:100F6000606800F00C00042802D0082802D01DE0C0
:100F7000104830BD226820680023410202F03F0281
:100F800004D525680B49C5F3881003E020680A4999
:100F9000C0F38810A1FB000100F03CFA2168C1F306
:100FA0000141491C4900B0FBF1F030BD024830BDA1
:100FB0000438024000127A000024F400014840681E
:100FC000704700BF340200202DE9F84F0D4600267F
:100FD000B249B34A0F23044601202F68B04000EA0B
:100FE0000708804540F0CA804FEA460C032707FAFD
:100FF0000CF76FEA070E6F6807F00309B9F1010FEC
:101000001CBF07F00307022F12D1A768D5F80C9078
:101010000EEA070709FA0CF949EA0707A7606768AB
:1010200027EA00006F68C7F30017B74038436060D5
:10103000B0002F7907F00307032F21D0E768D5F818
:1010400008900EEA070709FA0CF949EA0707E76072
:101050002F7907F00307022F12D1F70804EB870757
:1010600000F01C09D7F820A003FA09FB2AEA0B0AB2
:10107000D5F810B00BFA09F949EA0A09C7F8209027
:1010800027680EEA070E2F7907F0030707FA0CF717
:1010900047EA0E0727606F6817F4403F6ED00027BD
:1010A00000974FEA960C176847F48047176000F0E6
:1010B0000C00176807F48047009703FA00FE009FB2
:1010C000784F57F82C7027EA0E0E774FBC4208BFB6
:1010D000002722D0754FBC4208BF01271DD0744F96
:1010E000BC4208BF022718D0724FBC4208BF03277A
:1010F00013D0714FBC4208BF04270ED06F4FBC42C3
:1011000008BF052709D06E4FBC4208BF062704D090
:101110006C4FBC420CBF0727082707FA00F0614F4D
:1011200040EA0E0047F82C006FEA08008F6800EADA
:10113000070C6F68FF0248BF48EA0C0CC1F808C0F2
:10114000CF6800EA070C6F68BF0248BF48EA0C0C82
:10115000C1F80CC04F6800EA070C6F68BF0348BFB6
:1011600048EA0C0CC1F804C00F6800EA070C686874
:10117000C00348BF48EA0C0CC1F800C0761C0F2E13
:101180007FF62AAFBDE8F18F2DE9F84F81460C4676
:1011900000254248434A00940F210123009E03FA90
:1011A00005FA0AEA060656456ED14FEA950C4FEA53
:1011B000850B52F82C403C4F0BF00C0E01FA0EF848
:1011C000B94508EA040408BF002722D0374FB945C3
:1011D00008BF01271DD0364FB94508BF022718D0D8
:1011E000344FB94508BF032713D0334FB94508BF63
:1011F00004270ED0314FB94508BF052709D0304F1D
:10120000B94508BF062704D02E4FB9450CBF0727A4
:10121000082707FA0EF7BC4212D10468F64334409F
:101220000460446834404460C4683440C4608468E6
:101230002640866052F82C4024EA080442F82C40EC
:1012400003246E00B440E643D9F800403440C9F8A6
:1012500000400BF01C0BEC0809EB840401FA0BFBBB
:10126000276A27EA0B072762D9F80C403440C9F8EF
:101270000C40D9F8044024EA0A04C9F80440D9F81B
:1012800008403440C9F808406D1C0F2D86D9BDE8D0
:10129000F18F02B90904816170470000003C0140F0
:1012A0004438024008380140000002400004024077
:1012B00000080240000C02400010024000140240EE
:1012C00000180240001C024010B5044610460A46B1
:1012D0000146204600F022F9204610BD0901020017
:1012E00002D41F48815470471E4B02F00F021A446B
:1012F00002F8041C70471C4B19684FF6FF020002ED
:10130000114000F4E0600843184908431860704732
:1013100070B5154B1C68C4F302230124C3F1070503
:10132000052D2EBF0F2504FA05F56D1E1E1D072E77
:1013300034BF0023DB1E2940994004FA03F3BDE8C3
:1013400070405B1E1A401143C8E7010007D4012218
:1013500000F01F01064B8A40400943F820207047E7
:1013600000E400E018ED00E00CED00E00000FA05FC
:1013700000E100E078B587B00446002000902048E6
:10138000016841F00401016001A9006800F0040057
:10139000009002A8009AFFF7B7FD059810B9FFF773
:1013A000A1FD02E0FFF79EFD4000164D1649174BC8
:1013B0002960B0FBF3F0401E40F2E7326860002184
:1013C000EA602961A960A961284600F0DBF80600FF
:1013D00012D1284600F0E3F806000DD11E20FFF7D9
:1013E000B4FF102C07D2002221461E20FFF790FFE9
:1013F0000748046000E00126304608B070BD0000D8
:1014000040380240E00200200008004040420F0047
:101410003C020020D3BBD9B1B2F5803F5BD2022A97
:101420001ED98C46B1FBF2F102FB11C31B0443EA47
:101430001043B3FBF2FC02FB1C3380B240EA0343CF
:10144000B3FBF2F002FB103240EA0C40002370477D
:10145000022A05D98446B0FBF2F002FB10C27047A5
:101460004AB105D100F0010249085FEA3000704737
:1014700000220023704700F001BA0B000200002197
:1014800000207047F7D3002200237047904271EB91
:10149000030CF2D370B5B1FA81F4B3FA83F52C1BC7
:1014A000A340C4F1200532FA05F63343A2405FF0B1
:1014B0000046E64002E05B085FEA3202841A71EB04
:1014C000030524BF204629467641F4D302000B00D1
:1014D0003000002170BD70B5B1FA81F4B2FA82F526
:1014E000C4F120046419B4F12006DAD3B2405FF0ED
:1014F0000044F440002502E052085FEA3303C61AB4
:1015000071EB020E24BF3046714664416D41F3D346
:1015100002000B002000290070BD000062F30F22C2
:1015200062F31F42401810F0030308D0C91A1FD3FA
:10153000DB0748BF00F8012D28BF20F8022D13005B
:1015400030B414461546103928BF20E93C00FAD8BB
:10155000490728BF20E90C0048BF40F8042D890046
:1015600028BF20F8022D48BF00F8012D30BC70477D
:10157000C91818BF00F8012DCB0728BF00F8012DAE
:101580007047000038B5040001D1012032BD00F0E1
:1015900065F818B900F00AF900F06EF93DE090F82E
:1015A0003D10012901D001207047022180F83D1033
:1015B0000168CA6842F00102CA600068DFF8801062
:1015C000884218BFB0F1804F17D0DFF878108842FA
:1015D0001CBFDFF8742090420FD0DFF870108842F3
:1015E0001CBFDFF86C20904207D0DFF868108842FB
:1015F0001CBFDFF86420904209D1816801F0070127
:10160000062908D0016841F00101016003E0026889
:1016100042F0010202600020704702206870211D24
:10162000206800F0C7F80120A872A870E87028713F
:101630006871A871E871287268726870002032BD04
:10164000000001400004004000080040000C004081
:1016500000040140004001400018004004F13C0536
:101660006878704710B50446206801698A0715D567
:10167000C1688A0712D56FF0020101610122227749
:10168000806910F0030F204602D000F0F8F803E064
:1016900000F0F6F800F087F8002020772068016954
:1016A0004A0715D5C1684A0712D56FF004010161D8
:1016B00002222277806910F4407F204602D000F099
:1016C000DEF803E000F0DCF800F06DF80020207791
:1016D000206801690A0715D5C1680A0712D56FF09D
:1016E0000801016104222277C06910F0030F20462F
:1016F00002D000F0C4F803E000F0C2F800F053F8A4
:101700000020207720680169CA0615D5C168CA067D
:1017100012D56FF01001016108222277C06910F420
:10172000407F204602D000F0AAF803E000F0A8F8BD
:1017300000F039F80020207720680169CA0708D531
:10174000C168CA0705D56FF001010161204600F0AC
:1017500056FA206801690A0608D5C1680A0605D547
:101760006FF080010161204600F074FA2068016981
:101770004A0608D5C1684A0605D56FF040010161E7
:10178000204600F068FA206801698A060AD5C16817
:101790008A0607D56FF0200101612046BDE81040A0
:1017A00000F05ABA10BD204600F057BA0021297047
:1017B00020467047F0B5254C0568254B254E264F31
:1017C000DFF898C0A04218BFB0F1804F07D0604545
:1017D00018BFB84203D0B04218BF98420DD14A6832
:1017E00025F070051543A04218BFB0F1804F17D007
:1017F00060451CBFB842B04212D098421CBF184A84
:1018000090420DD0174EB0421CBF174A904207D0ED
:10181000164EB0421FBF164A9042164EB04203D138
:10182000CA6825F4407515434A6925F080051543BB
:101830000560A0428D68C5620A68826212BF984244
:101840000969016301224261F0BD0000000001400E
:1018500000040140000C004000080040000400406B
:101860000040014000440140004801400018004091
:10187000001C004000200040704700007047704787
:10188000704700002DE9F04186B000F0E7F900F064
:1018900068F91421684600F0FBF90020059040F239
:1018A0008175DA48DFF868830168DA4EDA4FDB4C7D
:1018B00041F004010160026802F004020592002276
:1018C00005990592036843F080030360016801F005
:1018D000800100F030F943F001030360016801F07A
:1018E000010100F028F943F010030360016801F0E2
:1018F000100100F020F943F002030360016801F0D9
:1019000002010591059905921021036843F008032F
:101910000360006800F00800059005984046FFF756
:10192000B8FC002229463046FFF7B3FC00224FF4F2
:1019300080613846FFF7ADFC0022F0212046FFF71A
:10194000A8FC102100F0FCF84046FFF73DFB012009
:101950000190002202920392009569463046FFF7FB
:1019600033FB4FF4406000F0E1F800F0DBF84FF497
:1019700010700021009002914FF48815019569467E
:101980003846FFF721FB4FF4807000F0CFF8404657
:1019900000F0C9F84FF41041009101950021029127
:1019A00069464046FFF710FB4FF4806100F0C8F82D
:1019B0003846FFF709FB4FF4C05000F0B7F838463F
:1019C00000F0B1F80921009101950021029100F089
:1019D000A9F8F02100F0B4F82046FFF7F5FA00214D
:1019E000019102914FF44078CDF8008069468C480F
:1019F0008C4D8D4EFFF7E8FA8C48E8654FF4804730
:101A000000206866A86628676867A867E8672E668A
:101A1000EF6605F15C00FEF7B7FB08B100F018F9BE
:101A200005F1B0048248206066600021A160E16099
:101A300027616161A161E16121622046FEF7A4FB9B
:101A400008B100F005F97B4868604FF48271A96025
:101A50000020E860002168612961A961296269624A
:101A6000A962E9624FF40070E8610A212963281D28
:101A700000F012F908B100F0EBF86F4860654FF420
:101A8000E136A6650020E065206660660C21A1664F
:101A9000E066206705F5827000F06AFC08B100F08E
:101AA000D7F805F5A4776548386000210C207861E7
:101AB000B960F9603961F9617E60C7F8188038460D
:101AC00000F056FC08B100F0C3F85D4878640021CE
:101AD0000C20B865F96439657965F9653966BE64C5
:101AE00005F5C67000F044FC08B100F0B1F800F054
:101AF00077FF4FF400728021204600F07DFF08B18F
:101B0000002028704FF400728021204600F07BFFF7
:101B100008B10020287001F07BF801F039F906B017
:101B2000BDE8F08120466946FFF74EBA00210090DB
:101B300001910291704705910599059203687047DC
:101B400000910122002102910391019269467047A0
:101B500080B5562001F021F8BDE802400A2001F0CE
:101B6000DFB980B592B0302106A800F091F81421B9
:101B700001A800F08DF8002000903248016841F083
:101B8000805101600021006800F0805000900098B2
:101B90002D4800910221026842F480420260012235
:101BA000006800F48040009000980691099210218E
:101BB0000A91022200210C920D91082260210E92BE
:101BC0000F91022204211092119106A801F0BCF994
:101BD00008B172B6FEE702210291802203920F2023
:101BE0004FF480510190049100220592012101A837
:101BF000FFF7F2F808B172B6FEE713B000BD006857
:101C00001249884208BF01F02DBB704730380240AE
:101C1000000002400010024000080240000C024098
:101C20000004024064000020A0860100005400402F
:101C300000580040003001400010014000440040C6
:101C4000004800404038024000700040000800405A
:101C500072B6FEE7704770477047704780B50B4813
:101C6000016841F400710160026842F48062026020
:101C7000016841F4807101600320FFF73CFB0F20F5
:101C8000FFF778FBFEF766FF002002BD003C024034
:101C9000002201F0EFBA000038B5040001D10120A4
:101CA00032BD606A28B900F099F905D00021E161E0
:101CB00002E00020206160610020A06204F1500574
:101CC000687820B9002129702046FEF7A4FF022081
:101CD000687000F08EFA6068A168E26800F48270B3
:101CE00001F404410843217C02F400621043227D88
:101CF00001F002010843A16902F001021043227FB2
:101D000001F40071084394F8201002F038021043E7
:101D1000A26A01F080010843216802F400521043D6
:101D20000860A06994F824102268000C00F00400F8
:101D300001F01001084350602068C16921F400617E
:101D4000C161002068600121697032BD10B508B919
:101D5000012010BD00F150040221617001680A6881
:101D600022F040020A60FEF78AFF00206060607087
:101D7000207010BD2DE9F84300F01AFA984608BF0C
:101D8000022000F08D8001203870FFF717F9797874
:101D9000012918BF02264BD1002C18BFB9F1000F42
:101DA0007BD0032179707E602C63A5F83490A5F870
:101DB0003690AE63AE87EE876E642E64AB68B3F583
:101DC000004F09D129680B6823F040030B60296894
:101DD0000C6844F480440C6029680B685C0603D4EA
:101DE0000B6843F040030B604446E968B1F5006FAF
:101DF000696821D1002918BFB9F1010F00F0EDF990
:101E0000804604E0296B0A88C26000F0C3F9E88EBE
:101E1000002833D0286881688A07F3D4FFF7CEF80A
:101E2000A0EB0800A04204D314F1010FEFD0032669
:101E300034E0002CEBD1FAE7002918BFB9F1010F0B
:101E400000F0BFF9804606E0296B0A780273286B20
:101E5000411C00F0A1F9E88E80B1286881688A07EA
:101E6000F2D4FFF7ABF8A0EB0800A04203D314F1C3
:101E7000010FF0D0DBE7002CEDD1D8E74246214638
:101E8000284600F042FA08B120207860A86810B90E
:101E900000F087F9009A786800B1012600F0A2F8F6
:101EA000BDE8F2832DE9F843002604460D4600F014
:101EB00095F804BFA06800289146984604F15007A1
:101EC00009D104267E70CDF800804B462A46204674
:101ED00000F08EF880E03878012808BF02207BD01F
:101EE00001203870FFF76AF87978012918BF0226B7
:101EF00070D1002D18BFB9F1000F6AD0042179709C
:101F00007E60A563A4F83C90A4F83E902663A68664
:101F1000E68626646664A268B2F5004F09D121689E
:101F20000A6822F040020A6021680B6823F48043AB
:101F30000B6021680A68530603D40A6842F0400225
:101F40000A600546E168002926D108E0007BA16B04
:101F50000870A06B421CA263E08F411EE187E08FF6
:101F600068B320688168CA07F0D4FFF727F8401BE0
:101F7000404504D318F1010FF1D003262AE0B8F14F
:101F8000000FECD1F9E7C068A16B0880A06B821C40
:101F9000A263E08F411EE187E08F80B120688168F5
:101FA000CA07F0D4FFF70AF8401B404503D318F1E5
:101FB000010FF1D0E1E7B8F1000FEDD1DDE72A46DE
:101FC0004146204600F07BF908B12020786078680F
:101FD00000B1012600F006F8BDE8F2836068B0F5B4
:101FE000827F704701207870002139703046704739
:101FF0002DE9FC4700F0DCF84FF0010808BF022093
:1020000000F0C6809A4687F80080FEF7D7FF7B78FD
:10201000012B09D06968B1F5827F02BFA968002948
:10202000042B01D00226AEE0002C1CBFB9F1000F3A
:10203000BAF1000F01D10126A5E07B78042B1CBF6B
:10204000052179707E60C5F83890A5F83EA0A5F806
:102050003CA02C63A5F836A0A5F834A02E646E64CD
:1020600029680C68630603D40C6844F040040C60D3
:10207000E9680A9CB1F5006F696838D1002918BF7A
:10208000BAF1010F00F0A9F88146E88E002804BFDC
:10209000E88F002868D02968886882070BD5E88E09
:1020A000002818BFB8F1000F05D0286B0288CA605D
:1020B000B04600F06FF829688868C2070CD5E88F31
:1020C00050B1C868A96B08804FF00108A86B821C4A
:1020D000AA63E88F411EE987FEF770FFA0EB0900B5
:1020E000A042D2D314F1010FCFD003264BE0002938
:1020F00018BFBAF1010F00F064F88146E88E00289D
:1021000004BFE88F00282FD02968886882070DD582
:10211000E88E002818BFB8F1000F07D0286B0278AE
:102120000A73B046286B411C00F036F829688868AD
:10213000C2070CD5E88F50B1C868A96B08704FF082
:102140000108A86B421CAA63E88F411EE987FEF7CD
:1021500035FFA0EB0900A04203D314F1010FCDD04D
:10216000C3E7002CCAD1C0E74A462146284600F002
:10217000CCF818B120200126786004E0A86810B9D6
:1021800000F00FF800980121797000203870304677
:10219000BDE8F687286B811C2963E88E411EE9861D
:1021A000704700962968CA68009289680091704754
:1021B000054605F150070026387801280C4691465F
:1021C000704709D1296B2B680A781A73296B4A1C4E
:1021D0002A63E98E4A1EEA86704709D1296B2B686B
:1021E0000A88DA60296B8A1C2A63E98E4A1EEA860D
:1021F00070472068016821F04001016070472DE9B7
:10220000F843089C05460E4690461F46FEF7D6FE4C
:10221000381A2418FEF7D2FE814653480168490156
:10222000090D6143009105E0009800B90024009871
:10223000401E0090286881683140B1420CBF0120E7
:102240000020404532D017F1010FF3D0FEF7B6FE63
:10225000A0EB0900A04201D2002CE5D1286841681A
:1022600021F0E00141606868B0F5827F08D1A8687C
:10227000B0F5004F18BFB0F5806F01D100F019F82C
:10228000A86AB0F5005F09D12868016821F40051FF
:1022900001602868026842F40052026005F15000B3
:1022A0000121417000220270032000E00020BDE8FF
:1022B000F2832868016821F04001016070471CB575
:1022C00004460B46FFF78AFE08D1A068B0F5004F20
:1022D00018BFB0F5806F04D1FFF78BFFFFF77EFECC
:1022E00007D1A0680092B0F5806F03D00022802152
:1022F00002E00092002201212046FFF780FF10B18A
:1023000000F02BF816BD002016BD7CB5044616481B
:10231000164E0B4601681825B1FBF5F5B5FBF6F630
:102320004FF47A70464300966168B1F5827F09D117
:102330000092802100222046FFF761FF58B100F093
:102340000CF876BD009830B10098401E00902168CE
:1023500088680106F6D4002076BD606D40F020004C
:1023600060650320704700004002002040420F00DB
:1023700038B5040001D1012032BD00F017F808B9CA
:1023800000F018F800F01BF800F023F8FFE74161B7
:1023900000F001F832BD2068C16841F40051C1600D
:1023A0000020686020216970A970704704F13C0525
:1023B00068787047002129702046FEF76EBC242003
:1023C00068702068C16821F40051C160204600F0A7
:1023D000A3BA2068016921F4904101612068416934
:1023E00021F02A0170472DE9F843054605F13C0626
:1023F0000C46707820281746994649D10CB1380010
:1024000001D1012045E03078012841D0012131700F
:102410000020706021227270FEF7D0FDAF848046EC
:10242000EF84A868B0F5805F04BF286900280EBF5C
:102430002746204600270021317004460EE014F89C
:10244000012B426007E02868002CF8D137F8021B06
:10245000C1F308014160E88C411EE9844346E88CE1
:10246000CDF80090002807D000228021284600F0F7
:1024700069F90028E7D005E000224021284600F055
:1024800061F908B1032004E020207070002000E012
:102490000220BDE8F283216801F1140252E8001F16
:1024A000206800F1140321F0400143E800100028E7
:1024B00070477CB5044621680B68CD684A6913F003
:1024C0000F0007D1980661D5AA065FD52046BDE862
:1024D0007640B7E1D00702D415F4907F56D0D807E4
:1024E00005D5E90503D5206C40F0010020645807AC
:1024F00005D5D10703D5206C40F002002064980771
:1025000005D5D10703D5206C40F0040020641807DE
:1025100007D5A90601D4D00703D5216C41F00801E5
:102520002164206C002830D0980604D5A90644BF49
:10253000204600F087F920684069216C0A0701D421
:1025400040061DD5204600F053F920684169480631
:1025500011D5FFF7A0FFFCD1A06B60B10FF2D9211C
:102560000165A06B00F0DCFE00280ED0A06B016DB1
:10257000BDE87C4008472046BDE8764000F0F5BE47
:10258000204600F0F2FE0020206473BD206B01287D
:1025900004F13D0240F08680D80600D5EE0640F1F9
:1025A0008180002300930D6800954B68009300988C
:1025B000496948063FD5A16B0868406880B2002889
:1025C000E3D0A38D9842E0DAE085C869B0F5807F5A
:1025D0002DD0216801F10C0050E8001F236803F1A1
:1025E0000C0521F4807145E800100028F1D100F0BD
:1025F0009BF8490800F11405490045E8001000283F
:10260000F5D100F091F800F1140521F0400145E802
:1026100000100028F5D1202050700021216300F027
:1026200089F800F0BEF8FAD1A06B00F03DFEA18D54
:10263000E08D091A30E0A08DE18D411AE08D00286F
:102640001CBF88B2002868D0206800F10C0353E852
:10265000003F00F10C0623F4907346E80030002898
:10266000F2D1206800F05AF800F114065B0046E849
:1026700000300028F5D1202050700022226320680D
:1026800000F10C0252E8002F00F10C0522F01002BC
:1026900045E800200028F2D12046BDE87C4089B200
:1026A00000F064BE180629D52E0627D510782128FB
:1026B00033D1A068B0F5805F04BF2069002808D13D
:1026C000206A0288C2F308024A60206A811C2162E3
:1026D00004E0206A421C226200784860E08C401EC0
:1026E000E08480B2C8B92068C16821F08001C1606F
:1026F0002068C16841F04001C16073BD58060CD527
:102700006B060AD5C86820F04000C860202111700F
:102710002046BDE8764000F02ABE73BD00F11403E8
:1027200053E8003F5B087047206800F1140151E84E
:10273000001F7047206800F10C0151E8001F00F1F4
:102740000C0370472DE9F041069C05460E46904665
:102750001F46286801683140B1420CBF01200020AB
:1027600040451BD114F1010FF3D024B1FEF726FC34
:10277000C01B8442EDD200F01AF821F4D07100F0B1
:1027800012F8F8D100F01BF8FCD105F13C00202133
:102790004170817000210170032000E00020BDE83D
:1027A000F08121F0100143E80010002870472868EC
:1027B00000F10C0151E8001F00F10C03704728687C
:1027C00000F1140151E8001F490800F11403490009
:1027D00043E800100028704744E8002100297047B2
:1027E000016801F10C0252E8002F01F10C0470475E
:1027F00010B5FFF7F5FF22F49072FFF7EDFFF8D167
:1028000000F00BF8016B012901D100F070F82021D4
:1028100080F83E100022026310BD016801F114022D
:1028200052E8002F520801F11404520044E800213C
:102830000029F2D170470000806B0021C185C1845E
:1028400000F093BD1CB590F83E1022294DD181684F
:10285000826AB1F5805F0AD1016969B90368596874
:10286000C1F308011180826A911C81620FE0002986
:1028700004BF0169002902D10368596803E00168B7
:10288000496801F07F011170816A4A1C8262C18D22
:10289000491EC18589B231BB0168CA6822F0200295
:1028A000CA600168CA6822F48072CA6001684A6915
:1028B000520852004A6100F029F812D10021016348
:1028C00000F015F802681168CB0606D500240094C4
:1028D00013680093526800920099818D00F046FDC4
:1028E00001E000F045FD002016BD022016BD026883
:1028F00002F10C0151E8002F036803F10C0422F0EF
:10290000100244E800210029F1D17047202180F80D
:102910003E10026B012A704770B5044622681169A7
:10292000E06821F4405101431161D3682648A16851
:10293000034020690B4361690343E0690B43034390
:10294000D3605169A06921F44071014351611F496D
:102950008A421CBF1E48824202D1FEF7CBFA01E038
:10296000FEF7C0FA62682568E46964261921B4F5A7
:10297000004FA1FB000112D1D30F5200FEF74AFD18
:1029800000F028F8F60032366420B6FBF0F0420082
:1029900002F4F87202EB011200F0070010E0930F4E
:1029A0009200FEF737FD00F015F83601323664204C
:1029B000B6FBF0F000F0F00202EB011200F00F00A5
:1029C0008018A86070BD0000F369FFFF001001408F
:1029D000001401406421B0FBF1F106FB11067047C1
:1029E00010B5034C0348211D00F0E0FC207010BD21
:1029F00054030020C802002070B500F014F800F065
:102A00001BF8217905E070B500F00DF800F014F81E
:102A1000617901230522490004F11000FDF710FE41
:102A200000B1012070BD0D461646774C0146542278
:102A300004F1100000F0BEBC3000E58026810FD00C
:102A4000B6F5007F0FD0B6F5806F0FD0B6F5C06F2A
:102A50000FD0B6F5006F0FD0B6F5206F10D07047CD
:102A60004FF079510AE04FF078500BE04FF076517B
:102A700004E04FF0745005E04FF07251E160704790
:102A80004FF07050E0607047FEB500F065F82979AE
:102A900000F044F80027002817D100F03BF829790E
:102AA00000F04FF888B92878010648BF00267F1C3F
:102AB000B8B2642809D03000EFD100F02BF8AA1C7E
:102AC000297900F033F800B956E00120FEBDFEB5CB
:102AD00000F042F8697900F021F80027002817D1AA
:102AE00000F018F8697900F02CF888B92878010608
:102AF00048BF00267F1CB8B2642809D03000EFD14F
:102B000000F008F8AA1C697900F010F800B933E069
:102B10000120FEBD02210191012070470296012390
:102B20000122490005F11000FDF7F6BB029000926A
:102B300049000123002241F0010105F11000FDF7D9
:102B400083BC0290490000950123012241F001015C
:102B500005F11000FDF778BC2B4D00950C46298936
:102B6000084340F0810028700221E888019140F07C
:102B70000300687001267047A978E878D5ED030A4C
:102B8000090640EA214100EE101AB8EEC00A60EED4
:102B9000200AC4ED000A0020FEBD70B52DED028BA9
:102BA00082B005460026BFEE008A184C25FA06F0D2
:102BB000C0071ED5711006EB91729210A6EB820031
:102BC000C0B20021001D00910005042E69464FEAA5
:102BD000104002DAFFF758FF01E0FFF778FF002806
:102BE00019BF04EB860181ED008A009844F82600A5
:102BF00003E004EB860080ED008A761C082ED5DB0E
:102C000002B0BDEC028B70BD000000202803002044
:102C1000012200E000221021DFF89402FEF739BB08
:102C20007FB50FF2E42191E81C0001A8002180E8A3
:102C30001C008DF80510ADF806108DF80810FF2562
:102C400001218DF809107A26DFF868428DF80050CE
:102C50008DF8046000F095F8FFF7DCFF00F091F8C4
:102C600000F07FF800F08DF800F082F800F089F8AD
:102C700000F07EF800F085F800F07AF800F081F8B6
:102C800000F076F800F07DF800F072F800F079F8C6
:102C900000F06EF800F075F800F06AF8FFF7B8FF82
:102CA00000F06FF87FBD7FB50FF2682191E81C003E
:102CB00001A8FF2680E81C008DF80060FFF7A8FF40
:102CC000DFF8F0412046FFF741F83820E06142F29A
:102CD00010752046FEF7E0FF8DF8016001AE284632
:102CE000451E00283CD00021717071803171772021
:102CF00001218DF8040000F043F8FFF78BFF00F08E
:102D000040F800F02EF800F03CF800F031F800F048
:102D100038F800F02DF800F034F8FFF779FF00F0F4
:102D200030F8692040218DF80400717000200121E5
:102D30007080307100F024F8FFF76CFF00F021F88C
:102D400000F00FF800F01DF800F012F800F019F88C
:102D5000FFF75EFF00F015F89DF801000028BED1D6
:102D60007FBD4FF0FF33062201A92046FFF702B8CE
:102D70004FF0FF3301220DF101012046FFF792B819
:102D800071714FF0FF33012269462046FEF7F2BF12
:102D90007FB500BF56A1474D91E81C0001A880E80F
:102DA0001C00FF248DF80040FFF732FF0F208DF844
:102DB00001004FF0FF330A2201A92846FEF7DAFF8F
:102DC000FFF726FF00F08CF840208DF8040000216A
:102DD00001A84170418001714FF0FF33952141718D
:102DE00000F06AF8FFF716FF00F07AF800F069F8D3
:102DF00003E000F061F800F06BF89DF80100012895
:102E00004FF0FF33F5D100F057F8FFF701FF00F066
:102E100067F800BF39A18DF8004001A891E84C0087
:102E200080E84C00482101228DF80410C270AA21CC
:102E30008722017142710024447084708DF8014032
:102E400000F04EF8FFF7E6FE00F04AF800F039F81F
:102E500000F046F800F03CF800F042F800F038F8D6
:102E600000F03EF800F034F800F03AF800F030F8E6
:102E700000F036F800F02CF800F032F800F028F8F6
:102E800000F02EF800F024F8FFF7C2FE00F028F85A
:102E9000FFF7C6FE0120FFF706FFFFF7C1FE284639
:102EA000FEF754FFEC612846FEF7F6FE7FBD0000FA
:102EB0000000024068000020012269462846FEF713
:102EC00059BF4FF0FF33062201A92846FEF752BF33
:102ED0004FF0FF3301220DF101012846FEF7E2BF5A
:102EE0004FF0FF33012269462846FEF743BF00003A
:102EF000FFFFFFFFFFFFFFFFFFFF0000FFFFFFFFE0
:102F0000FFFFFFFFFFFF0000FFFFFFFFFFFFFFFFCF
:102F1000FFFF0000FFFFFFFFFFFFFFFFFFFF0000BD
:102F200038B50446FEF74AF814F1010F054602D001
:102F3000044801786418FEF741F8401BA042FAD318
:102F400031BD00BF340200202DE9F843040016D043
:102F50002078DFF80063C10713D5B06800F00C00DB
:102F6000042807D0B06800F00C0008283DD1706834
:102F700041023AD53068810303D56068002800F02B
:102F800063812078B44F810719D5B06810F00C0F19
:102F900007D0B06800F00C0008285BD170684102CF
:102FA00058D43068810703D5E068012840F04C818F
:102FB0003168206921F0F80141EAC00131602178CF
:102FC000080779D56069A549002868D001220A6000
:102FD000FDF7F4FF0546706F81076DD4FDF7EEFF36
:102FE000401B0228F7D9032031E16068B0F5803F2B
:102FF00004D1306840F48030306011E0B0F5A02F8B
:10300000306806D140F480203060316841F480316E
:1030100005E020F480303060316821F48021316097
:10302000606858B1FDF7CAFF054630688103A8D42F
:10303000FDF7C4FF401B6528F7D3D4E7FDF7BEFFBB
:103040000546306881039CD5FDF7B8FF401B652815
:10305000F7D3C8E7E068A8B101213960FDF7AEFFFA
:1030600005463068810705D4FDF7A8FF401B0228FC
:10307000F7D9B8E73068216920F0F80040EAC100CC
:1030800030609CE73860FDF799FF05463168880796
:1030900095D5FDF793FF401B0228F7D9A3E70860F9
:1030A000FDF78CFF0546706F810705D5FDF786FF9C
:1030B000401B0228F7D996E7207841075FD5306C8E
:1030C0000025C1000AD400950125316C41F08051E2
:1030D0003164306C00F0805000900098DFF88081FF
:1030E000D8F80000C10513D4D8F8000040F480706F
:1030F000C8F80000FDF762FF8146D8F80000C1055E
:1031000006D4FDF75BFFA0EB09000228F5D96AE7BA
:10311000A068012805D00528306F06D140F00400D2
:103120003067306F40F0010005E040084000306734
:10313000306F20F00400306741F28938A06860B138
:10314000FDF73CFF8146306F810713D4FDF736FF52
:10315000A0EB09004045F6D345E7FDF72FFF814678
:10316000306F810706D5FDF729FFA0EB0900404528
:10317000F6D338E71DB1306C20F080503064A06980
:10318000002863D0B16801F00C0108293AD0022868
:103190002AD100203866FDF711FF0546306881010D
:1031A00005D5FDF70BFF401B0228F7D91BE7E069A7
:1031B000216A626A0843A16A490840EA8210491EEE
:1031C00040EA0140E16A40EA01607060012038662F
:1031D000FDF7F4FE04463068810137D4FDF7EEFEBA
:1031E000001B0228F7D9FEE600203866FDF7E6FE50
:1031F00004463068810129D5FDF7E0FE001B022856
:10320000F7D9F0E601281FD07068E26900F4800168
:10321000914202BF00F03F01226A914201BF47F68E
:10322000C0710140626AB1EB821F0DD1A26A5208DF
:1032300000F44031521EB1EB024F02BF00F070604B
:10324000E16AB0EB016F01D0012000E00020BDE891
:10325000F28300BF0038024000004742800E474220
:10326000007000400248416802788A184260704746
:103270003402002000B500BF130096469446103972
:1032800028BFA0E80C50FAD85FEA417C28BF0CC0E8
:1032900048BF40F8042BC90728BF20F8022B48BFBD
:1032A00000F8012B00BD0000F8B5044604F1340518
:1032B0006E6AFDF783FE07466878022805D08021F4
:1032C0002962002028700120F2BD2068016821F0E9
:1032D0001601016000F036F8E868002804BF68694C
:1032E000002801D000F03AF800F032F820680168B8
:1032F000CA070CD5FDF762FEC01B0628F6D32020B6
:10330000286203216970002028700320F2BDA86A9A
:103310003F218140B1600020012169702870F2BD19
:1033200090F83510022903D08022426501207047B1
:10333000052180F8351000680268520852000260CA
:10334000002070472068416921F080014161704789
:1033500020680168490849000160704720680168D9
:1033600021F0080101607047000070477047704706
:103370007047000070B50E4D6B7A04460120A3B96A
:103380006B7A0020E854687A05EB80067460687AEE
:1033900028440272687A421C6A72303008702F2208
:1033A0003A2048708A700020C87070BD0022E1E7A2
:1033B000480300204AB1000011F8013B521E00F8FA
:1033C000013B1CBF11F8013BF8E770471A494878E8
:1033D000002800D07047E0B548A0D0E90023CDE92F
:1033E0000023684600F0CAF882B20A2369461348EF
:1033F000FEF7F9FF07BD10B50F4C6078C8B1032286
:103400000CA1201D00F0C4F888B9201D00F018F8A8
:10341000012804D0022804D00B2805D007E0207032
:1034200005E00020207000E00020607010BD002149
:10343000617010BD41542B0044020020AC010020FB
:1034400010B504462FA100F0B7F808B9012010BD4F
:103450002FA100F050F808B9022010BD2FA100F0F4
:103460004AF808B9032010BD2EA100F044F808B9AD
:10347000042010BD2DA100F03EF808B9052010BDB4
:103480002CA100F038F808B9062010BD2BA100F0DF
:1034900032F808B9072010BD2AA100F02CF808B9AD
:1034A000082010BD29A100F026F808B9092010BD98
:1034B00028A100F020F808B90A2010BD27A100F0CB
:1034C0001AF808B90B2010BD26A100F014F808B9AD
:1034D0000C2010BD25A100F00EF808B90D2010BD7C
:1034E0005FF0040223A1204600F052F808B90E2034
:1034F00010BD002010BD204600F05EB84F4B0D0AF5
:103500000000000041542B454E414144430000005F
:1035100041542B444953414443000000454E414728
:10352000505300004449534750530000454E415208
:10353000544300004449535254430000454E414C0B
:10354000434400004449534C43440000454E415419
:10355000454D500044495354454D5000434F4E464D
:103560004947000045584954000000005354415455
:10357000555300005345543D0000000000F1010385
:1035800010F8011B11B110F8011BFBE7C01A7047BE
:1035900004E010F8013B6BB1491C521E52B10B788C
:1035A00090F800C09C45F4D002D24FF0FF30704735
:1035B000012070470020704710F8012B11F8013BE3
:1035C0000AB19A42F8D0D01A70470000FEE7FEE731
:1035D000FEE7FEE7FEE77047704770477047064812
:1035E000FEF740B80548FEF764BF0548FEF761BF27
:1035F0000448FEF75EBF0000E002002068010020E2
:10360000AC010020F001002030B501688468421848
:10361000416802EB5103C90703D54C4401E0491C42
:1036200005D19A420AD012F9011B12F8015B002958
:1036300004F8015BF3D4491EF7D5F2E70C3030BD36
:1036400010B5074979441831064C7C44163404E01F
:103650000A68081D114488470146A142F8D110BDEF
:103660002C000000480000004EF68851CEF2000108
:10367000086840F470000860BFF34F8FBFF36F8F8E
:103680004FF00070E1EE100A704700008FD4FFFF8A
:103690007C000000E0020020000000006DFFFFFF42
:1036A00010020000780000000000002002480168BD
:1036B00041F470010160704788ED00E000000000F7
:1036C00000000000010203040607080901E00000F1
:1036D00000BF02480121017000787047DC02002021
:1036E00000207047002070470120704700F00DF85F
:1036F000002801D0FFF7A4FFAFF300800020AFF354
:10370000008000F004F800F00CF80120704780B54C
:10371000FEF7B8F800F007F8FEF71AFA00F004F820
:10372000FAE700F009B8704780B5FFF74FFEBDE833
:103730000140FFF760BE00000746384600F002F87F
:10374000FBE7000080B5AFF30080024A11001820AB
:10375000ABBEFBE726000200014880470148004756
:10376000AD36000869370008AFF30080FFF77CFF33
:10377000FFF7BCFF0000000001020304FFF7FEBFDB
:10378000FFF7FEBFFFF7FEBFFFF7FEBFFFF7FEBF6D
:10379000FFF7FEBFFFF7FEBFFFF7FEBFFFF7FEBF5D
:1037A000FFF7FEBFFFF7FEBFFFF7FEBFFFF7FEBF4D
:1037B000FFF7FEBFFFF7FEBFFFF7FEBFFFF7FEBF3D
:1037C000FFF7FEBFFFF7FEBFFFF7FEBFFFF7FEBF2D
:1037D000FFF7FEBFFFF7FEBFFFF7FEBFFFF7FEBF1D
:1037E000FFF7FEBFFFF7FEBFFFF7FEBFFFF7FEBF0D
:1037F000FFF7FEBFFFF7FEBFFFF7FEBFFFF7FEBFFD
:10380000FFF7FEBFFFF7FEBFFFF7FEBFFFF7FEBFEC
:10381000FFF7FEBFFFF7FEBFFFF7FEBFFFF7FEBFDC
:10382000FFF7FEBFFFF7FEBFFFF7FEBFFFF7FEBFCC
:10383000FFF7FEBFFFF7FEBFFFF7FEBFFFF7FEBFBC
:10384000FFF7FEBFFFF7FEBFFFF7FEBFFFF7FEBFAC
:10385000FFF7FEBFFFF7FEBFFFF7FEBFFFF7FEBF9C
:10386000FFF7FEBFFFF7FEBFFFF7FEBFFFF7FEBF8C
:10387000FFF7FEBFFFF7FEBFFFF7FEBFFFF7FEBF7C
:10388000FFF7FEBFFFF7FEBFFFF7FEBFFFF7FEBF6C
:10389000FFF7FEBFFFF7FEBFFFF7FEBFFFF7FEBF5C
:1038A000FFF7FEBFFFF7FEBFFFF7FEBFFFF7FEBF4C
:1038B000FC0005484980000004A600000181008149
:1038C000008100AE000001F9000010FC000324F4A8
:1038D00000018100FC0014CD360008D1360008E15B
:0C38E000360008E5360008E93600080153
:04000005080037694F
:00000001FF
