:020000040800F2
:1000000008080020E15100088150000883500008D2
:100010008550000887500008895000080000000043
:100020000000000000000000000000008B500008ED
:100030008D500008000000008F500008915000080B
:100040000D520008115200081552000819520008FC
:100050001D520008215200082552000829520008AC
:100060002D5200083152000835520008395200085C
:100070003D5200084152000845520008495200080C
:100080004D520008515200085552000859520008BC
:100090005D5200086152000865520008695200086C
:1000A0006D5200087152000875520008795200081C
:1000B0007D520008815200089350000885520008C4
:1000C000895200088D52000891520008955200088C
:1000D00099520008995000089F500008A550000848
:1000E0009D520008A1520008A5520008A95200081C
:1000F000AD520008B1520008B5520008B9520008CC
:10010000BD520008C1520008C5520008C95200087B
:10011000CD520008D1520008D5520008D95200082B
:10012000DD520008E1520008E5520008E9520008DB
:10013000ED520008F1520008F5520008F95200088B
:10014000FD52000801530008055300080953000838
:100150000D530008115300081553000819530008E7
:100160001D53000821530008255300082953000897
:100170002D530008315300083553000800000000DB
:10018000395300083D5300082DE9F14FB0B09246B5
:1001900004910DF142013A9A2B9199464A70002040
:1001A0000AE01AF8011B0498309A9047002804903E
:1001B00000F0B6860D98401C0D909AF8000050B1E2
:1001C0002528EED1002100220791089209910A9278
:1001D0000B910C9204E00D9800F0A4BE41F00101D7
:1001E0001AF8010F2028F9D023280CD02B2804D08E
:1001F0002D2805D0302809D00BE041F00201EFE7AF
:1002000041F00401ECE741F00801E9E741F0100199
:10021000E6E72A280FD1D9F8002052F8040BC9F8D4
:10022000002000280F9003D540420F9041F00401B8
:100230000AF1010A14E00F92DFF828380AE00F985B
:10024000984205DA00EB800402EB4402303A0F9248
:100250000AF1010A9AF80020A2F130000A28EED330
:100260009AF800002E2803D04FF0FF320E9229E0BA
:100270001AF8010F2A2809D1D9F8000050F8042BE8
:10028000C9F800000E920AF1010A1BE02D280CBFEC
:100290000AF1010A002000220E92DFF8C8470BE0A5
:1002A00040B90E9AA24205DA02EB820503EB450340
:1002B000303B0E930AF1010A9AF80030A3F13002A4
:1002C0000A2AEDD3ADF84010DFF89C07784400F51A
:1002D000F3609AF8001000F057FF08B11AF8010B0C
:1002E0008DF842009DF84200682805D19AF8000078
:1002F00068280CD1622106E06C2804BF9AF800003F
:100300006C2804D171218DF842100AF1010A12A85B
:1003100006901AF801BBBBF125012CD01C3900F066
:10032000D081091F022940F2CC81133900F02385C6
:10033000093900F0C681891E00F0B885491E00F019
:100340006585491E022940F2BC81091F00F05E85C7
:10035000491F00F02881491E00F00D85491E00F05C
:10036000D080C91E0DD0891E00F00585C91E00F081
:10037000028500F0A6BD25238DF84830012100F04C
:10038000ABBDD9F8000050F8044BC9F80000002CB0
:10039000059440F0A3802B994878002800F09980BC
:1003A0004FF0FF340FF6843000F0FEFE201A40F0CC
:1003B000B78500F092BD6D1E40F0A9853096079D6F
:1003C00012AF75B1309E17F8012B02A9304600F02C
:1003D00073FE002801D46D1EF5D10028309640F040
:1003E0009F850A9D3020002D8DF804000CDD309E85
:1003F000012301AA02A9304600F06EFE002840F059
:100400008F856D1EF4D13096059F089D75B1309E85
:1004100017F8012B02A9304600F04EFE002801D447
:100420006D1EF5D10028309640F07A850B9D302066
:10043000002D8DF804000CDD309E012301AA02A9D5
:10044000304600F049FE002840F06A856D1EF4D168
:10045000309605980899099D471875B1309E17F890
:10046000012B02A9304600F027FE002801D46D1EA2
:10047000F5D10028309640F053850C9D3020002D9A
:100480008DF804000CDD309E012301AA02A930463C
:1004900000F022FE002840F043856D1EF4D1309616
:1004A0009DF8400041077FF588AE2020002C8DF894
:1004B00004007FF782AE309D012301AA02A92846DD
:1004C00000F00AFE002840F02B85641EF4D1309520
:1004D00073E60FF66440059000F0FFBC0E9D002D02
:1004E00004D5204600F080FE044607E02A46204658
:1004F00000F084FE002814BF041B2C46089400F072
:10050000ECBCD9F8001051F8040BC9F8001020F029
:100510000004002121F0FF3512ABCDE9024505931F
:10052000DDE9022306993C2413B90AB90E9898B163
:1005300002F00F053035641EEEB23A2EA8BF273503
:10054000120942EA03721B090D5508BF002A03D0A5
:1005500005980D19A842EBD308190590C4F13C0287
:100560000E98089282420ADABDF84010821A4FF6BD
:10057000EF7001400A92ADF8401000F0AEBC0028C8
:1005800040F1AB849DF8400000F01400102840F0CA
:10059000A4840F9B07990A985B1A1B1A9A1A002ABF
:1005A00040F39B84E5E32B99487820B14FF0FF346A
:1005B0000FF65430F8E69DF84200622861D06828B2
:1005C00017D06A283FD06C2806D0712847D07428ED
:1005D0002CD07A281DD064E0D9F8001051F8040B13
:1005E000C9F80010002868D14FF0FF340FF6303002
:1005F000DAE6D9F8001051F8040BC9F8001020B958
:100600004FF0FF340FF61830CEE60D99018000F060
:1006100064BCD9F8001051F8040BC9F80010002888
:100620004BD14FF0FF340FF6F820BDE6D9F800109B
:1006300051F8040BC9F8001000283ED14FF0FF34E8
:100640000FF6DC20B0E6D9F8001051F8040BC9F819
:10065000001080B94FF0FF340FF6C420A4E6D9F89B
:10066000001051F8040BC9F8001020B94FF0FF3406
:100670000FF6AC2098E60D9AD317C0E9002300F0DE
:100680002CBCD9F8001051F8040BC9F8001020B99F
:100690004FF0FF340FF6882086E60D99017000F0C8
:1006A0001CBCD9F8001051F8040BC9F8001020B98F
:1006B0004FF0FF340FF6682076E60D99016000F0E8
:1006C0000CBCD9F80020D21D22F00702C9F8002086
:1006D000D2E900010832C9F80020CDE90201C80FB3
:1006E00002D007982D210AE0BDF84000810702D50D
:1006F00007982B2103E0C00705D50798202112AAEF
:100700001154401C0790DDE90223079912A8CDE996
:100710002C2308444BF020016129059021AC0BD01B
:100720000E99002902D506210E9105E001BF4BF07C
:100730002001672901220E92DDE9022359004915A3
:10074000491C0DD11A030BD0ABF1610503211A2D01
:10075000089102D20FF6E41110E00FF6E4110DE05B
:1007600059004915491C0DD11A030BD1ABF1610594
:1007700003211A2D089119D30FF6CC11032200F092
:1007800069FDAAE3DDE90201CDE92E01DDE92E23B1
:1007900023F00047B7F5801F22F000060DD200229B
:1007A000002F08BF002E009203D116E00FF694111F
:1007B000E4E76A4600F05AFD0FE0DFF8DC08DFF8F6
:1007C000DC1800EB17500090DDE92E234FF0FF30CE
:1007D0001940DFF8CC7810403943CDE902014BF0E5
:1007E000200061280DD1059830210170821CBBF1D9
:1007F000610F05920CBF7821582141700798801C29
:100800000790DDE9020120F0000231F0004308BF4B
:10081000002A02D10026002568E14BF02008B8F13B
:10082000610F40F0B4800E98002847BF212101914C
:10083000401C0190019FDDE92C017F1C0022002358
:10084000DDE9024500F04AFD00998DF8842038BFAB
:1008500085F00045091F002F00910DF1850653DD3D
:10086000204629460022002300F050FD4CD24800CB
:10087000400D00F11C0212D0002A10DD40F2FF737F
:100880009A4206DBDFF81C1805F000400143002007
:1008900011E06FF31E5141EA025120460BE024F0B3
:1008A000000035F0004108BF00280FBF29461C2278
:1008B000294600F043FD04460D4600F0DDFDFF1F14
:1008C000002F804609DD00F0F5FD02460B4620466C
:1008D000294600F001FE04460D46F01D0721B8F13F
:1008E000000F0CDD491E5EBF08F00F0200F8012D5D
:1008F0004FEA2818F3D502E0002200F8012D491E26
:10090000FAD5C61D002FABDC0DF18500361A019813
:100910008642D8BF304600280DF1850430D4B0425D
:1009200006DA0DF185010A5C082AA8BF0F2100DA5A
:100930000021024621AB134400E0401E13F8015988
:10094000521E8D42F9D00F2904D10DF185018B5C27
:100950005B1C8B54002A04D50099091D21AC401C56
:100960000091411E0CD46218ABF13A061378303373
:10097000DDB23A2DA8BFF318491E02F80139F5D5AA
:100980000E99002940F1B080421E0E92ACE0009911
:10099000DFF8142747F29750414391FBF2F2DDE96B
:1009A0002C45009225F00045D2F1070204DD2046D7
:1009B000294600F04EFB0BE052420020DFF8EC1617
:1009C00000F047FB02460B462046294600F0F6FDA4
:1009D0000446B8F1660F0E9806BF009F0A37062737
:1009E0003F18142FC8BF142730200D468DF88400FF
:1009F0000DF18506002F39DD2046294600F002FF63
:100A000001460A4606F1080304200A26B2FBF6F660
:100A100006EB860EA2EB4E02303203F8012C0A22BE
:100A2000B6FBF2F202EB820EA6EB4E063036401E0B
:100A300003F8026DE9D1083F002F03F10806D9DD64
:100A4000084600F0F3FE02460B462046294600F019
:100A500043FD0022DFF8583600F0F6FE04460D464E
:100A6000CAE700BFCBCCCC0C9C4700000DF1850041
:100A7000361A0DF1850404E00098401E761E0090A1
:100A8000641C20783028F7D0B8F1660F02D10099A5
:100A9000491C04E0B8F1650F0CBF012100210E983C
:100AA00008188642B8BF701E00281DD4B04204DA70
:100AB000215C3429C8BF392100DC30210246631E85
:100AC0009D1800E0401E15F80169521E8E42F9D0B3
:100AD000392902D1A15C491CA154002A04D50099EE
:100AE000491C1C46401C00910646009D00F07EFFFC
:100AF000406A0778DDF8388030B2002802DC012631
:100B00000FF248644BF02000662808BF6D1C16D019
:100B1000672846D128B210F1040F48DB404546DA79
:100B20009DF840006D1C010703D430B24045B8BFAA
:100B3000804628B2B8EB000848BF4FF000080FFA13
:100B400085FBBBF1000F00F3B5800898411C0891AC
:100B5000302205990A54B8F1000F03DC9DF84000DB
:100B6000010704D50898411C089105990F5418EB0A
:100B70000B0FB8BFC8F100052DB268420B90A84416
:100B800032B29045B8BF4646059B089836B20996E2
:100B900032462146184400F05DFBA8EB06000C909D
:100BA000D2E0BBF1610F17D14FF0700B19E030B2FA
:100BB000404504DA9DF840100A0758BF8046B8F156
:100BC000010848BF4FF00008BBF1670F14BF4FF09A
:100BD000450B4FF0650B04E0BBF1410F08BF4FF030
:100BE000500B0898411C0891B8F1000F059914F8B2
:100BF000012B0A5403DC9DF8400001071AD5089820
:100C0000411C0891B8F1000F05990F5412DD761EB2
:100C100030B280450598089BB8BF464632B221469F
:100C2000184400F017FB089936B271180891A8EB28
:100C300006000B9005980899084429B2002980F80D
:100C400000B003D42B224270821C04E02D2242709B
:100C50000D46821C6D4200212CAB28460AE004465A
:100C60000A2094FBF0F000EB8005A4EB450403F8A8
:100C7000014B491C00B20028F1DC012906DC4BF0D5
:100C80002000652804BF302002F8010B00292CAB9E
:100C900008D1302002F8010B06E0491E585C3030C4
:100CA00002F8010B0029F8DC059908980844121A8B
:100CB000099249E030B229B288421CDA0598089BB3
:100CC00032B22146184400F0C5FA089936B27118BC
:100CD000ABEB0606B8F1000F08910B9603DC9DF80C
:100CE0004000020704D5059847540999491C099109
:100CF000CDF8308028E00598089B2AB22146184498
:100D000000F0A8FA0898761B5844B8F1000F089034
:100D100003DC9DF840100A0703D5411C0891059992
:100D20000F5430B280450598089BB8BF464632B292
:100D300004EB0B01184400F08DFA089836B2301815
:100D40000890A8EB06000B909DF8400000F01400FE
:100D5000102840F0C280079A08990B988A180999C0
:100D600082180C988A1882180F98824280F2B580F7
:100D7000821A0A92B1E09DF84200622808D06828E1
:100D80000ED06A2814D06C281FD0712810D01CE017
:100D9000D9F8001051F8040BC9F80010C0B21AE0DD
:100DA000D9F8001051F8040BC9F8001080B212E015
:100DB000D9F80020D21D22F00702C9F80020D2E99C
:100DC00000010832C9F8002006E0D9F8001051F8F7
:100DD000040BC9F800100021CDE902019DF8400084
:100DE00001075AD5DDE90223002B08BF002A54D0A1
:100DF0004BF02000782850D1079812A930220A54CD
:100E0000401C431C079301F800B046E09DF84200E7
:100E1000622808D068280ED06A2814D06C281FD009
:100E2000712810D01CE0D9F8001051F8040BC9F853
:100E3000001040B21AE0D9F8001051F8040BC9F8BC
:100E4000001000B212E0D9F80020D21D22F00702F3
:100E5000C9F80020D2E900010832C9F8002006E0F4
:100E6000D9F8001051F8040BC9F80010C117CDE9EA
:100E70000201002902D507982D210AE0BDF84000A3
:100E8000810702D507982B2103E0C00705D50798F5
:100E9000202112AA1154401C079012A8079901445E
:100EA000059102A8594600F04FF816E0012007907E
:100EB000D9F8000050F8041BC9F800008DF848105C
:100EC0000BE025210122BBF1000F8DF8481007929D
:100ED00003D08DF849B0022107910F9A07980A991B
:100EE0000C9C121A0898521A0B99121A0998521A45
:100EF000121A9DF84000141B41073FF560AA2020FC
:100F0000002C8DF804007FF75AAA309E2546012355
:100F100001AA02A9304600F0DFF800283FF44BAAEE
:100F20004FF0FF3031B0BDE8F08F00007072696E95
:100F300074665F733A206261642025732061726772
:100F4000756D656E740000002DE9FC4307466F293E
:100F50003E6908BF082405D041F02000782814BF5E
:100F60000A2410243C25D7E90023642918BF6929E5
:100F70009046994605D1002B03D5D8F1000869EBBE
:100F80004909B9F1000F08BFB8F1000F0CD1386B57
:100F900050B9082C39D197F83800010735D53020E1
:100FA0003B2586F83B0030E08DF80010404649466E
:100FB0002246E31700F01EFD3032D0B26D1E3A28F3
:100FC000019504DB9DF80000A0F151018A187255CB
:100FD000404649462246E31700F00CFD80465FEA92
:100FE000010908BFB8F1000F03D0F86871198842F1
:100FF000DCD3082C09D197F83800010705D5705DBE
:10100000302802D06D1E30207055C5F13C02BA6107
:101010007119F960386B824208DA821A3A624FF627
:10102000EF70398F01403987BDE8F38300280ED572
:1010300097F8380000F01400102808D17B6B79690C
:10104000386A5B1A1B1A9A1A002AC8BF3A62BDE8AE
:10105000F3832DE9D04306460F4614464FF00008AF
:10106000DFF8509012E0E00707D542464B46304685
:10107000394600F0E9FB06460F46404649464246DF
:101080004B4600F0E1FB641080468946002CEAD113
:1010900030463946BDE8D08302FCFFFFFFFF0F80DA
:1010A0000000E03F0000F07FA08601000000F03F5C
:1010B00084D797410000244010B503460C461146E2
:1010C000A0689847A06020B1E06A401CE062002060
:1010D00010BD4FF0FF3010BDF8B505460E4617465F
:1010E0001C4600205CB117F8011BB068A847B0602F
:1010F00030B1F06A401CF0620020641EF3D1F2BDF2
:101100004FF0FF30F2BD00007072696E74665F735D
:101110003A20256E20646973616C6C6F776564009A
:101120007072696E74663A2062616420256E206177
:101130007267756D656E7400000000006E616E0070
:101140004E414E00696E6600494E4600300030B494
:10115000002513E050F8042BD30744BFA9F1010385
:101160009A18091F042942F8045BFAD213468C0727
:1011700044BF15809B1CC90748BF1D7050F8041B55
:101180000029E7D130BC7047C9B202788A421AB14F
:101190001CBF10F8012FF9E718BF00207047026844
:1011A000531C03601170704780B500B906A0054953
:1011B0000B681BB122220021984701E000F09DFC42
:1011C000222002BD00040020636F6E737472616997
:1011D0006E742068616E646C65723A20626164208E
:1011E0006D6573736167650000F1010310F8011B01
:1011F00011B110F8011BFBE7C01A7047C9B2830791
:1012000006D0521E22D310F8013B9942F7D11FE0BD
:10121000083A13D302F1040241EA012141EA0141F3
:1012200050F8043B121F21BF4B40A3F1013C2CEAB4
:10123000030C1CF0803FF3D0C9B2001F083210F835
:10124000013B521E28BF91EA030FF8D818BF0120B6
:10125000401E70474AB1000011F8013B521E00F8D1
:10126000013B1CBF11F8013BF8E7704710B514466D
:1012700000F002F8226010BDC1F30A5343B14A00E6
:1012800012F5001F28D2A3F2FE32A1EB02517047E3
:1012900050EA410C20D001F0004C31EA0C01B1FAC7
:1012A00081F204BFB0FA80F3D2180B3AB2F12003F6
:1012B0002CBF00FA03F1914041EA0C013EBFC2F19C
:1012C000200C20FA0CF319439040524240F2FD33B7
:1012D000D21A01EB03517047002270474FF4001CF3
:1012E0001CEB410F94BF1CEB430F09E041EA030CD8
:1012F00050EA4C0C52EA0C0C03D2994208BF9042BF
:10130000704714BF8B42824270472E004FF4001C7E
:101310001CEB410F94BF1CEB430F09E041EA030CA7
:1013200050EA4C0C52EA0C0C03D28B4208BF8242AA
:10133000704714BF9942904270470000124254D443
:1013400040F2FF7C1CEA11530FD0634531D09B184B
:1013500063453CBF01EB0251704701F0004141EA97
:101360000C510020AFF30080704750EA410320D0B9
:1013700001F0004C91EA0C011CD0B1FA81F30B3B57
:101380009A420DD9D21A994051EA0C01C3F1200CAE
:1013900020FA0CFC61449840531C40F2FF7CD7E7D4
:1013A000914041EA0C01C2F1200C20FA0CF31943E0
:1013B00090407047B0FA80F31533202BE0D3202AF9
:1013C000EED3203A203B9A4209D9D21A00FA03F10F
:1013D00041EA0C010020531C40F2FF7CB8E700FA00
:1013E00002F141EA0C0100207047524240F2FF7CBA
:1013F0001CEA11530DD06345DBD0B2EB030C3CBFAC
:10140000A1EB025170470CF1010221EA035141F4B2
:10141000801150EA410CCCD001F0004C352A27DC79
:1014200030B481EA0C01B2F1200309DAC2F12003E1
:10143000044601FA03F5D0402843D1409C400CE01B
:10144000C3F12002450020FA03F418BF44F0010460
:1014500021FA03F091400C43002174F1004550F152
:10146000000051EB0C01244230BC7FF47BAF70478D
:101470006146002076E70000C1F30A5340F2FE32D5
:101480009B1A14DDD3F120034FEAE17208DDC90293
:1014900041EA505141F00040D84080185040704718
:1014A00003F2E13010B1D24382F0004070470020D7
:1014B00070470000C11768B14840401AB0FA80F286
:1014C0009040D21CC907C2F5846241EA025202EB85
:1014D000D02140057047000070B44FF0004591EAFC
:1014E000030F40F10D836B40841A71EB030603D2A6
:1014F000001BB141121973414FF4001C1CEB410F4A
:1015000034BF7CEB430442E00C0DA4EB1356352EA4
:101510004FDC45EAC323DB0A45EAC121C912B6F113
:1015200020050DDD63FA05F6EB4086EA030512425D
:1015300018BF45F00105C01851F100010CD213E0AD
:1015400062FA06F5F2405540F3415A40B340F34089
:101550005A408018594107D349085FEA30005FEAD2
:10156000350528BF45F0010501F58011420875F1E8
:10157000004250F1000041EB04514E0016F5001FEF
:1015800070BC38BF70470020090D090570471CEB7F
:10159000410F10D252EA43060BD0BCEB410F05D8E5
:1015A0000C0DAB43661E342EB6DD02E0AB43801853
:1015B000594170BC704770BC70470000F0B540F2F4
:1015C000FF7581EA030C0CF0004C15EA11541DBFA5
:1015D00015EA1357AC42AF42E5E0BC41C1F3130139
:1015E000C3F31303801A994143F4801304D2641E99
:1015F0004000494180185941C90241EA5051B1FBAC
:10160000F3F603FB1611A2FB0675D7EBC020A94128
:1016100002D2761E80185941C90241EA5051B1FBED
:10162000F3FE03FB1E11A2FB0E75D7EBC020A941F0
:1016300003D2AEF1010E80185941890241EA90515E
:10164000760546EA8E2EB1FBF3F603FB1611A2FBDC
:101650000675D7EB8020A94102D2761E8018594129
:10166000C90241EA50514EEA060EB1FBF3F603FB04
:101670001611A2FB0675D7EBC020A94102D2761E37
:1016800080185941C90241EA5051B1FBF3F703FBFD
:101690001711A2FB0735D3EBC020A94167F1000762
:1016A0000CBF004247F0010766F3D5274FEA1E3111
:1016B000B80814F5806412DDBD0775F1004250EBE7
:1016C0000E5051EB045111F5801F5CBF41EA0C0133
:1016D000F0BD4CF07F6141F0E0410020F0BDBD075E
:1016E0006D0840EA0E5041F48011D4F10104B4F1C8
:1016F00020060ADAC4F120060200E04001FA06F3EF
:10170000E1401843B24015430EE0342C13DCC6F11F
:10171000200445EA40056D0820FA06F2154321FA37
:1017200006F0A1400D43002175F1004250F1000088
:1017300051EB0C01F0BD00205FEA0C01F0BDCFB908
:1017400092185B41B3FA83F704BFB2FA82F6BF196D
:101750000B3FB7F120062FBF02FA06F3BB40C7F1DB
:10176000200622FA06F638BF3343BA401CB1E4190A
:10177000641E33E77F4231F00041B1FA81F404BFC7
:10178000B0FA80F6A4190B3CB4F120062FBF00FA82
:1017900006F1A140C4F1200620FA06F638BF314315
:1017A000A0403C1B1AE7AC421ABF05EA1357AF42F0
:1017B00012E050EA41061CBF52EA4306BFE750EA76
:1017C0004107304661461CBF41EA0551F0BD52EA6F
:1017D000430C08BFC143F0BD00204FF4001616EBC8
:1017E000410F98BF16EB430F08BF16EB410F24BF04
:1017F000C14305E016EB430F0CBF61464CEA0551AF
:10180000F0BD0000400D491840EA81200CD2490D7E
:10181000A1F58061491C40F0004005DBD1F11F01BA
:1018200054BFC840C017704700207047014648B1F8
:10183000B0FA80F18840C91CC1F58461090501EB4B
:10184000D021400570470000B0B581EA030C0CF0D0
:10185000004C40F2FF7515EA11541DBF15EA1357ED
:10186000AC42AF4239E0E41923EA455343F4801314
:10187000C90241F0004141EA505EC7021100A7FBD6
:10188000020200284FF00000EEFB01204FF00001A3
:10189000E3FB072118BF42F0010240180021494133
:1018A000E3FB0E01A4F580640F0302D25200404115
:1018B000494154F101046CDD470872F1004250F1D6
:1018C000000051EB0451A1F580115CBF41EA0C010D
:1018D000B0BD4CEA05510020B0BD05EA1357AC423B
:1018E00014BFAF4241E050EA410E1CBF52EA430E22
:1018F00002E061460020B0BD24423C441BD15FEAB7
:10190000070EF6D0090302BF01460020AEF1140E07
:10191000B1FA81F7AEEB070401FA07FE0C37C7F105
:10192000200100FA07F7C8404EEA000E23EA4553AB
:1019300043F48013A2E733F00043B3FA83F704BF04
:10194000B2FA82FE77440B3FE41BB7F1200E2FBFA3
:1019500002FA0EF3BB40C7F1200E22FA0EFE38BF8A
:1019600043EA0E03BA40641C82E750EA410E14BFFA
:1019700052EA430E6FF000014FF4001717EB430FCC
:101980008ABF194617EB410FB5E74CEA0551002015
:10199000B0BDD4F10104B4F120070FDAC4F120077F
:1019A000520828BF42F0010210FA07F501FA07F7C2
:1019B000E1BF2A43E0403843E1400FE0352C98DC9A
:1019C000C7F1200452EA400220FA07F218BF42F0A1
:1019D000010231FA07F0A1400A43002172F10042EE
:1019E00050F1000051EB0C01B0BD00000048704701
:1019F000C4020020D3BBD9B1B2F5803F5BD2022A2A
:101A00001ED98C46B1FBF2F102FB11C31B0443EA61
:101A10001043B3FBF2FC02FB1C3380B240EA0343E9
:101A2000B3FBF2F002FB103240EA0C400023704797
:101A3000022A05D98446B0FBF2F002FB10C27047BF
:101A40004AB105D100F0010249085FEA3000704751
:101A500000220023704700F009B90B0002000021AA
:101A600000207047F7D3002200237047904271EBAB
:101A7000030CF2D370B5B1FA81F4B3FA83F52C1BE1
:101A8000A340C4F1200532FA05F63343A2405FF0CB
:101A90000046E64002E05B085FEA3202841A71EB1E
:101AA000030524BF204629467641F4D302000B00EB
:101AB0003000002170BD70B5B1FA81F4B2FA82F540
:101AC000C4F120046419B4F12006DAD3B2405FF007
:101AD0000044F440002502E052085FEA3303C61ACE
:101AE00071EB020E24BF3046714664416D41F3D361
:101AF00002000B002000290070BD012000F0B8B8E2
:101B0000841A71EB030604D26E40001BB141121916
:101B100073414FF4001C1CEB410F34BF7CEB4306B8
:101B200083E00C0DA4EB1356362E00F37C80012EBF
:101B300045EAC32341DC43EA525312BFD202920268
:101B40005B08240545EAC12141EA5051D2EBC0208F
:101B5000994125D407D1B0FA80F610FA06F162D087
:101B60000020203608E0B1FA81F6B140C6F120022B
:101B700020FA02F21143B0404FEAF474B4EB465439
:101B800034F001064FEA74040AD8D6F50016760D33
:101B900004F00044F04061FA06F25040F140484041
:101BA000C00A40EA415021F0004128BF5FEA5005D9
:101BB00050F1000044EBD12135E0DB0A45EAC121B8
:101BC000C90AB6F120050EDD42EA0242120CC5F147
:101BD000200603FA06F6EB4042EA06056D429841FC
:101BE00061F100010DE062FA06F5F240554063FA3A
:101BF00006FC82EA0C02F3405A406D42904161EBD0
:101C0000030111F4801F05D1641E620502D06D002E
:101C10004041494121F48011430875F1004350F1DE
:101C2000000041EB045170BC70471CEB410F15D212
:101C300023F0004352EA43060BD04FEA4C0CBCEBB6
:101C4000410F04D80C0D661E342EB7DDEBE7801A69
:101C5000994150EA410608BF0021E4E708BF1CEBA8
:101C6000430F28BF6FF00001DDE700007047000060
:101C700080B5AFF30080024A11001820ABBEFBE72D
:101C800026000200F8B5040025D004F13C0569786F
:101C900021B900202870204600F0D8FC242169706A
:101CA000206802685208520002602068016841F40E
:101CB000004101602068026822F40042026000F0E6
:101CC00063FE01466068DFF83C21904205D2DFF8F0
:101CD0003831994205D20120F2BDDFF8300181424E
:101CE000F9D32068DFF828314668B1FBF3F3B60971
:101CF00043EA861646602668376A6068904206D3D3
:101D00004FF4967043434FF47A70B3FBF0F35B1CCF
:101D1000BF0943EA87133362491E2368DE69676897
:101D2000974206D27F0000F043F8042913D2042121
:101D300011E0A06820B907EB470700F039F805E08B
:101D40001920474300F034F841F4804108050CBFE6
:101D5000012141F40041DFF8C80106400E43DE6175
:101D600022681368E169206A23F0C0030B43034330
:101D700013602268DFF8AC01936821690340E068D2
:101D80000B43034393602168CA68A3696069120A20
:101D9000034343EA0222CA602068016841F001015E
:101DA000016000206860202169702063A870F2BD86
:101DB000B1FBF7F1491CC1F30B017047308D726222
:101DC000411E3185708D411E7185704700903168CC
:101DD0004A690092896900910098704730680168EB
:101DE00041F480710160704721F4806101603068C6
:101DF000026842F4006202607047002229463046C1
:101E000000F016BBA186010080841E0000093D0081
:101E100040420F002DE9FC4700F088F800F08CF8F4
:101E20005DD100F074F8002859D13878012856D0D7
:101E300000F067F801D400F079F94146D6F800E0E7
:101E40000C9D0B98DDF828C0DEF8008028F40068AF
:101E5000CEF800804FF0210E87F801E04FF04008E7
:101E600087F802804FF0000EC7F804E000F033F965
:101E700000F018FA00282BD108E0716A0A78026194
:101E8000706A411C7162308DFFF79AFF308DA0B1EE
:101E900022462946304600F034FBA0B9706A326809
:101EA00001781161706A411C7162308D411E00F031
:101EB00019F8EBD589B20029DFD1224629463046F0
:101EC00000F04AFB30B17868042801D100F0A8FA8C
:101ED000012005E000F0A4FA00F00CF800E0022078
:101EE000BDE8F6873185708D421E72853068426983
:101EF00053077047202078700021B9700020387097
:101F000070470121397030680268D107704700942A
:101F1000192301220449304600F08ABA000000006B
:101F20000030FFFF007CFFFF0200100006468846DD
:101F300091469A4600F094BD06F13C070446787835
:101F4000202870472DE9FC47FFF7F0FFFFF7F4FF6B
:101F500002D1FFF7DCFF002840F0818038780128AB
:101F60007DD0FFF7CEFF01D400F0E0F84146D6F86F
:101F700000E00C9D0B98DDF828C0DEF8008028F406
:101F80000068CEF800804FF0220E87F801E04FF095
:101F9000400887F802804FF0000EC7F804E000F018
:101FA0009AF800F0CEF900284FD1308D18B10128F1
:101FB00004D100F09FF800F072F817E0022806D173
:101FC00030680168FFF710FF0020009001E0002159
:101FD0000091FFF7FCFE09E02246294600F04BF88D
:101FE000002832D100F03EF8FFF7E8FE308D0028DF
:101FF00032D0042824D20128EED00228DFF838811C
:1020000000942B460CD100224146FFF7F8FE002831
:102010001BD100F076F8716A0870706A421CE3E721
:1020200000224146FFF7EBFE00280ED100F034F904
:102030002B4600F040F84146FFF7E1FE28B9E8E7FB
:102040002246294600F017F808B1012008E000F008
:1020500015F8CBD50069DEE7FFF74CFF00E0022062
:10206000BDE8F68730680169706A0170716A4A1CC0
:10207000704722464946304600F08BBA3068016905
:10208000706A0170716A308D4A1C411E726231851E
:10209000708D411E7185306841694A077047009014
:1020A00031684A6900928B69009300980A6842F48B
:1020B00000720A60704730680169706A0170716A65
:1020C000308D4A1C411E726231850022708D411E86
:1020D000718500947047C6F824C070855346708D92
:1020E00030854A46DFF8A801F06201940095304639
:1020F000704700003068016821F4806101600020B1
:1021000070473068016841F400710160306801690E
:10211000706A0170716A308D4A1C411E726231858D
:10212000708D411E7185326810697047026842F0F7
:102130000102026070470000040001002DE9F84F21
:1021400004468B46FFF7F4FE04F13C070546787819
:102150000026202878D1DFF83C8100951923012240
:10216000414600F08DF800286ED1387801286BD0F8
:1021700000F06DF8242078707E60DFF81401E062D2
:1021800000F075F80095534600F077F838B92168EB
:102190000BF0FE00086100F063FC054612E02068C9
:1021A0000168CA0544BF4FF40070786003204CE01A
:1021B00000F056FC401B824502D3BAF1000F01D15A
:1021C000A02078702168486949697A784008890AAE
:1021D000A02A00F0010001F0010101D00843E7D07E
:1021E00020207870206841698A0712D400F082F9B3
:1021F00022685061009519230122414600F040F801
:1022000000BB761C4E45BBD320207870002139706E
:1022100018E0026842F40072026000200090192366
:1022200021684A690092012289690091414600981B
:10223000009500F025F828B9202078700021397029
:10224000002002E0012000E00220BDE8F28F012121
:10225000397020680268D10703D4026842F0010295
:1022600002602068016821F4006101607047206805
:10227000016841F480710160704700224FF0011144
:10228000204600F0D5B8016841F4806101607047D4
:102290000000FFFF020010003068016821F4806137
:1022A000016070472DE9F84304462068DDF820807E
:1022B000099F8946016841F4807115461E460160F8
:1022C00000974346FFF7D9FF40B120680168CA056F
:1022D00044BF4FF400702064032023E0206809F01D
:1022E000FE0101613B46424600F01EF8A0B9009095
:1022F000216800F081F800F022F840B9012E0DD0DD
:102300002168280A08613A4600F018F830B1206CBC
:10231000042801D100F00CF8012003E02068EDB2A0
:1023200005610020BDE8F28340492046A8E0000096
:102330002068016841F40071016070474146204601
:10234000DFE02DE9F84F05462868DDF828800B9F6F
:102350000C46FFF798FF16462868016841F4807123
:102360009946016000F055F800284FF4007A2CD10E
:102370002968DFF8B8B004F0FE00086100F044F806
:10238000002832D10090296800F036F800F032F8C9
:1023900070B9B9F1010F05D02968300A086100F061
:1023A00027F828B92868F6B2066100F021F830B1A4
:1023B000286C042819D1286800F033F815E0286843
:1023C000FFF70DFD00F025F838B128680168CA054F
:1023D00048BFC5F840A0032008E0286844F0010485
:1023E000E4B2046100F010F800B10120BDE8F28F02
:1023F0003A464146284684E04A6900923A4689694D
:1024000000914146009870473B464246594628464F
:1024100036E00097434600224FF00111284607E0BE
:102420003068016841F400710160704702000100EA
:102430002DE9F041069F05460E4690461C463102A6
:102440002868090E01290CBF40698069304080B2BC
:10245000B1B288420CBF0120002040450DD114F1DB
:10246000010FECD000F0FCFAC01B844201D3002C19
:10247000E5D100F063F8012000E00020BDE8F08124
:10248000F8B505460E4614461F463102090E286867
:10249000012919D14169314089B2B2B2914219D0B2
:1024A00041694A0518D500F025F82A6850610021D5
:1024B00005F13C002963202242708170426842F09D
:1024C00004024260017013E08169314089B2B2B206
:1024D0009142E5D10020F2BD14F1010FD5D000F0FA
:1024E000BFFAC01B844201D3002CCED100F026F8E5
:1024F0000120F2BD016841F4007101606FF4806059
:10250000704770B505460C461646286841690806AE
:1025100012D4284600F069F808B1012070BD14F10A
:10252000010FF2D000F09CFA801B844201D3002CF2
:10253000EBD100F003F8F0E7002070BD0020286325
:10254000202105F13C00002241708270416841F079
:10255000200141600270704770B505460C46164672
:1025600028684169480712D4284600F03EF808B1AF
:10257000012070BD14F1010FF2D000F071FA801B40
:10258000844201D3002CEBD1FFF7D8FFF0E7002005
:1025900070BD70B505460C461646286841694A0666
:1025A00017D44169CA060BD400F05AFA801B844242
:1025B00001D3002CF1D100F00EF841F0200104E02D
:1025C0006FF01001416100F006F8416002700120D7
:1025D00070BD002070BD00202863202105F13C0063
:1025E0000022417082704168704701684A69530552
:1025F0000FD56FF480624A61002101633C302022D4
:1026000042708170426842F0040242600170012011
:10261000704700207047000081B000200090002229
:102620008B48416841F480414160416801F4804138
:10263000009100990092036843F0805303600068A2
:1026400000F080500090009801B0704710B586B03F
:1026500000F071F821687F4A7F48804C91420ED18A
:1026600000F023F8C02200F028F800200090216933
:1026700041F400112161206900F4001011E0784A52
:10268000914210D100F011F84FF4406200F015F8BB
:1026900000200090216941F480012161206900F44B
:1026A00080000090009806B010BD00210091122318
:1026B000226842F0020222607047216801F00201A4
:1026C00000910099019202930022039203230422B5
:1026D0000493059201A900F0C9B910B586B000F0C5
:1026E0002AF821685F48814223D100225B4800928A
:1026F000416941F480514161416901F48051009187
:1027000000990092E021036843F001030360022274
:10271000006800F001000090009853480191029277
:1027200000210391032205210591049201A900F0E3
:102730009DF906B010BD04461422002101A800F046
:102740008FBA10B586B0044614220021684600F006
:1027500087FA2268454B444840499A4217D10022E3
:1027600005924B6943F010034B6100234A6902F064
:1027700010020592059A05934FF4C06200F052F8DA
:1027800000220121252000F08FFA252046E0384B59
:102790009A4216D1002205920B6943F400330B6173
:1027A00000230A6902F400320592059A05930C226F
:1027B00000F038F800220121262000F075FA2620CA
:1027C0002CE02C4882422BD100220592086940F46B
:1027D00080200861086900F4802005900598059222
:1027E00002220B6843F008030B60086800F0080041
:1027F00005904FF4407105981F4800910192002107
:1028000002910322072104910392694600F02EF9F8
:1028100000220121272000F047FA272000F061FA6A
:1028200006B010BD0C6844F001040C600223096876
:1028300001F0010105910599009201930022029295
:102840000323072203930492694600F00FB90000A6
:10285000403802400054004000040240303802403A
:1028600000580040003001400000024000100140CC
:102870000044004000480040000C02402DE9F041B7
:1028800004000F4654D0574E306800F00700B8429D
:1028900002D200F073F84BD12068534D810712D556
:1028A000400703D5A96841F4E051A96020780107E9
:1028B00003D5A86840F46040A860A968A06821F02A
:1028C000F0010143A9602178C80729D56068012873
:1028D00002D129688A0305E0022818BF032803D122
:1028E00029688A0103D423E029688A0720D5A968CA
:1028F000890840EA8100A86000F0B2F88046A86824
:10290000616800F00C00B0EB810F09D000F0A8F86E
:10291000A0EB080041F289318842F0D303202BE07C
:10292000306800F00700874204D200F027F801D099
:10293000012021E02078410705D5AA68E06822F44B
:10294000E0520243AA602178080706D5A9682069E9
:1029500021F4604141EAC001A96000F051F8AA6881
:102960002249234BC2F30312895CC84018602148F6
:10297000006800F0CBF90020BDE8F08137703168C5
:1029800001F00701B942704719481B4A00681368F3
:102990001A49C3F3822206E01548174A00681368F3
:1029A0001649C3F34232895CC840704710B50F2204
:1029B0000260114A136803F003034360146804F0D3
:1029C000F0048460136803F4E053C3601268D20813
:1029D00002F4E05202610348026802F007020A6052
:1029E00010BD0000003C0240003802407051000859
:1029F000440200204002002008380240FC51000838
:102A000030B5144C606800F00C00042802D008288F
:102A100002D01DE0104830BD22682068002341022A
:102A200002F03F0204D525680B49C5F3881003E086
:102A300020680A49C0F38810A1FB0001FEF7DAFF05
:102A40002168C1F30141491C4900B0FBF1F030BDE0
:102A5000024830BD0438024000127A000024F4001D
:102A600001484068704700BF380200202DE9F84F48
:102A70000D4600266F49704A0F23044601202F6837
:102A8000B04000EA0708804540F0CA804FEA460C93
:102A9000032707FA0CF76FEA070E6F6807F00309C0
:102AA000B9F1010F1CBF07F00307022F12D1A7686D
:102AB000D5F80C900EEA070709FA0CF949EA07075E
:102AC000A760676827EA00006F68C7F30017B74080
:102AD00038436060B0002F7907F00307032F21D03F
:102AE000E768D5F808900EEA070709FA0CF949EAF1
:102AF0000707E7602F7907F00307022F12D1F708C5
:102B000004EB870700F01C09D7F820A003FA09FBA3
:102B10002AEA0B0AD5F810B00BFA09F949EA0A09B2
:102B2000C7F8209027680EEA070E2F7907F00307F1
:102B300007FA0CF747EA0E0727606F6817F4403F63
:102B40006ED0002700974FEA960C176847F480472D
:102B5000176000F00C00176807F48047009703FA2D
:102B600000FE009F354F57F82C7027EA0E0E344FA9
:102B7000BC4208BF002722D0324FBC4208BF012709
:102B80001DD0314FBC4208BF022718D02F4FBC4286
:102B900008BF032713D02E4FBC4208BF04270ED016
:102BA0002C4FBC4208BF052709D02B4FBC4208BFA1
:102BB000062704D0294FBC420CBF0727082707FA75
:102BC00000F01E4F40EA0E0047F82C006FEA0800A4
:102BD0008F6800EA070C6F68FF0248BF48EA0C0CD8
:102BE000C1F808C0CF6800EA070C6F68BF0248BF91
:102BF00048EA0C0CC1F80CC04F6800EA070C6F687B
:102C0000BF0348BF48EA0C0CC1F804C00F6800EAD3
:102C1000070C6868C00348BF48EA0C0CC1F800C044
:102C2000761C0F2E7FF62AAFBDE8F18F02B909049A
:102C300081617047003C014044380240083801403F
:102C4000000002400004024000080240000C024064
:102C5000001002400014024000180240001C024014
:102C600010B5044610460A460146204600F09EF87C
:102C7000204610BD0901020002D41F48815470474C
:102C80001E4B02F00F021A4402F8041C70471C4B42
:102C900019684FF6FF020002114000F4E06008439B
:102CA000184908431860704770B5154B1C68C4F389
:102CB00002230124C3F10705052D2EBF0F2504FAB9
:102CC00005F56D1E1E1D072E34BF0023DB1E294097
:102CD000994004FA03F3BDE870405B1E1A401143AB
:102CE000C8E7010007D4012200F01F01064B8A400B
:102CF000400943F82020704700E400E018ED00E0B0
:102D00000CED00E00000FA0500E100E078B587B0C6
:102D10000446002000902048016841F00401016051
:102D200001A9006800F00400009002A8009AFFF7D3
:102D30003DFE059810B9FFF727FE02E0FFF724FEDD
:102D40004000164D1649174B2960B0FBF3F0401EAA
:102D500040F2E73268600021EA602961A960A96158
:102D6000284600F057F8060012D1284600F05FF818
:102D700006000DD11E20FFF7B4FF102C07D2002251
:102D800021461E20FFF790FF0748046000E001265F
:102D9000304608B070BD0000403802408403002077
:102DA0000008004040420F004002002062F30F2262
:102DB00062F31F42401810F0030308D0C91A1FD352
:102DC000DB0748BF00F8012D28BF20F8022D1300B3
:102DD00030B414461546103928BF20E93C00FAD813
:102DE000490728BF20E90C0048BF40F8042D89009E
:102DF00028BF20F8022D48BF00F8012D30BC7047D5
:102E0000C91818BF00F8012DCB0728BF00F8012D05
:102E10007047000038B5040001D1012032BD00F038
:102E200065F818B900F00AF900F06EF93DE090F885
:102E30003D10012901D001207047022180F83D108A
:102E40000168CA6842F00102CA600068DFF88010B9
:102E5000884218BFB0F1804F17D0DFF87810884251
:102E60001CBFDFF8742090420FD0DFF8701088424A
:102E70001CBFDFF86C20904207D0DFF86810884252
:102E80001CBFDFF86420904209D1816801F007017E
:102E9000062908D0016841F00101016003E00268E1
:102EA00042F0010202600020704702206870211D7C
:102EB000206800F0C7F80120A872A870E870287197
:102EC0006871A871E871287268726870002032BD5C
:102ED000000001400004004000080040000C0040D9
:102EE00000040140004001400018004004F13C058E
:102EF0006878704710B50446206801698A0715D5BF
:102F0000C1688A0712D56FF00201016101222277A0
:102F1000806910F0030F204602D000F0F6F803E0BD
:102F200000F0F4F800F087F80020207720680169AD
:102F30004A0715D5C1684A0712D56FF0040101612F
:102F400002222277806910F4407F204602D000F0F0
:102F5000DCF803E000F0DAF800F06DF800202077EC
:102F6000206801690A0715D5C1680A0712D56FF0F4
:102F70000801016104222277C06910F0030F204686
:102F800002D000F0C2F803E000F0C0F800F053F8FF
:102F90000020207720680169CA0615D5C168CA06D5
:102FA00012D56FF01001016108222277C06910F478
:102FB000407F204602D000F0A8F803E000F0A6F819
:102FC00000F039F80020207720680169CA0708D589
:102FD000C168CA0705D56FF001010161204600F004
:102FE00069FA206801690A0608D5C1680A0605D58C
:102FF0006FF080010161204600F090FA20680169BD
:103000004A0608D5C1684A0605D56FF0400101613E
:10301000204600F084FA206801698A060AD5C16852
:103020008A0607D56FF0200101612046BDE81040F7
:1030300000F076BA10BD204600F073BA0021297066
:1030400020467047F0B5254C0568254B254E264F88
:10305000DFF898C0A04218BFB0F1804F07D060459C
:1030600018BFB84203D0B04218BF98420DD14A6889
:1030700025F070051543A04218BFB0F1804F17D05E
:1030800060451CBFB842B04212D098421CBF184ADB
:1030900090420DD0174EB0421CBF174A904207D045
:1030A000164EB0421FBF164A9042164EB04203D190
:1030B000CA6825F4407515434A6925F08005154313
:1030C0000560A0428D68C5620A68826212BF98429C
:1030D0000969016301224261F0BD00000000014066
:1030E00000040140000C00400008004000040040C3
:1030F00000400140004401400048014000180040E9
:10310000001C0040002000407047704770470000DE
:103110002DE9F04186B000F005FA00F07BF91422A9
:1031200000216846FFF79CFD0020059040F2817564
:10313000E448E54C0168E54EE54FDFF8988341F03F
:1031400004010160026802F0040205920022059960
:103150000592036843F080030360016801F0800179
:1031600000F03DF943F001030360016801F0010143
:1031700000F035F943F010030360016801F010011D
:1031800000F02DF943F002030360016801F0020131
:103190000591059905921021036843F00803036027
:1031A000006800F00800059005982046FFF73EFDF6
:1031B000002229463046FFF739FD00224FF4806196
:1031C0003846FFF733FD0022F0214046FFF72EFD81
:1031D000102100F00EF92046FFF748FC0120019075
:1031E000002202920392009569463046FFF73EFCAA
:1031F0004FF4406000F0F8F800F0EDF84FF4107074
:103200000021009002914FF48815019569463846D7
:10321000FFF72CFC4FF4807000F0E6F8204600F039
:10322000DBF84FF4104100910195002102916946AD
:103230002046FFF71BFC4FF4806100F0DAF83846B7
:10324000FFF714FC4FF4C05000F0CEF8384600F001
:10325000C3F80921009101950021029100F0BBF80B
:10326000F02100F0C6F84046FFF700FC4FF4407034
:1032700000F0BAF869469848984C994DFFF7F6FB6C
:103280009848E0654FF4804600206066A06620679D
:103290006067A067E0672566E66604F15C00FEF7FC
:1032A000F1FC08B100F030F904F1B0078E48386045
:1032B0000021B960F9607961B961F96139627D60B5
:1032C0003E613846FEF7DEFC08B100F01DF9874884
:1032D00060604FF48271A1600020E06000216061B5
:1032E0002161A16121626162A162E1624FF400701B
:1032F000E0610A212163201D00F02EF908B100F0E1
:1033000003F97B4878650C210020F86538667866FB
:10331000F86638674FF4E135B966BD6504F582702B
:1033200000F0B0FB08B100F0EFF804F5A4767148A6
:10333000306000210C207061B160F1603161B161D9
:10334000F1617560304600F09DFB08B100F0DCF8DB
:103350006948706400210C20B065F16431657165C5
:10336000F1653166B56404F5C67000F08BFB08B1F9
:1033700000F0CAF800F0F4FE4FF4FA7000F0FCFE22
:103380004FEA0D0061A11022FDF764FF6846FDF7CA
:103390002BFF82B24FF0FF336946304600F0ADFBA1
:1033A000012204F5E871304600F0FFFB4FF4007293
:1033B0008021384600F0F4FE08B1002020704FF460
:1033C00000728021384600F0F2FE08B10020207023
:1033D00006B0BDE8F08140466946FFF747BB05915E
:1033E00005990592036870470021009001910291B0
:1033F00070470091012200210291039101926946D8
:10340000704780B5562000F09CFFBDE802400A20BE
:1034100000F0B2BE80B592B03022002106A8FFF7BE
:103420001FFC1422002101A8FFF71AFC00200090C5
:103430003248016841F0805101600021006800F0CD
:103440008050009000982E4800910221026842F4BA
:10345000804202600122006800F4804000900098E1
:103460000691099210210A91022200210C920D91DD
:10347000082260210E920F910222042110921191D4
:1034800006A800F099FF08B172B6FEE7022102918A
:10349000802203920F204FF480510190049100226A
:1034A0000592012101A8FFF7E9F908B172B6FEE71C
:1034B00013B000BD00681349884208BF01F00AB983
:1034C0007047000030380240000002400010024007
:1034D00000080240000C024000040240640000208A
:1034E000A086010000540040005800400030014018
:1034F00000100140004400400048004040380240B5
:10350000007000400008004072B6FEE7424547499F
:103510004E2054455354210D0A0000007047704757
:103520007047704780B50B48016841F40071016035
:10353000026842F480620260016841F480710160B7
:103540000320FFF7A4FB0F20FFF7E0FBFFF764F871
:10355000002002BD003C024038B5040001D101202A
:1035600032BD606A28B900F0E9F805D00021E161B8
:1035700002E00020206160610020A06204F150059B
:10358000687820B9002129702046FFF7A6F80220AC
:10359000687000F0DEF96068A168E26800F482708B
:1035A00001F404410843217C02F400621043227DAF
:1035B00001F002010843A16902F001021043227FD9
:1035C00001F40071084394F8201002F0380210430F
:1035D000A26A01F080010843216802F400521043FE
:1035E0000860A06994F824102268000C00F0040020
:1035F00001F01001084350602068C16921F40061A6
:10360000C161002068600121697032BD2DE9F84375
:1036100000F07EF9984608BF022000F08D8001205E
:103620003870FFF71DFA7978012918BF02264BD1AF
:10363000002C18BFB9F1000F7BD0032179707E6098
:103640002C63A5F83490A5F83690AE63AE87EE876C
:103650006E642E64AB68B3F5004F09D129680B681E
:1036600023F040030B6029680C6844F480440C602C
:1036700029680B685C0603D40B6843F040030B60B9
:103680004446E968B1F5006F696821D1002918BF87
:10369000B9F1010F00F051F9804604E0296B0A8866
:1036A000C26000F027F9E88E002833D028688168CE
:1036B0008A07F3D4FFF7D4F9A0EB0800A04204D3A3
:1036C00014F1010FEFD0032634E0002CEBD1FAE720
:1036D000002918BFB9F1010F00F023F9804606E078
:1036E000296B0A780273286B411C00F005F9E88EFB
:1036F00080B1286881688A07F2D4FFF7B1F9A0EB9E
:103700000800A04203D314F1010FF0D0DBE7002C36
:10371000EDD1D8E742462146284600F080F908B1AD
:1037200020207860A86810B900F0EBF8009A78685B
:1037300000B1012600F006F8BDE8F2836068B0F53C
:10374000827F7047012078700021397030467047C1
:103750002DE9FC4700F0DCF84FF0010808BF02201B
:1037600000F0C6809A4687F80080FFF779F97B78E9
:10377000012B09D06968B1F5827F02BFA9680029D1
:10378000042B01D00226AEE0002C1CBFB9F1000FC3
:10379000BAF1000F01D10126A5E07B78042B1CBFF4
:1037A000052179707E60C5F83890A5F83EA0A5F88F
:1037B0003CA02C63A5F836A0A5F834A02E646E6456
:1037C00029680C68630603D40C6844F040040C605C
:1037D000E9680A9CB1F5006F696838D1002918BF03
:1037E000BAF1010F00F0A9F88146E88E002804BF65
:1037F000E88F002868D02968886882070BD5E88E92
:10380000002818BFB8F1000F05D0286B0288CA60E5
:10381000B04600F06FF829688868C2070CD5E88FB9
:1038200050B1C868A96B08804FF00108A86B821CD2
:10383000AA63E88F411EE987FFF712F9A0EB0900A0
:10384000A042D2D314F1010FCFD003264BE00029C0
:1038500018BFBAF1010F00F064F88146E88E002825
:1038600004BFE88F00282FD02968886882070DD50B
:10387000E88E002818BFB8F1000F07D0286B027837
:103880000A73B046286B411C00F036F82968886836
:10389000C2070CD5E88F50B1C868A96B08704FF00B
:1038A0000108A86B421CAA63E88F411EE987FFF755
:1038B000D7F8A0EB0900A04203D314F1010FCDD03B
:1038C000C3E7002CCAD1C0E74A462146284600F08B
:1038D000A6F818B120200126786004E0A86810B985
:1038E00000F00FF800980121797000203870304600
:1038F000BDE8F687286B811C2963E88E411EE986A6
:10390000704700962968CA680092896800917047DC
:10391000054605F150070026387801280C469146E7
:10392000704709D1296B2B680A781A73296B4A1CD6
:103930002A63E98E4A1EEA86704709D1296B2B68F3
:103940000A88DA60296B8A1C2A63E98E4A1EEA8695
:1039500070472068016821F04001016070472DE93F
:10396000F843089C05460E4690461F46FFF778F838
:10397000381A2418FFF774F8814640480168490155
:10398000090D6143009105E0009800B900240098FA
:10399000401E0090286881683140B1420CBF012070
:1039A0000020404532D017F1010FF3D0FFF758F84F
:1039B000A0EB0900A04201D2002CE5D128684168A3
:1039C00021F0E00141606868B0F5827F08D1A86805
:1039D000B0F5004F18BFB0F5806F01D100F019F8B5
:1039E000A86AB0F5005F09D12868016821F4005188
:1039F00001602868026842F40052026005F150003C
:103A00000121417000220270032000E00020BDE887
:103A1000F2832868016821F04001016070477CB59D
:103A200004461648164E0B4601681825B1FBF5F5FD
:103A3000B5FBF6F64FF47A70464300966168B1F52F
:103A4000827F09D10092802100222046FFF787FF64
:103A500058B100F00CF876BD009830B10098401EC7
:103A60000090216888680106F6D4002076BD606D5C
:103A700040F02000606503207047000044020020F1
:103A800040420F0038B5040001D1012032BD00F0E2
:103A900017F808B900F018F800F01BF800F023F848
:103AA000FFE7416100F001F832BD2068C16841F4D0
:103AB0000051C1600020686020216970A9707047C2
:103AC00004F13C0568787047002129702046FEF714
:103AD00038BE242068702068C16821F40051C1609C
:103AE000204600F0D9BA2068016921F490410161B3
:103AF0002068416921F02A0170472DE9F843054605
:103B000005F13C060C46707820281746994649D1A5
:103B10000CB1380001D1012045E03078012841D0B6
:103B2000012131700020706021227270FEF798FF31
:103B3000AF848046EF84A868B0F5805F04BF286931
:103B400000280EBF2746204600270021317004467A
:103B50000EE014F8012B426007E02868002CF8D131
:103B600037F8021BC1F308014160E88C411EE9846B
:103B70004346E88CCDF80090002807D00022802131
:103B8000284600F081F90028E7D005E00022402116
:103B9000284600F079F908B1032004E02020707075
:103BA000002000E00220BDE8F28338B500F13003C8
:103BB0009C7B202C0FD109B1140001D1012032BD12
:103BC0001C7B012C07D001241C7300251D60BDE85F
:103BD000384000F0A3B9022032BD216801F114027F
:103BE00052E8001F206800F1140321F0400143E86F
:103BF0000010002870477CB5044621680B68CD682A
:103C00004A6913F00F0007D1980661D5AA065FD55F
:103C10002046BDE87640D5E1D00702D415F4907F68
:103C200056D0D80705D5E90503D5206C40F0010032
:103C30002064580705D5D10703D5206C40F0020059
:103C40002064980705D5D10703D5206C40F0040007
:103C50002064180707D5A90601D4D00703D5216C25
:103C600041F008012164206C002830D0980604D56A
:103C7000A90644BF204600F0A5F920684069216CE0
:103C80000A0701D440061DD5204600F070F92068CF
:103C90004169480611D5FFF7A0FFFCD1A06B60B1C8
:103CA0000FF215310165A06B00F058FD00280ED011
:103CB000A06B016DBDE87C4008472046BDE876401A
:103CC00000F071BD204600F06EFD0020206473BD41
:103CD000206B012804F13D0240F08680D80600D513
:103CE000EE0640F18180002300930D6800954B683B
:103CF00000930098496948063FD5A16B0868406861
:103D000080B20028E3D0A38D9842E0DAE085C8694C
:103D1000B0F5807F2DD0216801F10C0050E8001F24
:103D2000236803F10C0521F4807145E80010002898
:103D3000F1D100F09BF8490800F11405490045E86D
:103D400000100028F5D100F091F800F1140521F0E1
:103D5000400145E800100028F5D1202050700021D6
:103D6000216300F089F800F0BEF8FAD1A06B00F0F2
:103D7000B9FCA18DE08D091A30E0A08DE18D411ACA
:103D8000E08D00281CBF88B2002868D0206800F1B0
:103D90000C0353E8003F00F10C0623F4907346E84F
:103DA00000300028F2D1206800F05AF800F1140623
:103DB0005B0046E800300028F5D12020507000223A
:103DC0002263206800F10C0252E8002F00F10C057C
:103DD00022F0100245E800200028F2D12046BDE87C
:103DE0007C4089B200F0E0BC180629D52E0627D504
:103DF0001078212833D1A068B0F5805F04BF206916
:103E0000002808D1206A0288C2F308024A60206AAA
:103E1000811C216204E0206A421C22620078486012
:103E2000E08C401EE08480B2C8B92068C16821F0EF
:103E30008001C1602068C16841F04001C16073BD6C
:103E400058060CD56B060AD5C86820F04000C8603B
:103E5000202111702046BDE8764000F0A6BC73BD5D
:103E600000F1140353E8003F5B087047206800F13D
:103E7000140151E8001F7047206800F10C0151E85F
:103E8000001F00F10C0370472DE9F041069C054628
:103E90000E4690461F46286801683140B1420CBF6B
:103EA0000120002040451BD114F1010FF3D024B1B3
:103EB000FEF7D6FDC01B8442EDD200F01AF821F4C3
:103EC000D07100F012F8F8D100F01BF8FCD105F128
:103ED0003C0020214170817000210170032000E02E
:103EE0000020BDE8F08121F0100143E80010002817
:103EF0007047286800F10C0151E8001F00F10C0325
:103F00007047286800F1140151E8001F490800F1CA
:103F10001403490043E8001000287047816282853D
:103F2000C28500F13C0100224A6022238B700A7096
:103F3000016921B10168CA6842F48072CA600168EF
:103F40004A6942F001024A610068C16841F02001FB
:103F5000C1600020704744E80021002970470168D3
:103F600001F10C0252E8002F01F10C04704710B56A
:103F7000FFF7F5FF22F49072FFF7EDFFF8D100F0A4
:103F80000BF8016B012901D100F071F8202180F8B4
:103F90003E100022026310BD016801F1140252E8D4
:103FA000002F520801F11404520044E800210029B6
:103FB000F2D1704700000000806B0021C185C184F0
:103FC00000F0F1BB1CB590F83E1022294DD181685C
:103FD000826AB1F5805F0AD1016969B903685968DD
:103FE000C1F308011180826A911C81620FE00029EF
:103FF00004BF0169002902D10368596803E0016820
:10400000496801F07F011170816A4A1C8262C18D8A
:10401000491EC18589B231BB0168CA6822F02002FD
:10402000CA600168CA6822F48072CA6001684A697D
:10403000520852004A6100F029F812D100210163B0
:1040400000F015F802681168CB0606D5002400942C
:1040500013680093526800920099818D00F0A4FBD0
:1040600001E000F05CFC002016BD022016BD0268D5
:1040700002F10C0151E8002F036803F10C0422F057
:10408000100244E800210029F1D17047202180F876
:104090003E10026B012A704770B504462268116910
:1040A000E06821F4405101431161D3682648A168BA
:1040B000034020690B4361690343E0690B430343F9
:1040C000D3605169A06921F44071014351611F49D6
:1040D0008A421CBF1E48824202D1FEF75DFC01E00D
:1040E000FEF752FC62682568E46964261921B4F57C
:1040F000004FA1FB000112D1D30F5200FDF77AFC53
:1041000000F028F8F60032366420B6FBF0F04200EA
:1041100002F4F87202EB011200F0070010E0930FB6
:104120009200FDF767FC00F015F836013236642086
:10413000B6FBF0F000F0F00202EB011200F00F000D
:104140008018A86070BD0000F369FFFF00100140F7
:10415000001401406421B0FBF1F106FB1106704729
:1041600010B5034C0348211D00F09AFC207010BDCF
:10417000F8030020B002002038B50446FEF770FCBA
:1041800014F1010F054602D0044801786418FEF7C7
:1041900067FC401BA042FAD331BD00BF38020020AB
:1041A00070B500F014F800F01BF8217905E070B547
:1041B00000F00DF800F014F86179012305224900A0
:1041C00004F11000FDF7BAFF00B1012070BD0D46EB
:1041D0001646774C0146542204F11000FDF73AB818
:1041E0003000E58026810FD0B6F5007F0FD0B6F500
:1041F000806F0FD0B6F5C06F0FD0B6F5006F0FD03F
:10420000B6F5206F10D070474FF079510AE04FF0AB
:1042100078500BE04FF0765104E04FF0745005E019
:104220004FF07251E16070474FF07050E06070479E
:10423000FEB500F065F8297900F044F80027002861
:1042400017D100F03BF8297900F04FF888B92878A9
:10425000010648BF00267F1CB8B2642809D0300090
:10426000EFD100F02BF8AA1C297900F033F800B93F
:1042700056E00120FEBDFEB500F042F8697900F07D
:1042800021F80027002817D100F018F8697900F00C
:104290002CF888B92878010648BF00267F1CB8B2E0
:1042A000642809D03000EFD100F008F8AA1C697921
:1042B00000F010F800B933E00120FEBD02210191A9
:1042C00001207047029601230122490005F11000E8
:1042D000FDF7A0BD0290009249000123002241F0A9
:1042E000010105F11000FDF72DBE02904900009577
:1042F0000123012241F0010105F11000FDF722BE6A
:104300002B4D00950C462989084340F08100287008
:104310000221E888019140F003006870012670478F
:10432000A978E878D5ED030A090640EA214100EEB4
:10433000101AB8EEC00A60EE200AC4ED000A002090
:10434000FEBD70B52DED028B82B005460026BFEE96
:10435000008A184C25FA06F0C0071ED5711006EB2E
:1043600091729210A6EB8200C0B20021001D009154
:104370000005042E69464FEA104002DAFFF758FFA5
:1043800001E0FFF778FF002819BF04EB860181EDFB
:10439000008A009844F8260003E004EB860080EDD4
:1043A000008A761C082ED5DB02B0BDEC028B70BDF6
:1043B00000000020CC0300202DE9F843040016D0B3
:1043C0002078DFF80063C10713D5B06800F00C0057
:1043D000042807D0B06800F00C0008283DD17068B0
:1043E00041023AD53068810303D56068002800F0A7
:1043F00063812078B44F810719D5B06810F00C0F95
:1044000007D0B06800F00C0008285BD1706841024A
:1044100058D43068810703D5E068012840F04C810A
:104420003168206921F0F80141EAC001316021784A
:10443000080779D56069A549002868D001220A607B
:10444000FEF70EFB0546706F81076DD4FEF708FB83
:10445000401B0228F7D9032031E16068B0F5803FA6
:1044600004D1306840F48030306011E0B0F5A02F06
:10447000306806D140F480203060316841F48031EA
:1044800005E020F480303060316821F48021316013
:10449000606858B1FEF7E4FA054630688103A8D495
:1044A000FEF7DEFA401B6528F7D3D4E7FEF7D8FA0B
:1044B0000546306881039CD5FEF7D2FA401B65287B
:1044C000F7D3C8E7E068A8B101213960FEF7C8FA60
:1044D00005463068810705D4FEF7C2FA401B022862
:1044E000F7D9B8E73068216920F0F80040EAC10048
:1044F00030609CE73860FEF7B3FA054631688807FC
:1045000095D5FEF7ADFA401B0228F7D9A3E708605E
:10451000FEF7A6FA0546706F810705D5FEF7A0FAEB
:10452000401B0228F7D996E7207841075FD5306C09
:104530000025C1000AD400950125316C41F080515D
:104540003164306C00F0805000900098DFF880817A
:10455000D8F80000C10513D4D8F8000040F48070EA
:10456000C8F80000FEF77CFA8146D8F80000C105C3
:1045700006D4FEF775FAA0EB09000228F5D96AE720
:10458000A068012805D00528306F06D140F004004E
:104590003067306F40F0010005E0400840003067B0
:1045A000306F20F00400306741F28938A06860B1B4
:1045B000FEF756FA8146306F810713D4FEF750FAA2
:1045C000A0EB09004045F6D345E7FEF749FA8146DE
:1045D000306F810706D5FEF743FAA0EB090040458E
:1045E000F6D338E71DB1306C20F080503064A069FC
:1045F000002863D0B16801F00C0108293AD00228E4
:104600002AD100203866FEF72BFA05463068810172
:1046100005D5FEF725FA401B0228F7D91BE7E0690C
:10462000216A626A0843A16A490840EA8210491E69
:1046300040EA0140E16A40EA0160706001203866AA
:10464000FEF70EFA04463068810137D4FEF708FA07
:10465000001B0228F7D9FEE600203866FEF700FAB4
:1046600004463068810129D5FEF7FAF9001B0228BB
:10467000F7D9F0E601281FD07068E26900F48001E4
:10468000914202BF00F03F01226A914201BF47F60A
:10469000C0710140626AB1EB821F0DD1A26A52085B
:1046A00000F44031521EB1EB024F02BF00F07060C7
:1046B000E16AB0EB016F01D0012000E00020BDE80D
:1046C000F28300BF0038024000004742800E47429C
:1046D000007000400248416802788A1842607047C2
:1046E00038020020F8B5044604F134056E6AFEF77E
:1046F000B7F907466878022805D080212962002092
:1047000028700120F2BD2068016821F016010160C7
:1047100000F036F8E868002804BF6869002801D076
:1047200000F03AF800F032F820680168CA070CD5AA
:10473000FEF796F9C01B0628F6D320202862032135
:104740006970002028700320F2BDA86A3F218140D3
:10475000B1600020012169702870F2BD90F8351019
:10476000022903D08022426501207047052180F88C
:10477000351000680268520852000260002070473D
:104780002068416921F0800141617047206801681B
:1047900049084900016070472068016821F008015C
:1047A0000160704700007047704770477CB5704CDF
:1047B000607800283BD06F4D03226CA1284600F0A2
:1047C00073F9002831D100BF6DA16B4ED1E90023F0
:1047D0006846C0E90023FCF707FD82B20A23694658
:1047E0003046FFF78AF9284600F022F8012804D065
:1047F000022805D00B2815D006E0207062A104E045
:104800000020207065A100E069A1201D00F060F982
:10481000201DFCF7E9FC82B24FF0FF33211D30462A
:10482000FFF76BF90020607073BD0021617073BDEC
:1048300010B504465FF0090263A100F035F908B92C
:10484000012010BD5FF0090262A100F065F808B90F
:10485000022010BD5FF0090261A100F05DF808B907
:10486000032010BD5FF0090260A100F055F808B9FF
:10487000042010BD5FF009025FA100F04DF808B9F7
:10488000052010BD5FF009025EA100F045F808B9EF
:10489000062010BD5FF009025DA100F03DF808B9E7
:1048A000072010BD5FF009025CA100F035F808B9DF
:1048B000082010BD5FF00A025BA100F02DF808B9D6
:1048C000092010BD5FF00A025AA100F025F808B9CE
:1048D0000A2010BD5FF0090259A100F01DF808B9C7
:1048E0000B2010BD5FF0070258A100F015F808B9C1
:1048F0000C2010BD5FF0080256A100F00DF808B9B9
:104900000D2010BD5FF0070255A100F005F808B9B1
:104910000E2010BD002010BD204600F0C5B870B5B7
:10492000154C0068216888421ED1144D1149287821
:104930000F4A0D2818BF0A2808D193780020C854C0
:10494000907001205070FFF731FF06E093787F2BC5
:1049500003DA93785E1C9670C85429462046BDE859
:1049600070400122FFF721B970BD000041542B00B7
:104970004802002004030020AC0100203402002083
:104980003E3E4F4B0D0A00003E3E414443204953FA
:1049900020454E41424C45210D0A00003E3E414417
:1049A0004320495320444953424C45210D0A0000FD
:1049B0003E3E494E56414C494420434F4D4D414E99
:1049C00044210D0A0000000041542B454E41414452
:1049D0004300000041542B4449534144430000002C
:1049E00041542B454E4147505300000041542B4445
:1049F000495347505300000041542B454E415254F7
:104A00004300000041542B444953525443000000DA
:104A100041542B454E414C434400000041542B442B
:104A200049534C434400000041542B454E415445EA
:104A30004D50000041542B44495354454D50000003
:104A400041542B434F4E46494700000041542B45EB
:104A50005849540041542B535441545553000000BD
:104A600041542B5345543D0070B50E4D6B7A0446AE
:104A70000120A3B96B7A0020E854687A05EB800620
:104A80007460687A28440272687A421C6A72303014
:104A900008702F223A2048708A700020C87070BDBC
:104AA0000022E1E7EC03002004E010F8013B6BB1C9
:104AB000491C521E52B10B7890F800C09C45F4D0AE
:104AC00002D24FF0FF30704701207047002070473E
:104AD0000CB430B583B00A4606A9029104460025FD
:104AE0000194009502AB01A9084878441E30FBF7F9
:104AF0004BFB019A157000284EBF04460198041B19
:104B0000204603B030BC5DF80CFB00BF93C6FFFF2E
:104B100080B5002201E080B501221021DFF85005A8
:104B2000FEF784F8BDE802400120FFF725BB01B580
:104B300000F027F8642301226946FEF767FD01BDF6
:104B400038B50A46DFF82C4521688B689D07FBD5F0
:104B50000146204601B0BDE830406423FEF756BD53
:104B6000E0B5FF208DF8050000F00BF864220092FC
:104B7000012301AA0DF10501FEF7EAFD9DF80400ED
:104B80000EBDDFF8F00401688A689107FBD5704715
:104B900010B5DFF8E4444FF4FA702080FFF7E0FF2F
:104BA000FF281CBF21880029F8D110BD1CB5FFF7D4
:104BB000B2FF0A24FF20FFF7BAFF641EFAD1FFF705
:104BC000A7FF402000218DF800008DF80110ADF8FE
:104BD00002108DF8041095228DF8052006216846F4
:104BE000FFF7AEFF41F6FF7400E0641EFFF7B8FF69
:104BF000012818BF002CF8D1FFF78DFFFF20FFF729
:104C000096FFDFF878140120887013BD70B5044654
:104C1000DFF86864C8200D46B080FFF7A1FFFF28C9
:104C200003D1B0880028F8D101E0FE2801D000208F
:104C300070BDFFF795FF04F8010B2846451E0028BC
:104C4000F7D1FFF78DFFFFF78BFF012070BD70B527
:104C500004460D46FFF79CFFFF2821D12846FFF7A9
:104C600066FFFD2D16D04FF400712046FFF768FF58
:104C7000FFF776FFFFF774FF4124FFF771FF064649
:104C800000F01F00052801D0641EF6D1FFF768FF71
:104C90000028FBD006F01F06052E01D1012070BDB3
:104CA000002070BD38B504460D46FFF771FFFF28A0
:104CB00001D0FF2032BD2046FFF739FF280EFFF755
:104CC00036FF2802000EFFF732FF2804000EFFF720
:104CD0002EFFE8B2FFF72BFF402C08BF952003D032
:104CE000482C0CBF87200120FFF721FF4C2C08BF68
:104CF000FFF736FF0A24FFF733FF010601D5641ED4
:104D0000F9D132BDBCB508B10120B6BDDFF86C5396
:104D1000287881077BD4FFF749FFFFF7F9FE0021D0
:104D20004020FFF7BFFF0024012866D14FF47A70BE
:104D3000A8804FF4D5714820FFF7B4FF012837D180
:104D40000027FFF70DFFF9B27F1C0DF80100F8B244
:104D50000428F6DB9DF80200012804BF9DF803003B
:104D6000AA284AD100F0EAF8022804DA4FF080417C
:104D700000F053F818B1A8880028F3D13DE0A888C6
:104D800000283AD000217A20FFF78CFF002834D188
:104D9000FFF7E6FEE1B2641C0DF80100E0B2042862
:104DA000F6DB9DF80000410654BF04240C2424E0E7
:104DB00000F0C4F8022805DA00F02EF80228B8BF87
:104DC000022409DB012400214120FFF76BFF58B1C9
:104DD000A88888B1022CF6D100F0B0F80228F7DAE2
:104DE00000F01AF80028F3D1A88828B14FF4007118
:104DF0005020FFF757FF00B100246C70FFF78BFEC7
:104E0000FFF7AEFE24B1287800F0FE00287001E024
:104E10000021A9702878B6BD0021692042E708B1B9
:104E20000120704795480078704770B50D461646CA
:104E30001C4600B90CB9042070BD90480178CA071F
:104E400001D5032070BD4078410758BF7602FFF7B7
:104E50005FFE012C314608D15120FFF723FF98B99E
:104E600000F01BF880B100240EE05220FFF71AFF7B
:104E700050B900F012F818B1641E05F50075F8D1AC
:104E800000214C20FFF70EFFFFF745FEFFF768FEFD
:104E9000200018BF0120C0B270BD4FF40071284639
:104EA000B4E6F8B50D4616461C4600B90CB9042008
:104EB000F2BD724F3878C10701D50320F2BD3878B2
:104EC000410701D50220F2BD7878410758BF76022C
:104ED000FFF71EFE012C0BD131465820FFF7E2FEF2
:104EE00018BBFE212846FFF7B2FEF0B100241CE0FB
:104EF0007878810705D500F021F821465720FFF783
:104F0000D1FE31465920FFF7CDFE70B9FC2128466D
:104F1000FFF79DFE18B1641E05F50075F6D1FD2161
:104F20000020FFF794FE00B90124FFF7F4FDFFF71E
:104F300017FE200018BF0120C0B2F2BD002177206B
:104F4000B0E6F8B5144684B00E46254608B10420F4
:104F50008CE001270529494811D12A781AB1022A83
:104F600007D003D309E00021817004E0FFF71EFEA3
:104F700001E080786870002777E0042775E000780A
:104F8000C10748BF032071D4FFF7C2FD002E47D0F0
:104F9000012E08D0022E3FD00B2E46D00C2E47D02B
:104FA0000D2E51D05CE000214920FFF77BFE002848
:104FB00057D110216846FFF729FE002851D09DF8EF
:104FC00000309DF808109DF809209B09012B06D19F
:104FD00002EB0120401C00048009206032E09DF8B3
:104FE00007309DF806509DF80A009B00AD0203EBC8
:104FF00091119DF8053005F4406503F00F03520050
:10500000691803EBD01302F00602491CD21889B2CA
:10501000D01F8140216015E04FF40070208011E026
:10502000FFF7B6FDFF281CD10CE00021492001E06C
:1050300000214A20FFF736FE98B910212846FFF7D5
:10504000E5FD70B100270CE000217A20FFF72AFE71
:1050500030B90424FFF784FD641E05F8010BF9D173
:105060000427FFF758FDFFF77BFD384605B0F0BD7C
:10507000000002406800002004040020FC02002020
:10508000FEE7FEE7FEE7FEE7FEE770477047704782
:1050900070470648FDF72EBF0548FEF7ACBD054832
:1050A000FEF7A9BD0448FEF7A6BD0000840300205A
:1050B00068010020AC010020F001002030B501683B
:1050C00084684218416802EB5103C90703D54C4478
:1050D00001E0491C05D19A420AD012F9011B12F8CD
:1050E000015B002904F8015BF3D4491EF7D5F2E710
:1050F0000C3030BD10B5074979441831064C7C445A
:10510000163404E00A68081D114488470146A1428C
:10511000F8D110BD2C000000480000004EF6885168
:10512000CEF20001086840F470000860BFF34F8FB2
:10513000BFF36F8F4FF00070E1EE100A7047000070
:105140000FC0FFFF04010000040300200000000066
:105150006DFFFFFFEC010000D80000000000002000
:105160000248016841F470010160704788ED00E079
:105170000000000000000000010203040607080907
:1051800000F00DF8002801D0FFF7B4FFAFF3008066
:105190000020AFF3008000F004F800F00CF80120CC
:1051A000704780B5FDF7B4FF00F007F8FEF729F966
:1051B00000F004F8FAE700F003B870477047000009
:1051C00007463846FCF754FDFBE7FFF79BBDFFF7AA
:1051D00026BEFFF72ABEFFF764BEFFF7B2BE00008F
:1051E000014880470148004761510008F15100081B
:1051F000AFF30080FFF792FFFFF7C2FF000000004F
:1052000001020304686A6C747A4C0000FFF7FEBF69
:10521000FFF7FEBFFFF7FEBFFFF7FEBFFFF7FEBFC2
:10522000FFF7FEBFFFF7FEBFFFF7FEBFFFF7FEBFB2
:10523000FFF7FEBFFFF7FEBFFFF7FEBFFFF7FEBFA2
:10524000FFF7FEBFFFF7FEBFFFF7FEBFFFF7FEBF92
:10525000FFF7FEBFFFF7FEBFFFF7FEBFFFF7FEBF82
:10526000FFF7FEBFFFF7FEBFFFF7FEBFFFF7FEBF72
:10527000FFF7FEBFFFF7FEBFFFF7FEBFFFF7FEBF62
:10528000FFF7FEBFFFF7FEBFFFF7FEBFFFF7FEBF52
:10529000FFF7FEBFFFF7FEBFFFF7FEBFFFF7FEBF42
:1052A000FFF7FEBFFFF7FEBFFFF7FEBFFFF7FEBF32
:1052B000FFF7FEBFFFF7FEBFFFF7FEBFFFF7FEBF22
:1052C000FFF7FEBFFFF7FEBFFFF7FEBFFFF7FEBF12
:1052D000FFF7FEBFFFF7FEBFFFF7FEBFFFF7FEBF02
:1052E000FFF7FEBFFFF7FEBFFFF7FEBFFFF7FEBFF2
:1052F000FFF7FEBFFFF7FEBFFFF7FEBFFFF7FEBFE2
:10530000FFF7FEBFFFF7FEBFFFF7FEBFFFF7FEBFD1
:10531000FFF7FEBFFFF7FEBFFFF7FEBFFFF7FEBFC1
:10532000FFF7FEBFFFF7FEBFFFF7FEBFFFF7FEBFB1
:10533000FFF7FEBFFFF7FEBFFFF7FEBFFFF7FEBFA1
:10534000FC0005484980000004A60000018100819E
:10535000008100AA000001F9000010FC000324F401
:10536000000199002FCB510008CF510008D3510004
:1053700008D7510008DB5100083A1300083A13001F
:10538000083A1300083A1300083A1300083A1300C9
:10539000083A130008F8FF0B0A1300083A13000834
:0C53A0003A130008FAFF02000001FB00B5
:04000005080051F1AD
:00000001FF
