:020000040800F2
:10000000D0450020F5230008DD230008DF23000889
:10001000E1230008E3230008E523000800000000B6
:10002000000000000000000000000000C50B0008F8
:10003000E7230008000000006D0B0008DD0A00083F
:1000400025240008292400082D2400083124000854
:1000500035240008392400083D2400084124000804
:1000600045240008492400084D24000851240008B4
:1000700055240008592400085D2400086124000864
:1000800065240008692400086D2400087124000814
:1000900075240008792400087D24000881240008C4
:1000A00085240008892400088D2400089124000874
:1000B0009524000899240008E92300089D240008DD
:1000C000A1240008A5240008A9240008AD240008E4
:1000D000B1240008B5240008B9240008BD24000894
:1000E000C1240008C5240008C9240008CD24000844
:1000F000D1240008D5240008D9240008DD240008F4
:10010000E1240008E5240008E9240008ED240008A3
:10011000F1240008F5240008F9240008FD24000853
:100120000125000805250008092500080D250008FF
:100130001125000815250008192500081D250008AF
:100140002125000825250008292500082D2500085F
:100150003125000835250008392500083D2500080F
:100160004125000845250008492500084D250008BF
:1001700051250008552500085925000800000000F9
:100180005D25000861250008F0B585B050260B9D5F
:1001900025B986F3118800F013FAFEE70C9C24B908
:1001A00086F3118800F00CFAFEE754270097009FB1
:1001B000542F04D086F3118800F002FAFEE7009E67
:1001C00025630026022584F8515004AF0A9D03964A
:1001D00002940197009500F034F8204600F06EF884
:1001E000049805B0F0BD2DE9F8430646174684B0E3
:1001F00088469946B80000F08DFA05001CD05420BE
:1002000000F088FA040014D00020256384F851001F
:10021000039002940D980C99019000914B463A4638
:100220004146304600F00DF8204600F047F8012026
:1002300004E0284600F0FBFA4FF0FF3005B0BDE8BF
:10024000F0832DE9F0470A9E8046306B00EB820276
:10025000101FC0084FEAC00A06F1340451B1002251
:100260008D5CA554885C10B1521C102AF8D3002074
:10027000E07300E02170089F099D062F88BF0627C4
:10028000F7622761002161619946301D00F02FFB64
:1002900006F1180000F02BFB3661C7F10707B761C4
:1002A00076620020A06120774A464146504600F021
:1002B00077FB306005B12E60BDE8F0872DE9F04195
:1002C00000F067F8DFF8B453DFF8BC83E86C401C3B
:1002D000E8641426A86A28BBAC62E86C012829D11E
:1002E000002706FB07F0404400F0F4FA7F1C072FBC
:1002F000F7D305F1740000F0EDFA05F188073846F0
:1003000000F0E8FA284600F0E5FA05F1140000F0E4
:10031000E1FA05F1380000F0DDFA05F17400E86259
:100320002F6307E0A86D28B9E06AA96ACA6A9042FB
:1003300028BFAC62A86E401CA86600F093F9464343
:10034000211D08EB060000F0D5FA00F0B6FBA86D01
:1003500030B100F03AF903D200F098F900F030F92A
:10036000BDE8F08180B588B1DFF81023116F21B1AD
:1003700000F03CF800F024F9FEE7116F491C11670A
:10038000002100F089F900F03BF808B900F013F9FA
:1003900001BD044600F078BB80B586B00021059110
:1003A000049103AA04A905A800F0D6FB05980499B6
:1003B00002900022009201910023039A0FF24C3127
:1003C0000FF21120FFF7E0FE70B100F00FF800F01F
:1003D000F7F8DFF828034FF0FF31C166012282658C
:1003E0000021016500F0FEFA07B000BD502080F347
:1003F00011887047DFF80403016F491C01677047DB
:1004000070B5DFF87862306F0024002520B900F065
:1004100043F800F0D5F8FEE700F036FB306F401EE1
:100420003067306F002836D1F06CD8B933E0F0680F
:10043000C46800F035F800F012F9E06A716DDFF879
:10044000B832012282401143716514225043211DAC
:10045000184400F04FFAE06AB16ACA6A904224BFB9
:100460000121316630680028E1D10CB100F0EAF8D2
:10047000F46D3CB100F018F808B101203066641E3C
:10048000F8D1F565306E30B1DFF874124FF080505E
:10049000012500F094F8ECE0502181F311887047B9
:1004A00004F1180000F04CBA2DE9F843DFF8CC71E4
:1004B000386F0026002851D13C6D641C3C6510D17A
:1004C000F86A006820B1FFF7E7FF00F079F8FEE76F
:1004D000F86A396BF9623863786E401C786600F010
:1004E000B1F8F86EDFF8109284424FF0140828D368
:1004F0001AE0281D00F024FAA86A18B105F11800C6
:1005000000F01EFAE86A796D012282401143796594
:1005100008FB00F0291D484400F0ECF9E86AB96ACC
:10052000CA6A904228BF0126F86A006830B1F86AAA
:10053000C168CD6868688442DBD201E04FF0FF30CB
:10054000F866B86AC06A08FB00F059F80010386E07
:10055000022928BF012620B1012602E0F86D401CC7
:10056000F8658DE0DFF81421106F10B101211166DC
:10057000704710661421506DB0FA80F3C3F11F0369
:100580004B43DFF87411C85838B9502181F31188F2
:10059000BFF34F8FBFF36F8FFEE7C81800F108035A
:1005A000416849684160994204BF496841604068B8
:1005B000C16891627047DFF848114FF080500860C1
:1005C000BFF34F8FBFF36F8F7047A86AC16AE06AAD
:1005D0008142704770B5DFF8B040DFF8205111E07C
:1005E00000F052FA286AC668301D00F0A9F9E86CDC
:1005F000401EE864686B401E686300F05EFA304697
:1006000000F009F8686B0028EAD121680229F9D3C3
:10061000FFF7D1FFF6E710B5044694F8510040B952
:10062000206B00F004F92046BDE8104000F0FFB850
:1006300010BD0128F7D00228FAD0FFF7D7FEFFF748
:10064000BFFFFEE70D49C86A006810B94FF0FF32DE
:1006500003E0C86AC268D0684268CA667047201D55
:1006600000F06EB90122E06A696D8240114369654C
:10067000704700F022FA284670BD0000604000205C
:100680003046BDE8F2830000FC4000201C4A4FF0D9
:100690008051116070470000F8B5184D2F6D0C4661
:1006A000A96A0646081D00F04BF930B9A86A696DC1
:1006B000C06A012282409143696516F1010F05D19C
:1006C00024B1A86A011D05F138001BE0A86AF619DB
:1006D0004660BE42A86A05D2011D286BBDE8F44001
:1006E00000F015B9011DE86A00F011F9E86E8642C4
:1006F00038BFEE66F1BD0000FC40002060400020E5
:1007000004ED00E0BDE8F44000F0F4B849444C4585
:10071000000000002DE9F8430446FFF76BFE6C4F24
:10072000B8684FF00009002508BB07F1200307F166
:10073000200113F0070F4FF470500A4605D0CA1D70
:10074000D208D200C2F57050081880180838C008C6
:10075000C0003A607D60B86045600560831A5360F0
:10076000106050683861F8604FF00040F8614FF059
:100770005008F86904424AD1002C48D0083414F0DB
:10078000070F1FBF04F1080004F00704041B14F056
:10079000070F02D000F044F8FEE7002C37D0F868CD
:1007A000A04234D33E68394601E0314606467068BF
:1007B000A04202D230680028F7D1B868864226D01D
:1007C0000A683068086002F108097268121B112A71
:1007D0000CD3311911F0070002D000F021F8FEE728
:1007E000301D02517460084600F04EF87168F868D8
:1007F0003A69401AF860904238BF3861F86901439D
:100800007160356009F007057869401C7861FFF771
:10081000F7FD15B100F004F8FEE74846BDE8F283A5
:1008200088F31188BFF34F8FBFF36F8F7047002895
:1008300000D1704738B5A0F10805254C6968E26918
:100840005023114202D100F018F8FEE7286810B1D9
:1008500000F013F8FEE791436960FFF7CBFDE16814
:1008600068684118E160284600F00EF8A069401C55
:10087000A061BDE83140FFF7C3BD83F31188BFF32A
:100880004F8FBFF36F8F704730B511490A4600E0B4
:100890001A4613688342FBD35368D418844203D1A9
:1008A0004068C3185360104643681468C518A542D1
:1008B00008D189688C4204D06168CB1843602468F1
:1008C00000E00C460460824218BF106030BD00009A
:1008D0001C0000204FF0FF3200F1080182604160EF
:1008E000C16000F10802026100210160704700212F
:1008F0000161704710B542684A6093688B609468E4
:100900006160916008610168491C016010BD30B5EB
:100910000A6812F1010F08BF036907D000F108034C
:1009200000E023465C682568AA42FAD25A684A6009
:1009300091608B60596008610168491C016030BD9D
:100940004368016982689A60836842685A604A68AD
:10095000824204BF83684B60002202610868401E27
:1009600008600868704730B4002513E050F8042B85
:10097000D30744BFA9F101039A18091F042942F8BB
:10098000045BFAD213468C0744BF15809B1CC90731
:1009900048BF1D7050F8041B0029E7D130BC7047D8
:1009A000490810B54900A0F120034FF08074996107
:1009B0001A60DC616FF002020FF20D01596140F81C
:1009C000242D203810BD00004E494A68502012F1F5
:1009D000010F80F31188BFF34F8FBFF36F8F00D0EB
:1009E000FEE7FEE77CB5484A484B10685021984224
:1009F00002D100F095F8FEE71068454B984202D10D
:100A000000F08EF8FEE7434B1C780194FF251D7023
:100A100007251E783B4C8DF800609DF80000A5600E
:100A200000F05000207006E0401EA0609DF800001D
:100A300040008DF80000A0689DF800502E06F3D409
:100A4000C0F10705042D02D000F06AF8FEE70002AD
:100A500000F4E060A06001981870116A41F4700120
:100A60001162106A40F07040106200F061F80020DE
:100A7000606000F0C5F82848016841F0404101601D
:100A800000F0AEF8002076BD502080F31188BFF34F
:100A90004F8FBFF36F8F1B494A68521C012A4A606F
:100AA0000AD11E490A68130606D080F31188BFF3E5
:100AB0004F8FBFF36F8FFEE770471249486838B910
:100AC000502080F31188BFF34F8FBFF36F8FFEE785
:100AD000401E486008BF80F31188704780B55020E1
:100AE00080F31188BFF34F8FBFF36F8FFFF7DCFCEC
:100AF00018B10A494FF080500860002282F3118833
:100B000001BD00000000002000ED00E071C20F41B7
:100B100070C20F4100E400E034EF00E004ED00E0BB
:100B200081F31188BFF34F8FBFF36F8F70470000C1
:100B30000748084B0021016081604FF47A72196800
:100B4000B1FBF2F2521E426007210160704700BF04
:100B500010E000E018000020034B036003F1540094
:100B600008608021116070473C3C0020EFF3098051
:100B7000BFF36F8F264B1A681EF0100F08BF20EDD1
:100B8000108A20E9F04F106009B44FF0500080F354
:100B90001188BFF34F8FBFF36F8FFFF7E3FC4FF068
:100BA000000080F3118809BC19680868B0E8F04FAC
:100BB0001EF0100F08BFB0EC108A80F30988BFF355
:100BC0006F8F7047124B19680868B0E8F04F80F3D8
:100BD0000988BFF36F8F4FF0000080F311887047D2
:100BE0000C480068006880F308884FF0000080F32C
:100BF000148862B661B6BFF34F8FBFF36F8F00DF0B
:100C0000DFF81400016841F47001016070470000D2
:100C10008840002008ED00E088ED00E02DE9F84173
:100C200087B000F0E3F900F052F914220021684681
:100C300000F0F6F90020059040F28175D248DFF807
:100C40004C830168D24ED34FD34C41F00401016074
:100C5000026802F0040205920022059905920368D9
:100C600043F080030360016801F0800100F01DF98A
:100C700043F001030360016801F0010100F015F980
:100C800043F010030360016801F0100100F00DF95A
:100C900043F002030360016801F002010591059928
:100CA00005921021036843F008030360006800F018
:100CB000080005900598404600F09CFA002229465D
:100CC000304600F097FA00224FF48061384600F079
:100CD00091FA0022F021204600F08CFA102100F059
:100CE000EEF8404600F0A6F90120019000220292A1
:100CF000039200956946304600F09CF94FF440603D
:100D000000F0D8F800F0CDF84FF4107000210090FA
:100D100002914FF4881501956946384600F08AF92A
:100D20004FF4807000F0C6F8404600F0BBF84FF476
:100D3000104100910195002102916946404600F062
:100D400079F94FF4806100F0BAF8384600F072F992
:100D50004FF4C05000F0AEF8384600F0A3F8092177
:100D6000009101950021029100F09BF8F02100F024
:100D7000A6F8204600F05EF90021019102914FF49F
:100D80004078CDF8008069468448854D854E00F056
:100D900051F98548A8654FF48047002028666866A9
:100DA000E86628676867A867EE65AF6605F15800D2
:100DB00000F03AFA08B100F009F905F1AC047B48FB
:100DC000206066600021A160E16027616161A1612E
:100DD000E1612162204600F027FA08B100F0F6F840
:100DE000734828604FF4827169600A2000224FF432
:100DF0000071E862AA60EA602A616A61A961EA6139
:100E00002A626A62AA62284600F0B6FA08B100F0C7
:100E1000DDF8684860654FF4E136A6650020E065BE
:100E2000206660660C21A166E066206705F580708B
:100E300000F006FB08B100F0C9F805F5A2775E489E
:100E4000386000210C207861B960F9603961F9617E
:100E50007E60C7F81880384600F0F2FA08B100F05A
:100E6000B5F85648786400210C20B865F9643965F6
:100E70007965F9653966BE6405F5C47000F0E0FA7D
:100E800008B100F0A3F8684651A11C2200F076FBDF
:100E90000021684600F089FBC5F8CC0100F080FB1A
:100EA000FEE72046694600F0C5B805910599059210
:100EB00003687047002100900191029170470091F2
:100EC000012200210291039101926946704780B589
:100ED00092B03022002106A800F0A2F814220021CE
:100EE00001A800F09DF8002000903548016841F00D
:100EF000805101600021006800F08050009000984F
:100F0000304800910221026842F4804202600122CE
:100F1000006800F48040009000980691099210212A
:100F20000A91022200210C920D91082260210E925A
:100F30000F91022204211092119106A800F06CFB7F
:100F400008B172B6FEE702210291802203920F20BF
:100F50004FF480510190049100220592012101A8D3
:100F600000F0E8FC08B172B6FEE713B000BD80B532
:100F7000012000F049FBFBE700681349884208BFE5
:100F800000F0CABD70470000303802400000024047
:100F90000010024000080240000C02400004024021
:100FA000903E0020A0860100005400400058004000
:100FB0000030014000100140004400400048004063
:100FC00040380240007000400008004072B6FEE762
:100FD000042400086F0F000800000000000000005B
:100FE00080000000000000000000000080B50B48F9
:100FF000016841F400710160026842F4806202609D
:10100000016841F480710160032000F09AFD0F2017
:1010100000F0D6FD00F024FE002002BD003C02409E
:1010200010B5044610460A460146204600F038FF37
:10103000204610BD2DE9F84F0D4600266F49704A35
:101040000F23044601202F68B04000EA07088045BE
:1010500040F0CA804FEA460C032707FA0CF76FEA04
:10106000070E6F6807F00309B9F1010F1CBF07F005
:101070000307022F12D1A768D5F80C900EEA0707D4
:1010800009FA0CF949EA0707A760676827EA000030
:101090006F68C7F30017B74038436060B0002F791E
:1010A00007F00307032F21D0E768D5F808900EEA70
:1010B000070709FA0CF949EA0707E7602F7907F0F3
:1010C0000307022F12D1F70804EB870700F01C0971
:1010D000D7F820A003FA09FB2AEA0B0AD5F810B0CA
:1010E0000BFA09F949EA0A09C7F8209027680EEABD
:1010F000070E2F7907F0030707FA0CF747EA0E07E8
:1011000027606F6817F4403F6ED0002700974FEAC2
:10111000960C176847F48047176000F00C001768BA
:1011200007F48047009703FA00FE009F354F57F8F9
:101130002C7027EA0E0E344FBC4208BF002722D085
:10114000324FBC4208BF01271DD0314FBC4208BFFF
:10115000022718D02F4FBC4208BF032713D02E4FB1
:10116000BC4208BF04270ED02C4FBC4208BF052745
:1011700009D02B4FBC4208BF062704D0294FBC42E0
:101180000CBF0727082707FA00F01E4F40EA0E00A1
:1011900047F82C006FEA08008F6800EA070C6F68B8
:1011A000FF0248BF48EA0C0CC1F808C0CF6800EA4B
:1011B000070C6F68BF0248BF48EA0C0CC1F80CC0AE
:1011C0004F6800EA070C6F68BF0348BF48EA0C0C81
:1011D000C1F804C00F6800EA070C6868C00348BF84
:1011E00048EA0C0CC1F800C0761C0F2E7FF62AAF1F
:1011F000BDE8F18F02B9090481617047003C0140EC
:101200004438024008380140000002400004024017
:1012100000080240000C024000100240001402408E
:1012200000180240001C0240F8B5040025D004F16B
:101230003C05697821B900202870204600F02EFD79
:1012400024216970206802685208520002602068F8
:10125000016841F4004101602068026822F4004204
:10126000026000F0EDFB01466068DFF8F420904278
:1012700005D2DFF8F030994205D20120F2BDDFF847
:10128000E8008142F9D32068DFF8E0304668B1FB1E
:10129000F3F3B60943EA861646602668376A606843
:1012A000904206D34FF4967043434FF47A70B3FBE9
:1012B000F0F35B1CBF0943EA87133362491E2368BE
:1012C000DE696768974206D27F0000F043F8042980
:1012D00013D2042111E0A06820B907EB470700F002
:1012E00039F805E01920474300F034F841F4804113
:1012F00008050CBF012141F40041DFF874000640ED
:101300000E43DE6122681368E169206A23F0C0039E
:101310000B43034313602268DFF858009368216988
:101320000340E0680B43034393602168CA68A369E4
:101330006069120A034343EA0222CA602068016816
:1013400041F0010101600020686020216970206384
:10135000A870F2BDB1FBF7F1491CC1F30B01704756
:10136000A186010080841E0000093D0040420F005C
:101370000030FFFF007CFFFF38B5040001D10120E1
:1013800032BD606A28B900F051F805D00021E16152
:1013900002E00020206160610020A06204F150059D
:1013A000687820B900212970204600F0BEFC022098
:1013B000687000F03FF86068A168E26800F482702D
:1013C00001F404410843217C02F400621043227DB1
:1013D00001F002010843A16902F001021043227FDB
:1013E00001F40071084394F8201002F03802104311
:1013F000A26A01F080010843216802F40052104300
:101400000860A06994F824102268000C00F0040021
:1014100001F01001084350602068C16921F40061A7
:10142000C161002068600121697032BD6068B0F55B
:10143000827F70472068016821F040010160704799
:1014400038B5040001D1012032BD00F017F808B909
:1014500000F018F800F01BF800F023F8FFE74161F6
:1014600000F001F832BD2068C16841F40051C1604C
:101470000020686020216970A970704704F13C0564
:101480006878704700212970204600F082BC242033
:1014900068702068C16821F40051C160204600F0E6
:1014A0000AB82068016921F490410161206841690E
:1014B00021F02A01704770B5044622681169E0687E
:1014C00021F4405101431161D3682648A1680340CB
:1014D00020690B4361690343E0690B430343D36015
:1014E0005169A06921F44071014351611E498A424A
:1014F0001CBF1E48824202D100F0AAFA01E000F0AF
:101500009FFA62682568E46964261921B4F5004FE2
:10151000A1FB000112D1D30F520000F0CBFC00F070
:1015200027F8F60032366420B6FBF0F0420002F4F1
:10153000F87202EB011200F0070010E0930F920026
:1015400000F0B8FC00F014F8360132366420B6FB27
:10155000F0F000F0F00202EB011200F00F00801832
:10156000A86070BDF369FFFF001001400014014046
:101570006421B0FBF1F106FB110670474AB100008F
:1015800011F8013B521E00F8013B1CBF11F8013B52
:10159000F8E7704701460020842918BFC81C70472F
:1015A00080B5FEF7F9FE002002BD38B5044684B0D0
:1015B000606900281CBFA06900280D4612D0B4F94C
:1015C0000800FFF7E7FFA16902912B4662690192CB
:1015D0000090226921686068FEF7D6FD03900398A9
:1015E00005B030BDB4F90800FFF7D4FF03A901919D
:1015F00000902B4622692168606892B2FEF7F3FDE5
:101600000128ECD00020EBE780B500B90120FEF7FF
:10161000A9FE002002BD00002DE9F843040016D009
:101620002078DFF80063C10713D5B06800F00C0024
:10163000042807D0B06800F00C0008283DD170687D
:1016400041023AD53068810303D56068002800F074
:1016500063812078B44F810719D5B06810F00C0F62
:1016600007D0B06800F00C0008285BD17068410218
:1016700058D43068810703D5E068012840F04C81D8
:101680003168206921F0F80141EAC0013160217818
:10169000080779D56069A549002868D001220A6049
:1016A00000F08CFC0546706F81076DD400F086FC5D
:1016B000401B0228F7D9032031E16068B0F5803F74
:1016C00004D1306840F48030306011E0B0F5A02FD4
:1016D000306806D140F480203060316841F48031B8
:1016E00005E020F480303060316821F480213160E1
:1016F000606858B100F062FC054630688103A8D4E8
:1017000000F05CFC401B6528F7D3D4E700F056FCE2
:101710000546306881039CD500F050FC401B6528CD
:10172000F7D3C8E7E068A8B10121396000F046FCB2
:1017300005463068810705D400F040FC401B0228B4
:10174000F7D9B8E73068216920F0F80040EAC10015
:1017500030609CE7386000F031FC0546316888074E
:1017600095D500F02BFC401B0228F7D9A3E70860B1
:1017700000F024FC0546706F810705D500F01EFCC3
:10178000401B0228F7D996E7207841075FD5306CD7
:101790000025C1000AD400950125316C41F080512B
:1017A0003164306C00F0805000900098DFF8808148
:1017B000D8F80000C10513D4D8F8000040F48070B8
:1017C000C8F8000000F0FAFB8146D8F80000C10517
:1017D00006D400F0F3FBA0EB09000228F5D96AE774
:1017E000A068012805D00528306F06D140F004001C
:1017F0003067306F40F0010005E04008400030677E
:10180000306F20F00400306741F28938A06860B181
:1018100000F0D4FB8146306F810713D400F0CEFB7B
:10182000A0EB09004045F6D345E700F0C7FB814631
:10183000306F810706D500F0C1FBA0EB09004045E1
:10184000F6D338E71DB1306C20F080503064A069C9
:10185000002863D0B16801F00C0108293AD00228B1
:101860002AD10020386600F0A9FB054630688101C6
:1018700005D500F0A3FB401B0228F7D91BE7E06960
:10188000216A626A0843A16A490840EA8210491E37
:1018900040EA0140E16A40EA016070600120386678
:1018A00000F08CFB04463068810137D400F086FBE1
:1018B000001B0228F7D9FEE60020386600F07EFB08
:1018C00004463068810129D500F078FB001B02280E
:1018D000F7D9F0E601281FD07068E26900F48001B2
:1018E000914202BF00F03F01226A914201BF47F6D8
:1018F000C0710140626AB1EB821F0DD1A26A520829
:1019000000F44031521EB1EB024F02BF00F0706094
:10191000E16AB0EB016F01D0012000E00020BDE8DA
:10192000F28300BF0038024000004742800E474269
:10193000007000402DE9F04104000F4654D0574E8E
:10194000306800F00700B84202D200F073F84BD1C3
:101950002068534D810712D5400703D5A96841F48B
:10196000E051A9602078010703D5A86840F46040E1
:10197000A860A968A06821F0F0010143A96021785E
:10198000C80729D56068012802D129688A0305E0C3
:10199000022818BF032803D129688A0103D423E051
:1019A00029688A0720D5A968890840EA8100A860CB
:1019B00000F004FB8046A868616800F00C00B0EB02
:1019C000810F09D000F0FAFAA0EB080041F289314A
:1019D0008842F0D303202BE0306800F007008742F4
:1019E00004D200F027F801D0012021E0207841073F
:1019F00005D5AA68E06822F4E0520243AA60217883
:101A0000080706D5A968206921F4604141EAC001B0
:101A1000A96000F051F8AA682249234BC2F30312CF
:101A2000895CC84018602148006800F0C9F80020AF
:101A3000BDE8F0813770316801F00701B9427047A5
:101A400019481B4A006813681A49C3F3822206E04A
:101A50001548174A006813681649C3F34232895C77
:101A6000C840704710B50F220260114A136803F096
:101A700003034360146804F0F0048460136803F403
:101A8000E053C3601268D20802F4E05202610348D6
:101A9000026802F007020A6010BD0000003C02402C
:101AA00000380240842300081800002014000020A1
:101AB000083802401C24000830B5144C606800F05F
:101AC0000C00042802D0082802D01DE0104830BDC8
:101AD000226820680023410202F03F0204D52568F5
:101AE0000B49C5F3881003E020680A49C0F3881049
:101AF000A1FB000100F0DEF92168C1F30141491C9E
:101B00004900B0FBF1F030BD024830BD043802405E
:101B100000127A000024F4000248416802788A1812
:101B2000426070470C0000200901020002D41F48E7
:101B3000815470471E4B02F00F021A4402F8041C35
:101B400070471C4B19684FF6FF020002114000F469
:101B5000E0600843184908431860704770B5154B9A
:101B60001C68C4F302230124C3F10705052D2EBF11
:101B70000F2504FA05F56D1E1E1D072E34BF002328
:101B8000DB1E2940994004FA03F3BDE870405B1E58
:101B90001A401143C8E7010007D4012200F01F01D9
:101BA000064B8A40400943F82020704700E400E0DB
:101BB00018ED00E00CED00E00000FA0500E100E0A7
:101BC00078B587B00446002000902048016841F0B5
:101BD0000401016001A9006800F00400009002A85F
:101BE000009AFFF73FFF059810B9FFF729FF02E0C1
:101BF000FFF726FF4000164D1649174B2960B0FB32
:101C0000F3F0401E40F2E73268600021EA6029618B
:101C1000A960A961284600F0D7F9060012D128462C
:101C200000F0DFF906000DD11E20FFF7B4FF102CE5
:101C300007D2002221461E20FFF790FF07480460CC
:101C400000E00126304608B070BD00004038024078
:101C5000884100200008004040420F00140000208E
:101C600082B00020009000228248416841F4804107
:101C70004160416801F480410091009900920F2178
:101C8000036843F080530360006800F080500090C8
:101C900000986FF0010002B0FFF760BF10B586B08A
:101CA00000F071F82168744A7448754C91420ED165
:101CB00000F023F8C02200F028F8002000902169ED
:101CC00041F400112161206900F4001011E06D4A17
:101CD000914210D100F011F84FF4406200F015F875
:101CE00000200090216941F480012161206900F405
:101CF00080000090009806B010BD002100911223D2
:101D0000226842F0020222607047216801F002015D
:101D1000009100990192029300220392032304226E
:101D20000493059201A9FFF785B910B586B000F0BC
:101D30002AF821685448814223D100225048009259
:101D4000416941F480514161416901F48051009140
:101D500000990092A021036843F00103036002226E
:101D6000006800F00100009000984848019102923C
:101D700000210391032205210591049201A9FFF797
:101D800059F906B010BD04461422002101A8FFF73E
:101D900047B910B586B00446142200216846FFF703
:101DA0003FF922683A4B394835499A4211D100220D
:101DB00005924B6943F010034B6100234A6902F01E
:101DC00010020592059A05934FF4C06200F03EF8A8
:101DD00037E0304B9A4210D1002205920B6943F450
:101DE00000330B6100230A6902F400320592059A60
:101DF00005930F2200F02AF823E02748824223D1DE
:101E000000220592086940F480200861086900F406
:101E1000802005900598059202220B6843F0080384
:101E20000B60086800F0080005904FF440710598B9
:101E30001A48009101920021029103220721049186
:101E400003926946FFF7F6F806B010BD0C6844F03F
:101E500001040C600223096801F001010591059954
:101E6000009201930022029203230722039304921B
:101E70007047000040380240005400400004024017
:101E8000303802400058004000300140000002405D
:101E9000001001400044004000480040000C024097
:101EA0004018491C1CBFB1F1010100F8012DF9D106
:101EB00070470000D3BBD9B1B2F5803F5BD2022A94
:101EC0001ED98C46B1FBF2F102FB11C31B0443EA9D
:101ED0001043B3FBF2FC02FB1C3380B240EA034325
:101EE000B3FBF2F002FB103240EA0C4000237047D3
:101EF000022A05D98446B0FBF2F002FB10C27047FB
:101F00004AB105D100F0010249085FEA300070478C
:101F100000220023704700F0D3B90B00020000211B
:101F200000207047F7D3002200237047904271EBE6
:101F3000030CF2D370B5B1FA81F4B3FA83F52C1B1C
:101F4000A340C4F1200532FA05F63343A2405FF006
:101F50000046E64002E05B085FEA3202841A71EB59
:101F6000030524BF204629467641F4D302000B0026
:101F70003000002170BD70B5B1FA81F4B2FA82F57B
:101F8000C4F120046419B4F12006DAD3B2405FF042
:101F90000044F440002502E052085FEA3303C61A09
:101FA00071EB020E24BF3046714664416D41F3D39C
:101FB00002000B002000290070BD000001484068AD
:101FC000704700BF0C00002038B5040001D101208B
:101FD00032BD00F065F818B900F00AF900F06EF9AA
:101FE0003DE090F83D10012901D001207047022109
:101FF00080F83D100168CA6842F00102CA600068BA
:10200000DFF88010884218BFB0F1804F17D0DFF89A
:10201000781088421CBFDFF8742090420FD0DFF8A0
:10202000701088421CBFDFF86C20904207D0DFF8A8
:10203000681088421CBFDFF86420904209D1816893
:1020400001F00701062908D0016841F00101016093
:1020500003E0026842F001020260002070470220A3
:102060006870211D206800F0C7F80120A872A870D0
:10207000E87028716871A871E871287268726870D8
:10208000002032BD00000140000400400008004074
:10209000000C0040000401400040014000180040D6
:1020A00004F13C056878704710B504462068016962
:1020B0008A0715D5C1688A0712D56FF00201016140
:1020C00001222277806910F0030F204602D000F031
:1020D000F8F803E000F0F6F800F087F80020207729
:1020E000206801694A0715D5C1684A0712D56FF003
:1020F0000401016102222277806910F4407F2046AA
:1021000002D000F0DEF803E000F0DCF800F06DF83B
:1021100000202077206801690A0715D5C1680A07E1
:1021200012D56FF00801016104222277C06910F016
:10213000030F204602D000F0C4F803E000F0C2F81C
:1021400000F053F80020207720680169CA0615D5F1
:10215000C168CA0612D56FF010010161082222770A
:10216000C06910F4407F204602D000F0AAF803E0D6
:1021700000F0A8F800F039F8002020772068016905
:10218000CA0708D5C168CA0705D56FF0010101610A
:102190002046FEF7F1FE206801690A0608D5C168ED
:1021A0000A0605D56FF080010161204600F08BF82A
:1021B000206801694A0608D5C1684A0605D56FF04E
:1021C00040010161204600F07FF8206801698A061D
:1021D0000AD5C1688A0607D56FF020010161204643
:1021E000BDE8104000F071B810BD204600F06EB898
:1021F0000021297020467047F0B5254C0568254B15
:10220000254E264FDFF898C0A04218BFB0F1804F8E
:1022100007D0604518BFB84203D0B04218BF9842FB
:102220000DD14A6825F070051543A04218BFB0F1E2
:10223000804F17D060451CBFB842B04212D09842C0
:102240001CBF184A90420DD0174EB0421CBF174A0F
:10225000904207D0164EB0421FBF164A9042164E0B
:10226000B04203D1CA6825F4407515434A6925F088
:10227000800515430560A0428D68C5620A688262C8
:1022800012BF98420969016301224261F0BD00005A
:102290000000014000040140000C00400008004024
:1022A000000400400040014000440140004801405B
:1022B00000180040001C0040002000407047000053
:1022C000704770477047704770477047704730B528
:1022D000016884684218416802EB5103C90703D5BD
:1022E0004C4401E0491C05D19A420AD012F9011B65
:1022F00012F8015B002904F8015BF3D4491EF7D5FD
:10230000F2E70C3030BD000010B5074979441831B0
:10231000064C7C44163404E00A68081D11448847C2
:102320000146A142F8D110BD2C0000004800000079
:102330004EF68851CEF20001086840F47000086043
:10234000BFF34F8FBFF36F8F4FF00070E1EE100AB5
:102350007047000013E6FFFFB44100001C0000209E
:10236000000000006BFFFFFFFC01000024000000E4
:10237000000000200248016841F4700101607047CC
:1023800088ED00E0000000000000000001020304EE
:102390000607080900F00DF8002801D0FFF7B4FF88
:1023A000AFF300800020AFF30080FEF737FC00F0B1
:1023B00002F80120704700F001B8000007463846D7
:1023C00000F002F8FBE7000080B5AFF30080024A9E
:1023D00011001820ABBEFBE726000200FEE7FEE777
:1023E000FEE7FEE7FEE770470148FFF75DBE00002D
:1023F00088410020014880470148004775230008B4
:102400001124000864656661756C745461736B0017
:10241000AFF30080FFF78CFFFFF7BCFF0000000068
:1024200001020304FFF7FEBFFFF7FEBFFFF7FEBF89
:10243000FFF7FEBFFFF7FEBFFFF7FEBFFFF7FEBFD0
:10244000FFF7FEBFFFF7FEBFFFF7FEBFFFF7FEBFC0
:10245000FFF7FEBFFFF7FEBFFFF7FEBFFFF7FEBFB0
:10246000FFF7FEBFFFF7FEBFFFF7FEBFFFF7FEBFA0
:10247000FFF7FEBFFFF7FEBFFFF7FEBFFFF7FEBF90
:10248000FFF7FEBFFFF7FEBFFFF7FEBFFFF7FEBF80
:10249000FFF7FEBFFFF7FEBFFFF7FEBFFFF7FEBF70
:1024A000FFF7FEBFFFF7FEBFFFF7FEBFFFF7FEBF60
:1024B000FFF7FEBFFFF7FEBFFFF7FEBFFFF7FEBF50
:1024C000FFF7FEBFFFF7FEBFFFF7FEBFFFF7FEBF40
:1024D000FFF7FEBFFFF7FEBFFFF7FEBFFFF7FEBF30
:1024E000FFF7FEBFFFF7FEBFFFF7FEBFFFF7FEBF20
:1024F000FFF7FEBFFFF7FEBFFFF7FEBFFFF7FEBF10
:10250000FFF7FEBFFFF7FEBFFFF7FEBFFFF7FEBFFF
:10251000FFF7FEBFFFF7FEBFFFF7FEBFFFF7FEBFEF
:10252000FFF7FEBFFFF7FEBFFFF7FEBFFFF7FEBFDF
:10253000FFF7FEBFFFF7FEBFFFF7FEBFFFF7FEBFCF
:10254000FFF7FEBFFFF7FEBFFFF7FEBFFFF7FEBFBF
:10255000FFF7FEBFFFF7FEBFFFF7FEBFFFF7FEBFAF
:10256000FFF7FEBFFC00FCAAFC000001F900001010
:06257000FC000224F4004F
:0400000508002411BA
:00000001FF
