:020000040800F2
:10000000D80600206D24000851240008532400085D
:100010005524000857240008592400080000000057
:100020000000000000000000000000005B24000849
:100030005D240008000000005F240008612400081F
:100040009124000895240008992400089D240008A4
:10005000A1240008A5240008A9240008AD24000854
:10006000B1240008B5240008B9240008BD24000804
:10007000C1240008C5240008C9240008CD240008B4
:10008000D1240008D5240008D9240008DD24000864
:10009000E1240008E5240008E9240008ED24000814
:1000A000F1240008F5240008F9240008FD240008C4
:1000B000012500080525000863240008092500081B
:1000C0000D25000811250008152500081925000830
:1000D0001D250008212500082525000829250008E0
:1000E0002D25000831250008352500083925000890
:1000F0003D25000841250008452500084925000840
:100100004D250008512500085525000859250008EF
:100110005D2500086125000865250008692500089F
:100120006D2500087125000875250008792500084F
:100130007D250008812500088525000889250008FF
:100140008D250008912500089525000899250008AF
:100150009D250008A1250008A5250008A92500085F
:10016000AD250008B1250008B5250008B92500080F
:10017000BD250008C1250008C525000800000000B5
:10018000C9250008CD250008F8B5040025D004F1E4
:100190003C05697821B900202870204600F0F4FC65
:1001A00024216970206802685208520002602068A9
:1001B000016841F4004101602068026822F40042B5
:1001C000026000F069FE01466068DFF83C21904261
:1001D00005D2DFF83831994205D20120F2BDDFF8AF
:1001E00030018142F9D32068DFF828314668B1FB3D
:1001F000F3F3B60943EA861646602668376A6068F4
:10020000904206D34FF4967043434FF47A70B3FB99
:10021000F0F35B1CBF0943EA87133362491E23686E
:10022000DE696768974206D27F0000F043F8042930
:1002300013D2042111E0A06820B907EB470700F0B2
:1002400039F805E01920474300F034F841F48041C3
:1002500008050CBF012141F40041DFF8C801064048
:100260000E43DE6122681368E169206A23F0C0034F
:100270000B43034313602268DFF8AC0193682169E4
:100280000340E0680B43034393602168CA68A36995
:100290006069120A034343EA0222CA6020680168C7
:1002A00041F0010101600020686020216970206335
:1002B000A870F2BDB1FBF7F1491CC1F30B01704707
:1002C000308D7262411E3185708D411E718570477F
:1002D000009031684A6900928969009100987047DE
:1002E0003068016841F480710160704721F48061D9
:1002F00001603068026842F40062026070470022C8
:100300002946304600F016BBA186010080841E00FD
:1003100000093D0040420F002DE9FC4700F088F83D
:1003200000F08CF85DD100F074F8002859D13878CD
:10033000012856D000F067F801D400F079F9414661
:10034000D6F800E00C9D0B98DDF828C0DEF80080A0
:1003500028F40068CEF800804FF0210E87F801E005
:100360004FF0400887F802804FF0000EC7F804E015
:1003700000F033F900F018FA00282BD108E0716A78
:100380000A780261706A411C7162308DFFF79AFF32
:10039000308DA0B122462946304600F034FBA0B98A
:1003A000706A326801781161706A411C7162308D27
:1003B000411E00F019F8EBD589B20029DFD12246A1
:1003C0002946304600F04AFB30B17868042801D154
:1003D00000F0A8FA012005E000F0A4FA00F00CF803
:1003E00000E00220BDE8F6873185708D421E7285DF
:1003F0003068426953077047202078700021B97037
:100400000020387070470121397030680268D107C8
:1004100070470094192301220449304600F08ABA3B
:10042000000000000030FFFF007CFFFF0200100012
:100430000646884691469A4600F09ABD06F13C076A
:1004400004467878202870472DE9FC47FFF7F0FF35
:10045000FFF7F4FF02D1FFF7DCFF002840F08180B6
:10046000387801287DD0FFF7CEFF01D400F0E0F806
:100470004146D6F800E00C9D0B98DDF828C0DEF868
:10048000008028F40068CEF800804FF0220E87F834
:1004900001E04FF0400887F802804FF0000EC7F8E7
:1004A00004E000F09AF800F0CEF900284FD1308D2A
:1004B00018B1012804D100F09FF800F072F817E09D
:1004C000022806D130680168FFF710FF0020009075
:1004D00001E000210091FFF7FCFE09E022462946D9
:1004E00000F04BF8002832D100F03EF8FFF7E8FEAC
:1004F000308D002832D0042824D20128EED00228E2
:10050000DFF8388100942B460CD100224146FFF7DA
:10051000F8FE00281BD100F076F8716A0870706A46
:10052000421CE3E700224146FFF7EBFE00280ED114
:1005300000F034F92B4600F040F84146FFF7E1FEA9
:1005400028B9E8E72246294600F017F808B101204B
:1005500008E000F015F8CBD50069DEE7FFF74CFFA7
:1005600000E00220BDE8F68730680169706A01701A
:10057000716A4A1C704722464946304600F08BBAE1
:1005800030680169706A0170716A308D4A1C411EC1
:1005900072623185708D411E7185306841694A07EC
:1005A0007047009031684A6900928B690093009807
:1005B0000A6842F400720A60704730680169706A24
:1005C0000170716A308D4A1C411E726231850022B1
:1005D000708D411E718500947047C6F824C07085E7
:1005E0005346708D30854A46DFF8A801F0620194C9
:1005F00000953046704700003068016821F4806142
:100600000160002070473068016841F400710160AA
:1006100030680169706A0170716A308D4A1C411E30
:1006200072623185708D411E718532681069704724
:10063000026842F0010202607047000004000100FD
:100640002DE9F84F04468B46FFF7F4FE04F13C0712
:10065000054678780026202878D1DFF83C8100957F
:1006600019230122414600F08DF800286ED1387818
:1006700001286BD000F06DF8242078707E60DFF8E0
:100680001401E06200F075F80095534600F077F829
:1006900038B921680BF0FE00086100F069FC0546DE
:1006A00012E020680168CA0544BF4FF4007078600A
:1006B00003204CE000F05CFC401B824502D3BAF101
:1006C000000F01D1A02078702168486949697A78C3
:1006D0004008890AA02A00F0010001F0010101D0C0
:1006E0000843E7D020207870206841698A0712D437
:1006F00000F082F9226850610095192301224146D9
:1007000000F040F800BB761C4E45BBD3202078702B
:100710000021397018E0026842F400720260002083
:100720000090192321684A69009201228969009189
:1007300041460098009500F025F828B920207870EF
:1007400000213970002002E0012000E00220BDE815
:10075000F28F0121397020680268D10703D4026842
:1007600042F0010202602068016821F4006101602A
:1007700070472068016841F4807101607047002271
:100780004FF00111204600F0D5B8016841F48061B6
:10079000016070470000FFFF020010003068016830
:1007A00021F48061016070472DE9F8430446206818
:1007B000DDF82080099F8946016841F48071154663
:1007C0001E46016000974346FFF7D9FF40B12068FD
:1007D0000168CA0544BF4FF400702064032023E081
:1007E000206809F0FE0101613B46424600F01EF818
:1007F000A0B90090216800F081F800F022F840B91B
:10080000012E0DD02168280A08613A4600F018F838
:1008100030B1206C042801D100F00CF8012003E075
:100820002068EDB205610020BDE8F2834049204612
:10083000A8E000002068016841F400710160704781
:1008400041462046DFE02DE9F84F05462868DDF8EF
:1008500028800B9F0C46FFF798FF16462868016812
:1008600041F480719946016000F055F800284FF47A
:10087000007A2CD12968DFF8B8B004F0FE000861D6
:1008800000F044F8002832D10090296800F036F8D2
:1008900000F032F870B9B9F1010F05D02968300ABB
:1008A000086100F027F828B92868F6B2066100F060
:1008B00021F830B1286C042819D1286800F033F8E9
:1008C00015E02868FFF70DFD00F025F838B128681D
:1008D0000168CA0548BFC5F840A0032008E02868A1
:1008E00044F00104E4B2046100F010F800B101200A
:1008F000BDE8F28F3A464146284684E04A690092B4
:100900003A46896900914146009870473B46424605
:100910005946284636E00097434600224FF0011121
:10092000284607E03068016841F4007101607047B3
:10093000020001002DE9F041069F05460E46904653
:100940001C4631022868090E01290CBF40698069E4
:10095000304080B2B1B288420CBF01200020404537
:100960000DD114F1010FECD000F002FBC01B84424A
:1009700001D3002CE5D100F063F8012000E0002055
:10098000BDE8F081F8B505460E4614461F46310213
:10099000090E2868012919D14169314089B2B2B2E2
:1009A000914219D041694A0518D500F025F82A6806
:1009B0005061002105F13C002963202242708170C2
:1009C000426842F004024260017013E081693140E4
:1009D00089B2B2B29142E5D10020F2BD14F1010F0B
:1009E000D5D000F0C5FAC01B844201D3002CCED173
:1009F00000F026F80120F2BD016841F400710160A9
:100A00006FF48060704770B505460C46164628683E
:100A10004169080612D4284600F069F808B101209F
:100A200070BD14F1010FF2D000F0A2FA801B8442D5
:100A300001D3002CEBD100F003F8F0E7002070BDEB
:100A400000202863202105F13C00002241708270C3
:100A5000416841F0200141600270704770B5054661
:100A60000C46164628684169480712D4284600F00B
:100A70003EF808B1012070BD14F1010FF2D000F072
:100A800077FA801B844201D3002CEBD1FFF7D8FF0B
:100A9000F0E7002070BD70B505460C461646286884
:100AA00041694A0617D44169CA060BD400F060FABE
:100AB000801B844201D3002CF1D100F00EF841F0EC
:100AC000200104E06FF01001416100F006F8416080
:100AD0000270012070BD002070BD0020286320211D
:100AE00005F13C0000224170827041687047016846
:100AF0004A6953050FD56FF480624A610021016392
:100B00003C30202242708170426842F00402426010
:100B10000170012070470020704730B4002513E0B9
:100B200050F8042BD30744BFA9F101039A18091FF9
:100B3000042942F8045BFAD213468C0744BF15809F
:100B40009B1CC90748BF1D7050F8041B0029E7D142
:100B500030BC704781B0002000900022804841687E
:100B600041F480414160416801F480410091009965
:100B70000092036843F080530360006800F08050E7
:100B80000090009801B0704710B586B000F071F881
:100B90002168744A7448754C91420ED100F023F8D4
:100BA000C02200F028F800200090216941F40011D3
:100BB0002161206900F4001011E06D4A914210D1CA
:100BC00000F011F84FF4406200F015F8002000909A
:100BD000216941F480012161206900F480000090C6
:100BE000009806B010BD002100911223226842F047
:100BF000020222607047216801F002010091009911
:100C0000019202930022039203230422049305928B
:100C100001A900F0B3B910B586B000F02AF8216838
:100C20005448814223D1002250480092416941F446
:100C300080514161416901F4805100910099009215
:100C4000E021036843F0010303600222006800F022
:100C50000100009000984848019102920021039100
:100C6000032205210591049201A900F087F906B03D
:100C700010BD04461422002101A800F079BA10B575
:100C800086B0044614220021684600F071FA2268FA
:100C90003A4B394835499A4211D1002205924B69A5
:100CA00043F010034B6100234A6902F010020592E1
:100CB000059A05934FF4C06200F03EF837E0304BE0
:100CC0009A4210D1002205920B6943F400330B6164
:100CD00000230A6902F400320592059A05930F2257
:100CE00000F02AF823E02748824223D1002205920F
:100CF000086940F480200861086900F480200590AC
:100D00000598059202220B6843F008030B600868FF
:100D100000F0080005904FF4407105981A480091C2
:100D20000192002102910322072104910392694656
:100D300000F024F906B010BD0C6844F001040C600A
:100D40000223096801F001010591059900920193C0
:100D500000220292032307220393049270470000AB
:100D60004038024000540040000402403038024045
:100D700000580040003001400000024000100140D7
:100D80000044004000480040000C02402DE9F041C2
:100D900004000F4654D0574E306800F00700B842A8
:100DA00002D200F073F84BD12068534D810712D561
:100DB000400703D5A96841F4E051A96020780107F4
:100DC00003D5A86840F46040A860A968A06821F035
:100DD000F0010143A9602178C80729D5606801287E
:100DE00002D129688A0305E0022818BF032803D12D
:100DF00029688A0103D423E029688A0720D5A968D5
:100E0000890840EA8100A86000F0B2F88046A8682E
:100E1000616800F00C00B0EB810F09D000F0A8F879
:100E2000A0EB080041F289318842F0D303202BE087
:100E3000306800F00700874204D200F027F801D0A4
:100E4000012021E02078410705D5AA68E06822F456
:100E5000E0520243AA602178080706D5A9682069F4
:100E600021F4604141EAC001A96000F051F8AA688C
:100E70002249234BC2F30312895CC8401860214801
:100E8000006800F07FF90020BDE8F081377031681C
:100E900001F00701B942704719481B4A00681368FE
:100EA0001A49C3F3822206E01548174A00681368FE
:100EB0001649C3F34232895CC840704710B50F220F
:100EC0000260114A136803F003034360146804F0DE
:100ED000F0048460136803F4E053C3601268D2081E
:100EE00002F4E05202610348026802F007020A605D
:100EF00010BD0000003C024000380240CC23000836
:100F0000400200203C0200200838024088240008EB
:100F100030B5144C606800F00C00042802D008289A
:100F200002D01DE0104830BD226820680023410235
:100F300002F03F0204D525680B49C5F3881003E091
:100F400020680A49C0F38810A1FB000100F06AF98B
:100F50002168C1F30141491C4900B0FBF1F030BDEB
:100F6000024830BD0438024000127A000024F40028
:100F700001484068704700BF340200202DE9F84F57
:100F80000D4600266F49704A0F23044601202F6842
:100F9000B04000EA0708804540F0CA804FEA460C9E
:100FA000032707FA0CF76FEA070E6F6807F00309CB
:100FB000B9F1010F1CBF07F00307022F12D1A76878
:100FC000D5F80C900EEA070709FA0CF949EA070769
:100FD000A760676827EA00006F68C7F30017B7408B
:100FE00038436060B0002F7907F00307032F21D04A
:100FF000E768D5F808900EEA070709FA0CF949EAFC
:101000000707E7602F7907F00307022F12D1F708CF
:1010100004EB870700F01C09D7F820A003FA09FBAE
:101020002AEA0B0AD5F810B00BFA09F949EA0A09BD
:10103000C7F8209027680EEA070E2F7907F00307FC
:1010400007FA0CF747EA0E0727606F6817F4403F6E
:101050006ED0002700974FEA960C176847F4804738
:10106000176000F00C00176807F48047009703FA38
:1010700000FE009F354F57F82C7027EA0E0E344FB4
:10108000BC4208BF002722D0324FBC4208BF012714
:101090001DD0314FBC4208BF022718D02F4FBC4291
:1010A00008BF032713D02E4FBC4208BF04270ED021
:1010B0002C4FBC4208BF052709D02B4FBC4208BFAC
:1010C000062704D0294FBC420CBF0727082707FA80
:1010D00000F01E4F40EA0E0047F82C006FEA0800AF
:1010E0008F6800EA070C6F68FF0248BF48EA0C0CE3
:1010F000C1F808C0CF6800EA070C6F68BF0248BF9C
:1011000048EA0C0CC1F80CC04F6800EA070C6F6885
:10111000BF0348BF48EA0C0CC1F804C00F6800EADE
:10112000070C6868C00348BF48EA0C0CC1F800C04F
:10113000761C0F2E7FF62AAFBDE8F18F02B90904A5
:1011400081617047003C014044380240083801404A
:10115000000002400004024000080240000C02406F
:10116000001002400014024000180240001C02401F
:1011700010B5044610460A460146204600F0D6F84F
:10118000204610BD78B587B0044600200090204866
:10119000016841F00401016001A9006800F0040049
:1011A000009002A8009AFFF789FE059810B9FFF792
:1011B00073FE02E0FFF770FE4000164D1649174B14
:1011C0002960B0FBF3F0401E40F2E7326860002176
:1011D000EA602961A960A961284600F0DBF80600F1
:1011E00012D1284600F0E3F806000DD11E2000F0D1
:1011F00084FA102C07D2002221461E2000F060FA4B
:101200000748046000E00126304608B070BD0000C9
:10121000403802405C0200200008004040420F00BD
:101220003C020020D3BBD9B1B2F5803F5BD2022A89
:101230001ED98C46B1FBF2F102FB11C31B0443EA39
:101240001043B3FBF2FC02FB1C3380B240EA0343C1
:10125000B3FBF2F002FB103240EA0C40002370476F
:10126000022A05D98446B0FBF2F002FB10C2704797
:101270004AB105D100F0010249085FEA3000704729
:1012800000220023704700F04DBA0B00020000213D
:1012900000207047F7D3002200237047904271EB83
:1012A000030CF2D370B5B1FA81F4B3FA83F52C1BB9
:1012B000A340C4F1200532FA05F63343A2405FF0A3
:1012C0000046E64002E05B085FEA3202841A71EBF6
:1012D000030524BF204629467641F4D302000B00C3
:1012E0003000002170BD70B5B1FA81F4B2FA82F518
:1012F000C4F120046419B4F12006DAD3B2405FF0DF
:101300000044F440002502E052085FEA3303C61AA5
:1013100071EB020E24BF3046714664416D41F3D338
:1013200002000B002000290070BD000062F30F22B4
:1013300062F31F42401810F0030308D0C91A1FD3EC
:10134000DB0748BF00F8012D28BF20F8022D13004D
:1013500030B414461546103928BF20E93C00FAD8AD
:10136000490728BF20E90C0048BF40F8042D890038
:1013700028BF20F8022D48BF00F8012D30BC70476F
:10138000C91818BF00F8012DCB0728BF00F8012DA0
:101390007047000038B5040001D1012032BD00F0D3
:1013A00065F818B900F00AF900F06EF93DE090F820
:1013B0003D10012901D001207047022180F83D1025
:1013C0000168CA6842F00102CA600068DFF8801054
:1013D000884218BFB0F1804F17D0DFF878108842EC
:1013E0001CBFDFF8742090420FD0DFF870108842E5
:1013F0001CBFDFF86C20904207D0DFF868108842ED
:101400001CBFDFF86420904209D1816801F0070118
:10141000062908D0016841F00101016003E002687B
:1014200042F0010202600020704702206870211D16
:10143000206800F0C7F80120A872A870E870287131
:101440006871A871E871287268726870002032BDF6
:10145000000001400004004000080040000C004073
:1014600000040140004001400018004004F13C0528
:101470006878704710B50446206801698A0715D559
:10148000C1688A0712D56FF002010161012222773B
:10149000806910F0030F204602D000F044F903E009
:1014A00000F042F900F087F80020207720680169F9
:1014B0004A0715D5C1684A0712D56FF004010161CA
:1014C00002222277806910F4407F204602D000F08B
:1014D0002AF903E000F028F900F06DF800202077E9
:1014E000206801690A0715D5C1680A0712D56FF08F
:1014F0000801016104222277C06910F0030F204621
:1015000002D000F010F903E000F00EF900F053F8FB
:101510000020207720680169CA0615D5C168CA066F
:1015200012D56FF01001016108222277C06910F412
:10153000407F204602D000F0F6F803E000F0F4F817
:1015400000F039F80020207720680169CA0708D523
:10155000C168CA0705D56FF001010161204600F09E
:10156000A2FA206801690A0608D5C1680A0605D5ED
:101570006FF080010161204600F0C0FA2068016927
:101580004A0608D5C1684A0605D56FF040010161D9
:10159000204600F0B4FA206801698A060AD5C168BD
:1015A0008A0607D56FF0200101612046BDE8104092
:1015B00000F0A6BA10BD204600F0A3BA00212970A1
:1015C00020467047F0B5254C0568254B254E264F23
:1015D000DFF898C0A04218BFB0F1804F07D0604537
:1015E00018BFB84203D0B04218BF98420DD14A6824
:1015F00025F070051543A04218BFB0F1804F17D0F9
:1016000060451CBFB842B04212D098421CBF184A75
:1016100090420DD0174EB0421CBF174A904207D0DF
:10162000164EB0421FBF164A9042164EB04203D12A
:10163000CA6825F4407515434A6925F080051543AD
:101640000560A0428D68C5620A68826212BF984236
:101650000969016301224261F0BD00000000014000
:1016600000040140000C004000080040000400405D
:101670000040014000440140004801400018004083
:10168000001C0040002000407047000009010200DB
:1016900002D41F48815470471E4B02F00F021A44B7
:1016A00002F8041C70471C4B19684FF6FF02000239
:1016B000114000F4E060084318490843186070477F
:1016C00070B5154B1C68C4F302230124C3F1070550
:1016D000052D2EBF0F2504FA05F56D1E1E1D072EC4
:1016E00034BF0023DB1E2940994004FA03F3BDE810
:1016F00070405B1E1A401143C8E7010007D4012265
:1017000000F01F01064B8A40400943F82020704733
:1017100000E400E018ED00E00CED00E00000FA0548
:1017200000E100E070477047704700002DE9F0418C
:1017300086B000F0E7F900F066F91422002168464F
:10174000FFF716FD0020059040F28175D948DFF8BB
:1017500068830168D94EDA4FDA4C41F00401016028
:10176000026802F0040205920022059905920368BE
:1017700043F080030360016801F0800100F027F965
:1017800043F001030360016801F0010100F01FF95B
:1017900043F010030360016801F0100100F017F935
:1017A00043F002030360016801F00201059105990D
:1017B00005921021036843F008030360006800F0FD
:1017C0000800059005984046FFF7B8FC002229461E
:1017D0003046FFF7B3FC00224FF480613846FFF734
:1017E000ADFC0022F0212046FFF7A8FC102100F0FC
:1017F000F8F84046FFF7C2FB012001900022029258
:101800000392009569463046FFF7B8FB4FF44060FD
:1018100000F0E2F800F0D7F84FF4107000210090CB
:1018200002914FF48815019569463846FFF7A6FBEB
:101830004FF4807000F0D0F8404600F0C5F84FF447
:101840001041009101950021029169464046FFF741
:1018500095FB4FF4806100F0C4F83846FFF78EFB2B
:101860004FF4C05000F0B8F8384600F0ADF8092148
:10187000009101950021029100F0A5F8F02100F0FF
:10188000B0F82046FFF77AFB0021019102914FF456
:101890004078CDF8008069468B488C4D8C4EFFF720
:1018A0006DFB8C48E8654FF4804700206866A866A9
:1018B00028676867A867E8672E66EF6605F15C0031
:1018C000FEF762FC08B100F017F905F1B004824898
:1018D000206066600021A160E16027616161A16113
:1018E000E16121622046FEF74FFC08B100F004F9E7
:1018F0007A4868604FF48271A9600020E860002196
:1019000068612961A96129626962A962E9624FF48B
:101910000070E8610A212963281D00F00DF908B163
:1019200000F0EAF86E4860654FF4E136A6650020E5
:10193000E065206660660C21A166E066206705F51B
:10194000827000F05DF908B100F0D6F805F5A477D3
:101950006448386000210C207861B960F960396111
:10196000F9617E60C7F81880384600F049F908B17F
:1019700000F0C2F85C48786400210C20B865F96476
:1019800039657965F9653966BE6405F5C67000F09C
:1019900037F908B100F0B0F800F0D0F94FF4007258
:1019A0008021204600F0D6F908B1002028704FF4BD
:1019B00000728021204600F0D4F908B10020287080
:1019C00006B0BDE8F08120466946FFF7D7BA059119
:1019D00005990592036870470021009001910291DA
:1019E0007047009101220021029103910192694602
:1019F000704780B5562000F07EFABDE802404FF4F3
:101A00007A7000F0B3BA80B592B03022002106A8F7
:101A1000FFF7AEFB1422002101A8FFF7A9FB00206D
:101A200000903248016841F0805101600021006857
:101A300000F08050009000982D480091022102682B
:101A400042F4804202600122006800F4804000906D
:101A500000980691099210210A91022200210C920D
:101A60000D91082260210E920F9102220421109202
:101A7000119106A800F08EFA08B172B6FEE70221B5
:101A80000291802203920F204FF480510190049123
:101A900000220592012101A8FFF778F908B172B67A
:101AA000FEE713B000BD00681249884208BF00F08D
:101AB000FFBB704730380240000002400010024077
:101AC00000080240000C02400004024064000020B4
:101AD000A086010000540040005800400030014042
:101AE00000100140004400400048004040380240DF
:101AF000007000400008004072B6FEE77047704773
:101B00007047704780B50B48016841F4007101606F
:101B1000026842F480620260016841F480710160F1
:101B20000320FFF7C0FD0F20FFF72CFBFFF712F893
:101B3000002002BD003C024038B5040001D1012064
:101B400032BD606A28B900F051F805D00021E1618A
:101B500002E00020206160610020A06204F15005D5
:101B6000687820B9002129702046FFF754F8022038
:101B7000687000F03FF86068A168E26800F4827065
:101B800001F404410843217C02F400621043227DE9
:101B900001F002010843A16902F001021043227F13
:101BA00001F40071084394F8201002F03802104349
:101BB000A26A01F080010843216802F40052104338
:101BC0000860A06994F824102268000C00F004005A
:101BD00001F01001084350602068C16921F40061E0
:101BE000C161002068600121697032BD6068B0F594
:101BF000827F70472068016821F0400101607047D2
:101C000038B5040001D1012032BD00F017F808B941
:101C100000F018F800F01BF800F023F8FFE741612E
:101C200000F001F832BD2068C16841F40051C16084
:101C30000020686020216970A970704704F13C059C
:101C400068787047002129702046FFF718B82420D3
:101C500068702068C16821F40051C160204600F01E
:101C60000AB82068016921F4904101612068416946
:101C700021F02A01704770B5044622681169E068B6
:101C800021F4405101431161D3682648A168034003
:101C900020690B4361690343E0690B430343D3604D
:101CA0005169A06921F44071014351611E498A4282
:101CB0001CBF1E48824202D1FFF7F6F801E0FFF791
:101CC000EBF862682568E46964261921B4F5004FD1
:101CD000A1FB000112D1D30F5200FFF7A3FA00F0CD
:101CE00027F8F60032366420B6FBF0F0420002F42A
:101CF000F87202EB011200F0070010E0930F92005F
:101D0000FFF790FA00F014F8360132366420B6FB83
:101D1000F0F000F0F00202EB011200F00F0080186A
:101D2000A86070BDF369FFFF00100140001401407E
:101D30006421B0FBF1F106FB1106704710B5034CAE
:101D40000348211D00F0D8FA207010BDD0020020F9
:101D50004402002070B500F014F800F01BF821795F
:101D600005E070B500F00DF800F014F8617901237A
:101D70000522490004F11000FEF762FC00B10120C9
:101D800070BD0D461646774C0146542204F11000F2
:101D900000F0B6BA3000E58026810FD0B6F5007F9E
:101DA0000FD0B6F5806F0FD0B6F5C06F0FD0B6F577
:101DB000006F0FD0B6F5206F10D070474FF07951FB
:101DC0000AE04FF078500BE04FF0765104E04FF00E
:101DD000745005E04FF07251E16070474FF0705061
:101DE000E0607047FEB500F065F8297900F044F82E
:101DF0000027002817D100F03BF8297900F04FF8B0
:101E000088B92878010648BF00267F1CB8B264282C
:101E100009D03000EFD100F02BF8AA1C297900F08E
:101E200033F800B956E00120FEBDFEB500F042F8DF
:101E3000697900F021F80027002817D100F018F880
:101E4000697900F02CF888B92878010648BF002687
:101E50007F1CB8B2642809D03000EFD100F008F838
:101E6000AA1C697900F010F800B933E00120FEBD2A
:101E700002210191012070470296012301224900AD
:101E800005F11000FEF748BA0290009249000123C4
:101E9000002241F0010105F11000FEF7D5BA0290D1
:101EA000490000950123012241F0010105F11000D4
:101EB000FEF7CABA2B4D00950C462989084340F01D
:101EC000810028700221E888019140F003006870C9
:101ED00001267047A978E878D5ED030A090640EA9B
:101EE000214100EE101AB8EEC00A60EE200AC4EDDF
:101EF000000A0020FEBD70B52DED028B82B00546B4
:101F00000026BFEE008A184C25FA06F0C0071ED541
:101F1000711006EB91729210A6EB8200C0B2002104
:101F2000001D00910005042E69464FEA104002DAB8
:101F3000FFF758FF01E0FFF778FF002819BF04EB17
:101F4000860181ED008A009844F8260003E004EB46
:101F5000860080ED008A761C082ED5DB02B0BDEC31
:101F6000028B70BD00000020A402002038B504469A
:101F7000FEF7FEFF14F1010F054602D00448017878
:101F80006418FEF7F5FF401BA042FAD331BD00BF35
:101F9000340200202DE9F843040016D02078DFF841
:101FA0000063C10713D5B06800F00C00042807D007
:101FB000B06800F00C0008283DD1706841023AD5A5
:101FC0003068810303D56068002800F063812078C1
:101FD000B44F810719D5B06810F00C0F07D0B06866
:101FE00000F00C0008285BD17068410258D43068BA
:101FF000810703D5E068012840F04C8131682069F1
:1020000021F0F80141EAC00131602178080779D553
:102010006069A549002868D001220A60FEF7A8FF80
:102020000546706F81076DD4FEF7A2FF401B0228A2
:10203000F7D9032031E16068B0F5803F04D1306802
:1020400040F48030306011E0B0F5A02F306806D148
:1020500040F480203060316841F4803105E020F4A4
:1020600080303060316821F480213160606858B17F
:10207000FEF77EFF054630688103A8D4FEF778FF9F
:10208000401B6528F7D3D4E7FEF772FF054630689A
:1020900081039CD5FEF76CFF401B6528F7D3C8E78A
:1020A000E068A8B101213960FEF762FF054630689B
:1020B000810705D4FEF75CFF401B0228F7D9B8E77B
:1020C0003068216920F0F80040EAC10030609CE7E8
:1020D0003860FEF74DFF05463168880795D5FEF755
:1020E00047FF401B0228F7D9A3E70860FEF740FF2F
:1020F0000546706F810705D5FEF73AFF401B0228A1
:10210000F7D996E7207841075FD5306C0025C100EC
:102110000AD400950125316C41F080513164306C56
:1021200000F0805000900098DFF88081D8F800001F
:10213000C10513D4D8F8000040F48070C8F800003E
:10214000FEF716FF8146D8F80000C10506D4FEF759
:102150000FFFA0EB09000228F5D96AE7A068012863
:1021600005D00528306F06D140F004003067306F8D
:1021700040F0010005E0400840003067306F20F07B
:102180000400306741F28938A06860B1FEF7F0FEC4
:102190008146306F810713D4FEF7EAFEA0EB0900F9
:1021A0004045F6D345E7FEF7E3FE8146306F8107F1
:1021B00006D5FEF7DDFEA0EB09004045F6D338E773
:1021C0001DB1306C20F080503064A069002863D0CD
:1021D000B16801F00C0108293AD002282AD1002068
:1021E0003866FEF7C5FE05463068810105D5FEF765
:1021F000BFFE401B0228F7D91BE7E069216A626A2B
:102200000843A16A490840EA8210491E40EA014099
:10221000E16A40EA0160706001203866FEF7A8FEBE
:1022200004463068810137D4FEF7A2FE001B022865
:10223000F7D9FEE600203866FEF79AFE04463068BD
:10224000810129D5FEF794FE001B0228F7D9F0E69C
:1022500001281FD07068E26900F48001914202BF3A
:1022600000F03F01226A914201BF47F6C071014070
:10227000626AB1EB821F0DD1A26A520800F44031AC
:10228000521EB1EB024F02BF00F07060E16AB0EB8A
:10229000016F01D0012000E00020BDE8F28300BF03
:1022A0000038024000004742800E47420070004064
:1022B0000248416802788A18426070473402002060
:1022C00070B50E4D6B7A04460120A3B96B7A0020DD
:1022D000E854687A05EB80067460687A28440272D4
:1022E000687A421C6A72303008702F223A20487097
:1022F0008A700020C87070BD0022E1E7C40200208F
:102300004AB1000011F8013B521E00F8013B1CBF0E
:1023100011F8013BF8E7704730B50168846842184E
:10232000416802EB5103C90703D54C4401E0491C45
:1023300005D19A420AD012F9011B12F8015B00295B
:1023400004F8015BF3D4491EF7D5F2E70C3030BD39
:1023500010B5074979441831064C7C44163404E022
:102360000A68081D114488470146A142F8D110BDF2
:102370002C000000480000004EF68851CEF200010B
:10238000086840F470000860BFF34F8FBFF36F8F91
:102390004FF00070E1EE100A704700007FE7FFFF8A
:1023A0007C0000005C020020000000006DFFFFFFC9
:1023B000200200006C0000000000002002480168BC
:1023C00041F470010160704788ED00E000000000FA
:1023D00000000000010203040607080901E00000F4
:1023E00000BF0248012101700078704758020020A8
:1023F00000207047002070470120704700F00DF862
:10240000002801D0FFF7A4FFAFF300800020AFF356
:10241000008000F004F800F008F80120704780B553
:10242000FFF784F9FFF7E5FAFCE700F001B80000D8
:102430000746384600F002F8FBE7000080B5AFF32E
:102440000080024A11001820ABBEFBE72600020004
:10245000FEE7FEE7FEE7FEE7FEE7704770477047DE
:1024600070470148FFF706B85C020020014880472A
:1024700001480047BD2300087D240008AFF3008019
:10248000FFF77AFFFFF7BAFF000000000102030424
:10249000FFF7FEBFFFF7FEBFFFF7FEBFFFF7FEBF70
:1024A000FFF7FEBFFFF7FEBFFFF7FEBFFFF7FEBF60
:1024B000FFF7FEBFFFF7FEBFFFF7FEBFFFF7FEBF50
:1024C000FFF7FEBFFFF7FEBFFFF7FEBFFFF7FEBF40
:1024D000FFF7FEBFFFF7FEBFFFF7FEBFFFF7FEBF30
:1024E000FFF7FEBFFFF7FEBFFFF7FEBFFFF7FEBF20
:1024F000FFF7FEBFFFF7FEBFFFF7FEBFFFF7FEBF10
:10250000FFF7FEBFFFF7FEBFFFF7FEBFFFF7FEBFFF
:10251000FFF7FEBFFFF7FEBFFFF7FEBFFFF7FEBFEF
:10252000FFF7FEBFFFF7FEBFFFF7FEBFFFF7FEBFDF
:10253000FFF7FEBFFFF7FEBFFFF7FEBFFFF7FEBFCF
:10254000FFF7FEBFFFF7FEBFFFF7FEBFFFF7FEBFBF
:10255000FFF7FEBFFFF7FEBFFFF7FEBFFFF7FEBFAF
:10256000FFF7FEBFFFF7FEBFFFF7FEBFFFF7FEBF9F
:10257000FFF7FEBFFFF7FEBFFFF7FEBFFFF7FEBF8F
:10258000FFF7FEBFFFF7FEBFFFF7FEBFFFF7FEBF7F
:10259000FFF7FEBFFFF7FEBFFFF7FEBFFFF7FEBF6F
:1025A000FFF7FEBFFFF7FEBFFFF7FEBFFFF7FEBF5F
:1025B000FFF7FEBFFFF7FEBFFFF7FEBFFFF7FEBF4F
:1025C000FFF7FEBFFFF7FEBFFFF7FEBFFFF7FEBF3F
:1025D000FC0005484980000004A60000018100813C
:1025E000008100AE000001F9000010FC001724F487
:1025F00000DD230008E1230008F1230008F5230093
:0626000008F923000801A7
:040000050800247D4E
:00000001FF
