:020000040800F2
:1000000058080020E16F0008916E0008936E000808
:10001000956E0008976E0008996E000800000000B9
:100020000000000000000000000000009B6E0008BF
:100030009D6E0008000000009F6E0008A16E000881
:100040000D70000811700008157000081970000884
:100050001D70000821700008257000082970000834
:100060002D700008317000083570000839700008E4
:100070003D70000841700008457000084970000894
:100080004D70000851700008557000085970000844
:100090005D700008617000086570000869700008F4
:1000A0006D700008717000087570000879700008A4
:1000B0007D70000881700008A36E0008857000083C
:1000C000897000088D700008917000089570000814
:1000D00099700008A96E0008AF6E0008B56E0008A0
:1000E0009D700008A1700008A5700008A9700008A4
:1000F000AD700008B1700008B5700008B970000854
:10010000BD700008C1700008C5700008C970000803
:10011000CD700008D1700008D5700008D9700008B3
:10012000DD700008E1700008E5700008E970000863
:10013000ED700008F1700008F5700008F970000813
:10014000FD700008017100080571000809710008C0
:100150000D7100081171000815710008197100086F
:100160001D7100082171000825710008297100081F
:100170002D71000831710008357100080000000081
:10018000397100083D7100082DE9F14FB0B0924679
:1001900004910DF142013A9A2B9199464A70002040
:1001A0000AE01AF8011B0498309A9047002804903E
:1001B00000F0B6860D98401C0D909AF8000050B1E2
:1001C0002528EED1002100220791089209910A9278
:1001D0000B910C9204E00D9800F0A4BE41F00101D7
:1001E0001AF8010F2028F9D023280CD02B2804D08E
:1001F0002D2805D0302809D00BE041F00201EFE7AF
:1002000041F00401ECE741F00801E9E741F0100199
:10021000E6E72A280FD1D9F8002052F8040BC9F8D4
:10022000002000280F9003D540420F9041F00401B8
:100230000AF1010A14E00F92DFF828380AE00F985B
:10024000984205DA00EB800402EB4402303A0F9248
:100250000AF1010A9AF80020A2F130000A28EED330
:100260009AF800002E2803D04FF0FF320E9229E0BA
:100270001AF8010F2A2809D1D9F8000050F8042BE8
:10028000C9F800000E920AF1010A1BE02D280CBFEC
:100290000AF1010A002000220E92DFF8C8470BE0A5
:1002A00040B90E9AA24205DA02EB820503EB450340
:1002B000303B0E930AF1010A9AF80030A3F13002A4
:1002C0000A2AEDD3ADF84010DFF89C07784400F51A
:1002D000F3609AF8001000F057FF08B11AF8010B0C
:1002E0008DF842009DF84200682805D19AF8000078
:1002F00068280CD1622106E06C2804BF9AF800003F
:100300006C2804D171218DF842100AF1010A12A85B
:1003100006901AF801BBBBF125012CD01C3900F066
:10032000D081091F022940F2CC81133900F02385C6
:10033000093900F0C681891E00F0B885491E00F019
:100340006585491E022940F2BC81091F00F05E85C7
:10035000491F00F02881491E00F00D85491E00F05C
:10036000D080C91E0DD0891E00F00585C91E00F081
:10037000028500F0A6BD25238DF84830012100F04C
:10038000ABBDD9F8000050F8044BC9F80000002CB0
:10039000059440F0A3802B994878002800F09980BC
:1003A0004FF0FF340FF6843000F008FF201A40F0C1
:1003B000B78500F092BD6D1E40F0A9853096079D6F
:1003C00012AF75B1309E17F8012B02A9304600F02C
:1003D00073FE002801D46D1EF5D10028309640F040
:1003E0009F850A9D3020002D8DF804000CDD309E85
:1003F000012301AA02A9304600F06EFE002840F059
:100400008F856D1EF4D13096059F089D75B1309E85
:1004100017F8012B02A9304600F04EFE002801D447
:100420006D1EF5D10028309640F07A850B9D302066
:10043000002D8DF804000CDD309E012301AA02A9D5
:10044000304600F049FE002840F06A856D1EF4D168
:10045000309605980899099D471875B1309E17F890
:10046000012B02A9304600F027FE002801D46D1EA2
:10047000F5D10028309640F053850C9D3020002D9A
:100480008DF804000CDD309E012301AA02A930463C
:1004900000F022FE002840F043856D1EF4D1309616
:1004A0009DF8400041077FF588AE2020002C8DF894
:1004B00004007FF782AE309D012301AA02A92846DD
:1004C00000F00AFE002840F02B85641EF4D1309520
:1004D00073E60FF66440059000F0FFBC0E9D002D02
:1004E00004D5204600F08AFE044607E02A4620464E
:1004F00000F08EFE002814BF041B2C46089400F068
:10050000ECBCD9F8001051F8040BC9F8001020F029
:100510000004002121F0FF3512ABCDE9024505931F
:10052000DDE9022306993C2413B90AB90E9898B163
:1005300002F00F053035641EEEB23A2EA8BF273503
:10054000120942EA03721B090D5508BF002A03D0A5
:1005500005980D19A842EBD308190590C4F13C0287
:100560000E98089282420ADABDF84010821A4FF6BD
:10057000EF7001400A92ADF8401000F0AEBC0028C8
:1005800040F1AB849DF8400000F01400102840F0CA
:10059000A4840F9B07990A985B1A1B1A9A1A002ABF
:1005A00040F39B84E5E32B99487820B14FF0FF346A
:1005B0000FF65430F8E69DF84200622861D06828B2
:1005C00017D06A283FD06C2806D0712847D07428ED
:1005D0002CD07A281DD064E0D9F8001051F8040B13
:1005E000C9F80010002868D14FF0FF340FF6303002
:1005F000DAE6D9F8001051F8040BC9F8001020B958
:100600004FF0FF340FF61830CEE60D99018000F060
:1006100064BCD9F8001051F8040BC9F80010002888
:100620004BD14FF0FF340FF6F820BDE6D9F800109B
:1006300051F8040BC9F8001000283ED14FF0FF34E8
:100640000FF6DC20B0E6D9F8001051F8040BC9F819
:10065000001080B94FF0FF340FF6C420A4E6D9F89B
:10066000001051F8040BC9F8001020B94FF0FF3406
:100670000FF6AC2098E60D9AD317C0E9002300F0DE
:100680002CBCD9F8001051F8040BC9F8001020B99F
:100690004FF0FF340FF6882086E60D99017000F0C8
:1006A0001CBCD9F8001051F8040BC9F8001020B98F
:1006B0004FF0FF340FF6682076E60D99016000F0E8
:1006C0000CBCD9F80020D21D22F00702C9F8002086
:1006D000D2E900010832C9F80020CDE90201C80FB3
:1006E00002D007982D210AE0BDF84000810702D50D
:1006F00007982B2103E0C00705D50798202112AAEF
:100700001154401C0790DDE90223079912A8CDE996
:100710002C2308444BF020016129059021AC0BD01B
:100720000E99002902D506210E9105E001BF4BF07C
:100730002001672901220E92DDE9022359004915A3
:10074000491C0DD11A030BD0ABF1610503211A2D01
:10075000089102D20FF6E41110E00FF6E4110DE05B
:1007600059004915491C0DD11A030BD1ABF1610594
:1007700003211A2D089119D30FF6CC11032200F092
:1007800073FDAAE3DDE90201CDE92E01DDE92E23A7
:1007900023F00047B7F5801F22F000060DD200229B
:1007A000002F08BF002E009203D116E00FF694111F
:1007B000E4E76A4600F064FD0FE0DFF8DC08DFF8EC
:1007C000DC1800EB17500090DDE92E234FF0FF30CE
:1007D0001940DFF8CC7810403943CDE902014BF0E5
:1007E000200061280DD1059830210170821CBBF1D9
:1007F000610F05920CBF7821582141700798801C29
:100800000790DDE9020120F0000231F0004308BF4B
:10081000002A02D10026002568E14BF02008B8F13B
:10082000610F40F0B4800E98002847BF212101914C
:10083000401C0190019FDDE92C017F1C0022002358
:10084000DDE9024500F054FD00998DF8842038BFA1
:1008500085F00045091F002F00910DF1850653DD3D
:10086000204629460022002300F05EFD4CD24800BD
:10087000400D00F11C0212D0002A10DD40F2FF737F
:100880009A4206DBDFF81C1805F000400143002007
:1008900011E06FF31E5141EA025120460BE024F0B3
:1008A000000035F0004108BF00280FBF29461C2278
:1008B000294600F051FD04460D4600F0EBFDFF1FF8
:1008C000002F804609DD00F003FE02460B4620465D
:1008D000294600F00FFE04460D46F01D0721B8F131
:1008E000000F0CDD491E5EBF08F00F0200F8012D5D
:1008F0004FEA2818F3D502E0002200F8012D491E26
:10090000FAD5C61D002FABDC0DF18500361A019813
:100910008642D8BF304600280DF1850430D4B0425D
:1009200006DA0DF185010A5C082AA8BF0F2100DA5A
:100930000021024621AB134400E0401E13F8015988
:10094000521E8D42F9D00F2904D10DF185018B5C27
:100950005B1C8B54002A04D50099091D21AC401C56
:100960000091411E0CD46218ABF13A061378303373
:10097000DDB23A2DA8BFF318491E02F80139F5D5AA
:100980000E99002940F1B080421E0E92ACE0009911
:10099000DFF8142747F29750414391FBF2F2DDE96B
:1009A0002C45009225F00045D2F1070204DD2046D7
:1009B000294600F04EFB0BE052420020DFF8EC1617
:1009C00000F047FB02460B462046294600F004FE95
:1009D0000446B8F1660F0E9806BF009F0A37062737
:1009E0003F18142FC8BF142730200D468DF88400FF
:1009F0000DF18506002F39DD2046294600F010FF55
:100A000001460A4606F1080304200A26B2FBF6F660
:100A100006EB860EA2EB4E02303203F8012C0A22BE
:100A2000B6FBF2F202EB820EA6EB4E063036401E0B
:100A300003F8026DE9D1083F002F03F10806D9DD64
:100A4000084600F001FF02460B462046294600F00A
:100A500051FD0022DFF8583600F004FF04460D4631
:100A6000CAE700BFCBCCCC0C9C6500000DF1850023
:100A7000361A0DF1850404E00098401E761E0090A1
:100A8000641C20783028F7D0B8F1660F02D10099A5
:100A9000491C04E0B8F1650F0CBF012100210E983C
:100AA00008188642B8BF701E00281DD4B04204DA70
:100AB000215C3429C8BF392100DC30210246631E85
:100AC0009D1800E0401E15F80169521E8E42F9D0B3
:100AD000392902D1A15C491CA154002A04D50099EE
:100AE000491C1C46401C00910646009D00F0ACFFCE
:100AF000406A0778DDF8388030B2002802DC012631
:100B00000FF248644BF02000662808BF6D1C16D019
:100B1000672846D128B210F1040F48DB404546DA79
:100B20009DF840006D1C010703D430B24045B8BFAA
:100B3000804628B2B8EB000848BF4FF000080FFA13
:100B400085FBBBF1000F00F3B5800898411C0891AC
:100B5000302205990A54B8F1000F03DC9DF84000DB
:100B6000010704D50898411C089105990F5418EB0A
:100B70000B0FB8BFC8F100052DB268420B90A84416
:100B800032B29045B8BF4646059B089836B20996E2
:100B900032462146184400F067FBA8EB06000C9093
:100BA000D2E0BBF1610F17D14FF0700B19E030B2FA
:100BB000404504DA9DF840100A0758BF8046B8F156
:100BC000010848BF4FF00008BBF1670F14BF4FF09A
:100BD000450B4FF0650B04E0BBF1410F08BF4FF030
:100BE000500B0898411C0891B8F1000F059914F8B2
:100BF000012B0A5403DC9DF8400001071AD5089820
:100C0000411C0891B8F1000F05990F5412DD761EB2
:100C100030B280450598089BB8BF464632B221469F
:100C2000184400F021FB089936B271180891A8EB1E
:100C300006000B9005980899084429B2002980F80D
:100C400000B003D42B224270821C04E02D2242709B
:100C50000D46821C6D4200212CAB28460AE004465A
:100C60000A2094FBF0F000EB8005A4EB450403F8A8
:100C7000014B491C00B20028F1DC012906DC4BF0D5
:100C80002000652804BF302002F8010B00292CAB9E
:100C900008D1302002F8010B06E0491E585C3030C4
:100CA00002F8010B0029F8DC059908980844121A8B
:100CB000099249E030B229B288421CDA0598089BB3
:100CC00032B22146184400F0CFFA089936B27118B2
:100CD000ABEB0606B8F1000F08910B9603DC9DF80C
:100CE0004000020704D5059847540999491C099109
:100CF000CDF8308028E00598089B2AB22146184498
:100D000000F0B2FA0898761B5844B8F1000F08902A
:100D100003DC9DF840100A0703D5411C0891059992
:100D20000F5430B280450598089BB8BF464632B292
:100D300004EB0B01184400F097FA089836B230180B
:100D40000890A8EB06000B909DF8400000F01400FE
:100D5000102840F0C280079A08990B988A180999C0
:100D600082180C988A1882180F98824280F2B580F7
:100D7000821A0A92B1E09DF84200622808D06828E1
:100D80000ED06A2814D06C281FD0712810D01CE017
:100D9000D9F8001051F8040BC9F80010C0B21AE0DD
:100DA000D9F8001051F8040BC9F8001080B212E015
:100DB000D9F80020D21D22F00702C9F80020D2E99C
:100DC00000010832C9F8002006E0D9F8001051F8F7
:100DD000040BC9F800100021CDE902019DF8400084
:100DE00001075AD5DDE90223002B08BF002A54D0A1
:100DF0004BF02000782850D1079812A930220A54CD
:100E0000401C431C079301F800B046E09DF84200E7
:100E1000622808D068280ED06A2814D06C281FD009
:100E2000712810D01CE0D9F8001051F8040BC9F853
:100E3000001040B21AE0D9F8001051F8040BC9F8BC
:100E4000001000B212E0D9F80020D21D22F00702F3
:100E5000C9F80020D2E900010832C9F8002006E0F4
:100E6000D9F8001051F8040BC9F80010C117CDE9EA
:100E70000201002902D507982D210AE0BDF84000A3
:100E8000810702D507982B2103E0C00705D50798F5
:100E9000202112AA1154401C079012A8079901445E
:100EA000059102A8594600F04FF816E0012007907E
:100EB000D9F8000050F8041BC9F800008DF848105C
:100EC0000BE025210122BBF1000F8DF8481007929D
:100ED00003D08DF849B0022107910F9A07980A991B
:100EE0000C9C121A0898521A0B99121A0998521A45
:100EF000121A9DF84000141B41073FF560AA2020FC
:100F0000002C8DF804007FF75AAA309E2546012355
:100F100001AA02A9304600F0DFF800283FF44BAAEE
:100F20004FF0FF3031B0BDE8F08F00007072696E95
:100F300074665F733A206261642025732061726772
:100F4000756D656E740000002DE9FC4307466F293E
:100F50003E6908BF082405D041F02000782814BF5E
:100F60000A2410243C25D7E90023642918BF6929E5
:100F70009046994605D1002B03D5D8F1000869EBBE
:100F80004909B9F1000F08BFB8F1000F0CD1386B57
:100F900050B9082C39D197F83800010735D53020E1
:100FA0003B2586F83B0030E08DF80010404649466E
:100FB0002246E31700F04EFD3032D0B26D1E3A28C3
:100FC000019504DB9DF80000A0F151018A187255CB
:100FD000404649462246E31700F03CFD80465FEA62
:100FE000010908BFB8F1000F03D0F86871198842F1
:100FF000DCD3082C09D197F83800010705D5705DBE
:10100000302802D06D1E30207055C5F13C02BA6107
:101010007119F960386B824208DA821A3A624FF627
:10102000EF70398F01403987BDE8F38300280ED572
:1010300097F8380000F01400102808D17B6B79690C
:10104000386A5B1A1B1A9A1A002AC8BF3A62BDE8AE
:10105000F3832DE9D04306460F4614464FF00008AF
:10106000DFF8509012E0E00707D542464B46304685
:10107000394600F0F7FB06460F46404649464246D1
:101080004B4600F0EFFB641080468946002CEAD105
:1010900030463946BDE8D08302FCFFFFFFFF0F80DA
:1010A0000000E03F0000F07FA08601000000F03F5C
:1010B00084D797410000244010B503460C461146E2
:1010C000A0689847A06020B1E06A401CE062002060
:1010D00010BD4FF0FF3010BDF8B505460E4617465F
:1010E0001C4600205CB117F8011BB068A847B0602F
:1010F00030B1F06A401CF0620020641EF3D1F2BDF2
:101100004FF0FF30F2BD00007072696E74665F735D
:101110003A20256E20646973616C6C6F776564009A
:101120007072696E74663A2062616420256E206177
:101130007267756D656E7400000000006E616E0070
:101140004E414E00696E6600494E4600300030B494
:10115000002513E050F8042BD30744BFA9F1010385
:101160009A18091F042942F8045BFAD213468C0727
:1011700044BF15809B1CC90748BF1D7050F8041B55
:101180000029E7D130BC7047C9B202788A421AB14F
:101190001CBF10F8012FF9E718BF00207047036843
:1011A0001AB95A1E026008467047197811B94FF0F3
:1011B000FF307047591C01601878704780B500B93E
:1011C00006A005490B681BB122220021984701E0C7
:1011D00000F0C3FC222002BD4C040020636F6E733C
:1011E000747261696E742068616E646C65723A2015
:1011F000626164206D6573736167650000F10103CE
:1012000010F8011B11B110F8011BFBE7C01A704761
:10121000C9B2830706D0521E22D310F8013B99426F
:10122000F7D11FE0083A13D302F1040241EA012189
:1012300041EA014150F8043B121F21BF4B40A3F18A
:10124000013C2CEA030C1CF0803FF3D0C9B2001F14
:10125000083210F8013B521E28BF91EA030FF8D85C
:1012600018BF0120401E70474AB1000011F8013B31
:10127000521E00F8013B1CBF11F8013BF8E7704714
:1012800010B5144600F002F8226010BDC1F30A53F5
:1012900043B14A0012F5001F28D2A3F2FE32A1EB9F
:1012A0000251704750EA410C20D001F0004C31EA65
:1012B0000C01B1FA81F204BFB0FA80F3D2180B3AF4
:1012C000B2F120032CBF00FA03F1914041EA0C0176
:1012D0003EBFC2F1200C20FA0CF319439040524259
:1012E00040F2FD33D21A01EB0351704700227047E0
:1012F0004FF4001C1CEB410F94BF1CEB430F09E0A3
:1013000041EA030C50EA4C0C52EA0C0C03D299420D
:1013100008BF9042704714BF8B42824270470268F8
:10132000531C0360117070474FF4001C1CEB410FFD
:1013300094BF1CEB430F09E041EA030C50EA4C0C4C
:1013400052EA0C0C03D28B4208BF8242704714BF92
:101350009942904270472E00124254D440F2FF7CD2
:101360001CEA11530FD0634531D09B1863453CBF35
:1013700001EB0251704701F0004141EA0C5100209D
:10138000AFF30080704750EA410320D001F0004CD9
:1013900091EA0C011CD0B1FA81F30B3B9A420DD9B2
:1013A000D21A994051EA0C01C3F1200C20FA0CFC2E
:1013B00061449840531C40F2FF7CD7E7914041EADA
:1013C0000C01C2F1200C20FA0CF319439040704735
:1013D000B0FA80F31533202BE0D3202AEED3203A45
:1013E000203B9A4209D9D21A00FA03F141EA0C01D2
:1013F0000020531C40F2FF7CB8E700FA02F141EAFA
:101400000C0100207047524240F2FF7C1CEA11534D
:101410000DD06345DBD0B2EB030C3CBFA1EB025116
:1014200070470CF1010221EA035141F4801150EAA6
:10143000410CCCD001F0004C352A27DC30B481EAD5
:101440000C01B2F1200309DAC2F12003044601FACB
:1014500003F5D0402843D1409C400CE0C3F120026A
:10146000450020FA03F418BF44F0010421FA03F008
:1014700091400C43002174F1004550F1000051EB04
:101480000C01244230BC7FF47BAF704761460020E2
:1014900076E74300C1F30A5340F2FE329B1A14DD93
:1014A000D3F120034FEAE17208DDC90241EA50514D
:1014B00041F00040D84080185040704703F2E130BE
:1014C00010B1D24382F00040704700207047000006
:1014D000C11768B14840401AB0FA80F29040D21C5F
:1014E000C907C2F5846241EA025202EBD0214005ED
:1014F0007047000070B44FF0004591EA030F40F1CF
:1015000037836B40841A71EB030603D2001BB14191
:10151000121973414FF4001C1CEB410F34BF7CEBDC
:10152000430442E00C0DA4EB1356352E4FDC45EA84
:10153000C323DB0A45EAC121C912B6F120050DDD3E
:1015400063FA05F6EB4086EA0305124218BF45F040
:101550000105C01851F100010CD213E062FA06F542
:10156000F2405540F3415A40B340F3405A4080188E
:10157000594107D349085FEA30005FEA350528BFC3
:1015800045F0010501F58011420875F1004250F166
:10159000000041EB04514E0016F5001F70BC38BF2F
:1015A00070470020090D090570471CEB410F10D250
:1015B00052EA43060BD0BCEB410F05D80C0DAB43F0
:1015C000661E342EB6DD02E0AB438018594170BC74
:1015D000704770BC70470000F0B540F2FF7581EABB
:1015E000030C0CF0004C15EA11541DBF15EA1357FB
:1015F000AC42AF42E5E0BC41C1F31301C3F31303B6
:10160000801A994143F4801304D2641E400049417A
:1016100080185941C90241EA5051B1FBF3F603FB6E
:101620001611A2FB0675D7EBC020A94102D2761E87
:1016300080185941C90241EA5051B1FBF3FE03FB46
:101640001E11A2FB0E75D7EBC020A94103D2AEF14B
:10165000010E80185941890241EA9051760546EA07
:101660008E2EB1FBF3F603FB1611A2FB0675D7EB2A
:101670008020A94102D2761E80185941C90241EA50
:1016800050514EEA060EB1FBF3F603FB1611A2FB16
:101690000675D7EBC020A94102D2761E80185941A9
:1016A000C90241EA5051B1FBF3F703FB1711A2FB4A
:1016B0000735D3EBC020A94167F100070CBF0042FA
:1016C00047F0010766F3D5274FEA1E31B80814F535
:1016D000806412DDBD0775F1004250EB0E5051EBF6
:1016E000045111F5801F5CBF41EA0C01F0BD4CF0C4
:1016F0007F6141F0E0410020F0BDBD076D0840EA88
:101700000E5041F48011D4F10104B4F120060ADA3C
:10171000C4F120060200E04001FA06F3E14018435C
:10172000B24015430EE0342C13DCC6F1200445EA28
:1017300040056D0820FA06F2154321FA06F0A14093
:101740000D43002175F1004250F1000051EB0C01F6
:10175000F0BD00205FEA0C01F0BDCFB992185B41EB
:10176000B3FA83F704BFB2FA82F6BF190B3FB7F1A1
:1017700020062FBF02FA06F3BB40C7F1200622FA6B
:1017800006F638BF3343BA401CB1E419641E33E790
:101790007F4231F00041B1FA81F404BFB0FA80F623
:1017A000A4190B3CB4F120062FBF00FA06F1A140AA
:1017B000C4F1200620FA06F638BF3143A0403C1B96
:1017C0001AE7AC421ABF05EA1357AF4212E050EADB
:1017D00041061CBF52EA4306BFE750EA41073046C4
:1017E00061461CBF41EA0551F0BD52EA430C08BFF7
:1017F000C143F0BD00204FF4001616EB410F98BF17
:1018000016EB430F08BF16EB410F24BFC14305E0A1
:1018100016EB430F0CBF61464CEA0551F0BD0000CA
:10182000400D491840EA81200CD2490DA1F5806194
:10183000491C40F0004005DBD1F11F0154BFC840F6
:10184000C017704700207047014648B1B0FA80F1D8
:101850008840C91CC1F58461090501EBD021400510
:1018600070470000B0B581EA030C0CF0004C40F268
:10187000FF7515EA11541DBF15EA1357AC42AF426C
:1018800039E0E41923EA455343F48013C90241F0D7
:10189000004141EA505EC7021100A7FB0202002886
:1018A0004FF00000EEFB01204FF00001E3FB0721A9
:1018B00018BF42F00102401800214941E3FB0E012C
:1018C000A4F580640F0302D252004041494154F113
:1018D00001046CDD470872F1004250F1000051EB49
:1018E0000451A1F580115CBF41EA0C01B0BD4CEA86
:1018F00005510020B0BD05EA1357AC4214BFAF42FA
:1019000041E050EA410E1CBF52EA430E02E061463C
:101910000020B0BD24423C441BD15FEA070EF6D044
:10192000090302BF01460020AEF1140EB1FA81F79F
:10193000AEEB070401FA07FE0C37C7F1200100FAED
:1019400007F7C8404EEA000E23EA455343F48013DC
:10195000A2E733F00043B3FA83F704BFB2FA82FE82
:1019600077440B3FE41BB7F1200E2FBF02FA0EF3B2
:10197000BB40C7F1200E22FA0EFE38BF43EA0E0329
:10198000BA40641C82E750EA410E14BF52EA430E8B
:101990006FF000014FF4001717EB430F8ABF194691
:1019A00017EB410FB5E74CEA05510020B0BDD4F16B
:1019B0000104B4F120070FDAC4F12007520828BF50
:1019C00042F0010210FA07F501FA07F7E1BF2A43D6
:1019D000E0403843E1400FE0352C98DCC7F12004AB
:1019E00052EA400220FA07F218BF42F0010231FA2F
:1019F00007F0A1400A43002172F1004250F10000BB
:101A000051EB0C01B0BD0000613807E005E0A0F12A
:101A100061011A2901D20120704741381A288041FA
:101A2000C00F7047A0F10901052901D3202801D179
:101A30000120704700207047A0F141011A2938BFEA
:101A4000203070470148704701487047B8020020B5
:101A500080020020D3BBD9B1B2F5803F5BD2022A0D
:101A60001ED98C46B1FBF2F102FB11C31B0443EA01
:101A70001043B3FBF2FC02FB1C3380B240EA034389
:101A8000B3FBF2F002FB103240EA0C400023704737
:101A9000022A05D98446B0FBF2F002FB10C270475F
:101AA0004AB105D100F0010249085FEA30007047F1
:101AB00000220023704700F011B90B000200002142
:101AC00000207047F7D3002200237047904271EB4B
:101AD000030CF2D370B5B1FA81F4B3FA83F52C1B81
:101AE000A340C4F1200532FA05F63343A2405FF06B
:101AF0000046E64002E05B085FEA3202841A71EBBE
:101B0000030524BF204629467641F4D302000B008A
:101B10003000002170BD70B5B1FA81F4B2FA82F5DF
:101B2000C4F120046419B4F12006DAD3B2405FF0A6
:101B30000044F440002502E052085FEA3303C61A6D
:101B400071EB020E24BF3046714664416D41F3D300
:101B500002000B002000290070BD012000F0C0B879
:101B600070B44FF0004591EA030F7FF5CBAC6B40AA
:101B7000841A71EB030604D26E40001BB1411219A6
:101B800073414FF4001C1CEB410F34BF7CEB430648
:101B900083E00C0DA4EB1356362E00F37C80012E4F
:101BA00045EAC32341DC43EA525312BFD2029202F8
:101BB0005B08240545EAC12141EA5051D2EBC0201F
:101BC000994125D407D1B0FA80F610FA06F162D017
:101BD0000020203608E0B1FA81F6B140C6F12002BB
:101BE00020FA02F21143B0404FEAF474B4EB4654C9
:101BF00034F001064FEA74040AD8D6F50016760DC3
:101C000004F00044F04061FA06F25040F1404840D0
:101C1000C00A40EA415021F0004128BF5FEA500568
:101C200050F1000044EBD12135E0DB0A45EAC12147
:101C3000C90AB6F120050EDD42EA0242120CC5F1D6
:101C4000200603FA06F6EB4042EA06056D4298418B
:101C500061F100010DE062FA06F5F240554063FAC9
:101C600006FC82EA0C02F3405A406D42904161EB5F
:101C7000030111F4801F05D1641E620502D06D00BE
:101C80004041494121F48011430875F1004350F16E
:101C9000000041EB045170BC70471CEB410F15D2A2
:101CA00023F0004352EA43060BD04FEA4C0CBCEB46
:101CB000410F04D80C0D661E342EB7DDEBE7801AF9
:101CC000994150EA410608BF0021E4E708BF1CEB38
:101CD000430F28BF6FF00001DDE7000070470000F0
:101CE00080B5AFF30080024A11001820ABBEFBE7BD
:101CF00026000200034608460122C168491CC16053
:101D000000210068184703460846C1680269491C5B
:101D1000521E002A0261C16003D400680122002122
:101D200018474FF0FF307047034608461146C26817
:101D3000521E11F1010FC26002D000680022184744
:101D4000704700002DE9F84F9AB04FF0FF34009132
:101D500000261B68019302920DF13F02249B8DF82F
:101D60001F30A04603961992814613E00398401C49
:101D70000390012200980021C847064600F098FE13
:101D80000028F3D1324669464846FFF7CDFF029856
:101D9000411C02910298007800F08AFE0028E5D1EB
:101DA000029E307890B1252815D1701C02900178E0
:101DB0002A2911BF0021401C029010F8011D8DF846
:101DC0001C1000210591DFF8840A20E04045B8BFCF
:101DD000404600F038BD0398401C03900122009853
:101DE0000021C84731788842D1D00246694648462A
:101DF000FFF79AFF0020E9E70599814205DA01EB38
:101E0000810602EB4602303A0592591C0291029B70
:101E10001A78A2F130010A29EED306940FF6302089
:101E20001978FFF7B1F920B10298401C0290401ECA
:101E300000788DF81D009DF81D00682805D10299D5
:101E4000087868280CD1622206E06C2802BF02994B
:101E500008786C2804D17122491C8DF81D2002914C
:101E6000029801780FF6F010FFF78EF980B9039809
:101E7000401C0390012200980021C847064600F04C
:101E800017FE0028F3D1324669464846FFF74CFF5B
:101E900000208DF81E000298017825392DD01C39BC
:101EA00000F09080091F022940F28C80133900F065
:101EB0002A83C91E1ED0891F00F08480891E00F06D
:101EC000AC84491E00F01F83491E02297AD9091FDC
:101ED00000F01983491F33D0491E012940F21383B2
:101EE000091F2AD0891E00F00E83C91E00F00B8343
:101EF00000F0A3BC224600F091BC0398401C039064
:101F000001220098C8470646252E0CD1B8F1000FD3
:101F10009DF81E0048BF4FF0000800283FF437AF7F
:101F200008F1010833E7324669464846FFF7FCFEF0
:101F300016F1010F40F0818489E3012200F06EBCAC
:101F40009DF81C000028E1D19DF81D0062282DD0CD
:101F5000682811D06A281BD06C2801D0712817D0AE
:101F6000019951F8040B019118B90FF6E82000F01F
:101F700050BC03990160C9E7019951F8040B019124
:101F800018B90FF6D02000F044BC03990180BDE7DA
:101F9000019951F8040B019118B90FF6B82000F01F
:101FA00038BC039AD317C0E90023AFE7019951F871
:101FB000040B019118B90FF69C2000F02ABC03997C
:101FC0000170A3E705980028D8BF6FF00040049087
:101FD00069464846FFF797FE00262B2818BF2D2894
:101FE0000DF1280A07D18DF8280069464846FFF709
:101FF0008AFE0DF1290A0A270025302818D16946E2
:102000004846FFF780FE40F02001C9B2782902D08F
:102010000125294601E130208AF800008AF80110E4
:1020200048466946FFF76FFE0AF1020A1027F0E7FB
:1020300040F02001CAB26E2A4CD16E200AF8010B82
:1020400069464846FFF75FFE83464BF020000027B5
:10205000C0B2612840F0908161210AF8011B484616
:102060006946FFF750FE83464BF02000C0B26E2851
:1020700040F0828169464846FFF745FE282806D091
:10208000024669464846FFF74FFE6E205CE0049822
:10209000401E049005D469464846FFF72BFE834650
:1020A00003E00399491C0391A346CDF820B058469C
:1020B00000F008FD0028EAD1ABF130000A28E6D391
:1020C00008985F28E3D08346BBF1290F40F0548184
:1020D0006E2039E0C9B2692940F0A68069200AF86B
:1020E000010B69464846FFF70EFE83464BF0200081
:1020F0000027C0B26E2840F03F816E210AF8011B14
:1021000048466946FFF7FFFD83464BF02000C0B20A
:10211000662840F0318103980499401C491E00292B
:102120000491039004D4009801220021C84700E0E4
:10213000204640F02001C9B2692908D0024669460C
:102140004846FFF7F1FD66200AF8010B1AE10398F3
:102150000499401C491E00290491039005D400985D
:1021600001220021C847834600E0A3464BF020002F
:10217000C0B26E2840F0008103980499401C491EAB
:1021800000290491039005D4009801220021C8473A
:10219000834600E0A3464BF02000C0B2692840F01F
:1021A000EB8003980499401C491E00290491039078
:1021B00005D4009801220021C847834600E0A346C9
:1021C0004BF02000C0B2742840F0D68003980499E8
:1021D000401C491E00290491039005D40098012257
:1021E0000021C847834600E0A3464BF02000C0B260
:1021F000792840F0C18066210AF8011BC2E00398EB
:10220000401C0390204607E00498401E0490F6D43A
:1022100069464846FFF76EFD01213028F4D00D468F
:1022200011B130210AF8011B8346284600250EE033
:102230000398401C0390A34608E00498401E0490B5
:10224000F6D469464846FFF755FD834601201BF149
:10225000010F1BD05FFA8BF2612AA8BFABF15701C7
:102260000ADA412AA8BFABF1370105DA303A0A2A67
:1022700034BFABF13001FF21C9B2B94206D2242DDF
:10228000BABF0AF801BB6D1C761CD6E78DF820009A
:102290000995FFF7D9FB406A01788B4510D10AF800
:1022A00001BB03980499401C491E00290491039026
:1022B00005D4009801220021C847834600E0A346C8
:1022C0000998E8B99DF820000FE00398401C03909E
:1022D000A34609E00498761E401E0490F5D4694692
:1022E0004846FFF707FD83460120BBF1300FF1D0D0
:1022F000002E8DF8200003D530200AF8010B761C43
:102300009DF82000099D13E00398401C0390A3460C
:102310000DE0242DBCBF0AF801BB6D1C0498401EC3
:102320000490F1D469464846FFF7E4FC8346012057
:102330001BF1010F14D05FFA8BF2612AA8BFABF139
:1023400057010ADA412AA8BFABF1370105DA303A62
:102350000A2A34BFABF13001FF21C9B2B942D8D348
:10236000054648B14BF020000A2FC0B235D1652890
:1023700035D001E083460D465A4669464846FFF788
:10238000D3FC15B300218AF800109DF81C0000282A
:102390007FF4BCAD0A2F0B4674DC32460AA800F06D
:1023A00027FD01228DF81E20019A9DF81D60131D46
:1023B0006C2E40F0938012680193002A40F08B80CD
:1023C0006248784400F5C37023E20AA8824508BF3A
:1023D0001BF1010F40F0328239E17028CCD10AF8AC
:1023E00001BB0498401E049010D40398401C039035
:1023F000012200980021C8472B2818BF2D2811D191
:102400000AF8010B0498401E049004D50398401C60
:102410000390204606E00398401C03900122009898
:102420000021C84700210DE00398401C039020467E
:1024300007E00498401E0490F6D469464846FFF72A
:1024400059FC01213028F4D00A001CBF30220AF8C0
:10245000012B0025A0F130020A2A8BD2082DBCBF27
:102460000AF8010B6D1C0498401E049004D50398D3
:10247000401C0390204603E069464846FFF73AFCBB
:102480000121E7E700220AA800F0B2FCB2000E46E4
:1024900073005B0D02EB030712D0002F10DD40F23A
:1024A000FF72974207DBDFF8A47501F0004040EAB5
:1024B0000701002075E76FF31E5646EA075170E7E3
:1024C00020F0000631F0004708BF002E3FF469AF4E
:1024D000FEF742FF65E7C2E9000117E54C2E07D180
:1024E00012680193002AF6D1184878445E3090E1D2
:1024F000166801931EB915487844503089E100F000
:1025000063FD306002E505980028CCBF401EDFF86F
:102510004005002808AF049012D40398401C039093
:10252000012200980021C8472B2818BF2D2816D15A
:102530008DF820000DF121070498401E049007D566
:102540000398401C0390204609E000BF804900002A
:102550000398401C0390012200980021C847029A6A
:1025600012780021642A18BF752A0FD0692A08BF83
:1025700000260CD06F2A08BF082608D0702A1CBF7E
:1025800042F02002782A02D1102600E00A263028E4
:1025900062D104980125401E0490039805D4401C84
:1025A000039001220098C84702E0401C0390204697
:1025B00040F02001C9B278294BD1002E18BF102E4F
:1025C0005CD104981026401E0490039807D4401C48
:1025D0000390012200980021C84700254EE0401CCE
:1025E000039025464FF0000A02E0574605468A460A
:1025F0002A4669464846FFF797FBBAF1000F1FD0FD
:10260000002139709DF81C0000287FF47FAC0298EF
:102610000078642818BF692800F0B680324608A800
:1026200000F0DCFD01228DF81E20029A1378702B39
:102630005BD1019B53F8042B0193002A53D1E7E0AF
:1026400008A8874208BF15F1010F40F0F680254623
:10265000F4E09EB9082611E006B90A26BA462DE034
:102660000398401C0390204607E00498401E049005
:10267000F6D469464846FFF73DFB01253028F4D0E3
:1026800029460A00EAD0302207F8012BE6E7039832
:10269000401C0390204610E0DBB2F2B29342A4D279
:1026A00019998A4538BF0AF8010B0498401E049016
:1026B000EDD469464846FFF71DFB012110F1010FDB
:1026C00093D0C2B2612AA8BFA0F15703E4DA412A2D
:1026D000A8BFA0F13703DFDA303A0A2A34BFA0F1ED
:1026E0003003FF23D8E7106010E49DF81D20622A14
:1026F0003AD0682A11D06A2A26D06C2A06D0712ACC
:102700002AD0742A19D07A2A10D036E0019B53F8C7
:10271000042B0193002AE6D17AE0019B53F8042BA5
:102720000193002A74D01080FFF7F0BB019B53F88F
:10273000042B0193002AD6D16AE0019B53F8042BA5
:102740000193002ACFD163E0019B53F8042B01933E
:10275000002A7FF4C0AE5BE0019B53F8042B019389
:10276000002A7FF4B8AE53E0019B53F8042B019389
:10277000002A4DD01070FFF7C9BB019B53F8042B02
:102780000193002AAFD143E0324608A800F07AFD59
:1027900001228DF81E209DF81D20622AE4D0682AAF
:1027A000BBD06A2A1DD06C2A06D0712A21D0742A87
:1027B00010D07A2A07D024E0019B53F8042B019310
:1027C000002A90D124E0019B53F8042B0193002AA6
:1027D00089D11DE0019B53F8042B0193002A82D17B
:1027E00016E0019B53F8042B0193002A7FF473AE8B
:1027F0000EE0019B53F8042B0193002A7FF46BAE8B
:1028000006E0019B53F8042B0193002A7FF46BAF81
:102810009FA0FEF7D3FC251A05E000226946484632
:1028200000F040F80546002D3FF770AB249828B122
:1028300015F1230F02D1204605E00025B8F1000F65
:1028400058BF454628461BB0BDE8F08FCBCCCC0C1A
:10285000686A6C747A4C000063436E5B0000000091
:10286000C9B208E003789942A4BF90F802C08C4531
:1028700013DAC01CD21E032A0AD343782D2BF1D0C1
:1028800010F801CB8C4518BF521EF4D105E0521E42
:102890002AB110F8013B8B42F9D10120704700208A
:1028A000704700002DE9F04F92460027BAF1000F63
:1028B00083B080460E464FF0000B25D5B068411C12
:1028C000B160084601785E2903BF401CB06010F873
:1028D000019DB946B56828785D280CBF681C28465C
:1028E0005D21FEF751FC002800F0A880411B0091FB
:1028F000B0600098032807DB821E2D21681CFEF7BC
:1029000087FC08B14FF0010B7069002805DCBAF1B3
:10291000000F14BF6FF0004001203061307F0028AD
:1029200001BF706850F8044B7060002C08D14FF064
:10293000FF3402487844001D11E000BFE844000065
:10294000307FA8B9F07F98B1716851F8040B7160BD
:10295000B0F1004FC0F007804FF0FF3444A0FEF705
:102960002DFC201A6FE0B169884288BF0846B0612B
:10297000CDF80490CDF808B0DDF800901AE030688A
:1029800001220021C04783461BF1010F3ED0BAF15E
:10299000000F1ADD00F08CF8002837D1307F40B9E5
:1029A000B06990B304F801BB0121B069B177401E52
:1029B000B0610227F0683169401C491E002931616D
:1029C000F060DCD54FF0FF3B20E0E7D5029800280F
:1029D00001980DD100284A465946284604D1FEF7F1
:1029E00017FC0028DAD111E0FEF712FC70B9D5E728
:1029F00000284A465946284604D1FFF731FF0028EF
:102A0000CCD103E0FFF72CFFF0E7012740465A4600
:102A10003146FFF789F9BAF1000F01D0022F09D032
:102A2000022F0FD0F80702D41BF1010F06D14FF08F
:102A3000FF3008E0307F28B9B06908B9002002E013
:102A400000202070012003B0BDE8F08F0000F07F6F
:102A5000FEFFFF7F7363616E665F733A206261649D
:102A600020256E20617267756D656E740000000030
:102A70007363616E665F733A206261642025632C24
:102A80002025732C206F7220255B2073697A6500E6
:102A90007363616E665F733A2062616420696E746D
:102AA0006567657220617267756D656E7400000000
:102AB00010B50446FEF7C6FF01462046096ABDE888
:102AC0001040084710B50446FEF7BCFF01462046FB
:102AD0000969BDE8104008472DE9B04C41EC100BE6
:102AE0002DED028B43EC182B53EC102B23F00041FF
:102AF000B1F5801F82B00DD20022002908BF002846
:102B0000009216D06A4651EC100BFEF7B9FB41EC6F
:102B1000100B0EE0DFF86C44DFF8707404EB11501A
:102B200000903B40DFF86004924643EA000B4BEC18
:102B300010AB53EC102B51EC180BFEF793FE41EC4D
:102B4000100B4800009A400D1218C8B1002A17DD7A
:102B500040F2FF70824209DB9FEDA11B53EC112B69
:102B600001F000410B4343EC102B17E06FF31E51B3
:102B700041EA025155EC104B0D4645EC104B0DE06F
:102B800051EC100B31F0004108BF002806D0009A2C
:102B900051EC100BFEF7E0FB41EC100B02B051ECD6
:102BA000100BBDEC028BBDE8B08C0000F8B52DED2C
:102BB000048B140082B041EC180B1D4600F0088114
:102BC00020F0000231F0004308BF002A00F000812D
:102BD00048004015401C02D1090300F0F980002C88
:102BE0009FED819B40F1998064427C4F7F4407F5C3
:102BF000F67708260CE0E00707D5D7E9002351EC6B
:102C0000190BFEF72FFE41EC190B64080837761EEE
:102C1000002C18BF002EEED153EC182B23F00041EE
:102C2000B1F5801F22F000000BD20022002908BF5E
:102C30000028009213D06A4651EC180BFEF720FBD7
:102C40000BE0DFF8406306EB11500090DFF838131B
:102C5000DFF8380303401046194341EC180B51ECE0
:102C6000180B53EC192BFEF7B7FC41EC180B48007E
:102C7000009A400D1218C8B1002A17DD40F2FF700B
:102C8000824209DB9FED560B53EC102B01F0004103
:102C90000B4343EC182B17E06FF31E5141EA02512E
:102CA00057EC186B0F4647EC186B0DE051EC180B06
:102CB00031F0004108BF002806D0009A51EC180BF3
:102CC000FEF74AFB41EC180B51EC180B20F0000208
:102CD00031F0004308BF002A64D048004015401C72
:102CE00001D109035ED0002C5CD0A94AA94B51EC5C
:102CF000180BFFF7F1FE20F0000231F0004308BF8F
:102D0000002A41EC180B4DD048004015401C01D161
:102D1000090347D0641EE8D144E043DD2F4F7F44D0
:102D2000BA370826E00707D5D7E9002351EC190B7D
:102D3000FEF798FD41EC190B64100837761E002C45
:102D400001DD002EEED153EC192B51EC180BFFF7DF
:102D5000C3FE20F0000231F0004308BF002A41EC1E
:102D6000180B1FD048004015401C01D1090319D091
:102D7000002C17DD884A914B51EC180BFFF7ACFE85
:102D800020F0000231F0004308BF002A41EC180B8C
:102D900008D048004015401C01D1090302D0641E30
:102DA000002CE7DC51EC180B20F0000231F000435E
:102DB00008BF002A05D048004015401C08D109036F
:102DC00006D1AFF300801DB1286840F001002860F3
:102DD00002B051EC180BBDEC048BF4BD6C4000004C
:102DE000000000000000F07F000000000000F03F45
:102DF0002DE9F14D81B05FEA03082DED028B84B01F
:102E00001CBF0020C8F80000079D0C46934607A889
:102E100000F03BFAC11020F00800012801F0010A7F
:102E200030D10220009001AB07992246284600F0DD
:102E3000BDFA040008BF9FED620B1ED00298FEF79A
:102E400047FB022C41EC100B17DB03AF661E9FED16
:102E5000538B51EC100B53EC182BFEF703FD04467B
:102E600057F8040B0D46FEF733FB22462B46FEF7C0
:102E700077FE761E41EC100BEBD10198434600EB38
:102E80000B025DE0022862D1009001AB0799224657
:102E9000284600F067FB040008BF9FED490B1ED0D9
:102EA0000298FEF715FB022C41EC100B17DB03AF69
:102EB000661E9FED3C8B51EC100B53EC182BFEF76C
:102EC000D1FC044657F8040B0D46FEF701FB2246E1
:102ED0002B46FEF745FE761E41EC100BEBD151EC74
:102EE000100B019A4800400D02EB000319D0002B93
:102EF00017DD40F2FF70834209DB9FED2C1B53EC82
:102F0000112B01F000410B4343EC102B16E06FF343
:102F10001E5141EA035155EC104B0D4645EC104B48
:102F20000CE051EC100B31F0004108BF002805D037
:102F300051EC100BFEF710FA41EC100B43465A46C9
:102F400051EC100BFFF732FE41EC100B0AE00328A6
:102F500008BF9FED160B05D004280CBF9FED150B85
:102F60009FED170BBAF1000F05D051EC100B81F05B
:102F7000004141EC100B04B051EC100BBDEC028B86
:102F8000BDE8FC8D02FCFFFF0000E03FFFFF0F806B
:102F9000436FAC642806C80A3CBF737F0000000082
:102FA00065CDCD41000000000000B04100000000F0
:102FB0000000F07FFFFFFFFFFFFFFF7FDD4F157574
:102FC000000000000000000001F000428B1AA3F195
:102FD0006051B1F5801F0ADBB1F17F6F1FD242EA69
:102FE000C102C10071F1004142EB507070470B15F6
:102FF000C3F10903212B10D2890241EA90518002CA
:103000000128494141F0004121FA03F0C3F12003B6
:10301000994071F1004150417047100070476FF0C6
:10302000000013EB103F5CBF000E42EAC050704737
:103030002DE9FC4F85B00C4693460BB100221A6077
:103040000290824601E00AF1010A9AF80000FFF7B7
:103050002FFD0028F7D19AF800002D2818BF2B2843
:1030600007BF1AF8010B8DF800002B218DF8001016
:10307000BBF1000F019405D4BBF1010F02D0BBF1ED
:10308000250F04DB002C71D0029820606EE0BBF1AC
:10309000000F0DDDBBF1100F04BF9AF800003028BF
:1030A00002BF9AF8010040F02000782814D10EE009
:1030B0009AF80000302818BF4FF00A0B0CD19AF88C
:1030C000010040F02000782804D14FF0100B0AF1E5
:1030D000020A01E04FF0080BCDF810A001E00AF160
:1030E000010A9AF800003028F9D0094878442030C5
:1030F00000242830002500260027CDF80CA0A0468B
:103100008DF80100DFF80890F94409F1040918E08E
:10311000C43C00009DF80110401A5FFA80F8584640
:10312000A0FB06234FEAEB7100FB073301FB0633DC
:10313000344600213D4612EB080643EB01070AF135
:10314000010A9AF8000000F011FB01465A4609F105
:103150002800FEF75DF80028DCD1049951455A4655
:1031600007D1019810B10199029808600020002150
:1031700030E0039919F80200AAEB0101081A0028AF
:103180001BD410DC0023B6EB080067EB03018F4271
:1031900009D301D8864206D3D317FEF75BFCA942B8
:1031A00008BFA04209D0AFF30080069808B1012102
:1031B00001604FF0FF36374606E09DF800002D28ED
:1031C00002D1764267EB4707019808B1C0F800A02A
:1031D0003046394607B0BDE8F08F000000BF00233D
:1031E00026E700002DE9F8430D00804691461E4673
:1031F00008BF6D46444600E0641C2078FFF758FC89
:103200000028F9D127782D2F18BF2B2F05D114F8BE
:10321000010FFFF74DFC50B900E02B2733464A461B
:1032200029462046FFF704FF2A68944205D1C5F8D5
:10323000008000200021BDE8F4832B2F05D14FF042
:103240000043994209D2BDE8F4832D2FFBD1B1F19F
:10325000004F12D301D801280FD3AFF300800EB175
:10326000012030602D2F19BF4FF0FF306FF000416B
:1032700000204FF00041BDE8F483404261EB410182
:10328000BDE8F48300BF0023ACE72DE9F843054611
:103290000C462E68002700E0761C3078FFF708FC0B
:1032A0000028F9D130782D280CBF08272B2800D111
:1032B000761C307840F020016E2927D1707840F0DC
:1032C0002000612802BFB07840F020006E2802D0B4
:1032D0002E68002746E0F61CB046042798F8000048
:1032E00028283FD118F8019F4846FFF7EBFB00283C
:1032F000F8D1A9F130000A28F4D398F800005F282B
:10330000F0D029282ED108F101062BE069292CD113
:10331000707840F020006E2802BFB07840F02000A6
:10332000662802D02E6800271CE016F8030F40F034
:103330002000692802BF707840F020006E2847F016
:1033400003070FD1B07840F02000692802BFF07861
:1033500040F02000742805D1307940F02000792811
:1033600008BF761DF4B126601CE0302802BF7078DB
:1033700040F02000782813D1B01C01782E2908BF16
:10338000401C0078A0F16101062921BFA0F1410293
:10339000062A30380A2803D2B61C47F0020701E09B
:1033A00047F001072E603846BDE8F2832DE9F14F62
:1033B0008CB04FF00008169DC34605EBC5052D2DBA
:1033C000C3F800B09246C8BF2D25C3F804B0D94653
:1033D00002E0491C4FF0010908783028F9D0002498
:1033E00011E01868401C18600A78302A08D04FF0A5
:1033F000010805E0AC42F4DA30380DF80400641C32
:10340000491C4FF001090878A0F130020A2AF1D3D3
:103410000F461E46FEF718FB406A39780278914243
:1034200008BF7F1C002C48460ED1397830290BD1BB
:103430003068401E30607F1C0120F6E7302918BF3D
:103440004FF001087F1C01203978A1F130020A2ACF
:103450000AD2AC42F2DAA1F130000DF80400641C8B
:103460003268521E3260EDE7B8F1000F0DD00DF159
:10347000FF314A5D521C4A5507E00DF1FF32115DE4
:1034800049B93268521C3260641E002CF5DC04BF5E
:103490008DF800B00124002857D04FF0090994FBA3
:1034A000F9F9C4F1090309EBC9010B44092193FBA4
:1034B000F1F1002201EBC101591A1AD04FF0010BB2
:1034C00017E056F82B1001EB810105EB410146F89E
:1034D0002B100CE0092193FBF1F101EBC1011DF868
:1034E0000250591AEDD10BF1010B46F82B505B1C21
:1034F000521CA242EEDB397841F02001652924D12B
:10350000394617F8012F164D2B2A16BF2D2A17F80A
:10351000014B2B240022002308E0AB4204DA03EB2A
:1035200083020CEB4203303B7F1C012297F800C062
:10353000ACF1300EBEF10A0FEFD32D2C346808BF6A
:103540005B421B19336002B90F46BAF1000F03D07A
:1035500000B90C9FCAF8007058460DB0BDE8F08F56
:1035600000E1F5052DE9F14F8CB04FF0000ADDF8D0
:103570005880C3F800A0C8EBC808B8F1230FC8BF33
:103580004FF023089146C3F804A0002701E0491C2E
:10359000012708783028FAD068A201925FF0000471
:1035A0006CA200920DF1080B0D461E460EE030682D
:1035B000401C306008E0A045F9DB019A0099801AB0
:1035C000085C0BF80400641C6D1C012795F80010C2
:1035D0005AA01622FDF71CFE0028ECD1FEF734FAA3
:1035E000406A29780278914208BF6D1CB4B92878E6
:1035F000302813D13168491E31606D1C0127F6E770
:10360000A04509DB019A0099801A085C0BF80400B8
:10361000641C3168491E31606D1C0127297816220F
:1036200046A0FDF7F5FD0028EAD1A04517DA1BF802
:103630000810072906DD0DF1070111F80820521CBA
:1036400001F8082044463268521C326007E00DF150
:103650000702115D49B93268521C3260641E002CA9
:10366000F5DC04BF8DF808A0012431688900002F23
:10367000316055D04FF0070C94FBFCFCC4F10703FC
:10368000CCEBCC0C6344072193FBF1F10022C1EB9E
:10369000C101591A18D04FF0010A15E056F82A1046
:1036A0000CEB011046F82A000CE0072193FBF1F126
:1036B000C1EBC1011BF802C0591AEFD10AF1010A8E
:1036C00046F82AC05B1C521CA242EEDB297841F06E
:1036D0002001702924D1294615F8012F16482B2ADC
:1036E00016BF2D2A15F8014B2B240022002308E0D9
:1036F000834204DA03EB83020CEB4203303B6D1C84
:10370000012295F800C0ACF1300EBEF10A0FEFD3E4
:103710002D2C346808BF5B421B19336002B90D467B
:10372000B9F1000F03D007B90C9DC9F800505046FD
:103730000DB0BDE8F08F000000E1F5053031323307
:1037400034353637383961626364656641424344D3
:1037500045460000000102030405060708090A0B9C
:103760000C0D0E0F0A0B0C0D0E0F000010B50446C9
:10377000FEF768F901462046896ABDE8104008470F
:10378000F8B5040025D004F13C05697821B9002082
:103790002870204600F0D8FC242169702068026857
:1037A0005208520002602068016841F40041016043
:1037B0002068026822F40042026000F063FE0146C5
:1037C0006068DFF83C21904205D2DFF83831994239
:1037D00005D20120F2BDDFF830018142F9D3206823
:1037E000DFF828314668B1FBF3F3B60943EA8616E1
:1037F00046602668376A6068904206D34FF4967038
:1038000043434FF47A70B3FBF0F35B1CBF0943EA08
:1038100087133362491E2368DE696768974206D2C0
:103820007F0000F043F8042913D2042111E0A068BE
:1038300020B907EB470700F039F805E019204743A6
:1038400000F034F841F4804108050CBF012141F437
:103850000041DFF8C80106400E43DE6122681368AC
:10386000E169206A23F0C0030B430343136022681D
:10387000DFF8AC01936821690340E0680B43034320
:1038800093602168CA68A3696069120A034343EA26
:103890000222CA602068016841F001010160002035
:1038A0006860202169702063A870F2BDB1FBF7F158
:1038B000491CC1F30B017047308D7262411E318586
:1038C000708D411E71857047009031684A69009281
:1038D00089690091009870473068016841F48071EF
:1038E0000160704721F4806101603068026842F431
:1038F00000620260704700222946304600F016BB85
:10390000A186010080841E0000093D0040420F0096
:103910002DE9FC4700F088F800F08CF85DD100F04C
:1039200074F8002859D13878012856D000F067F88B
:1039300001D400F079F94146D6F800E00C9D0B98CF
:10394000DDF828C0DEF8008028F40068CEF800809A
:103950004FF0210E87F801E04FF0400887F8028011
:103960004FF0000EC7F804E000F033F900F018FA49
:1039700000282BD108E0716A0A780261706A411C44
:103980007162308DFFF79AFF308DA0B12246294633
:10399000304600F034FBA0B9706A326801781161DA
:1039A000706A411C7162308D411E00F019F8EBD530
:1039B00089B20029DFD122462946304600F04AFB71
:1039C00030B17868042801D100F0A8FA012005E0A0
:1039D00000F0A4FA00F00CF800E00220BDE8F68741
:1039E0003185708D421E7285306842695307704779
:1039F000202078700021B9700020387070470121B4
:103A0000397030680268D107704700941923012289
:103A10000449304600F08ABA000000000030FFFF81
:103A2000007CFFFF020010000646884691469A4639
:103A300000F094BD06F13C070446787820287047D2
:103A40002DE9FC47FFF7F0FFFFF7F4FF02D1FFF786
:103A5000DCFF002840F08180387801287DD0FFF716
:103A6000CEFF01D400F0E0F84146D6F800E00C9D0E
:103A70000B98DDF828C0DEF8008028F40068CEF846
:103A800000804FF0220E87F801E04FF0400887F8E1
:103A900002804FF0000EC7F804E000F09AF800F042
:103AA000CEF900284FD1308D18B1012804D100F093
:103AB0009FF800F072F817E0022806D1306801681C
:103AC000FFF710FF0020009001E000210091FFF7B8
:103AD000FCFE09E02246294600F04BF8002832D1CE
:103AE00000F03EF8FFF7E8FE308D002832D00428C1
:103AF00024D20128EED00228DFF8388100942B462A
:103B00000CD100224146FFF7F8FE00281BD100F03F
:103B100076F8716A0870706A421CE3E70022414639
:103B2000FFF7EBFE00280ED100F034F92B4600F031
:103B300040F84146FFF7E1FE28B9E8E7224629466A
:103B400000F017F808B1012008E000F015F8CBD517
:103B50000069DEE7FFF74CFF00E00220BDE8F687D2
:103B600030680169706A0170716A4A1C70472246A8
:103B70004946304600F08BBA30680169706A0170BE
:103B8000716A308D4A1C411E72623185708D411EF2
:103B90007185306841694A077047009031684A6909
:103BA00000928B69009300980A6842F400720A60E0
:103BB000704730680169706A0170716A308D4A1C03
:103BC000411E726231850022708D411E7185009404
:103BD0007047C6F824C070855346708D30854A46BC
:103BE000DFF8A801F06201940095304670470000AC
:103BF0003068016821F480610160002070473068FE
:103C0000016841F40071016030680169706A0170F7
:103C1000716A308D4A1C411E72623185708D411E61
:103C20007185326810697047026842F001020260D3
:103C300070470000040001002DE9F84F04468B4650
:103C4000FFF7F4FE04F13C070546787800262028AB
:103C500078D1DFF83C81009519230122414600F01C
:103C60008DF800286ED1387801286BD000F06DF8FF
:103C7000242078707E60DFF81401E06200F075F8AF
:103C80000095534600F077F838B921680BF0FE0034
:103C9000086100F063FC054612E020680168CA056F
:103CA00044BF4FF40070786003204CE000F056FCF5
:103CB000401B824502D3BAF1000F01D1A0207870D9
:103CC0002168486949697A784008890AA02A00F081
:103CD000010001F0010101D00843E7D020207870F5
:103CE000206841698A0712D400F082F92268506185
:103CF000009519230122414600F040F800BB761CD4
:103D00004E45BBD3202078700021397018E002683E
:103D100042F40072026000200090192321684A6971
:103D2000009201228969009141460098009500F0B7
:103D300025F828B92020787000213970002002E091
:103D4000012000E00220BDE8F28F012139702068D7
:103D50000268D10703D4026842F0010202602068C1
:103D6000016821F40061016070472068016841F436
:103D700080710160704700224FF00111204600F071
:103D8000D5B8016841F48061016070470000FFFF11
:103D9000020010003068016821F480610160704702
:103DA0002DE9F84304462068DDF82080099F894604
:103DB000016841F4807115461E4601600097434634
:103DC000FFF7D9FF40B120680168CA0544BF4FF42E
:103DD00000702064032023E0206809F0FE010161E7
:103DE0003B46424600F01EF8A0B90090216800F062
:103DF00081F800F022F840B9012E0DD02168280A80
:103E000008613A4600F018F830B1206C042801D15E
:103E100000F00CF8012003E02068EDB205610020FD
:103E2000BDE8F28340492046A8E000002068016810
:103E300041F400710160704741462046DFE02DE902
:103E4000F84F05462868DDF828800B9F0C46FFF7E1
:103E500098FF16462868016841F480719946016010
:103E600000F055F800284FF4007A2CD12968DFF8CB
:103E7000B8B004F0FE00086100F044F8002832D128
:103E80000090296800F036F800F032F870B9B9F106
:103E9000010F05D02968300A086100F027F828B919
:103EA0002868F6B2066100F021F830B1286C0428C9
:103EB00019D1286800F033F815E02868FFF70DFDE8
:103EC00000F025F838B128680168CA0548BFC5F870
:103ED00040A0032008E0286844F00104E4B2046133
:103EE00000F010F800B10120BDE8F28F3A464146DB
:103EF000284684E04A6900923A4689690091414621
:103F0000009870473B4642465946284636E000979F
:103F1000434600224FF00111284607E0306801684F
:103F200041F4007101607047020001002DE9F04189
:103F3000069F05460E4690461C4631022868090E2B
:103F400001290CBF40698069304080B2B1B288421B
:103F50000CBF0120002040450DD114F1010FECD021
:103F600000F0FCFAC01B844201D3002CE5D100F024
:103F700063F8012000E00020BDE8F081F8B50546B7
:103F80000E4614461F463102090E2868012919D130
:103F90004169314089B2B2B2914219D041694A05B2
:103FA00018D500F025F82A685061002105F13C0081
:103FB0002963202242708170426842F0040242600C
:103FC000017013E08169314089B2B2B29142E5D10A
:103FD0000020F2BD14F1010FD5D000F0BFFAC01BD4
:103FE000844201D3002CCED100F026F80120F2BD8E
:103FF000016841F4007101606FF48060704770B532
:1040000005460C46164628684169080612D428461B
:1040100000F069F808B1012070BD14F1010FF2D071
:1040200000F09CFA801B844201D3002CEBD100F0FD
:1040300003F8F0E7002070BD00202863202105F17F
:104040003C00002241708270416841F020014160D3
:104050000270704770B505460C46164628684169DF
:10406000480712D4284600F03EF808B1012070BD80
:1040700014F1010FF2D000F071FA801B844201D3D9
:10408000002CEBD1FFF7D8FFF0E7002070BD70B532
:1040900005460C461646286841694A0617D4416908
:1040A000CA060BD400F05AFA801B844201D3002CBC
:1040B000F1D100F00EF841F0200104E06FF01001A2
:1040C000416100F006F841600270012070BD0020DF
:1040D00070BD00202863202105F13C0000224170C2
:1040E00082704168704701684A6953050FD56FF4C3
:1040F00080624A61002101633C302022427081705D
:10410000426842F0040242600170012070470020C2
:104110007047000081B00020009000228B48416869
:1041200041F480414160416801F48041009100996F
:104130000092036843F080530360006800F08050F1
:104140000090009801B0704710B586B000F071F88B
:1041500021687F4A7F48804C91420ED100F023F8BD
:10416000C02200F028F800200090216941F40011DD
:104170002161206900F4001011E0784A914210D1C9
:1041800000F011F84FF4406200F015F800200090A4
:10419000216941F480012161206900F480000090D0
:1041A000009806B010BD002100911223226842F051
:1041B000020222607047216801F00201009100991B
:1041C0000192029300220392032304220493059296
:1041D00001A900F0C9B910B586B000F02AF821682D
:1041E0005F48814223D100225B480092416941F43B
:1041F00080514161416901F4805100910099009220
:10420000E021036843F0010303600222006800F02C
:1042100001000090009853480191029200210391FF
:10422000032205210591049201A900F09DF906B031
:1042300010BD04461422002101A800F08FBA10B569
:1042400086B0044614220021684600F087FA2268EE
:10425000454B444840499A4217D1002205924B6988
:1042600043F010034B6100234A6902F010020592EB
:10427000059A05934FF4C06200F052F80022012124
:10428000252000F08FFA252046E0384B9A4216D1BF
:10429000002205920B6943F400330B6100230A6985
:1042A00002F400320592059A05930C2200F038F8CA
:1042B00000220121262000F075FA26202CE02C484F
:1042C00082422BD100220592086940F480200861C7
:1042D000086900F4802005900598059202220B6879
:1042E00043F008030B60086800F0080005904FF4E5
:1042F000407105981F48009101920021029103220C
:10430000072104910392694600F02EF90022012151
:10431000272000F047FA272000F061FA06B010BD10
:104320000C6844F001040C600223096801F00101EB
:10433000059105990092019300220292032307221E
:1043400003930492694600F00FB900004038024020
:104350000054004000040240303802400058004041
:1043600000300140000002400010014000440040C5
:1043700000480040000C02402DE9F04104000F46C7
:1043800054D0574E306800F00700B84202D200F017
:1043900073F84BD12068534D810712D5400703D5E0
:1043A000A96841F4E051A9602078010703D5A86805
:1043B00040F46040A860A968A06821F0F0010143C2
:1043C000A9602178C80729D56068012802D1296829
:1043D0008A0305E0022818BF032803D129688A014F
:1043E00003D423E029688A0720D5A968890840EA10
:1043F0008100A86000F0B2F88046A868616800F00B
:104400000C00B0EB810F09D000F0A8F8A0EB080079
:1044100041F289318842F0D303202BE0306800F06C
:104420000700874204D200F027F801D0012021E0E4
:104430002078410705D5AA68E06822F4E0520243DB
:10444000AA602178080706D5A968206921F460418F
:1044500041EAC001A96000F051F8AA682249234B43
:10446000C2F30312895CC84018602148006800F05C
:10447000CBF90020BDE8F0813770316801F0070109
:10448000B942704719481B4A006813681A49C3F3B8
:10449000822206E01548174A006813681649C3F3DC
:1044A0004232895CC840704710B50F220260114A41
:1044B000136803F003034360146804F0F00484609D
:1044C000136803F4E053C3601268D20802F4E052A8
:1044D00002610348026802F007020A6010BD000092
:1044E000003C024000380240706F000800020020CB
:1044F000FC01002008380240FC6F000830B5144C65
:10450000606800F00C00042802D0082802D01DE0EA
:10451000104830BD226820680023410202F03F02AB
:1045200004D525680B49C5F3881003E020680A49C3
:10453000C0F38810A1FB0001FDF78CFA2168C1F3DC
:104540000141491C4900B0FBF1F030BD024830BDCB
:104550000438024000127A000024F4000148406848
:10456000704700BFF40100202DE9F84F0D460026EA
:104570006F49704A0F23044601202F68B04000EABB
:104580000708804540F0CA804FEA460C032707FA27
:104590000CF76FEA070E6F6807F00309B9F1010F16
:1045A0001CBF07F00307022F12D1A768D5F80C90A3
:1045B0000EEA070709FA0CF949EA0707A7606768D6
:1045C00027EA00006F68C7F30017B7403843606000
:1045D000B0002F7907F00307032F21D0E768D5F843
:1045E00008900EEA070709FA0CF949EA0707E7609D
:1045F0002F7907F00307022F12D1F70804EB870782
:1046000000F01C09D7F820A003FA09FB2AEA0B0ADC
:10461000D5F810B00BFA09F949EA0A09C7F8209051
:1046200027680EEA070E2F7907F0030707FA0CF741
:1046300047EA0E0727606F6817F4403F6ED00027E7
:1046400000974FEA960C176847F48047176000F010
:104650000C00176807F48047009703FA00FE009FDC
:10466000354F57F82C7027EA0E0E344FBC4208BF66
:10467000002722D0324FBC4208BF01271DD0314F46
:10468000BC4208BF022718D02F4FBC4208BF0327E7
:1046900013D02E4FBC4208BF04270ED02C4FBC4273
:1046A00008BF052709D02B4FBC4208BF062704D0FE
:1046B000294FBC420CBF0727082707FA00F01E4FFE
:1046C00040EA0E0047F82C006FEA08008F6800EA05
:1046D000070C6F68FF0248BF48EA0C0CC1F808C01D
:1046E000CF6800EA070C6F68BF0248BF48EA0C0CAD
:1046F000C1F80CC04F6800EA070C6F68BF0348BFE1
:1047000048EA0C0CC1F804C00F6800EA070C68689E
:10471000C00348BF48EA0C0CC1F800C0761C0F2E3D
:104720007FF62AAFBDE8F18F02B9090481617047B5
:10473000003C01404438024008380140000002407B
:104740000004024000080240000C02400010024039
:104750000014024000180240001C024010B504463C
:1047600010460A460146204600F09EF8204610BD3D
:104770000901020002D41F48815470471E4B02F009
:104780000F021A4402F8041C70471C4B19684FF6BC
:10479000FF020002114000F4E0600843184908439A
:1047A0001860704770B5154B1C68C4F302230124D0
:1047B000C3F10705052D2EBF0F2504FA05F56D1E63
:1047C0001E1D072E34BF0023DB1E2940994004FA2A
:1047D00003F3BDE870405B1E1A401143C8E70100B7
:1047E00007D4012200F01F01064B8A40400943F81C
:1047F0002020704700E400E018ED00E00CED00E040
:104800000000FA0500E100E078B587B0044600201A
:1048100000902048016841F00401016001A900688E
:1048200000F00400009002A8009AFFF73DFE0598F2
:1048300010B9FFF727FE02E0FFF724FE4000164DF7
:104840001649174B2960B0FBF3F0401E40F2E732E7
:1048500068600021EA602961A960A961284600F02A
:1048600057F8060012D1284600F05FF806000DD177
:104870001E20FFF7B4FF102C07D2002221461E2075
:10488000FFF790FF0748046000E00126304608B0BB
:1048900070BD000040380240F003002000080040D6
:1048A00040420F00FC01002062F30F2262F31F421E
:1048B000401810F0030308D0C91A1FD3DB0748BF04
:1048C00000F8012D28BF20F8022D130030B4144643
:1048D0001546103928BF20E93C00FAD8490728BFFF
:1048E00020E90C0048BF40F8042D890028BF20F8BB
:1048F000022D48BF00F8012D30BC7047C91818BF01
:1049000000F8012DCB0728BF00F8012D70470000EB
:1049100038B5040001D1012032BD00F065F818B9A6
:1049200000F00AF900F06EF93DE090F83D10012921
:1049300001D001207047022180F83D100168CA684B
:1049400042F00102CA600068DFF88010884218BF98
:10495000B0F1804F17D0DFF8781088421CBFDFF825
:10496000742090420FD0DFF8701088421CBFDFF82F
:104970006C20904207D0DFF8681088421CBFDFF837
:104980006420904209D1816801F00701062908D00E
:10499000016841F00101016003E0026842F0010298
:1049A00002600020704702206870211D206800F01E
:1049B000C7F80120A872A870E87028716871A87102
:1049C000E871287268726870002032BD00000140F2
:1049D0000004004000080040000C004000040140BA
:1049E000004001400018004004F13C056878704721
:1049F00010B50446206801698A0715D5C1688A0781
:104A000012D56FF00201016101222277806910F056
:104A1000030F204602D000F0F6F803E000F0F4F8AF
:104A200000F087F800202077206801694A0715D533
:104A3000C1684A0712D56FF0040101610222227792
:104A4000806910F4407F204602D000F0DCF803E0DB
:104A500000F0DAF800F06DF8002020772068016996
:104A60000A0715D5C1680A0712D56FF00801016160
:104A700004222277C06910F0030F204602D000F014
:104A8000C2F803E000F0C0F800F053F800202077EF
:104A900020680169CA0615D5C168CA0612D56FF02B
:104AA0001001016108222277C06910F4407F20467E
:104AB00002D000F0A8F803E000F0A6F800F039F802
:104AC0000020207720680169CA0708D5C168CA0795
:104AD00005D56FF001010161204600F097FA2068CA
:104AE00001690A0608D5C1680A0605D56FF080017C
:104AF0000161204600F0D8FA206801694A0608D50D
:104B0000C1684A0605D56FF040010161204600F0FA
:104B1000CCFA206801698A060AD5C1688A0607D5D9
:104B20006FF0200101612046BDE8104000F0BEBAE0
:104B300010BD204600F0BBBA002129702046704706
:104B4000F0B5254C0568254B254E264FDFF898C05B
:104B5000A04218BFB0F1804F07D0604518BFB842DF
:104B600003D0B04218BF98420DD14A6825F07005B5
:104B70001543A04218BFB0F1804F17D060451CBF4D
:104B8000B842B04212D098421CBF184A90420DD091
:104B9000174EB0421CBF174A904207D0164EB04283
:104BA0001FBF164A9042164EB04203D1CA6825F480
:104BB000407515434A6925F0800515430560A042FC
:104BC0008D68C5620A68826212BF984209690163F2
:104BD00001224261F0BD00000000014000040140DC
:104BE000000C00400008004000040040004001406C
:104BF000004401400048014000180040001C0040F3
:104C00000020004070477047704700002DE9F041D8
:104C100086B000F04DFA00F0ABF91421684600F0C0
:104C200061FA0020059040F28175DFF8F003DFF8AB
:104C3000F0430168DFF8EC63DFF8EC73DFF8EC8336
:104C400041F004010160026802F0040205920022B2
:104C500005990592036843F080030360016801F041
:104C6000800100F041F943F001030360016801F0A5
:104C7000010100F039F943F010030360016801F00D
:104C8000100100F031F943F002030360016801F004
:104C900002010591059905921021036843F008036C
:104CA0000360006800F00800059005982046FFF7B3
:104CB0003BFD002229463046FFF736FD00224FF427
:104CC00080613846FFF730FD0022F0214046FFF7B3
:104CD0002BFD102100F00DF92046FFF745FC0120C7
:104CE0000190002202920392009569463046FFF738
:104CF0003BFC4FF4406000F0F2F800F0ECF84FF4A9
:104D000010700021009002914FF4881501956946BA
:104D10003846FFF729FC4FF4807000F0E0F8204699
:104D200000F0DAF84FF41041009101950021029152
:104D300069462046FFF718FC4FF4806100F0D9F86F
:104D40003846FFF711FC4FF4C05000F0C8F8384661
:104D500000F0C2F80921009101950021029100F0B4
:104D6000BAF8F02100F0C5F84046FFF7FDFB4FF41C
:104D7000407000F0B4F86946AD48AE4CAE4DFFF758
:104D8000F3FBAE48E0654FF4804600206066A06605
:104D900020676067A067E0672566E66604F15C004F
:104DA000FEF7EEFC08B100F05DF904F1B007A4488D
:104DB00038600021B960F9607961B961F9613962DF
:104DC0007D603E613846FEF7DBFC08B100F04AF931
:104DD0009C4860604FF48271A1600020E060002177
:104DE00060612161A16121626162A162E1624FF4AF
:104DF0000070E0610A212163201D00F077F908B1FD
:104E000000F030F9904878650C210020F86538668C
:104E10007866F86638674FF4E135B966BD6504F524
:104E2000827000F0F9FB08B100F01CF9874E884849
:104E3000706000210C20B061F16031617161F1613D
:104E40003162B560301D00F0E7FB08B100F00AF9EF
:104E500004F5A4707F49016000220C218260C260C9
:104E6000026141618261C261456000F0D5FB08B119
:104E700000F0F8F800F03EFF4FF4FA7000F046FF43
:104E80004FEA0D0078A11022FCF7EEF96846FCF716
:104E9000B5F982B24FF0FF336946301D00F0F7FBE1
:104EA000012204F5C671301D00F049FC4FF4007278
:104EB0008021384600F03EFF08B1002020704FF4FA
:104EC00000728021384600F03CFF08B100202070BD
:104ED00006B0BDE8F08140466946FFF745BB0021BA
:104EE0000090019102917047059105990592036820
:104EF00070470091012200210291039101926946BD
:104F00007047000078B5514C60789BB038B300BF53
:104F10000FF264115DA602A801F018F802A8FCF7D0
:104F20006DF900F01EF8207800F0D5FF002504EBA5
:104F30008502906C01F02AF8CDE900012A4631463D
:104F400002A801F003F802A8FCF758F900F009F8EC
:104F50006D1C082DEBDB41F2883000F0D7FE1CB051
:104F600070BD82B24FF0FF3302A9201D00F08FBB4D
:104F700080B592B0302106A800F0B4F8142101A841
:104F800000F0B0F8002000903348016841F08051F3
:104F900001600021006800F08050009000982F48C8
:104FA00000910221026842F48042026001220068FE
:104FB00000F48040009000980691099210210A9117
:104FC000022200210C920D91082260210E920F9175
:104FD000022204211092119106A800F0FBFF08B1F3
:104FE00072B6FEE702210291802203920F204FF455
:104FF00080510190049100220592012101A8FFF740
:10500000BBF908B172B6FEE713B000BD00681449E1
:10501000884208BF01F06CB9704700003038024088
:10502000000002400010024000080240000C024054
:105030000004024064000020A086010000540040EB
:10504000005800400030014000100140880300205B
:1050500000440040004800404038024000700040DA
:105060000008004072B6FEE7424547494E205445CD
:105070005354210D0A0000003E3E414443204C4958
:1050800056452044415441210D0A00003E3E414412
:1050900043204348414E454C2564203D20252E3475
:1050A00066206D560D0A00007047704770477047C4
:1050B00080B50B48016841F400710160026842F458
:1050C00080620260016841F4807101600320FFF793
:1050D0005CFB0F20FFF798FBFFF71CF8002002BDD8
:1050E000003C0240002201F00BB9000038B504007A
:1050F00001D1012032BD606A28B900F0E9F805D07D
:105100000021E16102E00020206160610020A062D6
:1051100004F15005687820B9002129702046FFF776
:105120005AF80220687000F0DEF96068A168E26851
:1051300000F4827001F404410843217C02F400620F
:105140001043227D01F002010843A16902F001022F
:105150001043227F01F40071084394F8201002F0FC
:1051600038021043A26A01F080010843216802F46A
:10517000005210430860A06994F824102268000CC3
:1051800000F0040001F01001084350602068C1697C
:1051900021F40061C161002068600121697032BDA5
:1051A0002DE9F84300F07EF9984608BF022000F090
:1051B0008D8001203870FFF7D1F97978012918BF67
:1051C00002264BD1002C18BFB9F1000F7BD0032170
:1051D00079707E602C63A5F83490A5F83690AE63A4
:1051E000AE87EE876E642E64AB68B3F5004F09D1CD
:1051F00029680B6823F040030B6029680C6844F4AD
:1052000080440C6029680B685C0603D40B6843F08B
:1052100040030B604446E968B1F5006F696821D12D
:10522000002918BFB9F1010F00F051F9804604E0E0
:10523000296B0A88C26000F027F9E88E002833D075
:10524000286881688A07F3D4FFF788F9A0EB080083
:10525000A04204D314F1010FEFD0032634E0002C58
:10526000EBD1FAE7002918BFB9F1010F00F023F9DB
:10527000804606E0296B0A780273286B411C00F017
:1052800005F9E88E80B1286881688A07F2D4FFF7B3
:1052900065F9A0EB0800A04203D314F1010FF0D090
:1052A000DBE7002CEDD1D8E742462146284600F046
:1052B00080F908B120207860A86810B900F0EBF8F8
:1052C000009A786800B1012600F006F8BDE8F28384
:1052D0006068B0F5827F70470120787000213970D6
:1052E000304670472DE9FC4700F0DCF84FF001082C
:1052F00008BF022000F0C6809A4687F80080FFF7BA
:105300002DF97B78012B09D06968B1F5827F02BF46
:10531000A9680029042B01D00226AEE0002C1CBF96
:10532000B9F1000FBAF1000F01D10126A5E07B7899
:10533000042B1CBF052179707E60C5F83890A5F854
:105340003EA0A5F83CA02C63A5F836A0A5F834A093
:105350002E646E6429680C68630603D40C6844F0FC
:1053600040040C60E9680A9CB1F5006F696838D1A7
:10537000002918BFBAF1010F00F0A9F88146E88EA4
:10538000002804BFE88F002868D029688868820751
:105390000BD5E88E002818BFB8F1000F05D0286B98
:1053A0000288CA60B04600F06FF829688868C207B2
:1053B0000CD5E88F50B1C868A96B08804FF0010880
:1053C000A86B821CAA63E88F411EE987FFF7C6F825
:1053D000A0EB0900A042D2D314F1010FCFD00326D5
:1053E0004BE0002918BFBAF1010F00F064F88146C4
:1053F000E88E002804BFE88F00282FD0296888682D
:1054000082070DD5E88E002818BFB8F1000F07D02D
:10541000286B02780A73B046286B411C00F036F8FE
:1054200029688868C2070CD5E88F50B1C868A96B95
:1054300008704FF00108A86B421CAA63E88F411E58
:10544000E987FFF78BF8A0EB0900A04203D314F122
:10545000010FCDD0C3E7002CCAD1C0E74A46214690
:10546000284600F0A6F818B120200126786004E054
:10547000A86810B900F00FF8009801217970002099
:1054800038703046BDE8F687286B811C2963E88EAA
:10549000411EE986704700962968CA6800928968AB
:1054A00000917047054605F150070026387801281D
:1054B0000C469146704709D1296B2B680A781A73FC
:1054C000296B4A1C2A63E98E4A1EEA86704709D175
:1054D000296B2B680A88DA60296B8A1C2A63E98E9B
:1054E0004A1EEA8670472068016821F04001016089
:1054F00070472DE9F843089C05460E4690461F4626
:10550000FFF72CF8381A2418FFF728F8814640488E
:1055100001684901090D6143009105E0009800B957
:1055200000240098401E0090286881683140B142F4
:105530000CBF01200020404532D017F1010FF3D0FD
:10554000FFF70CF8A0EB0900A04201D2002CE5D136
:105550002868416821F0E00141606868B0F5827F09
:1055600008D1A868B0F5004F18BFB0F5806F01D121
:1055700000F019F8A86AB0F5005F09D12868016841
:1055800021F4005101602868026842F40052026070
:1055900005F150000121417000220270032000E05B
:1055A0000020BDE8F2832868016821F04001016015
:1055B00070477CB504461648164E0B460168182500
:1055C000B1FBF5F5B5FBF6F64FF47A70464300965D
:1055D0006168B1F5827F09D10092802100222046C6
:1055E000FFF787FF58B100F00CF876BD009830B196
:1055F0000098401E0090216888680106F6D40020BB
:1056000076BD606D40F020006065032070470000AB
:105610000002002040420F0038B5040001D10120F3
:1056200032BD00F017F808B900F018F800F01BF8C8
:1056300000F023F8FFE7416100F001F832BD206877
:10564000C16841F40051C160002068602021697088
:10565000A970704704F13C056878704700212970F3
:105660002046FEF7ECBD242068702068C16821F454
:105670000051C160204600F0D9BA2068016921F4C8
:10568000904101612068416921F02A0170472DE9AC
:10569000F843054605F13C060C467078202817466D
:1056A000994649D10CB1380001D1012045E030784C
:1056B000012841D0012131700020706021227270D8
:1056C000FEF74CFFAF848046EF84A868B0F5805F9A
:1056D00004BF286900280EBF274620460027002166
:1056E000317004460EE014F8012B426007E0286890
:1056F000002CF8D137F8021BC1F308014160E88C97
:10570000411EE9844346E88CCDF80090002807D07C
:1057100000228021284600F081F90028E7D005E02A
:1057200000224021284600F079F908B1032004E066
:1057300020207070002000E00220BDE8F28338B520
:1057400000F130039C7B202C0FD109B1140001D152
:10575000012032BD1C7B012C07D001241C730025C5
:105760001D60BDE8384000F0A3B9022032BD2168B9
:1057700001F1140252E8001F206800F1140321F027
:10578000400143E80010002870477CB504462168BA
:105790000B68CD684A6913F00F0007D1980661D5F0
:1057A000AA065FD52046BDE87640D5E1D00702D4F1
:1057B00015F4907F56D0D80705D5E90503D5206CA0
:1057C00040F001002064580705D5D10703D5206CAF
:1057D00040F002002064980705D5D10703D5206C5E
:1057E00040F004002064180707D5A90601D4D007AB
:1057F00003D5216C41F008012164206C002830D0D1
:10580000980604D5A90644BF204600F0A5F92068F3
:105810004069216C0A0701D440061DD5204600F0DE
:1058200070F920684169480611D5FFF7A0FFFCD147
:10583000A06B60B10FF215310165A06B00F0B6FDF1
:1058400000280ED0A06B016DBDE87C4008472046C3
:10585000BDE8764000F0CFBD204600F0CCFD002032
:10586000206473BD206B012804F13D0240F0868066
:10587000D80600D5EE0640F18180002300930D6824
:1058800000954B6800930098496948063FD5A16B85
:105890000868406880B20028E3D0A38D9842E0DA1F
:1058A000E085C869B0F5807F2DD0216801F10C003A
:1058B00050E8001F236803F10C0521F4807145E8CE
:1058C00000100028F1D100F09BF8490800F1140500
:1058D000490045E800100028F5D100F091F800F1EA
:1058E000140521F0400145E800100028F5D12020E2
:1058F00050700021216300F089F800F0BEF8FAD161
:10590000A06B00F017FDA18DE08D091A30E0A08D8D
:10591000E18D411AE08D00281CBF88B2002868D0B4
:10592000206800F10C0353E8003F00F10C0623F45B
:10593000907346E800300028F2D1206800F05AF851
:1059400000F114065B0046E800300028F5D1202065
:10595000507000222263206800F10C0252E8002FF0
:1059600000F10C0522F0100245E800200028F2D1D9
:105970002046BDE87C4089B200F03EBD180629D51E
:105980002E0627D51078212833D1A068B0F5805F86
:1059900004BF2069002808D1206A0288C2F30802E7
:1059A0004A60206A811C216204E0206A421C226253
:1059B00000784860E08C401EE08480B2C8B920685E
:1059C000C16821F08001C1602068C16841F04001D8
:1059D000C16073BD58060CD56B060AD5C86820F0A7
:1059E0004000C860202111702046BDE8764000F0DC
:1059F00004BD73BD00F1140353E8003F5B0870471A
:105A0000206800F1140151E8001F7047206800F180
:105A10000C0151E8001F00F10C0370472DE9F04123
:105A2000069C05460E4690461F4628680168314090
:105A3000B1420CBF0120002040451BD114F1010FE1
:105A4000F3D024B1FEF78AFDC01B8442EDD200F0F2
:105A50001AF821F4D07100F012F8F8D100F01BF818
:105A6000FCD105F13C0020214170817000210170C2
:105A7000032000E00020BDE8F08121F0100143E8A0
:105A8000001000287047286800F10C0151E8001F41
:105A900000F10C037047286800F1140151E8001F61
:105AA000490800F11403490043E80010002870473A
:105AB00081628285C28500F13C0100224A60222376
:105AC0008B700A70016921B10168CA6842F4807262
:105AD000CA6001684A6942F001024A610068C1680F
