:020000040800F2
:10000000783100206DB60008ADB30008AFB300082A
:10001000B1B30008B3B30008B5B300080000000096
:10002000000000000000000000000000B7B300085E
:10003000B9B3000800000000BBB30008BDB300085E
:1000400099B600089DB60008A1B60008A5B600083C
:10005000A9B60008ADB60008B1B60008B5B60008EC
:10006000B9B60008BDB60008C1B60008C5B600089C
:10007000C9B60008CDB60008D1B60008D5B600084C
:10008000D9B60008DDB60008E1B60008E5B60008FC
:10009000E9B60008EDB60008F1B60008BFB30008E5
:1000A000F5B60008F9B60008FDB6000801B700086B
:1000B00005B7000809B70008D3B300080DB700085A
:1000C00011B7000815B7000819B700081DB70008D8
:1000D00021B70008D9B30008DFB30008E5B3000872
:1000E000295B000825B7000829B700082DB70008CC
:1000F00031B7000835B7000839B700083DB7000828
:1001000041B7000845B7000849B700084DB70008D7
:1001100051B7000855B7000859B700085DB7000887
:1001200061B7000865B7000869B700086DB7000837
:1001300071B7000875B7000879B700087DB70008E7
:1001400081B7000885B7000889B700088DB7000897
:1001500091B7000895B7000899B700089DB7000847
:10016000A1B70008A5B70008A9B70008ADB70008F7
:10017000B1B70008B5B70008B9B700080000000023
:10018000BDB70008C1B700084178007807E0C17822
:10019000827842EA01224178007841EA022140EA6D
:1001A000012070470170090A417070470170090A07
:1001B0004170090A8170090AC17070472AB111F8AB
:1001C000013B00F8013B521EF9D17047521E00F866
:1001D000011BFBD1704700E0401C0278002A18BFC9
:1001E0008A42F9D110467047F0B502460023002438
:1001F000824D05EB0416306880B11768B84202BF23
:1002000070689768B84202BFB0685669B04206D1BC
:10021000022C0AD193B9022905D10FE00123641CF5
:10022000022CE6D3F4E71220F0BD29B905EB041047
:100230008289B2F5807F01D11020F0BD0020F0BD91
:10024000F0B50246946815686C4E002318013758C3
:10025000AF4202BF371D3F58A74201BF06F1080752
:1002600038585769B84202D05B1C012BEED9022BDB
:1002700011D13068002300281EBF012330690028F7
:100280000ED1180137183D607C6006F108045269F0
:1002900022500020B88106EB0312908929B108B1E1
:1002A0000020F0BD4FF4807000E0401C9081581C8D
:1002B000F0BD10B5401E022813D200014F490A18A4
:1002C0009389B3F5807F01D01C0002D10023938174
:1002D00003E05B1E93819BB20BB900220A50002001
:1002E00010BD022010BD30B50021444A00250B018D
:1002F000D458844208BFD550491C0129F7D930BDD4
:10030000F8B505460024E878A0B16E6B00F014F84B
:1003100008B101240EE0E870A96A286A711A8142C6
:1003200008D2AF7804E0286A861900F005F87F1E2D
:10033000012FF8D82046F2BD68780123324605F136
:10034000380101F04FBB70B504460D46606B0026C6
:10035000854210D02046FFF7D3FF06000BD160780E
:1003600001232A4604F1380101F036FB10B14FF0A9
:10037000FF3501266563304670BD38B50446FFF78A
:10038000BFFF050037D12078032804BF207901285A
:100390002AD1A289002104F13800FFF717FF4AF69D
:1003A000552104F23620FFF7FDFE154904F138000F
:1003B000FFF7FCFE134904F50770FFF7F7FEA1698C
:1003C00004F50870FFF7F2FE616904F50970FFF7A4
:1003D000EDFE626A6078521C6263012304F1380109
:1003E00001F000FB0020207100226078002101F064
:1003F00007FB00B10125284632BD0000282D002052
:100400005252614172724161C269891E921E9142CB
:1004100001D3002070474289006B02FB01010846AE
:1004200070472DE9F0410C460568022C4DD3E86970
:1004300084424AD2297801294FF0FF3604D044D3B0
:10044000032936D02AD340E0A889A96A04EB5408CE
:1004500000F0CDF8002839D1A88908F10107B8FBD0
:10046000F0F100FB118805F13802A96A12F8088042
:10047000B7FBF0F000F0BDF8002827D1A889B7FB42
:10048000F0F100FB117705F13800C25D48EA022661
:10049000E00754BFC6F30B06360917E000F0B4F8C6
:1004A000A0B9A889640000F014F8FFF76DFE0646B5
:1004B0000CE000F0A1F848B9A889A40000F009F800
:1004C000FFF765FE20F0704600E001263046BDE8EB
:1004D000F081B4FBF0F100FB114405F13800204439
:1004E00070472DE9F8430C460227022C05461646B4
:1004F0007AD3E869844277D22978012904D073D36A
:10050000032950D03CD36FE0A889A96A04EB5409B1
:10051000B9FBF0F000F06DF80028074664D1A88917
:1005200009F10108B9FBF0F100FB119905F1380060
:100530004844E20743BF017801F00F0141EA061188
:10054000314601700120E870A889A96A00F04FF8CF
:100550000028074648D1A889B8FBF0F100FB1188B4
:1005600005F13800E207404448BF360906D4017857
:10057000360A01F0F00106F00F060E43067031E076
:1005800000F042F8074678BBA8896400B4FBF0F29B
:1005900000FB124405F13800B1B22044FFF702FE1F
:1005A0000121E97020E000F027F80746E0B9A889AA
:1005B000A400B4FBF0F100FB114005F13802104437
:1005C000FFF7E5FDAA8926F0704600F0704040EA8A
:1005D0000601B4FBF2F002FB104405F138021019D9
:1005E000FFF7E4FD0120E8703846BDE8F283B8FB70
:1005F000F0F041182846A6E6AA89A96A9208B4FB39
:10060000F2F0411828469EE6AA89A96A5208B4FB6E
:10061000F2F04118284696E6F8B505460F462E68D2
:10062000012F114629D9F069874226D229B14FF00E
:10063000FF3200F078F801001ED139462846FFF756
:10064000F0FE040017D0012C17D014F1010F16D0C2
:10065000002200F067F801000ED1F069B169821E36
:10066000914205D2491CB161317941F001013171EA
:1006700027468742E1D30020F2BD0220F2BD0120CF
:10068000F2BD2DE9F04180460C00D8F8006006D19B
:10069000756915B1F06985420ED301250CE0FFF7AD
:1006A000C0FE012898BF01203AD910F1010F37D0C0
:1006B000F169884234D325462F46F0697F1C874272
:1006C00002D30227012D0BD939464046FFF7A9FE78
:1006D00040B1012818BF10F1010F21D0AF42ECD179
:1006E00000201DE04FF0FF3200F01CF890B924B15B
:1006F0003A46214600F017F860B97761F169B069B0
:10070000891E814224BF401EB061307940F0010053
:10071000307104E001280CBF4FF0FF370127384645
:10072000BDE8F08139463046DBE610B50368C06AA3
:100730009C89021D5889B1FBF4F1B1FBF0F003E094
:10074000884206D3401A083211680029F8D10020E7
:1007500010BD5168081810BD2DE9F04105460E4640
:100760002F68B6F5001F2ED216F01F0F2BD1AC68E4
:100770006E6154B93878032801DBFC6A2CB93989D9
:10078000700988421FD2F86A19E07989B88900FB9C
:1007900001F806E0022C16D3F869844213D2A6EBC6
:1007A00008064645214608D32846FFF73AFE044688
:1007B00014F1010FEED1012013E000F08BF8E86195
:1007C000AC61E86908B902200BE0B989B6FBF1F227
:1007D0001018E86101FB1266B81900F138012962AE
:1007E0000020BDE8F0812DE9F04106460C46756910
:1007F0003768F169203531B3B5F5001F23D2B889C8
:10080000B5FBF0F200FB1250002855D1491CF161F4
:10081000B16921B93989680988424DD311E07889D5
:10082000401E024248D13046FFF7FBFD8046B8F13A
:10083000010F16D918F1010F34D0F869804536D36D
:100840001CB90020F061042041E0B1693046FFF797
:1008500018FF5FEA000808BF072038D0B8F1010F81
:1008600001D1022033E018F1010F1BD03846FFF709
:1008700047FDB8B9BA89002107F13800FFF7A6FC97
:1008800000F027F8002402E0786B641C401C7863B9
:100890007889844208D20121F9703846FFF730FD8B
:1008A0000028F1D0012012E0786B041B7C63C6F8AD
:1008B000188000F00EF8F0617561B889B5FBF0F1B1
:1008C00000FB115507F13800401930620020BDE8E7
:1008D000F0814146384697E570B504460D4605F16E
:1008E0001A00FFF751FC21780329064605D105F1CE
:1008F0001400FFF749FC46EA0046304670BD70B56B
:1009000004460D461646B1B205F11A00FFF74AFC3F
:100910002178032905D1310C05F11400BDE87040A0
:1009200040E470BD024600200B210306C00100EB2D
:10093000536012F8013BC018491EF6D1C0B270478F
:100940002DE9FE4F0446002122680192FFF704FFC3
:100950005FEA00080BD1FF2000904FF0FF31FF2528
:100960002163E1690198FFF7EEFC5FEA000879D1A5
:10097000266A307800284CD0F17A01F03F01E52852
:10098000A17165D00A0747D50F2961D194F82F10BE
:100990004A0661D4410606D5727B009200F0BF0082
:1009A000616921630546E9B2884202BF0098717B04
:1009B00088426DD10198D0F8108006F11A00FFF737
:1009C000E3FB002864D137780FF23831029107F049
:1009D0003F077F1E0D2047434FF0010B4FF00009EA
:1009E000029810F809107018FFF7CEFBBBF1000F4A
:1009F000824638D0FF2F4BD201F032F8834638F8C8
:100A0000170001F02DF87F1C834508BFD3462ED078
:100A10003EE04FF0040825E00F29B7D0EDB22DB924
:100A2000009D3046FFF77EFF85421BD094F82F00D3
:100A3000C1070DD4226A04F124030B2112F8015BD3
:100A400013F8010B281A491E01D00028F6D048B12E
:100A50004FF0FF30FF25206300F05CF95FEA0008EB
:100A60003FF47FAF16E04FF6FF70824510D109F1D9
:100A70000109B9F10D0FB3D33078410606D5BBF1AA
:100A8000000F1CBF38F81700002801D16D1EE3E7E6
:100A9000FF25E1E74046BDE8FE8F00002DE9F04F5D
:100AA000044687B094F82F00D4F8009010F0A00FFF
:100AB00018BF062040F02581D9F810104FF0000A29
:100AC00001E00AF1010A31F81A000028F9D10C22DC
:100AD00004F1240102A8FFF771FB02ADE87AC10717
:100AE00060D5402084F82F000126D9F810800B2211
:100AF00002A904F12400FFF761FBB346BBF1060F26
:100B000015D310E038F8021B102001F0010303EBAD
:100B10004B0B49085FEACB3244BF8BF4883282F03A
:100B2000210B401EF1D1B8F800000028EAD10721BE
:100B3000584600F00F023032D3B23A2BA8BFD21D74
:100B40000DF80120491E0009F3D17E200DF80100A7
:100B500004F12402002000E0401C884202D2135C11
:100B6000202BF9D10246501C072904F124079ABF13
:100B70001DF80130491C2023BB540728F2D9204618
:100B8000FFF7DEFE804610B9761C642EADD3642ECE
:100B900008BF072000F0B580042840F0B180E87A53
:100BA00084F82F00E87A810706D50AF10C010D20A0
:100BB000B1FBF0F56D1C00E0012526680021204600
:100BC000FFF7CAFD010016D10027E1693046FFF7A3
:100BD000BAFB01000FD1206A0078E5281CBF00286D
:100BE000002702D17F1CAF4208D001212046FFF729
:100BF000FAFD0100E9D0042908BF07215FEA0108D6
:100C000061D16D1E019561D06169A1EB451120464E
:100C1000FFF7A2FD0028804655D104F12400FFF71C
:100C200081FE8DF800004FF6FF75E1694846FFF739
:100C30008AFB0028804646D1276AD9F81000019E19
:100C40009DF80010059079730F20F8720021397318
:100C500007F11A00FFF7A6FAF0B2411E0D2000FBC3
:100C600001F800BF27A106914FF0000A01E0AB4553
:100C700004D0059830F818B008F10108069810F86B
:100C80000A205946B818FFF78DFABBF1000F08BFCC
:100C9000AB460AF1010ABAF10D0FE8D3AB451DBF0F
:100CA000059931F81800002846F040063E700120F2
:100CB00089F8030000F02EF8804620B90198401E04
:100CC0000190B2D102E0B8F1000F19D1E1694846B4
:100CD000FFF739FB804698B9206A20220021FFF7F0
:100CE00075FA206A0B2204F12401FFF767FA94F8E1
:100CF0002F00216A00F018000873012089F8030012
:100D0000404627E101030507090E10121416181CAE
:100D10001E0000000021204665E500002DE9F14F8E
:100D200086B00368029301E00098411C009100988E
:100D300000782F2818BF5C28F6D00699002088601C
:100D4000069800F1240100980191017820291ED213
:100D5000019A8020D0720021069807B0BDE8F04FBC
:100D6000FFF7FABC49075AD406988179C80640F1C2
:100D7000F08006994869029900F023FD0299084421
:100D800000F138010298FFF7A7FD0699886000245A
:100D900006980168009F0E690FF2C0190025785D62
:100DA0006D1C20281DDB2F2818BF5C2814D0FF2CB9
:100DB00034D2012100F034FE5FEA00082ED0B8F1F1
:100DC000800F04DA41464846FFF705FA30BB26F8A3
:100DD0001480641CE3E76D1C795D2F2918BF5C2922
:100DE000F9D0791920280091ACBF4FF0000B4FF0DB
:100DF000040B00E0641EB51E2CB135F81400202849
:100E000018BF2E28F6D0002026F8140034B101981F
:100E10000B222021FFF7DAF9002002E0062099E0FA
:100E2000401C36F81010202918BF2E29F8D008B120
:100E30004BF0030B35F814102E2901D0641EF9D1A4
:100E400004960027DFF8F43603930825A24681466E
:100E5000002600E08B46049830F81940002C09F178
:100E6000010945D0202C4BF00301F3D02E2C01D1E9
:100E7000D145EFD1AF422DD2D1452BD0802C13DB01
:100E80000021204600F0CCFD4BF0020B30B95F246E
:100E90004BF0030B0198C4557F1CDCE70399084411
:100EA00010F8804C002CF2D04FEA04012EA0FFF77E
:100EB00092F90028EBD1A4F141001A2838BF46F07E
:100EC0000206E7D3A4F161001A28E3D246F0010636
:100ED000203CDFE70B2D0AD0D14518BF8B46CA4511
:100EE00021BFD14608270B25B600B4D200E08B46BF
:100EF00001990A78E52A02D1019A05211170082D7D
:100F000008BFB60006F00C000C281ABF06F003015B
:100F100003294BF0020B5FEA8B700BD406F0030140
:100F2000012908BF4BF0100B06F00C06042E08BF79
:100F30004BF0080B019880F80BB00698FFF700FD06
:100F40000199C97A02003FF40DAF042802D1490784
:100F500000D4052007B0BDE8F08F0000222A3A3CFB
:100F60003E3F7C7F000000002B2C3B3D5B5D000082
:100F700003464FF0FF301A68002A00D1704710B5C1
:100F8000144600E0641C2178202901D33A29F9D1C4
:100F90003A290CD112F8011B30390A2908D2A24291
:100FA00008BF002904D1611C0020196010BD002079
:100FB00010BD10B5044600224FF0FF33E2706363AA
:100FC000FFF7C1F908B1042010BD04F23620FFF785
:100FD000DBF84AF65521884201D0032010BD04F108
:100FE00038000178E92904D0EB2904BF80789028E3
:100FF00013D104F16E00FFF7CAF820F07F40DFF84C
:101000004015884207D004F18A00FFF7C0F8DFF8E6
:101010003415884201D1002010BD022010BD2DE9F9
:10102000FF410E46002131601446FFF7A1FF070083
:1010300048BF0B2007D4DFF8108508F1040050F8F2
:1010400027500DB90C202AE1356004F0FE04287801
:1010500048B1687800F0A4FCC10704D4002C01D08A
:1010600040070DD41AE1002028706F70687800F0F6
:10107000A0FCC10748BF032003D41CB1400701D521
:101080000A200CE1687805F10C02022100F0B8FC9E
:1010900090BBA889A0F5007140F6016291422BD265
:1010A000411E084228D100212846FFF782FF002771
:1010B00002281FD1002405EB041101F5FB7108790A
:1010C00018B101F10800FFF762F84DF82400641C24
:1010D000042CF0D300265DF8264024B12146284692
:1010E000FFF767FF00E00320012802DD761C042ED5
:1010F000F1D32746042801D10120D0E0012817DCD4
:1011000005F14300FFF740F8A989884210D105F1A5
:101110004E00FFF739F818B905F15C00FFF737F812
:1011200005F145012862CA78AA70012A18BF022A6F
:1011300071D1504306460878688101006BD0421E89
:10114000104268D105F14900FFF71EF8A9892881EE
:10115000490990FBF1F201FB120000285BD105F177
:101160004B00FFF711F8040004D105F15800FFF718
:101170000EF8044605F14600FFF706F800284AD0AD
:10118000AA8929894FEA521E331891FBFEF2D3181F
:101190009C4240D3B5F80AC0E41AB4FBFCF2002A22
:1011A00039D003244FF6F67C624538BF022440F65E
:1011B000F67C624538BF0124921CC019DB19032C50
:1011C000EA616F62A8622B630FD105F16200FEF73E
:1011D000DBFF002804BF288900281CD105F164002A
:1011E000FEF7D5FFE96989000CE0A1B1A86AE969B9
:1011F0003018022C0FBF490001EB410201F0010140
:1012000001EB5201E862A889421E5118B1FBF0F0CF
:10121000296A814201D20D2041E04FF0FF30A861E0
:1012200068618020032C28712BD105F16800FEF73E
:10123000ABFF012825D1791C2846FFF784F800BBB5
:10124000287105F23620FEF79FFF4AF655218842A5
:1012500017D105F13800FEF79AFFBC49884210D13A
:1012600005F50770FEF793FFB949884209D105F5E6
:101270000870FEF78CFFA86105F50970FEF787FF7F
:1012800068612C70B8F80000401CA8F80000E880E5
:1012900008F1080028612846FFF725F8002004B06F
:1012A000BDE8F08170B5044609260D46002C1CBF30
:1012B000216800290DD0087858B1A088CA889042CA
:1012C00007D1487800F06CFBC00702D420680026E4
:1012D00000E000202860304670BD73B582B015462E
:1012E00000916846FFF744FE002848BF0B201ED43B
:1012F000954901EB8006746824B12046FEF7F3FFA0
:1013000000212170029810B90021716008E0029953
:1013100000200870029A7260029808B1012D01D075
:10132000002004E0002202A903A8FFF778FE04B021
:1013300070BD2DE9F34104008EB008BF092000F014
:10134000FA8002F03F073A4669460FA8FFF767FEAA
:1013500006001DD100980F99019001A8FFF7DEFC4F
:1013600006000DD19DF83300010648BF062607D4BC
:1013700017F0FE0118BF012101A8FEF735FF064650
:1013800017F01C0F00F0B080300000F0A380042E96
:1013900040F0CE806F49086800281EBF0869002809
:1013A000122603D101A8FFF779FB0646300047F06B
:1013B000080735D1380739D500F09CFB0546099858
:1013C00029460E30FEF7F2FE099829461630FEF740
:1013D000EDFE09992020C872DDF82480009841466E
:1013E000FFF77AFA0546009800224146FFF787FA90
:1013F000099800211C30FEF7D9FE00990120C87021
:1014000085B10098D0F8348000F052FA060007D178
:1014100000984146FEF797FF064600986D1E45610D
:10142000300056D1380748BF47F040070098416B5D
:10143000616217F0FE010998A06218BF012101A89E
:10144000FEF7FEFE0028206142D0099D0098294643
:10145000FFF742FAA06005F11C00FEF798FEE0607D
:101460004FF480520020E062009921600098C1880A
:10147000A180002060750021A0612162277504F120
:101480003000FEF7A3FEB80654D5E568002D51D014
:10149000A561009847898089A1684743AF420CD273
:1014A0002046FEF7BEFF014602292BD311F1010FA2
:1014B0002BD0ED1B3000F1D025E0E1610098808950
:1014C000B5FBF0F200FB1250A0B300F0F7F908BB37
:1014D00002262DE09DF80A0010F0110F10D17807B8
:1014E0007FF568AF082623E0300099D19DF80A0007
:1014F000C10648BF04261BD4B90793D5C00791D5B0
:10150000072615E00226E16112E04FF0FF300126C8
:10151000E0610DE0009A9189B5FBF1F108182062B5
:10152000024600984078012300F051F910B10126DD
:1015300000202060304610B0BDE8F08164B10008A2
:10154000464154004641543388260020525261419E
:1015500072724161282D002007466946A2E62DE9F6
:10156000FC471446984600228946C8F80020FFF739
:10157000F3FF010001D1787D010040F0AD80387D9E
:10158000810758BF072040F1A780B8692118814220
:101590003CD24FF0FF32141A38E005EB000A0098F5
:1015A0008189B4FBF1F6002E63D04089711988421D
:1015B00038BF461B0098407833465246494600F0F3
:1015C00011FA002840F08080386AA0EB0A00B0428F
:1015D0000AD200998A89504309EB000107F13000D3
:1015E000FEF7ECFD00F07AF8009885897543B8693C
:1015F000F9682818B861884238BF0846F860A944DD
:10160000D8F800002818C8F80000641B002C5ED031
:1016100000F069F83FD100984289521E154018D158
:1016200011B9B86850B906E0F86A18B13846FFF742
:101630007CF803E0F9693846FFF723F8002846D024
:10164000012814D010F1010F3ED0B968F86101B93A
:10165000B860387D010606D500983A6A00F04CF86B
:1016600090BB00F03BF800F028F9002895D102204B
:101670002BE0386A50450CD0B969F868814208D22D
:10168000009840780123524607F1300100F0A4F998
:10169000D0B9C7F820A00099BB698989B3FBF1F6DE
:1016A0004E43C81A30182546844288BF054607F1C4
:1016B00030009B1B2A4649461844FEF77FFD387DC3
:1016C00040F08000387592E70120787504E0387D9D
:1016D00040F0400038750020BDE8F687387D00F006
:1016E0007F00387570470098B9698089B1FBF0F5C3
:1016F00000FB1510002870474078012307F13001E6
:1017000000F070B97CB500F066F8010037D1217D9A
:101710004A0634D5080606D500F032F808B1012093
:1017200076BD00F049F800F0E5F90546616A0098D9
:10173000FEF709FE010022D1A66AF07A40F02000EF
:10174000F0723146A2682068FFF7D9F8E16806F127
:101750001C00FEF72BFD294606F11600FEF726FDBC
:10176000002106F11200FEF71DFD00990120C8704E
:101770000098FEF702FE217D01F0BF01217576BDC4
:101780000098226A4078012304F1300100F02AB960
:101790001CB50446FFF7B6FF01000CD16946204690
:1017A000FFF780FD010006D12069FEF782FD0100F0
:1017B00004BF0021216016BD207D00F07F00207550
:1017C00070478989B0FBF1F201FB1200704704F108
:1017D000300100F001B904466946FFF763BD2DE909
:1017E000F14F86B00F4614460022694606A8FFF75F
:1017F00016FC0028814658D1009820600099CC69D9
:101800008869A21E824228BF38604ED20846002650
:101810000178012918D102240190214601A8FEF780
:1018200000FE10F1010F09D001280AD000B9761C82
:101830000098C169641C8C42EFD32EE04FF001097F
:101840002BE04FF0020928E0D0F828800AE0FEF7EC
:101850009EFC000108BF5E460AF1040A2D1F641EAB
:101860001BD05DB900984146FEF76DFD814608F139
:10187000010890B90098858900F1380A009801782C
:10188000022906F1010B5046E1D1FEF77DFC00B9BB
:101890005E460AF1020AAD1EE1E73E6000988661ED
:1018A0000099087940F0010008714846FFF752BBE3
:1018B0000022294601A8FEF7AFBEF9690098FEF79D
:1018C000A3BD7CB50D4604460A2D04BF0D21FFF7CC
:1018D000F8FF6668002E16D404F10C008555761CBE
:1018E0003D2E0CDB20686B46324604F10C01FFF7FD
:1018F00036FE0098B0420CBF00264FF0FF36A068BD
:101900006660401CA06073BD1CB504466268002A76
:101910000DD420686B4604F10C01FFF720FE00286F
:1019200002BF60680099884201D1A06816BD4FF0DF
:10193000FF3016BD0160002141608160704718B51D
:1019400093B004466846FFF7F5FF04E014F8011B66
:101950006846FFF7B6FF20780028F7D16846FFF702
:10196000D3FF14B010BD30B4002513E050F8042BA1
:10197000D30744BFA9F101039A18091F042942F8AB
:10198000045BFAD213468C0744BF15809B1CC90721
:1019900048BF1D7050F8041B0029E7D130BC7047C8
:1019A00001461E4A531802EB81014A68187A5168B1
:1019B00008471A4B02460020995C002900D0704766
:1019C00010B501249C5403EB82019C184A68207ACC
:1019D0001368BDE81040184770B500F009F8AC680E
:1019E000A04770BD70B500F003F8EC68A04770BD6B
:1019F00004460A4D2E1905EB84046568307A704759
:101A000038B50346054CE51804EB83035C68287A77
:101A1000236901B0BDE8304018470000482D002080
:101A2000802800DA704710B52A4B51B1B0F5807F9D
:101A300001DB002010BD03EB4000A0F58071088899
:101A400010BD8CB233F81440A04203D0491C8AB2B6
:101A5000802AF6DB01F1800000F0FF0010BD0000DD
:101A600070B5B0F5805F1C4C05DB04F5FA7402E03C
:101A70000AB904EB4504218851B3884228DB658804
:101A80002A0205F0FF05241D120C6E18B042EFDA91
:101A9000082A1DD8DFE802F005090E1012141618E6
:101AA0001A00431A34F8130012E0411A01F0010140
:101AB000401A0DE010380BE0203809E0303807E01C
:101AC0001A3805E0083003E0503801E0A0F5E35093
:101AD00080B270BD20AB0008A0A3000810B5034C75
:101AE0000348211D00F024F8207010BD542D002063
:101AF000E82400200020704770B50E4D6B7A044634
:101B00000120A3B96B7A0020E854687A05EB8006BF
:101B10007460687A28440272687A421C6A723030B3
:101B200008702F223A2048708A700020C87070BD5B
:101B30000022E1E7482D00202DE9F14FB0B0924698
:101B400004910DF142013A9A2B9199464A70002076
:101B50000AE01AF8011B0498309A90470028049074
:101B600000F0B6860D98401C0D909AF8000050B118
:101B70002528EED1002100220791089209910A92AE
:101B80000B910C9204E00D9800F0A4BE41F001010D
:101B90001AF8010F2028F9D023280CD02B2804D0C4
:101BA0002D2805D0302809D00BE041F00201EFE7E5
:101BB00041F00401ECE741F00801E9E741F01001D0
:101BC000E6E72A280FD1D9F8002052F8040BC9F80B
:101BD000002000280F9003D540420F9041F00401EF
:101BE0000AF1010A14E00F92DFF828380AE00F9892
:101BF000984205DA00EB800402EB4402303A0F927F
:101C00000AF1010A9AF80020A2F130000A28EED366
:101C10009AF800002E2803D04FF0FF320E9229E0F0
:101C20001AF8010F2A2809D1D9F8000050F8042B1E
:101C3000C9F800000E920AF1010A1BE02D280CBF22
:101C40000AF1010A002000220E92DFF8C8470BE0DB
:101C500040B90E9AA24205DA02EB820503EB450376
:101C6000303B0E930AF1010A9AF80030A3F13002DA
:101C70000A2AEDD3ADF84010DFF89C07784400F550
:101C8000F3609AF8001000F049FF08B11AF8010B50
:101C90008DF842009DF84200682805D19AF80000AE
:101CA00068280CD1622106E06C2804BF9AF8000075
:101CB0006C2804D171218DF842100AF1010A12A892
:101CC00006901AF801BBBBF125012CD01C3900F09D
:101CD000D081091F022940F2CC81133900F02385FD
:101CE000093900F0C681891E00F0B885491E00F050
:101CF0006585491E022940F2BC81091F00F05E85FE
:101D0000491F00F02881491E00F00D85491E00F092
:101D1000D080C91E0DD0891E00F00585C91E00F0B7
:101D2000028500F0A6BD25238DF84830012100F082
:101D3000ABBDD9F8000050F8044BC9F80000002CE6
:101D4000059440F0A3802B994878002800F09980F2
:101D50004FF0FF340FF6843000F0F8FE201A40F008
:101D6000B78500F092BD6D1E40F0A9853096079DA5
:101D700012AF75B1309E17F8012B02A9304600F062
:101D800073FE002801D46D1EF5D10028309640F076
:101D90009F850A9D3020002D8DF804000CDD309EBB
:101DA000012301AA02A9304600F06EFE002840F08F
:101DB0008F856D1EF4D13096059F089D75B1309EBC
:101DC00017F8012B02A9304600F04EFE002801D47E
:101DD0006D1EF5D10028309640F07A850B9D30209D
:101DE000002D8DF804000CDD309E012301AA02A90C
:101DF000304600F049FE002840F06A856D1EF4D19F
:101E0000309605980899099D471875B1309E17F8C6
:101E1000012B02A9304600F027FE002801D46D1ED8
:101E2000F5D10028309640F053850C9D3020002DD0
:101E30008DF804000CDD309E012301AA02A9304672
:101E400000F022FE002840F043856D1EF4D130964C
:101E50009DF8400041077FF588AE2020002C8DF8CA
:101E600004007FF782AE309D012301AA02A9284613
:101E700000F00AFE002840F02B85641EF4D1309556
:101E800073E60FF66440059000F0FFBC0E9D002D38
:101E900004D5204600F07AFE044607E02A46204694
:101EA00000F07EFE002814BF041B2C46089400F0AE
:101EB000ECBCD9F8001051F8040BC9F8001020F060
:101EC0000004002121F0FF3512ABCDE90245059356
:101ED000DDE9022306993C2413B90AB90E9898B19A
:101EE00002F00F053035641EEEB23A2EA8BF27353A
:101EF000120942EA03721B090D5508BF002A03D0DC
:101F000005980D19A842EBD308190590C4F13C02BD
:101F10000E98089282420ADABDF84010821A4FF6F3
:101F2000EF7001400A92ADF8401000F0AEBC0028FE
:101F300040F1AB849DF8400000F01400102840F000
:101F4000A4840F9B07990A985B1A1B1A9A1A002AF5
:101F500040F39B84E5E32B99487820B14FF0FF34A0
:101F60000FF65430F8E69DF84200622861D06828E8
:101F700017D06A283FD06C2806D0712847D0742823
:101F80002CD07A281DD064E0D9F8001051F8040B49
:101F9000C9F80010002868D14FF0FF340FF6303038
:101FA000DAE6D9F8001051F8040BC9F8001020B98E
:101FB0004FF0FF340FF61830CEE60D99018000F097
:101FC00064BCD9F8001051F8040BC9F800100028BF
:101FD0004BD14FF0FF340FF6F820BDE6D9F80010D2
:101FE00051F8040BC9F8001000283ED14FF0FF341F
:101FF0000FF6DC20B0E6D9F8001051F8040BC9F850
:10200000001080B94FF0FF340FF6C420A4E6D9F8D1
:10201000001051F8040BC9F8001020B94FF0FF343C
:102020000FF6AC2098E60D9AD317C0E9002300F014
:102030002CBCD9F8001051F8040BC9F8001020B9D5
:102040004FF0FF340FF6882086E60D99017000F0FE
:102050001CBCD9F8001051F8040BC9F8001020B9C5
:102060004FF0FF340FF6682076E60D99016000F01E
:102070000CBCD9F80020D21D22F00702C9F80020BC
:10208000D2E900010832C9F80020CDE90201C80FE9
:1020900002D007982D210AE0BDF84000810702D543
:1020A00007982B2103E0C00705D50798202112AA25
:1020B0001154401C0790DDE90223079912A8CDE9CD
:1020C0002C2308444BF020016129059021AC0BD052
:1020D0000E99002902D506210E9105E001BF4BF0B3
:1020E0002001672901220E92DDE9022359004915DA
:1020F000491C0DD11A030BD0ABF1610503211A2D38
:10210000089102D20FF6E41110E00FF6E4110DE091
:1021100059004915491C0DD11A030BD1ABF16105CA
:1021200003211A2D089119D30FF6CC11032200F0C8
:1021300063FDAAE3DDE90201CDE92E01DDE92E23ED
:1021400023F00047B7F5801F22F000060DD20022D1
:10215000002F08BF002E009203D116E00FF6941155
:10216000E4E76A4600F054FD0FE0DFF8DC08DFF832
:10217000DC1800EB17500090DDE92E234FF0FF3004
:102180001940DFF8CC7810403943CDE902014BF01B
:10219000200061280DD1059830210170821CBBF10F
:1021A000610F05920CBF7821582141700798801C5F
:1021B0000790DDE9020120F0000231F0004308BF82
:1021C000002A02D10026002568E14BF02008B8F172
:1021D000610F40F0B4800E98002847BF2121019183
:1021E000401C0190019FDDE92C017F1C002200238F
:1021F000DDE9024500F044FD00998DF8842038BFE8
:1022000085F00045091F002F00910DF1850653DD73
:10221000204629460022002300F04EFD4CD2480003
:10222000400D00F11C0212D0002A10DD40F2FF73B5
:102230009A4206DBDFF81C1805F00040014300203D
:1022400011E06FF31E5141EA025120460BE024F0E9
:10225000000035F0004108BF00280FBF29461C22AE
:10226000294600F041FD04460D4600F0DBFDFF1F4E
:10227000002F804609DD00F0F3FD02460B462046A4
:10228000294600F0FFFD04460D46F01D0721B8F178
:10229000000F0CDD491E5EBF08F00F0200F8012D93
:1022A0004FEA2818F3D502E0002200F8012D491E5C
:1022B000FAD5C61D002FABDC0DF18500361A01984A
:1022C0008642D8BF304600280DF1850430D4B04294
:1022D00006DA0DF185010A5C082AA8BF0F2100DA91
:1022E0000021024621AB134400E0401E13F80159BF
:1022F000521E8D42F9D00F2904D10DF185018B5C5E
:102300005B1C8B54002A04D50099091D21AC401C8C
:102310000091411E0CD46218ABF13A0613783033A9
:10232000DDB23A2DA8BFF318491E02F80139F5D5E0
:102330000E99002940F1B080421E0E92ACE0009947
:10234000DFF8142747F29750414391FBF2F2DDE9A1
:102350002C45009225F00045D2F1070204DD20460D
:10236000294600F04EFB0BE052420020DFF8EC164D
:1023700000F047FB02460B462046294600F0F4FDDC
:102380000446B8F1660F0E9806BF009F0A3706276D
:102390003F18142FC8BF142730200D468DF8840035
:1023A0000DF18506002F39DD2046294600F000FF9B
:1023B00001460A4606F1080304200A26B2FBF6F697
:1023C00006EB860EA2EB4E02303203F8012C0A22F5
:1023D000B6FBF2F202EB820EA6EB4E063036401E42
:1023E00003F8026DE9D1083F002F03F10806D9DD9B
:1023F000084600F0F1FE02460B462046294600F052
:1024000041FD0022DFF8583600F0F4FE04460D4688
:10241000CAE700BFCBCCCC0C789200000DF1850050
:10242000361A0DF1850404E00098401E761E0090D7
:10243000641C20783028F7D0B8F1660F02D10099DB
:10244000491C04E0B8F1650F0CBF012100210E9872
:1024500008188642B8BF701E00281DD4B04204DAA6
:10246000215C3429C8BF392100DC30210246631EBB
:102470009D1800E0401E15F80169521E8E42F9D0E9
:10248000392902D1A15C491CA154002A04D5009924
:10249000491C1C46401C00910646009D00F09CFF14
:1024A000406A0778DDF8388030B2002802DC012667
:1024B0000FF248644BF02000662808BF6D1C16D050
:1024C000672846D128B210F1040F48DB404546DAB0
:1024D0009DF840006D1C010703D430B24045B8BFE1
:1024E000804628B2B8EB000848BF4FF000080FFA4A
:1024F00085FBBBF1000F00F3B5800898411C0891E3
:10250000302205990A54B8F1000F03DC9DF8400011
:10251000010704D50898411C089105990F5418EB40
:102520000B0FB8BFC8F100052DB268420B90A8444C
:1025300032B29045B8BF4646059B089836B2099618
:1025400032462146184400F057FBA8EB06000C90D9
:10255000D2E0BBF1610F17D14FF0700B19E030B230
:10256000404504DA9DF840100A0758BF8046B8F18C
:10257000010848BF4FF00008BBF1670F14BF4FF0D0
:10258000450B4FF0650B04E0BBF1410F08BF4FF066
:10259000500B0898411C0891B8F1000F059914F8E8
:1025A000012B0A5403DC9DF8400001071AD5089856
:1025B000411C0891B8F1000F05990F5412DD761EE9
:1025C00030B280450598089BB8BF464632B22146D6
:1025D000184400F011FB089936B271180891A8EB65
:1025E00006000B9005980899084429B2002980F844
:1025F00000B003D42B224270821C04E02D224270D2
:102600000D46821C6D4200212CAB28460AE0044690
:102610000A2094FBF0F000EB8005A4EB450403F8DE
:10262000014B491C00B20028F1DC012906DC4BF00B
:102630002000652804BF302002F8010B00292CABD4
:1026400008D1302002F8010B06E0491E585C3030FA
:1026500002F8010B0029F8DC059908980844121AC1
:10266000099249E030B229B288421CDA0598089BE9
:1026700032B22146184400F0BFFA089936B27118F8
:10268000ABEB0606B8F1000F08910B9603DC9DF842
:102690004000020704D5059847540999491C09913F
:1026A000CDF8308028E00598089B2AB221461844CE
:1026B00000F0A2FA0898761B5844B8F1000F089071
:1026C00003DC9DF840100A0703D5411C08910599C9
:1026D0000F5430B280450598089BB8BF464632B2C9
:1026E00004EB0B01184400F087FA089836B2301852
:1026F0000890A8EB06000B909DF8400000F0140035
:10270000102840F0C280079A08990B988A180999F6
:1027100082180C988A1882180F98824280F2B5802D
:10272000821A0A92B1E09DF84200622808D0682817
:102730000ED06A2814D06C281FD0712810D01CE04D
:10274000D9F8001051F8040BC9F80010C0B21AE013
:10275000D9F8001051F8040BC9F8001080B212E04B
:10276000D9F80020D21D22F00702C9F80020D2E9D2
:1027700000010832C9F8002006E0D9F8001051F82D
:10278000040BC9F800100021CDE902019DF84000BA
:1027900001075AD5DDE90223002B08BF002A54D0D7
:1027A0004BF02000782850D1079812A930220A5403
:1027B000401C431C079301F800B046E09DF842001E
:1027C000622808D068280ED06A2814D06C281FD040
:1027D000712810D01CE0D9F8001051F8040BC9F88A
:1027E000001040B21AE0D9F8001051F8040BC9F8F3
:1027F000001000B212E0D9F80020D21D22F007022A
:10280000C9F80020D2E900010832C9F8002006E02A
:10281000D9F8001051F8040BC9F80010C117CDE920
:102820000201002902D507982D210AE0BDF84000D9
:10283000810702D507982B2103E0C00705D507982B
:10284000202112AA1154401C079012A80799014494
:10285000059102A8594600F04FF816E001200790B4
:10286000D9F8000050F8041BC9F800008DF8481092
:102870000BE025210122BBF1000F8DF848100792D3
:1028800003D08DF849B0022107910F9A07980A9951
:102890000C9C121A0898521A0B99121A0998521A7B
:1028A000121A9DF84000141B41073FF560AA202032
:1028B000002C8DF804007FF75AAA309E254601238C
:1028C00001AA02A9304600F0DFF800283FF44BAA25
:1028D0004FF0FF3031B0BDE8F08F00007072696ECC
:1028E00074665F733A2062616420257320617267A9
:1028F000756D656E740000002DE9FC4307466F2975
:102900003E6908BF082405D041F02000782814BF94
:102910000A2410243C25D7E90023642918BF69291B
:102920009046994605D1002B03D5D8F1000869EBF4
:102930004909B9F1000F08BFB8F1000F0CD1386B8D
:1029400050B9082C39D197F83800010735D5302017
:102950003B2586F83B0030E08DF8001040464946A4
:102960002246E31700F03EFD3032D0B26D1E3A2809
:10297000019504DB9DF80000A0F151018A18725501
:10298000404649462246E31700F02CFD80465FEAA8
:10299000010908BFB8F1000F03D0F8687119884227
:1029A000DCD3082C09D197F83800010705D5705DF4
:1029B000302802D06D1E30207055C5F13C02BA613E
:1029C0007119F960386B824208DA821A3A624FF65E
:1029D000EF70398F01403987BDE8F38300280ED5A9
:1029E00097F8380000F01400102808D17B6B796943
:1029F000386A5B1A1B1A9A1A002AC8BF3A62BDE8E5
:102A0000F3832DE9D04306460F4614464FF00008E5
:102A1000DFF8509012E0E00707D542464B463046BB
:102A2000394600F0E7FB06460F4640464946424617
:102A30004B4600F0DFFB641080468946002CEAD14B
:102A400030463946BDE8D08302FCFFFFFFFF0F8010
:102A50000000E03F0000F07FA08601000000F03F92
:102A600084D797410000244010B503460C46114618
:102A7000A0689847A06020B1E06A401CE062002096
:102A800010BD4FF0FF3010BDF8B505460E46174695
:102A90001C4600205CB117F8011BB068A847B06065
:102AA00030B1F06A401CF0620020641EF3D1F2BD28
:102AB0004FF0FF30F2BD00007072696E74665F7394
:102AC0003A20256E20646973616C6C6F77656400D1
:102AD0007072696E74663A2062616420256E2061AE
:102AE0007267756D656E7400000000006E616E00A7
:102AF0004E414E00696E6600494E46003000036844
:102B00001AB95A1E026008467047197811B94FF079
:102B1000FF307047591C016018787047C9B20278BD
:102B20008A421AB11CBF10F8012FF9E718BF002024
:102B300070478268521C8260426832B10268531C3E
:102B4000036011704168491E4160704780B500B94B
:102B500006A005490B681BB122220021984701E01D
:102B600000F0C3FC222002BD682D0020636F6E734D
:102B7000747261696E742068616E646C65723A206B
:102B8000626164206D6573736167650000F1010324
:102B900010F8011B11B110F8011BFBE7C01A7047B8
:102BA000C9B2830706D0521E22D310F8013B9942C6
:102BB000F7D11FE0083A13D302F1040241EA0121E0
:102BC00041EA014150F8043B121F21BF4B40A3F1E1
:102BD000013C2CEA030C1CF0803FF3D0C9B2001F6B
:102BE000083210F8013B521E28BF91EA030FF8D8B3
:102BF00018BF0120401E70474AB1000011F8013B88
:102C0000521E00F8013B1CBF11F8013BF8E770476A
:102C100010B5144600F002F8226010BDC1F30A534B
:102C200043B14A0012F5001F28D2A3F2FE32A1EBF5
:102C30000251704750EA410C20D001F0004C31EABB
:102C40000C01B1FA81F204BFB0FA80F3D2180B3A4A
:102C5000B2F120032CBF00FA03F1914041EA0C01CC
:102C60003EBFC2F1200C20FA0CF3194390405242AF
:102C700040F2FD33D21A01EB035170470022704736
:102C80004FF4001C1CEB410F94BF1CEB430F09E0F9
:102C900041EA030C50EA4C0C52EA0C0C03D2994264
:102CA00008BF9042704714BF8B428242704702684F
:102CB000531C0360117070474FF4001C1CEB410F54
:102CC00094BF1CEB430F09E041EA030C50EA4C0CA3
:102CD00052EA0C0C03D28B4208BF8242704714BFE9
:102CE0009942904270472E00124254D440F2FF7C29
:102CF0001CEA11530FD0634531D09B1863453CBF8C
:102D000001EB0251704701F0004141EA0C510020F3
:102D1000AFF30080704750EA410320D001F0004C2F
:102D200091EA0C011CD0B1FA81F30B3B9A420DD908
:102D3000D21A994051EA0C01C3F1200C20FA0CFC84
:102D400061449840531C40F2FF7CD7E7914041EA30
:102D50000C01C2F1200C20FA0CF31943904070478B
:102D6000B0FA80F31533202BE0D3202AEED3203A9B
:102D7000203B9A4209D9D21A00FA03F141EA0C0128
:102D80000020531C40F2FF7CB8E700FA02F141EA50
:102D90000C0100207047524240F2FF7C1CEA1153A4
:102DA0000DD06345DBD0B2EB030C3CBFA1EB02516D
:102DB00070470CF1010221EA035141F4801150EAFD
:102DC000410CCCD001F0004C352A27DC30B481EA2C
:102DD0000C01B2F1200309DAC2F12003044601FA22
:102DE00003F5D0402843D1409C400CE0C3F12002C1
:102DF000450020FA03F418BF44F0010421FA03F05F
:102E000091400C43002174F1004550F1000051EB5A
:102E10000C01244230BC7FF47BAF70476146002038
:102E200076E74300C1F30A5340F2FE329B1A14DDE9
:102E3000D3F120034FEAE17208DDC90241EA5051A3
:102E400041F00040D84080185040704703F2E13014
:102E500010B1D24382F0004070470020704700005C
:102E6000C11768B14840401AB0FA80F29040D21CB5
:102E7000C907C2F5846241EA025202EBD021400543
:102E80007047000070B44FF0004591EA030F40F125
:102E900037836B40841A71EB030603D2001BB141E8
:102EA000121973414FF4001C1CEB410F34BF7CEB33
:102EB000430442E00C0DA4EB1356352E4FDC45EADB
:102EC000C323DB0A45EAC121C912B6F120050DDD95
:102ED00063FA05F6EB4086EA0305124218BF45F097
:102EE0000105C01851F100010CD213E062FA06F599
:102EF000F2405540F3415A40B340F3405A408018E5
:102F0000594107D349085FEA30005FEA350528BF19
:102F100045F0010501F58011420875F1004250F1BC
:102F2000000041EB04514E0016F5001F70BC38BF85
:102F300070470020090D090570471CEB410F10D2A6
:102F400052EA43060BD0BCEB410F05D80C0DAB4346
:102F5000661E342EB6DD02E0AB438018594170BCCA
:102F6000704770BC70470000F0B540F2FF7581EA11
:102F7000030C0CF0004C15EA11541DBF15EA135751
:102F8000AC42AF42E5E0BC41C1F31301C3F313030C
:102F9000801A994143F4801304D2641E40004941D1
:102FA00080185941C90241EA5051B1FBF3F603FBC5
:102FB0001611A2FB0675D7EBC020A94102D2761EDE
:102FC00080185941C90241EA5051B1FBF3FE03FB9D
:102FD0001E11A2FB0E75D7EBC020A94103D2AEF1A2
:102FE000010E80185941890241EA9051760546EA5E
:102FF0008E2EB1FBF3F603FB1611A2FB0675D7EB81
:103000008020A94102D2761E80185941C90241EAA6
:1030100050514EEA060EB1FBF3F603FB1611A2FB6C
:103020000675D7EBC020A94102D2761E80185941FF
:10303000C90241EA5051B1FBF3F703FB1711A2FBA0
:103040000735D3EBC020A94167F100070CBF004250
:1030500047F0010766F3D5274FEA1E31B80814F58B
:10306000806412DDBD0775F1004250EB0E5051EB4C
:10307000045111F5801F5CBF41EA0C01F0BD4CF01A
:103080007F6141F0E0410020F0BDBD076D0840EADE
:103090000E5041F48011D4F10104B4F120060ADA93
:1030A000C4F120060200E04001FA06F3E1401843B3
:1030B000B24015430EE0342C13DCC6F1200445EA7F
:1030C00040056D0820FA06F2154321FA06F0A140EA
:1030D0000D43002175F1004250F1000051EB0C014D
:1030E000F0BD00205FEA0C01F0BDCFB992185B4142
:1030F000B3FA83F704BFB2FA82F6BF190B3FB7F1F8
:1031000020062FBF02FA06F3BB40C7F1200622FAC1
:1031100006F638BF3343BA401CB1E419641E33E7E6
:103120007F4231F00041B1FA81F404BFB0FA80F679
:10313000A4190B3CB4F120062FBF00FA06F1A14000
:10314000C4F1200620FA06F638BF3143A0403C1BEC
:103150001AE7AC421ABF05EA1357AF4212E050EA31
:1031600041061CBF52EA4306BFE750EA410730461A
:1031700061461CBF41EA0551F0BD52EA430C08BF4D
:10318000C143F0BD00204FF4001616EB410F98BF6D
:1031900016EB430F08BF16EB410F24BFC14305E0F8
:1031A00016EB430F0CBF61464CEA0551F0BD000021
:1031B000400D491840EA81200CD2490DA1F58061EB
:1031C000491C40F0004005DBD1F11F0154BFC8404D
:1031D000C017704700207047014648B1B0FA80F12F
:1031E0008840C91CC1F58461090501EBD021400567
:1031F00070470000B0B581EA030C0CF0004C40F2BF
:10320000FF7515EA11541DBF15EA1357AC42AF42C2
:1032100039E0E41923EA455343F48013C90241F02D
:10322000004141EA505EC7021100A7FB02020028DC
:103230004FF00000EEFB01204FF00001E3FB0721FF
:1032400018BF42F00102401800214941E3FB0E0182
:10325000A4F580640F0302D252004041494154F169
:1032600001046CDD470872F1004250F1000051EB9F
:103270000451A1F580115CBF41EA0C01B0BD4CEADC
:1032800005510020B0BD05EA1357AC4214BFAF4250
:1032900041E050EA410E1CBF52EA430E02E0614693
:1032A0000020B0BD24423C441BD15FEA070EF6D09B
:1032B000090302BF01460020AEF1140EB1FA81F7F6
:1032C000AEEB070401FA07FE0C37C7F1200100FA44
:1032D00007F7C8404EEA000E23EA455343F4801333
:1032E000A2E733F00043B3FA83F704BFB2FA82FED9
:1032F00077440B3FE41BB7F1200E2FBF02FA0EF309
:10330000BB40C7F1200E22FA0EFE38BF43EA0E037F
:10331000BA40641C82E750EA410E14BF52EA430EE1
:103320006FF000014FF4001717EB430F8ABF1946E7
:1033300017EB410FB5E74CEA05510020B0BDD4F1C1
:103340000104B4F120070FDAC4F12007520828BFA6
:1033500042F0010210FA07F501FA07F7E1BF2A432C
:10336000E0403843E1400FE0352C98DCC7F1200401
:1033700052EA400220FA07F218BF42F0010231FA85
:1033800007F0A1400A43002172F1004250F1000011
:1033900051EB0C01B0BD0000613807E005E0A0F181
:1033A00061011A2901D20120704741381A28804151
:1033B000C00F7047A0F10901052901D3202801D1D0
:1033C0000120704700207047A0F141011A2938BF41
:1033D000203070470148704701487047342500206D
:1033E000FC240020D3BBD9B1B2F5803F5BD2022AC6
:1033F0001ED98C46B1FBF2F102FB11C31B0443EA58
:103400001043B3FBF2FC02FB1C3380B240EA0343DF
:10341000B3FBF2F002FB103240EA0C40002370478D
:10342000022A05D98446B0FBF2F002FB10C27047B5
:103430004AB105D100F0010249085FEA3000704747
:1034400000220023704700F011B90B000200002198
:1034500000207047F7D3002200237047904271EBA1
:10346000030CF2D370B5B1FA81F4B3FA83F52C1BD7
:10347000A340C4F1200532FA05F63343A2405FF0C1
:103480000046E64002E05B085FEA3202841A71EB14
:10349000030524BF204629467641F4D302000B00E1
:1034A0003000002170BD70B5B1FA81F4B2FA82F536
:1034B000C4F120046419B4F12006DAD3B2405FF0FD
:1034C0000044F440002502E052085FEA3303C61AC4
:1034D00071EB020E24BF3046714664416D41F3D357
:1034E00002000B002000290070BD012000F0C0B8D0
:1034F00070B44FF0004591EA030F7FF5CBAC6B4001
:10350000841A71EB030604D26E40001BB1411219FC
:1035100073414FF4001C1CEB410F34BF7CEB43069E
:1035200083E00C0DA4EB1356362E00F37C80012EA5
:1035300045EAC32341DC43EA525312BFD20292024E
:103540005B08240545EAC12141EA5051D2EBC02075
:10355000994125D407D1B0FA80F610FA06F162D06D
:103560000020203608E0B1FA81F6B140C6F1200211
:1035700020FA02F21143B0404FEAF474B4EB46541F
:1035800034F001064FEA74040AD8D6F50016760D19
:1035900004F00044F04061FA06F25040F140484027
:1035A000C00A40EA415021F0004128BF5FEA5005BF
:1035B00050F1000044EBD12135E0DB0A45EAC1219E
:1035C000C90AB6F120050EDD42EA0242120CC5F12D
:1035D000200603FA06F6EB4042EA06056D429841E2
:1035E00061F100010DE062FA06F5F240554063FA20
:1035F00006FC82EA0C02F3405A406D42904161EBB6
:10360000030111F4801F05D1641E620502D06D0014
:103610004041494121F48011430875F1004350F1C4
:10362000000041EB045170BC70471CEB410F15D2F8
:1036300023F0004352EA43060BD04FEA4C0CBCEB9C
:10364000410F04D80C0D661E342EB7DDEBE7801A4F
:10365000994150EA410608BF0021E4E708BF1CEB8E
:10366000430F28BF6FF00001DDE700007047000046
:1036700080B500F007F8024A11001820ABBEFBE746
:103680002600020010B500F052F802000023DB43D0
:1036900000241068984203D011000220ABBE1460D1
:1036A0005068984203D0111D0220ABBE546010BD7B
:1036B000F0B583B0040000F03AF8A10047183D6867
:1036C0000026F643B54216D100F01AF83D68B5421F
:1036D0000FD100BF09A00090002C01D1002000E014
:1036E000042001900320029069460120ABBE050032
:1036F0003D6000F014F8280003B0F0BD3A74740087
:103700000C480121BFF35F8FD0E84F3FC0E8421F54
:10371000002AF9D1BFF35F8F002BF3D17047054822
:10372000BFF35F8F00210170BFF35F8F70470248C6
:1037300070470000722D00207426002003460846C2
:103740000122C168491CC160002100681847034676
:103750000846C1680269491C521E002A0261C16004
:1037600003D400680122002118474FF0FF30704752
:10377000034608461146C268521E11F1010FC2608D
:1037800002D0006800221847704700002DE9F84F6A
:103790009AB04FF0FF34009100261B68019302920B
:1037A0000DF13F02249B8DF81F30A046039619921D
:1037B000814613E00398401C0390012200980021E9
:1037C000C847064600F098FE0028F3D13246694605
:1037D0004846FFF7CDFF0298411C029102980078FD
:1037E00000F08AFE0028E5D1029E307890B12528AD
:1037F00015D1701C029001782A2911BF0021401CAC
:10380000029010F8011D8DF81C1000210591DFF8C1
:10381000840A20E04045B8BF404600F038BD039818
:10382000401C0390012200980021C847317888424B
:10383000D1D0024669464846FFF79AFF0020E9E7E3
:103840000599814205DA01EB810602EB4602303A26
:103850000592591C0291029B1A78A2F130010A29A3
:10386000EED306940FF630201978FFF757F920B100
:103870000298401C0290401E00788DF81D009DF8B3
:103880001D00682805D10299087868280CD16222A9
:1038900006E06C2802BF029908786C2804D17122D6
:1038A000491C8DF81D200291029801780FF6F01046
:1038B000FFF734F980B90398401C03900122009867
:1038C0000021C847064600F017FE0028F3D1324613
:1038D00069464846FFF74CFF00208DF81E0002980D
:1038E000017825392DD01C3900F09080091F02295C
:1038F00040F28C80133900F02A83C91E1ED0891F24
:1039000000F08480891E00F0AC84491E00F01F8303
:10391000491E02297AD9091F00F01983491F33D0A3
:10392000491E012940F21383091F2AD0891E00F085
:103930000E83C91E00F00B8300F0A3BC224600F0EA
:1039400091BC0398401C039001220098C84706468A
:10395000252E0CD1B8F1000F9DF81E0048BF4FF086
:10396000000800283FF437AF08F1010833E732467A
:1039700069464846FFF7FCFE16F1010F40F08184CE
:1039800089E3012200F06EBC9DF81C000028E1D103
:103990009DF81D0062282DD0682811D06A281BD000
:1039A0006C2801D0712817D0019951F8040B0191AE
:1039B00018B90FF6E82000F050BC03990160C9E780
:1039C000019951F8040B019118B90FF6D02000F0BD
:1039D00044BC03990180BDE7019951F8040B0191A2
:1039E00018B90FF6B82000F038BC039AD317C0E915
:1039F0000023AFE7019951F8040B019118B90FF6B4
:103A00009C2000F02ABC03990170A3E705980028C8
:103A1000D8BF6FF00040049069464846FFF797FE14
:103A200000262B2818BF2D280DF1280A07D18DF864
:103A3000280069464846FFF78AFE0DF1290A0A2741
:103A40000025302818D169464846FFF780FE40F02F
:103A50002001C9B2782902D00125294601E1302090
:103A60008AF800008AF8011048466946FFF76FFEA1
:103A70000AF1020A1027F0E740F02001CAB26E2ACC
:103A80004CD16E200AF8010B69464846FFF75FFEED
:103A900083464BF020000027C0B2612840F090819F
:103AA00061210AF8011B48466946FFF750FE83462C
:103AB0004BF02000C0B26E2840F082816946484633
:103AC000FFF745FE282806D0024669464846FFF71C
:103AD0004FFE6E205CE00498401E049005D46946B9
:103AE0004846FFF72BFE834603E00399491C0391E8
:103AF000A346CDF820B0584600F008FD0028EAD1D2
:103B0000ABF130000A28E6D308985F28E3D083465B
:103B1000BBF1290F40F054816E2039E0C9B2692908
:103B200040F0A68069200AF8010B69464846FFF775
:103B30000EFE83464BF020000027C0B26E2840F0F6
:103B40003F816E210AF8011B48466946FFF7FFFDD9
:103B500083464BF02000C0B2662840F031810398C4
:103B60000499401C491E00290491039004D4009834
:103B700001220021C84700E0204640F02001C9B2E0
:103B8000692908D0024669464846FFF7F1FD6620DC
:103B90000AF8010B1AE103980499401C491E0029F8
:103BA0000491039005D4009801220021C847834660
:103BB00000E0A3464BF02000C0B26E2840F0008128
:103BC00003980499401C491E00290491039005D4D0
:103BD000009801220021C847834600E0A3464BF02D
:103BE0002000C0B2692840F0EB8003980499401C83
:103BF000491E00290491039005D400980122002158
:103C0000C847834600E0A3464BF02000C0B27428AA
:103C100040F0D68003980499401C491E0029049165
:103C2000039005D4009801220021C847834600E094
:103C3000A3464BF02000C0B2792840F0C180662135
:103C40000AF8011BC2E00398401C0390204607E0DD
:103C50000498401E0490F6D469464846FFF76EFD6E
:103C600001213028F4D00D4611B130210AF8011B92
:103C70008346284600250EE00398401C0390A34687
:103C800008E00498401E0490F6D469464846FFF7C1
:103C900055FD834601201BF1010F1BD05FFA8BF20B
:103CA000612AA8BFABF157010ADA412AA8BFABF1DC
:103CB000370105DA303A0A2A34BFABF13001FF216F
:103CC000C9B2B94206D2242DBABF0AF801BB6D1C95
:103CD000761CD6E78DF820000995FFF77DFB406A3A
:103CE00001788B4510D10AF801BB03980499401C58
:103CF000491E00290491039005D400980122002157
:103D0000C847834600E0A3460998E8B99DF820001B
:103D10000FE00398401C0390A34609E00498761E28
:103D2000401E0490F5D469464846FFF707FD8346D8
:103D30000120BBF1300FF1D0002E8DF8200003D50B
:103D400030200AF8010B761C9DF82000099D13E035
:103D50000398401C0390A3460DE0242DBCBF0AF835
:103D600001BB6D1C0498401E0490F1D4694648467E
:103D7000FFF7E4FC834601201BF1010F14D05FFA2A
:103D80008BF2612AA8BFABF157010ADA412AA8BF1A
:103D9000ABF1370105DA303A0A2A34BFABF1300112
:103DA000FF21C9B2B942D8D3054648B14BF0200033
:103DB0000A2FC0B235D1652835D001E083460D46C3
:103DC0005A4669464846FFF7D3FC15B300218AF8E6
:103DD00000109DF81C0000287FF4BCAD0A2F0B4694
:103DE00074DC32460AA800F027FD01228DF81E205F
:103DF000019A9DF81D60131D6C2E40F0938012688F
:103E00000193002A40F08B806248784400F5C3702B
:103E100023E20AA8824508BF1BF1010F40F032825D
:103E200039E17028CCD10AF801BB0498401E0490F7
:103E300010D40398401C0390012200980021C84729
:103E40002B2818BF2D2811D10AF8010B0498401E09
:103E5000049004D50398401C0390204606E0039884
:103E6000401C0390012200980021C84700210DE06A
:103E70000398401C0390204607E00498401E0490DD
:103E8000F6D469464846FFF759FC01213028F4D0A2
:103E90000A001CBF30220AF8012B0025A0F13002D5
:103EA0000A2A8BD2082DBCBF0AF8010B6D1C04989E
:103EB000401E049004D50398401C0390204603E064
:103EC00069464846FFF73AFC0121E7E700220AA8C5
:103ED00000F0B2FCB2000E4673005B0D02EB03076C
:103EE00012D0002F10DD40F2FF72974207DBDFF89F
:103EF000A47501F0004040EA0701002075E76FF368
:103F00001E5646EA075170E720F0000631F00047E0
:103F100008BF002E3FF469AFFEF7E6FE65E7C2E991
:103F2000000117E54C2E07D112680193002AF6D143
:103F3000184878445E3090E1166801931EB9154820
:103F40007844503089E100F063FD306002E5059867
:103F50000028CCBF401EDFF84005002808AF0490C1
:103F600012D40398401C0390012200980021C847F6
:103F70002B2818BF2D2816D18DF820000DF1210710
:103F80000498401E049007D50398401C03902046D7
:103F900009E000BF5C7500000398401C03900122FB
:103FA00000980021C847029A12780021642A18BF9D
:103FB000752A0FD0692A08BF00260CD06F2A08BFC7
:103FC000082608D0702A1CBF42F02002782A02D1AD
:103FD000102600E00A26302862D104980125401EF0
:103FE0000490039805D4401C039001220098C84710
:103FF00002E0401C0390204640F02001C9B278291D
:104000004BD1002E18BF102E5CD104981026401EF4
:104010000490039807D4401C0390012200980021CB
:10402000C84700254EE0401C039025464FF0000A8B
:1040300002E0574605468A462A4669464846FFF743
:1040400097FBBAF1000F1FD0002139709DF81C00BA
:1040500000287FF47FAC02980078642818BF692894
:1040600000F0B680324608A800F0DCFD01228DF891
:104070001E20029A1378702B5BD1019B53F8042BFE
:104080000193002A53D1E7E008A8874208BF15F141
:10409000010F40F0F6802546F4E09EB9082611E0B5
:1040A00006B90A26BA462DE00398401C0390204624
:1040B00007E00498401E0490F6D469464846FFF78E
:1040C0003DFB01253028F4D029460A00EAD03022F1
:1040D00007F8012BE6E70398401C0390204610E008
:1040E000DBB2F2B29342A4D219998A4538BF0AF8DA
:1040F000010B0498401E0490EDD469464846FFF732
:104100001DFB012110F1010F93D0C2B2612AA8BF9B
:10411000A0F15703E4DA412AA8BFA0F13703DFDAA0
:10412000303A0A2A34BFA0F13003FF23D8E71060E9
:1041300010E49DF81D20622A3AD0682A11D06A2A1C
:1041400026D06C2A06D0712A2AD0742A19D07A2A4D
:1041500010D036E0019B53F8042B0193002AE6D1DE
:104160007AE0019B53F8042B0193002A74D010804D
:10417000FFF7F0BB019B53F8042B0193002AD6D123
:104180006AE0019B53F8042B0193002ACFD163E02E
:10419000019B53F8042B0193002A7FF4C0AE5BE02F
:1041A000019B53F8042B0193002A7FF4B8AE53E02F
:1041B000019B53F8042B0193002A4DD01070FFF798
:1041C000C9BB019B53F8042B0193002AAFD143E0F4
:1041D000324608A800F07AFD01228DF81E209DF8D5
:1041E0001D20622AE4D0682ABBD06A2A1DD06C2A1E
:1041F00006D0712A21D0742A10D07A2A07D024E060
:10420000019B53F8042B0193002A90D124E0019BD9
:1042100053F8042B0193002A89D11DE0019B53F828
:10422000042B0193002A82D116E0019B53F8042B42
:104230000193002A7FF473AE0EE0019B53F8042B28
:104240000193002A7FF46BAE06E0019B53F8042B28
:104250000193002A7FF46BAF9FA0FEF777FC251A2D
:1042600005E000226946484600F040F80546002D6A
:104270003FF770AB249828B115F1230F02D12046E7
:1042800005E00025B8F1000F58BF454628461BB091
:10429000BDE8F08FCBCCCC0C686A6C747A4C000013
:1042A00063436E5B00000000C9B208E003789942E6
:1042B000A4BF90F802C08C4513DAC01CD21E032A9A
:1042C0000AD343782D2BF1D010F801CB8C4518BFC1
:1042D000521EF4D105E0521E2AB110F8013B8B4268
:1042E000F9D1012070470020704700002DE9F04F00
:1042F00092460027BAF1000F83B080460E464FF079
:10430000000B25D5B068411CB160084601785E29D4
:1043100003BF401CB06010F8019DB946B56828780D
:104320005D280CBF681C28465D21FEF7F7FB0028BE
:1043300000F0A880411B0091B0600098032807DBC3
:10434000821E2D21681CFEF72BFC08B14FF0010BDB
:104350007069002805DCBAF1000F14BF6FF000404F
:1043600001203061307F002801BF706850F8044B95
:104370007060002C08D14FF0FF3402487844001DD3
:1043800011E000BFE0710000307FA8B9F07F98B164
:10439000716851F8040B7160B0F1004FC0F00780F4
:1043A0004FF0FF3444A0FEF7D1FB201A6FE0B16953
:1043B000884288BF0846B061CDF80490CDF808B0B7
:1043C000DDF800901AE0306801220021C0478346E2
:1043D0001BF1010F3ED0BAF1000F1ADD00F08CF88E
:1043E000002837D1307F40B9B06990B304F801BBE1
:1043F0000121B069B177401EB0610227F0683169D0
:10440000401C491E00293161F060DCD54FF0FF3BB4
:1044100020E0E7D50298002801980DD100284A46EF
:104420005946284604D1FEF7BBFB0028DAD111E03B
:10443000FEF7B6FB70B9D5E700284A46594628462C
:1044400004D1FFF731FF0028CCD103E0FFF72CFFA8
:10445000F0E7012740465A463146FFF789F9BAF19D
:10446000000F01D0022F09D0022F0FD0F80702D47D
:104470001BF1010F06D14FF0FF3008E0307F28B963
:10448000B06908B9002002E000202070012003B0CC
:10449000BDE8F08F0000F07FFEFFFF7F7363616E69
:1044A000665F733A2062616420256E2061726775D1
:1044B0006D656E74000000007363616E665F733A31
:1044C000206261642025632C2025732C206F7220CC
:1044D000255B2073697A65007363616E665F733A6A
:1044E0002062616420696E7465676572206172671D
:1044F000756D656E7400000010B50446FEF76AFF26
:1045000001462046096ABDE81040084710B5044638
:10451000FEF760FF014620460969BDE810400847E4
:104520002DE9B04C41EC100B2DED028B43EC182B18
:1045300053EC102B23F00041B1F5801F82B00DD257
:104540000022002908BF0028009216D06A4651ECCC
:10455000100BFEF75DFB41EC100B0EE0DFF86C4436
:10456000DFF8707404EB115000903B40DFF86004FA
:10457000924643EA000B4BEC10AB53EC102B51EC82
:10458000180BFEF737FE41EC100B4800009A400D67
:104590001218C8B1002A17DD40F2FF70824209DB11
:1045A0009FEDA11B53EC112B01F000410B4343EC99
:1045B000102B17E06FF31E5141EA025155EC104BDE
:1045C0000D4645EC104B0DE051EC100B31F0004165
:1045D00008BF002806D0009A51EC100BFEF784FBB0
:1045E00041EC100B02B051EC100BBDEC028BBDE89E
:1045F000B08C0000F8B52DED048B140082B041ECB6
:10460000180B1D4600F0088120F0000231F0004335
:1046100008BF002A00F0008148004015401C02D16C
:10462000090300F0F980002C9FED819B40F19980F7
:1046300064427C4F7F4407F5F67708260CE0E007DC
:1046400007D5D7E9002351EC190BFEF7D3FD41EC58
:10465000190B64080837761E002C18BF002EEED107
:1046600053EC182B23F00041B1F5801F22F000001D
:104670000BD20022002908BF0028009213D06A46FE
:1046800051EC180BFEF7C4FA0BE0DFF8406306EBC1
:1046900011500090DFF83813DFF83803034010465C
:1046A000194341EC180B51EC180B53EC192BFEF786
:1046B0005BFC41EC180B4800009A400D1218C8B181
:1046C000002A17DD40F2FF70824209DB9FED560B96
:1046D00053EC102B01F000410B4343EC182B17E077
:1046E0006FF31E5141EA025157EC186B0F4647EC2D
:1046F000186B0DE051EC180B31F0004108BF002899
:1047000006D0009A51EC180BFEF7EEFA41EC180BAC
:1047100051EC180B20F0000231F0004308BF002AD2
:1047200064D048004015401C01D109035ED0002C24
:104730005CD0A94AA94B51EC180BFFF7F1FE20F011
:10474000000231F0004308BF002A41EC180B4DD0A5
:1047500048004015401C01D1090347D0641EE8D130
:1047600044E043DD2F4F7F44BA370826E00707D5E2
:10477000D7E9002351EC190BFEF73CFD41EC190B76
:1047800064100837761E002C01DD002EEED153ECAC
:10479000192B51EC180BFFF7C3FE20F0000231F08B
:1047A000004308BF002A41EC180B1FD048004015F9
:1047B000401C01D1090319D0002C17DD884A914B08
:1047C00051EC180BFFF7ACFE20F0000231F0004373
:1047D00008BF002A41EC180B08D048004015401CC7
:1047E00001D1090302D0641E002CE7DC51EC180B48
:1047F00020F0000231F0004308BF002A05D0480035
:104800004015401C08D1090306D1AFF300801DB14B
:10481000286840F00100286002B051EC180BBDEC94
:10482000048BF4BD1C6C0000000000000000F07F51
:10483000000000000000F03F2DE9F14D81B05FEA7B
:1048400003082DED028B84B01CBF0020C8F80000C7
:10485000079D0C46934607A800F03BFAC11020F0D4
:104860000800012801F0010A30D10220009001ABBC
:1048700007992246284600F0BDFA040008BF9FEDC4
:10488000620B1ED00298FEF7EBFA022C41EC100BE3
:1048900017DB03AF661E9FED538B51EC100B53ECEF
:1048A000182BFEF7A7FC044657F8040B0D46FEF73D
:1048B000D7FA22462B46FEF71BFE761E41EC100B64
:1048C000EBD10198434600EB0B025DE0022862D178
:1048D000009001AB07992246284600F067FB0400D0
:1048E00008BF9FED490B1ED00298FEF7B9FA022CC3
:1048F00041EC100B17DB03AF661E9FED3C8B51ECB8
:10490000100B53EC182BFEF775FC044657F8040BFC
:104910000D46FEF7A5FA22462B46FEF7E9FD761E68
:1049200041EC100BEBD151EC100B019A4800400DFB
:1049300002EB000319D0002B17DD40F2FF70834219
:1049400009DB9FED2C1B53EC112B01F000410B43B5
:1049500043EC102B16E06FF31E5141EA035155EC66
:10496000104B0D4645EC104B0CE051EC100B31F0A8
:10497000004108BF002805D051EC100BFEF7B4F938
:1049800041EC100B43465A4651EC100BFFF732FE38
:1049900041EC100B0AE0032808BF9FED160B05D071
:1049A00004280CBF9FED150B9FED170BBAF1000FFC
:1049B00005D051EC100B81F0004141EC100B04B01C
:1049C00051EC100BBDEC028BBDE8FC8D02FCFFFF2F
:1049D0000000E03FFFFF0F80436FAC642806C80A69
:1049E0003CBF737F0000000065CDCD41000000009A
:1049F0000000B041000000000000F07FFFFFFFFF5B
:104A0000FFFFFF7FDD4F1575000000000000000074
:104A100001F000428B1AA3F16051B1F5801F0ADB4F
:104A2000B1F17F6F1FD242EAC102C10071F10041B2
:104A300042EB507070470B15C3F10903212B10D2C4
:104A4000890241EA905180020128494141F0004128
:104A500021FA03F0C3F12003994071F10041504164
:104A60007047100070476FF0000013EB103F5CBF01
:104A7000000E42EAC05070472DE9FC4F85B00C464D
:104A800093460BB100221A600290824601E00AF1BF
:104A9000010A9AF80000FFF72FFD0028F7D19AF8D5
:104AA00000002D2818BF2B2807BF1AF8010B8DF81E
:104AB00000002B218DF80010BBF1000F019405D4EC
:104AC000BBF1010F02D0BBF1250F04DB002C71D02C
:104AD000029820606EE0BBF1000F0DDDBBF1100FFE
:104AE00004BF9AF80000302802BF9AF8010040F095
:104AF0002000782814D10EE09AF80000302818BF62
:104B00004FF00A0B0CD19AF8010040F020007828F1
:104B100004D14FF0100B0AF1020A01E04FF0080B2C
:104B2000CDF810A001E00AF1010A9AF8000030283F
:104B3000F9D0094878442030002428300025002688
:104B40000027CDF80CA0A0468DF80100DFF80890F2
:104B5000F94409F1040918E0046800009DF8011007
:104B6000401A5FFA80F85846A0FB06234FEAEB7123
:104B700000FB073301FB0633344600213D4612EBB0
:104B8000080643EB01070AF1010A9AF8000000F059
:104B900011FB01465A4609F12800FEF701F80028EA
:104BA000DCD1049951455A4607D1019810B10199B9
:104BB000029808600020002130E0039919F80200F3
:104BC000AAEB0101081A00281BD410DC0023B6EB65
:104BD000080067EB03018F4209D301D8864206D350
:104BE000D317FEF7FFFBA94208BFA04209D0AFF3DD
:104BF0000080069808B1012101604FF0FF3637466A
:104C000006E09DF800002D2802D1764267EB4707A9
:104C1000019808B1C0F800A03046394607B0BDE899
:104C2000F08F000000BF002326E700002DE9F843C5
:104C30000D00804691461E4608BF6D46444600E082
:104C4000641C2078FFF758FC0028F9D127782D2F15
:104C500018BF2B2F05D114F8010FFFF74DFC50B9E9
:104C600000E02B2733464A4629462046FFF704FF3B
:104C70002A68944205D1C5F8008000200021BDE8D3
:104C8000F4832B2F05D14FF00043994209D2BDE8A0
:104C9000F4832D2FFBD1B1F1004F12D301D801289D
:104CA0000FD3AFF300800EB1012030602D2F19BF5C
:104CB0004FF0FF306FF0004100204FF00041BDE8A1
:104CC000F483404261EB4101BDE8F48300BF00235F
:104CD000ACE72DE9F84305460C462E68002700E0B6
:104CE000761C3078FFF708FC0028F9D130782D28A1
:104CF0000CBF08272B2800D1761C307840F020010B
:104D00006E2927D1707840F02000612802BFB0786A
:104D100040F020006E2802D02E68002746E0F61CE6
:104D2000B046042798F8000028283FD118F8019FC2
:104D30004846FFF7EBFB0028F8D1A9F130000A281C
:104D4000F4D398F800005F28F0D029282ED108F17C
:104D500001062BE069292CD1707840F020006E28E4
:104D600002BFB07840F02000662802D02E680027ED
:104D70001CE016F8030F40F02000692802BF70788D
:104D800040F020006E2847F003070FD1B07840F0C4
:104D90002000692802BFF07840F02000742805D177
:104DA000307940F02000792808BF761DF4B12660E4
:104DB0001CE0302802BF707840F02000782813D122
:104DC000B01C01782E2908BF401C0078A0F16101B9
:104DD000062921BFA0F14102062A30380A2803D251
:104DE000B61C47F0020701E047F001072E60384685
:104DF000BDE8F2832DE9F14F8CB04FF00008169D0D
:104E0000C34605EBC5052D2DC3F800B09246C8BFBB
:104E10002D25C3F804B0D94602E0491C4FF0010922
:104E200008783028F9D0002411E01868401C186078
:104E30000A78302A08D04FF0010805E0AC42F4DAD5
:104E400030380DF80400641C491C4FF00109087843
:104E5000A0F130020A2AF1D30F461E46FEF7BCFA33
:104E6000406A39780278914208BF7F1C002C48467E
:104E70000ED1397830290BD13068401E30607F1C4C
:104E80000120F6E7302918BF4FF001087F1C0120F0
:104E90003978A1F130020A2A0AD2AC42F2DAA1F141
:104EA00030000DF80400641C3268521E3260EDE7D9
:104EB000B8F1000F0DD00DF1FF314A5D521C4A557B
:104EC00007E00DF1FF32115D49B93268521C3260C2
:104ED000641E002CF5DC04BF8DF800B0012400280E
:104EE00057D04FF0090994FBF9F9C4F1090309EB14
:104EF000C9010B44092193FBF1F1002201EBC1012F
:104F0000591A1AD04FF0010B17E056F82B1001EB8D
:104F1000810105EB410146F82B100CE0092193FBC0
:104F2000F1F101EBC1011DF80250591AEDD10BF15D
:104F3000010B46F82B505B1C521CA242EEDB397869
:104F400041F02001652924D1394617F8012F164D6B
:104F50002B2A16BF2D2A17F8014B2B2400220023E1
:104F600008E0AB4204DA03EB83020CEB4203303B74
:104F70007F1C012297F800C0ACF1300EBEF10A0F81
:104F8000EFD32D2C346808BF5B421B19336002B984
:104F90000F46BAF1000F03D000B90C9FCAF8007099
:104FA00058460DB0BDE8F08F00E1F5052DE9F14F51
:104FB0008CB04FF0000ADDF85880C3F800A0C8EBB1
:104FC000C808B8F1230FC8BF4FF023089146C3F8B3
:104FD00004A0002701E0491C012708783028FAD0F6
:104FE00068A201925FF000046CA200920DF1080B20
:104FF0000D461E460EE03068401C306008E0A045BB
:10500000F9DB019A0099801A085C0BF80400641C13
:105010006D1C012795F800105AA01622FDF7C0FD5F
:105020000028ECD1FEF7D8F9406A2978027891423D
:1050300008BF6D1CB4B92878302813D13168491ED7
:1050400031606D1C0127F6E7A04509DB019A009944
:10505000801A085C0BF80400641C3168491E31603A
:105060006D1C01272978162246A0FDF799FD00281E
:10507000EAD1A04517DA1BF80810072906DD0DF163
:10508000070111F80820521C01F808204446326834
:10509000521C326007E00DF10702115D49B9326818
:1050A000521C3260641E002CF5DC04BF8DF808A091
:1050B000012431688900002F316055D04FF0070C72
:1050C00094FBFCFCC4F10703CCEBCC0C634407213C
:1050D00093FBF1F10022C1EBC101591A18D04FF036
:1050E000010A15E056F82A100CEB011046F82A00C8
:1050F0000CE0072193FBF1F1C1EBC1011BF802C0E9
:10510000591AEFD10AF1010A46F82AC05B1C521C59
:10511000A242EEDB297841F02001702924D12946F2
:1051200015F8012F16482B2A16BF2D2A15F8014B0A
:105130002B240022002308E0834204DA03EB8302DD
:105140000CEB4203303B6D1C012295F800C0ACF122
:10515000300EBEF10A0FEFD32D2C346808BF5B422E
:105160001B19336002B90D46B9F1000F03D007B91E
:105170000C9DC9F8005050460DB0BDE8F08F0000FE
:1051800000E1F50530313233343536373839616274
:1051900063646566414243444546000000010203E2
:1051A0000405060708090A0B0C0D0E0F0A0B0C0D5F
:1051B0000E0F000010B50446FEF70CF9014620461C
:1051C000896ABDE8104008472DE9F84386B000F031
:1051D0007FFE00F03EFD1421684600F093FE0020A3
:1051E0000590DFF81C4BDFF81C0BDFF81C7B016817
:1051F000DFF8185BDFF8186B41F00401016002680A
:1052000002F004020592002205990592036843F01A
:1052100080030360016801F0800100F0EEF943F0C3
:1052200001030360016801F0010100F0E6F943F0B9
:1052300010030360016801F0100100F0DEF943F093
:1052400002030360016801F00201059105990592CE
:105250001021036843F008030360006800F00800B1
:1052600005900598204600F037FF00224FF4F061CA
:10527000384600F031FF01220121384600F02CFFB2
:1052800001224FF48061284600F026FF0022F02121
:10529000304600F021FF102100F0A7F9204600F071
:1052A00035FE40F2817100F0A0F9384600F02EFE84
:1052B0004FF4406000F094F900F08EF94FF4107054
:1052C00000904FF48817019700210291284600F0C2
:1052D00084F94FF4807000F083F9204600F07DF9E6
:1052E0004FF4104000904FF40411019100220292FB
:1052F0006946204600F00AFE4FF4806100F075F91F
:10530000284600F003FE4FF4C05000F069F928462B
:1053100000F063F90921009101970021029100F04A
:105320005BF9F02100F061F9304600F0EFFD4FF439
:10533000407000F055F96946DFF8D809DFF8D84920
:10534000DFF8D86900F0E2FD00220221172000F00A
:105350000BFF172000F025FF00220021282000F07D
:1053600003FF282000F01DFFDFF8B4092066666601
:105370000020A066E0664FF4804727676067A0675B
:10538000E067C4F8800004F1600000F01FFF08B17E
:1053900000F0F0FC04F1B405DFF888092860002172
:1053A0006E60A960E9602F616961A961E9612962A4
:1053B000284600F00BFF08B100F0DCFCDFF86809BC
:1053C000A0604FF48271E160002020610021A061A3
:1053D0006161E1616162A162E16221634FF4007089
:1053E00020620A21616304F1080001F063FD08B145
:1053F00000F0C0FCDFF83469DFF83409B0620C213A
:10540000002030637063B063306470644FF4E1393E
:10541000F163C6F82C9006F1280001F0E1FF08B115
:1054200000F0A8FCDFF80C79DFF80C097860C7F809
:1054300008900021F960396179610C20B861F96147
:105440003962381D01F0CCFF08B100F093FCDFF8A1
:10545000EC08DFF8EC18016000220C218260C260C9
:10546000026141618261C261C0F8049001F0B8FF3D
:1054700008B100F07FFCFCF731FB0A2002F01EFBB4
:1054800004F586790FF24C18002241464846FBF796
:1054900024FF3070012204F58471381D02F033F8C6
:1054A0004FF400728021284602F01CFB08B1002056
:1054B000A0704FF400728021284602F03EFB08B134
:1054C0000020A0704022294606F1700002F05FFC27
:1054D0000122032106F1700002F060FC0122032189
:1054E00006F1700002F06FFC04F1600002F09EFC17
:1054F00000250A2068430A30A0800222A0882146A5
:1055000002F0F1FC2078617841EA002106F1080000
:1055100020F815100A2002F0D1FAA088801CA08083
:105520000222214680B202F0DEFC2078617841EA56
:10553000002106EB45006D1C01830A2002F0BEFA33
:10554000082DD6DBB01D711D321D02900191009215
:1055500006F16C03F21CB11C701C02F06DFC42F2EF
:1055600074102718F178B07803910290717830792F
:10557000B27901910090DFF8CC57737902F5FA62A5
:105580002946384602F0C8FC012241464846FBF74E
:10559000A4FE0100317018BF0FF2DC7015D141F28A
:1055A000441004440B2239462046FBF7C2FE3070FB
:1055B00040B9214605F12400FCF7C1F92046FCF76B
:1055C000E7F804E001460FF2C47002F0C5FC07B032
:1055D000BDE8F083000000003046694600F096BC4C
:1055E0000021009001910291704700910122002159
:1055F00002910391019269467047059105990592C0
:10560000036870472DE9F84F2DED068B9EB00027FB
:105610004FF00A08DFF8304704EB470508FB07F6B0
:10562000A88A60B16070010A21700020A88206F18A
:105630000A0363820222608A214602F039FCA88CA8
:1056400058B1E070010AA1700020A8840C3666826F
:105650000222608AA11C02F02BFC7F1C082FDBDBDE
:10566000A07ADFF8C85660B1A91D681D2A1D0291F5
:105670000190009205F16C03EA1CA91C681C02F061
:10568000DBFBA07938B105F1700002F085FBE07218
:10569000207902F018FB607A28B104F1780104F156
:1056A000740002F087FC6079DFF8A096002800F013
:1056B0005D8100F02BFA00F02DFADFF8787600F02B
:1056C0002CFA0FF2E46100F022FA00F023FA00F065
:1056D00024FAA07AA0B1A87969796B780490039133
:1056E00009F138022879E978029001916421A878BB
:1056F000009005A802F0B0FC00F00CFA642307E06B
:1057000009F15C0100F003FA00F004FA4FF0FF33F6
:1057100082B200F005FAA079002800F0E680E07A75
:1057200010F008002073BFEE00AA4FF6FF7A9FED3D
:10573000DF8B9FEDE09B2AD194ED0D0A00F0D6F9A6
:1057400053EC192BFDF756FD00F0CCF9DFF80026DD
:10575000DFF80036FDF7CCFEFFF75AF900EE100A2D
:1057600084ED0D0A288950451CBF298B514503D073
:1057700000F0ADF984ED0D0A606B02F08FFC02467B
:105780000B460FF2386105A802F0C6FB06E084ED77
:105790000DAA05A80FF2406102F0BEFB00F0BAF9B5
:1057A00000F0BBF9E07A10F0040020732AD194EDE8
:1057B0000E0A00F09BF953EC192BFDF71BFD00F0CE
:1057C00091F9DFF89425DFF89435FDF791FEFFF7A6
:1057D0001FF900EE100A84ED0E0A688950451CBFBF
:1057E000698B514503D000F072F984ED0E0AA06B6D
:1057F00002F054FC02460B460FF2F85105A802F0E5
:105800008BFB06E084ED0EAA05A80FF2046102F0FE
:1058100083FB00F07FF900F080F902260FF20C6B99
:105820009FEDB68B04EB8608DFEDB70A98ED0D0A05
:1058300000F05EF900F056F9FFF7EAF800EE100A02
:1058400005EB460088ED0D0A018951451CBF008B10
:10585000504506D000F032F9002002F043FC88EDFC
:105860000D0AD8F8340002F019FCCDE900013246E7
:10587000594605A802F050FB00F04CF900F04DF934
:10588000761C042ECEDB4FF004080FF2BC5604EB5E
:10589000880BDFED9C0A9BED0D0A80EE200A05EBDC
:1058A00048008BED0D0A018951451CBF008B504506
:1058B00006D000F003F9022002F014FC8BED0D0A73
:1058C000DBF8340002F0EAFBCDE900014246314644
:1058D00005A802F021FB00F01DF900F01EF908F107
:1058E0000108B8F1080FD2DB07E00FF2785100F0A1
:1058F0000EF900F00FF900F010F9207A38B90FF224
:105900007C5100F004F900F005F900F006F9E079A7
:1059100038B90FF2845100F0FAF800F0FBF800F00B
:10592000FCF8607A78B1A06F02F0B8FBCDE9000115
:10593000606F02F0B3FB02460B4609F1800105A837
:1059400002F0EAFA03E009F1B00100F0E0F800F03B
:10595000E1F800F0E2F800F0D9F800F0DBF800F030
:10596000DCF81021DFF8A80300F0BAFB607B052803
:1059700040F09080E878A9781B901A9104F1800695
:1059800068782979199018919FEDA28B6879A97987
:10599000179001F5FA611691A06F02F07FFBCDE937
:1059A0001401606F02F07AFBCDE91201206EE16D07
:1059B00011901091A06D616D0F900E91206D02F00D
:1059C0006DFBCDE90C01E06C02F068FBCDE90A014A
:1059D000A06C02F063FBCDE90801606C02F05EFB95
:1059E000CDE90601206C02F059FBCDE90401E06B22
:1059F00002F054FBCDE90201A06B02F04FFBCDE9B0
:105A00000001606B02F04AFB02460B4609F1D80127
:105A1000304602F081FA3046FDF7B8F882B24FF016
:105A2000FF333146C54801F016FD3046FDF7AEF8AC
:105A300082B24FF0FF33314605F1280001F00BFD33
:105A40000020607304F1640204F16801ABA0FBF76D
:105A5000C6FE2870606E4589C069801E6843FDF7E8
:105A6000BBFB53EC182BFDF7C5FBFDF7A1FBE06674
:105A7000A06E6843FDF7B0FB53EC182BFDF7BAFBA3
:105A8000FDF796FB2067E067208A401C2082E089B2
:105A9000401CE081607B401C60734FF47A7002F020
:105AA0000DF81EB0BDEC068BBDE8F18F00000000C4
:105AB000000004C0000000000000044000EE900A56
:105AC000B8EE601A00EE901AF8EE600A704700EE29
:105AD000901AB8EE601A00EE900AF8EE600A012003
